{
  "contractName": "ActivateToken",
  "abi": [
    {
      "anonymous": false,
      "inputs": [
        {
          "indexed": true,
          "internalType": "address",
          "name": "owner",
          "type": "address"
        },
        {
          "indexed": true,
          "internalType": "address",
          "name": "approved",
          "type": "address"
        },
        {
          "indexed": true,
          "internalType": "uint256",
          "name": "tokenId",
          "type": "uint256"
        }
      ],
      "name": "Approval",
      "type": "event"
    },
    {
      "anonymous": false,
      "inputs": [
        {
          "indexed": true,
          "internalType": "address",
          "name": "owner",
          "type": "address"
        },
        {
          "indexed": true,
          "internalType": "address",
          "name": "operator",
          "type": "address"
        },
        {
          "indexed": false,
          "internalType": "bool",
          "name": "approved",
          "type": "bool"
        }
      ],
      "name": "ApprovalForAll",
      "type": "event"
    },
    {
      "anonymous": false,
      "inputs": [
        {
          "indexed": true,
          "internalType": "address",
          "name": "previousOwner",
          "type": "address"
        },
        {
          "indexed": true,
          "internalType": "address",
          "name": "newOwner",
          "type": "address"
        }
      ],
      "name": "OwnershipTransferred",
      "type": "event"
    },
    {
      "anonymous": false,
      "inputs": [
        {
          "indexed": true,
          "internalType": "address",
          "name": "from",
          "type": "address"
        },
        {
          "indexed": true,
          "internalType": "address",
          "name": "to",
          "type": "address"
        },
        {
          "indexed": true,
          "internalType": "uint256",
          "name": "tokenId",
          "type": "uint256"
        }
      ],
      "name": "Transfer",
      "type": "event"
    },
    {
      "inputs": [
        {
          "internalType": "address",
          "name": "to",
          "type": "address"
        },
        {
          "internalType": "uint256",
          "name": "tokenId",
          "type": "uint256"
        }
      ],
      "name": "approve",
      "outputs": [],
      "stateMutability": "nonpayable",
      "type": "function"
    },
    {
      "inputs": [
        {
          "internalType": "address",
          "name": "owner",
          "type": "address"
        }
      ],
      "name": "balanceOf",
      "outputs": [
        {
          "internalType": "uint256",
          "name": "",
          "type": "uint256"
        }
      ],
      "stateMutability": "view",
      "type": "function"
    },
    {
      "inputs": [
        {
          "internalType": "uint256",
          "name": "tokenId",
          "type": "uint256"
        }
      ],
      "name": "getApproved",
      "outputs": [
        {
          "internalType": "address",
          "name": "",
          "type": "address"
        }
      ],
      "stateMutability": "view",
      "type": "function"
    },
    {
      "inputs": [
        {
          "internalType": "address",
          "name": "owner",
          "type": "address"
        },
        {
          "internalType": "address",
          "name": "operator",
          "type": "address"
        }
      ],
      "name": "isApprovedForAll",
      "outputs": [
        {
          "internalType": "bool",
          "name": "",
          "type": "bool"
        }
      ],
      "stateMutability": "view",
      "type": "function"
    },
    {
      "inputs": [],
      "name": "name",
      "outputs": [
        {
          "internalType": "string",
          "name": "",
          "type": "string"
        }
      ],
      "stateMutability": "view",
      "type": "function"
    },
    {
      "inputs": [],
      "name": "owner",
      "outputs": [
        {
          "internalType": "address",
          "name": "",
          "type": "address"
        }
      ],
      "stateMutability": "view",
      "type": "function"
    },
    {
      "inputs": [
        {
          "internalType": "uint256",
          "name": "tokenId",
          "type": "uint256"
        }
      ],
      "name": "ownerOf",
      "outputs": [
        {
          "internalType": "address",
          "name": "",
          "type": "address"
        }
      ],
      "stateMutability": "view",
      "type": "function"
    },
    {
      "inputs": [],
      "name": "renounceOwnership",
      "outputs": [],
      "stateMutability": "nonpayable",
      "type": "function"
    },
    {
      "inputs": [
        {
          "internalType": "address",
          "name": "from",
          "type": "address"
        },
        {
          "internalType": "address",
          "name": "to",
          "type": "address"
        },
        {
          "internalType": "uint256",
          "name": "tokenId",
          "type": "uint256"
        }
      ],
      "name": "safeTransferFrom",
      "outputs": [],
      "stateMutability": "nonpayable",
      "type": "function"
    },
    {
      "inputs": [
        {
          "internalType": "address",
          "name": "from",
          "type": "address"
        },
        {
          "internalType": "address",
          "name": "to",
          "type": "address"
        },
        {
          "internalType": "uint256",
          "name": "tokenId",
          "type": "uint256"
        },
        {
          "internalType": "bytes",
          "name": "_data",
          "type": "bytes"
        }
      ],
      "name": "safeTransferFrom",
      "outputs": [],
      "stateMutability": "nonpayable",
      "type": "function"
    },
    {
      "inputs": [
        {
          "internalType": "address",
          "name": "operator",
          "type": "address"
        },
        {
          "internalType": "bool",
          "name": "approved",
          "type": "bool"
        }
      ],
      "name": "setApprovalForAll",
      "outputs": [],
      "stateMutability": "nonpayable",
      "type": "function"
    },
    {
      "inputs": [],
      "name": "symbol",
      "outputs": [
        {
          "internalType": "string",
          "name": "",
          "type": "string"
        }
      ],
      "stateMutability": "view",
      "type": "function"
    },
    {
      "inputs": [
        {
          "internalType": "uint256",
          "name": "index",
          "type": "uint256"
        }
      ],
      "name": "tokenByIndex",
      "outputs": [
        {
          "internalType": "uint256",
          "name": "",
          "type": "uint256"
        }
      ],
      "stateMutability": "view",
      "type": "function"
    },
    {
      "inputs": [
        {
          "internalType": "address",
          "name": "owner",
          "type": "address"
        },
        {
          "internalType": "uint256",
          "name": "index",
          "type": "uint256"
        }
      ],
      "name": "tokenOfOwnerByIndex",
      "outputs": [
        {
          "internalType": "uint256",
          "name": "",
          "type": "uint256"
        }
      ],
      "stateMutability": "view",
      "type": "function"
    },
    {
      "inputs": [
        {
          "internalType": "uint256",
          "name": "tokenId",
          "type": "uint256"
        }
      ],
      "name": "tokenURI",
      "outputs": [
        {
          "internalType": "string",
          "name": "",
          "type": "string"
        }
      ],
      "stateMutability": "view",
      "type": "function"
    },
    {
      "inputs": [],
      "name": "totalSupply",
      "outputs": [
        {
          "internalType": "uint256",
          "name": "",
          "type": "uint256"
        }
      ],
      "stateMutability": "view",
      "type": "function"
    },
    {
      "inputs": [
        {
          "internalType": "address",
          "name": "from",
          "type": "address"
        },
        {
          "internalType": "address",
          "name": "to",
          "type": "address"
        },
        {
          "internalType": "uint256",
          "name": "tokenId",
          "type": "uint256"
        }
      ],
      "name": "transferFrom",
      "outputs": [],
      "stateMutability": "nonpayable",
      "type": "function"
    },
    {
      "inputs": [
        {
          "internalType": "address",
          "name": "newOwner",
          "type": "address"
        }
      ],
      "name": "transferOwnership",
      "outputs": [],
      "stateMutability": "nonpayable",
      "type": "function"
    },
    {
      "inputs": [
        {
          "internalType": "address",
          "name": "commonContractAddr",
          "type": "address"
        },
        {
          "internalType": "address",
          "name": "entityContractAddr",
          "type": "address"
        }
      ],
      "name": "initialize",
      "outputs": [],
      "stateMutability": "nonpayable",
      "type": "function"
    },
    {
      "inputs": [
        {
          "internalType": "address",
          "name": "activateAddress",
          "type": "address"
        },
        {
          "internalType": "address",
          "name": "creatorAddress",
          "type": "address"
        }
      ],
      "name": "restrictToken",
      "outputs": [],
      "stateMutability": "nonpayable",
      "type": "function"
    },
    {
      "inputs": [
        {
          "internalType": "uint256",
          "name": "tokenId",
          "type": "uint256"
        }
      ],
      "name": "burn",
      "outputs": [],
      "stateMutability": "nonpayable",
      "type": "function"
    },
    {
      "inputs": [
        {
          "internalType": "address",
          "name": "sender",
          "type": "address"
        },
        {
          "internalType": "uint256",
          "name": "entityIndex",
          "type": "uint256"
        },
        {
          "internalType": "uint256",
          "name": "productIndex",
          "type": "uint256"
        },
        {
          "internalType": "uint256",
          "name": "licenseHash",
          "type": "uint256"
        },
        {
          "internalType": "uint256",
          "name": "licenseValue",
          "type": "uint256"
        },
        {
          "internalType": "uint256",
          "name": "ricardianParent",
          "type": "uint256"
        }
      ],
      "name": "mint",
      "outputs": [
        {
          "internalType": "uint256",
          "name": "",
          "type": "uint256"
        }
      ],
      "stateMutability": "nonpayable",
      "type": "function"
    },
    {
      "inputs": [
        {
          "internalType": "address",
          "name": "newOwner",
          "type": "address"
        }
      ],
      "name": "activateOwner",
      "outputs": [],
      "stateMutability": "nonpayable",
      "type": "function"
    },
    {
      "inputs": [
        {
          "internalType": "uint256",
          "name": "tokenId",
          "type": "uint256"
        },
        {
          "internalType": "uint256",
          "name": "newHash",
          "type": "uint256"
        },
        {
          "internalType": "uint256",
          "name": "oldHash",
          "type": "uint256"
        }
      ],
      "name": "activateTokenMoveHash",
      "outputs": [],
      "stateMutability": "nonpayable",
      "type": "function"
    },
    {
      "inputs": [
        {
          "internalType": "uint256",
          "name": "licenseHash",
          "type": "uint256"
        }
      ],
      "name": "activateIdToTokenId",
      "outputs": [
        {
          "internalType": "uint256",
          "name": "",
          "type": "uint256"
        }
      ],
      "stateMutability": "view",
      "type": "function"
    },
    {
      "inputs": [
        {
          "internalType": "uint256",
          "name": "tokenId",
          "type": "uint256"
        }
      ],
      "name": "tokenIdToActivateId",
      "outputs": [
        {
          "internalType": "uint256",
          "name": "",
          "type": "uint256"
        }
      ],
      "stateMutability": "view",
      "type": "function"
    },
    {
      "inputs": [
        {
          "internalType": "uint256",
          "name": "entityIndex",
          "type": "uint256"
        },
        {
          "internalType": "uint256",
          "name": "productIndex",
          "type": "uint256"
        },
        {
          "internalType": "uint256",
          "name": "licenseHash",
          "type": "uint256"
        }
      ],
      "name": "activateStatus",
      "outputs": [
        {
          "internalType": "uint256",
          "name": "value",
          "type": "uint256"
        },
        {
          "internalType": "uint256",
          "name": "price",
          "type": "uint256"
        }
      ],
      "stateMutability": "view",
      "type": "function"
    },
    {
      "inputs": [
        {
          "internalType": "address",
          "name": "entityAddress",
          "type": "address"
        }
      ],
      "name": "activateAllDetailsForAddress",
      "outputs": [
        {
          "internalType": "uint256[]",
          "name": "entities",
          "type": "uint256[]"
        },
        {
          "internalType": "uint256[]",
          "name": "products",
          "type": "uint256[]"
        },
        {
          "internalType": "uint256[]",
          "name": "hashes",
          "type": "uint256[]"
        },
        {
          "internalType": "uint256[]",
          "name": "values",
          "type": "uint256[]"
        },
        {
          "internalType": "uint256[]",
          "name": "prices",
          "type": "uint256[]"
        }
      ],
      "stateMutability": "view",
      "type": "function"
    },
    {
      "inputs": [
        {
          "internalType": "uint256",
          "name": "entityIndex",
          "type": "uint256"
        }
      ],
      "name": "activateAllDetails",
      "outputs": [
        {
          "internalType": "uint256[]",
          "name": "entities",
          "type": "uint256[]"
        },
        {
          "internalType": "uint256[]",
          "name": "products",
          "type": "uint256[]"
        },
        {
          "internalType": "uint256[]",
          "name": "hashes",
          "type": "uint256[]"
        },
        {
          "internalType": "uint256[]",
          "name": "values",
          "type": "uint256[]"
        },
        {
          "internalType": "uint256[]",
          "name": "prices",
          "type": "uint256[]"
        }
      ],
      "stateMutability": "view",
      "type": "function"
    },
    {
      "inputs": [],
      "name": "activateAllForSaleTokenDetails",
      "outputs": [
        {
          "internalType": "uint256[]",
          "name": "entities",
          "type": "uint256[]"
        },
        {
          "internalType": "uint256[]",
          "name": "products",
          "type": "uint256[]"
        },
        {
          "internalType": "uint256[]",
          "name": "hashes",
          "type": "uint256[]"
        },
        {
          "internalType": "uint256[]",
          "name": "values",
          "type": "uint256[]"
        },
        {
          "internalType": "uint256[]",
          "name": "prices",
          "type": "uint256[]"
        }
      ],
      "stateMutability": "view",
      "type": "function"
    },
    {
      "inputs": [
        {
          "internalType": "bytes4",
          "name": "interfaceId",
          "type": "bytes4"
        }
      ],
      "name": "supportsInterface",
      "outputs": [
        {
          "internalType": "bool",
          "name": "",
          "type": "bool"
        }
      ],
      "stateMutability": "view",
      "type": "function"
    }
  ],
  "bytecode": "0x608060405234801561001057600080fd5b506147a5806100206000396000f3fe608060405234801561001057600080fd5b50600436106101e55760003560e01c806375250a2f1161010f578063c87b56dd116100a2578063e985e9c511610071578063e985e9c51461042c578063f2fde38b14610468578063f75b50c01461047b578063f8f315661461048e57600080fd5b8063c87b56dd146103eb578063d6634f1a146103fe578063dd03990414610406578063dfc8fff61461041957600080fd5b80639187f65e116100de5780639187f65e146103aa57806395d89b41146103bd578063a22cb465146103c5578063b88d4fde146103d857600080fd5b806375250a2f1461034157806378563f5a146103655780637b79da12146103785780638da5cb5b1461039957600080fd5b80632f745c59116101875780634f6ccce7116101565780634f6ccce7146103005780636352211e1461031357806370a0823114610326578063715018a61461033957600080fd5b80632f745c59146102b457806342842e0e146102c757806342966c68146102da578063485cc955146102ed57600080fd5b8063095ea7b3116101c3578063095ea7b31461025257806318160ddd146102675780631da7d8641461027957806323b872dd146102a157600080fd5b806301ffc9a7146101ea57806306fdde0314610212578063081812fc14610227575b600080fd5b6101fd6101f8366004614111565b6104af565b60405190151581526020015b60405180910390f35b61021a6104c0565b6040516102099190614186565b61023a610235366004614199565b610552565b6040516001600160a01b039091168152602001610209565b6102656102603660046141c7565b6105fd565b005b60cb545b604051908152602001610209565b61028c6102873660046141f3565b61072f565b60408051928352602083019190915201610209565b6102656102af36600461421f565b610c57565b61026b6102c23660046141c7565b610cdf565b6102656102d536600461421f565b610d87565b6102656102e8366004614199565b610da2565b6102656102fb366004614260565b610df8565b61026b61030e366004614199565b610fc6565b61023a610321366004614199565b61106a565b61026b610334366004614299565b6110f5565b61026561118f565b61035461034f366004614299565b6111f5565b6040516102099594939291906142f1565b610354610373366004614199565b611835565b61026b610386366004614199565b600090815261012e602052604090205490565b6033546001600160a01b031661023a565b6102656103b8366004614299565b6118dd565b61021a611915565b6102656103d3366004614352565b611924565b6102656103e63660046143f4565b61192f565b61021a6103f9366004614199565b6119bd565b610354611ab3565b6102656104143660046141f3565b61222d565b61026b6104273660046144a3565b6122cb565b6101fd61043a366004614260565b6001600160a01b039182166000908152609c6020908152604080832093909416825291909152205460ff1690565b610265610476366004614299565b612be5565b610265610489366004614260565b612cc7565b61026b61049c366004614199565b600090815261012d602052604090205490565b60006104ba82612d5e565b92915050565b6060609780546104cf906144ef565b80601f01602080910402602001604051908101604052809291908181526020018280546104fb906144ef565b80156105485780601f1061051d57610100808354040283529160200191610548565b820191906000526020600020905b81548152906001019060200180831161052b57829003601f168201915b5050505050905090565b6000818152609960205260408120546001600160a01b03166105e15760405162461bcd60e51b815260206004820152602c60248201527f4552433732313a20617070726f76656420717565727920666f72206e6f6e657860448201527f697374656e7420746f6b656e000000000000000000000000000000000000000060648201526084015b60405180910390fd5b506000908152609b60205260409020546001600160a01b031690565b60006106088261106a565b9050806001600160a01b0316836001600160a01b031614156106925760405162461bcd60e51b815260206004820152602160248201527f4552433732313a20617070726f76616c20746f2063757272656e74206f776e6560448201527f720000000000000000000000000000000000000000000000000000000000000060648201526084016105d8565b336001600160a01b03821614806106ae57506106ae813361043a565b6107205760405162461bcd60e51b815260206004820152603860248201527f4552433732313a20617070726f76652063616c6c6572206973206e6f74206f7760448201527f6e6572206e6f7220617070726f76656420666f7220616c6c000000000000000060648201526084016105d8565b61072a8383612db4565b505050565b6000806000851161013460009054906101000a90046001600160a01b03166001600160a01b031663498ed7706040518163ffffffff1660e01b8152600401600060405180830381865afa15801561078a573d6000803e3d6000fd5b505050506040513d6000823e601f3d908101601f191682016040526107b2919081019061452a565b906107d05760405162461bcd60e51b81526004016105d89190614186565b50600083815261012d60205260409020548015610a6b5761013460009054906101000a90046001600160a01b03166001600160a01b03166310871b7c6040518163ffffffff1660e01b8152600401602060405180830381865afa15801561083b573d6000803e3d6000fd5b505050506040513d601f19601f8201168201806040525081019061085f91906145a1565b61013460009054906101000a90046001600160a01b03166001600160a01b031663d09ab7476040518163ffffffff1660e01b8152600401602060405180830381865afa1580156108b3573d6000803e3d6000fd5b505050506040513d601f19601f820116820180604052508101906108d791906145a1565b8216901c86146109295760405162461bcd60e51b815260206004820152601760248201527f456e74697479496420646f6573206e6f74206d6174636800000000000000000060448201526064016105d8565b61013460009054906101000a90046001600160a01b03166001600160a01b03166334ef6a706040518163ffffffff1660e01b8152600401602060405180830381865afa15801561097d573d6000803e3d6000fd5b505050506040513d601f19601f820116820180604052508101906109a191906145a1565b61013460009054906101000a90046001600160a01b03166001600160a01b03166361b156556040518163ffffffff1660e01b8152600401602060405180830381865afa1580156109f5573d6000803e3d6000fd5b505050506040513d601f19601f82011682018060405250810190610a1991906145a1565b8216901c8514610a6b5760405162461bcd60e51b815260206004820152601860248201527f50726f64756374496420646f6573206e6f74206d61746368000000000000000060448201526064016105d8565b61013460009054906101000a90046001600160a01b03166001600160a01b0316630e20680a6040518163ffffffff1660e01b8152600401602060405180830381865afa158015610abf573d6000803e3d6000fd5b505050506040513d601f19601f82011682018060405250810190610ae391906145a1565b61013460009054906101000a90046001600160a01b03166001600160a01b0316635b25084b6040518163ffffffff1660e01b8152600401602060405180830381865afa158015610b37573d6000803e3d6000fd5b505050506040513d601f19601f82011682018060405250810190610b5b91906145a1565b61013460009054906101000a90046001600160a01b03166001600160a01b0316632ffb7d286040518163ffffffff1660e01b8152600401602060405180830381865afa158015610baf573d6000803e3d6000fd5b505050506040513d601f19601f82011682018060405250810190610bd391906145a1565b610131546040516306d2c82d60e21b81526004810186905292909117929092178316916001600160a01b031690631b4b20b490602401602060405180830381865afa158015610c26573d6000803e3d6000fd5b505050506040513d601f19601f82011682018060405250810190610c4a91906145a1565b9250925050935093915050565b610c62335b82612e2f565b610cd45760405162461bcd60e51b815260206004820152603160248201527f4552433732313a207472616e736665722063616c6c6572206973206e6f74206f60448201527f776e6572206e6f7220617070726f76656400000000000000000000000000000060648201526084016105d8565b61072a838383612f37565b6000610cea836110f5565b8210610d5e5760405162461bcd60e51b815260206004820152602b60248201527f455243373231456e756d657261626c653a206f776e657220696e646578206f7560448201527f74206f6620626f756e647300000000000000000000000000000000000000000060648201526084016105d8565b506001600160a01b0391909116600090815260c960209081526040808320938352929052205490565b61072a8383836040518060200160405280600081525061192f565b600081815261012e60208181526040808420805480865261012d845291852085905585855292909152919055610131546001600160a01b0316331415610def57610deb8261311c565b5050565b610deb826131d0565b600054610100900460ff16610e135760005460ff1615610e17565b303b155b610e895760405162461bcd60e51b815260206004820152602e60248201527f496e697469616c697a61626c653a20636f6e747261637420697320616c72656160448201527f647920696e697469616c697a656400000000000000000000000000000000000060648201526084016105d8565b600054610100900460ff16158015610ec857600080547fffffffffffffffffffffffffffffffffffffffffffffffffffffffffffff0000166101011790555b610ed0613254565b610f446040518060400160405280600881526020017f41637469766174650000000000000000000000000000000000000000000000008152506040518060400160405280600381526020017f41435400000000000000000000000000000000000000000000000000000000008152506132c7565b610f4c61333c565b610f5461333c565b61013480546001600160a01b0380861673ffffffffffffffffffffffffffffffffffffffff1992831617909255610133805492851692909116919091179055801561072a57600080547fffffffffffffffffffffffffffffffffffffffffffffffffffffffffffff00ff169055505050565b6000610fd160cb5490565b82106110455760405162461bcd60e51b815260206004820152602c60248201527f455243373231456e756d657261626c653a20676c6f62616c20696e646578206f60448201527f7574206f6620626f756e6473000000000000000000000000000000000000000060648201526084016105d8565b60cb8281548110611058576110586145ba565b90600052602060002001549050919050565b6000818152609960205260408120546001600160a01b0316806104ba5760405162461bcd60e51b815260206004820152602960248201527f4552433732313a206f776e657220717565727920666f72206e6f6e657869737460448201527f656e7420746f6b656e000000000000000000000000000000000000000000000060648201526084016105d8565b60006001600160a01b0382166111735760405162461bcd60e51b815260206004820152602a60248201527f4552433732313a2062616c616e636520717565727920666f7220746865207a6560448201527f726f20616464726573730000000000000000000000000000000000000000000060648201526084016105d8565b506001600160a01b03166000908152609a602052604090205490565b6033546001600160a01b031633146111e95760405162461bcd60e51b815260206004820181905260248201527f4f776e61626c653a2063616c6c6572206973206e6f7420746865206f776e657260448201526064016105d8565b6111f360006133a7565b565b60608060608060606000611208876110f5565b905060008167ffffffffffffffff81111561122557611225614385565b60405190808252806020026020018201604052801561124e578160200160208202803683370190505b50905060008267ffffffffffffffff81111561126c5761126c614385565b604051908082528060200260200182016040528015611295578160200160208202803683370190505b50905060008367ffffffffffffffff8111156112b3576112b3614385565b6040519080825280602002602001820160405280156112dc578160200160208202803683370190505b50905060008467ffffffffffffffff8111156112fa576112fa614385565b604051908082528060200260200182016040528015611323578160200160208202803683370190505b50905060008567ffffffffffffffff81111561134157611341614385565b60405190808252806020026020018201604052801561136a578160200160208202803683370190505b50905060005b6113798d6110f5565b8110156118215761138a8d82610cdf565b965061013460009054906101000a90046001600160a01b03166001600160a01b03166310871b7c6040518163ffffffff1660e01b8152600401602060405180830381865afa1580156113e0573d6000803e3d6000fd5b505050506040513d601f19601f8201168201806040525081019061140491906145a1565b61013460009054906101000a90046001600160a01b03166001600160a01b031663d09ab7476040518163ffffffff1660e01b8152600401602060405180830381865afa158015611458573d6000803e3d6000fd5b505050506040513d601f19601f8201168201806040525081019061147c91906145a1565b8816901c868281518110611492576114926145ba565b60209081029190910181019190915261013454604080517f34ef6a7000000000000000000000000000000000000000000000000000000000815290516001600160a01b03909216926334ef6a70926004808401938290030181865afa1580156114ff573d6000803e3d6000fd5b505050506040513d601f19601f8201168201806040525081019061152391906145a1565b61013460009054906101000a90046001600160a01b03166001600160a01b03166361b156556040518163ffffffff1660e01b8152600401602060405180830381865afa158015611577573d6000803e3d6000fd5b505050506040513d601f19601f8201168201806040525081019061159b91906145a1565b8816901c8582815181106115b1576115b16145ba565b60209081029190910181019190915261013454604080517f0e20680a00000000000000000000000000000000000000000000000000000000815290516001600160a01b0390921692630e20680a926004808401938290030181865afa15801561161e573d6000803e3d6000fd5b505050506040513d601f19601f8201168201806040525081019061164291906145a1565b61013460009054906101000a90046001600160a01b03166001600160a01b0316635b25084b6040518163ffffffff1660e01b8152600401602060405180830381865afa158015611696573d6000803e3d6000fd5b505050506040513d601f19601f820116820180604052508101906116ba91906145a1565b61013460009054906101000a90046001600160a01b03166001600160a01b0316632ffb7d286040518163ffffffff1660e01b8152600401602060405180830381865afa15801561170e573d6000803e3d6000fd5b505050506040513d601f19601f8201168201806040525081019061173291906145a1565b17178716838281518110611748576117486145ba565b60200260200101818152505061012e60008881526020019081526020016000205484828151811061177b5761177b6145ba565b6020908102919091010152610131546040516306d2c82d60e21b8152600481018990526001600160a01b0390911690631b4b20b490602401602060405180830381865afa1580156117d0573d6000803e3d6000fd5b505050506040513d601f19601f820116820180604052508101906117f491906145a1565b828281518110611806576118066145ba565b602090810291909101015261181a816145e6565b9050611370565b50939b929a50909850965090945092505050565b610133546040517f61f558900000000000000000000000000000000000000000000000000000000081526004810183905260609182918291829182916118cb916001600160a01b03909116906361f5589090602401602060405180830381865afa1580156118a7573d6000803e3d6000fd5b505050506040513d601f19601f8201168201806040525081019061034f919061461f565b939a9299509097509550909350915050565b60006118e8336110f5565b905060005b8181101561072a5761190533846102d5336000610cdf565b61190e816145e6565b90506118ed565b6060609880546104cf906144ef565b610deb338383613406565b6119393383612e2f565b6119ab5760405162461bcd60e51b815260206004820152603160248201527f4552433732313a207472616e736665722063616c6c6572206973206e6f74206f60448201527f776e6572206e6f7220617070726f76656400000000000000000000000000000060648201526084016105d8565b6119b7848484846134f3565b50505050565b6000818152609960205260409020546060906001600160a01b0316611a4a5760405162461bcd60e51b815260206004820152602f60248201527f4552433732314d657461646174613a2055524920717565727920666f72206e6f60448201527f6e6578697374656e7420746f6b656e000000000000000000000000000000000060648201526084016105d8565b6000611a6160408051602081019091526000815290565b90506000815111611a815760405180602001604052806000815250611aac565b80611a8b8461357c565b604051602001611a9c92919061463c565b6040516020818303038152906040525b9392505050565b606080808080600080805b60cb54821015611b6957611ad182610fc6565b610131546040516306d2c82d60e21b8152600481018390529194506000916001600160a01b0390911690631b4b20b490602401602060405180830381865afa158015611b21573d6000803e3d6000fd5b505050506040513d601f19601f82011682018060405250810190611b4591906145a1565b1115611b595780611b55816145e6565b9150505b611b62826145e6565b9150611abe565b60008167ffffffffffffffff811115611b8457611b84614385565b604051908082528060200260200182016040528015611bad578160200160208202803683370190505b50905060008267ffffffffffffffff811115611bcb57611bcb614385565b604051908082528060200260200182016040528015611bf4578160200160208202803683370190505b50905060008367ffffffffffffffff811115611c1257611c12614385565b604051908082528060200260200182016040528015611c3b578160200160208202803683370190505b50905060008467ffffffffffffffff811115611c5957611c59614385565b604051908082528060200260200182016040528015611c82578160200160208202803683370190505b50905060008567ffffffffffffffff811115611ca057611ca0614385565b604051908082528060200260200182016040528015611cc9578160200160208202803683370190505b50905085156122195760009650600095505b60cb5487101561221957611cee87610fc6565b610131546040516306d2c82d60e21b8152600481018390529199506000916001600160a01b0390911690631b4b20b490602401602060405180830381865afa158015611d3e573d6000803e3d6000fd5b505050506040513d601f19601f82011682018060405250810190611d6291906145a1565b111561220957610131546040516306d2c82d60e21b8152600481018a90526001600160a01b0390911690631b4b20b490602401602060405180830381865afa158015611db2573d6000803e3d6000fd5b505050506040513d601f19601f82011682018060405250810190611dd691906145a1565b818781518110611de857611de86145ba565b60209081029190910181019190915261013454604080517f10871b7c00000000000000000000000000000000000000000000000000000000815290516001600160a01b03909216926310871b7c926004808401938290030181865afa158015611e55573d6000803e3d6000fd5b505050506040513d601f19601f82011682018060405250810190611e7991906145a1565b61013460009054906101000a90046001600160a01b03166001600160a01b031663d09ab7476040518163ffffffff1660e01b8152600401602060405180830381865afa158015611ecd573d6000803e3d6000fd5b505050506040513d601f19601f82011682018060405250810190611ef191906145a1565b8916901c858781518110611f0757611f076145ba565b60209081029190910181019190915261013454604080517f34ef6a7000000000000000000000000000000000000000000000000000000000815290516001600160a01b03909216926334ef6a70926004808401938290030181865afa158015611f74573d6000803e3d6000fd5b505050506040513d601f19601f82011682018060405250810190611f9891906145a1565b61013460009054906101000a90046001600160a01b03166001600160a01b03166361b156556040518163ffffffff1660e01b8152600401602060405180830381865afa158015611fec573d6000803e3d6000fd5b505050506040513d601f19601f8201168201806040525081019061201091906145a1565b8916901c848781518110612026576120266145ba565b60209081029190910181019190915261013454604080517f0e20680a00000000000000000000000000000000000000000000000000000000815290516001600160a01b0390921692630e20680a926004808401938290030181865afa158015612093573d6000803e3d6000fd5b505050506040513d601f19601f820116820180604052508101906120b791906145a1565b61013460009054906101000a90046001600160a01b03166001600160a01b0316635b25084b6040518163ffffffff1660e01b8152600401602060405180830381865afa15801561210b573d6000803e3d6000fd5b505050506040513d601f19601f8201168201806040525081019061212f91906145a1565b61013460009054906101000a90046001600160a01b03166001600160a01b0316632ffb7d286040518163ffffffff1660e01b8152600401602060405180830381865afa158015612183573d6000803e3d6000fd5b505050506040513d601f19601f820116820180604052508101906121a791906145a1565b171788168287815181106121bd576121bd6145ba565b60200260200101818152505061012e6000898152602001908152602001600020548387815181106121f0576121f06145ba565b602090810291909101015285612205816145e6565b9650505b612212876145e6565b9650611cdb565b939c929b5090995097509095509350505050565b610131546001600160a01b031661224357600080fd5b610131546001600160a01b0316331461225b57600080fd5b801561227257600081815261012d60205260408120555b600083815261012e6020526040902054156122a657600083815261012e6020908152604080832054835261012d9091528120555b50600081815261012d6020908152604080832085905593825261012e90529190912055565b600080861161013460009054906101000a90046001600160a01b03166001600160a01b031663498ed7706040518163ffffffff1660e01b8152600401600060405180830381865afa158015612324573d6000803e3d6000fd5b505050506040513d6000823e601f3d908101601f1916820160405261234c919081019061452a565b9061236a5760405162461bcd60e51b81526004016105d89190614186565b50602085811b871767ffffffffffffffff908116600090815261012f9092526040822080549091839161239d911661466b565b91906101000a81548167ffffffffffffffff021916908367ffffffffffffffff160217905567ffffffffffffffff169050600061013460009054906101000a90046001600160a01b03166001600160a01b0316630e20680a6040518163ffffffff1660e01b8152600401602060405180830381865afa158015612424573d6000803e3d6000fd5b505050506040513d601f19601f8201168201806040525081019061244891906145a1565b61013460009054906101000a90046001600160a01b03166001600160a01b0316635b25084b6040518163ffffffff1660e01b8152600401602060405180830381865afa15801561249c573d6000803e3d6000fd5b505050506040513d601f19601f820116820180604052508101906124c091906145a1565b61013460009054906101000a90046001600160a01b03166001600160a01b0316632ffb7d286040518163ffffffff1660e01b8152600401602060405180830381865afa158015612514573d6000803e3d6000fd5b505050506040513d601f19601f8201168201806040525081019061253891906145a1565b1717851661013460009054906101000a90046001600160a01b03166001600160a01b0316630b6febeb6040518163ffffffff1660e01b8152600401602060405180830381865afa158015612590573d6000803e3d6000fd5b505050506040513d601f19601f820116820180604052508101906125b491906145a1565b61013460009054906101000a90046001600160a01b03166001600160a01b031663cb523d106040518163ffffffff1660e01b8152600401602060405180830381865afa158015612608573d6000803e3d6000fd5b505050506040513d601f19601f8201168201806040525081019061262c91906145a1565b84901b1661013460009054906101000a90046001600160a01b03166001600160a01b03166361b156556040518163ffffffff1660e01b8152600401602060405180830381865afa158015612684573d6000803e3d6000fd5b505050506040513d601f19601f820116820180604052508101906126a891906145a1565b61013460009054906101000a90046001600160a01b03166001600160a01b03166334ef6a706040518163ffffffff1660e01b8152600401602060405180830381865afa1580156126fc573d6000803e3d6000fd5b505050506040513d601f19601f8201168201806040525081019061272091906145a1565b8a901b1661013460009054906101000a90046001600160a01b03166001600160a01b031663d09ab7476040518163ffffffff1660e01b8152600401602060405180830381865afa158015612778573d6000803e3d6000fd5b505050506040513d601f19601f8201168201806040525081019061279c91906145a1565b61013460009054906101000a90046001600160a01b03166001600160a01b03166310871b7c6040518163ffffffff1660e01b8152600401602060405180830381865afa1580156127f0573d6000803e3d6000fd5b505050506040513d601f19601f8201168201806040525081019061281491906145a1565b8c901b16171717905061013160009054906101000a90046001600160a01b03166001600160a01b0316336001600160a01b0316146128945760405162461bcd60e51b815260206004820152600f60248201527f73656e646572206e6f74206c696e6b000000000000000000000000000000000060448201526064016105d8565b61013460009054906101000a90046001600160a01b03166001600160a01b0316637789e6c76040518163ffffffff1660e01b8152600401602060405180830381865afa1580156128e8573d6000803e3d6000fd5b505050506040513d601f19601f8201168201806040525081019061290c91906145a1565b851615801561291c575061ffff82115b15612a1b5761013460009054906101000a90046001600160a01b03166001600160a01b0316635b25084b6040518163ffffffff1660e01b8152600401602060405180830381865afa158015612975573d6000803e3d6000fd5b505050506040513d601f19601f8201168201806040525081019061299991906145a1565b61013460009054906101000a90046001600160a01b03166001600160a01b031663385160ac6040518163ffffffff1660e01b8152600401602060405180830381865afa1580156129ed573d6000803e3d6000fd5b505050506040513d601f19601f82011682018060405250810190612a1191906145a1565b601084901c901b16175b600081815261012e6020526040808220546101345482517f5e3ee39e00000000000000000000000000000000000000000000000000000000815292519115936001600160a01b0390911692635e3ee39e92600480830193928290030181865afa158015612a8c573d6000803e3d6000fd5b505050506040513d6000823e601f3d908101601f19168201604052612ab4919081019061452a565b90612ad25760405162461bcd60e51b81526004016105d89190614186565b50600086815261012d6020526040808220546101345482517f5e3ee39e00000000000000000000000000000000000000000000000000000000815292519115936001600160a01b0390911692635e3ee39e92600480830193928290030181865afa158015612b44573d6000803e3d6000fd5b505050506040513d6000823e601f3d908101601f19168201604052612b6c919081019061452a565b90612b8a5760405162461bcd60e51b81526004016105d89190614186565b50612b9589826136ae565b600081815261012e602052604090208690558515612bc057600086815261012d602052604090208190555b8315612bd9576000818152610130602052604090208490555b98975050505050505050565b6033546001600160a01b03163314612c3f5760405162461bcd60e51b815260206004820181905260248201527f4f776e61626c653a2063616c6c6572206973206e6f7420746865206f776e657260448201526064016105d8565b6001600160a01b038116612cbb5760405162461bcd60e51b815260206004820152602660248201527f4f776e61626c653a206e6577206f776e657220697320746865207a65726f206160448201527f646472657373000000000000000000000000000000000000000000000000000060648201526084016105d8565b612cc4816133a7565b50565b6033546001600160a01b03163314612d215760405162461bcd60e51b815260206004820181905260248201527f4f776e61626c653a2063616c6c6572206973206e6f7420746865206f776e657260448201526064016105d8565b61013180546001600160a01b0393841673ffffffffffffffffffffffffffffffffffffffff19918216179091556101328054929093169116179055565b60007fffffffff0000000000000000000000000000000000000000000000000000000082167f780e9d630000000000000000000000000000000000000000000000000000000014806104ba57506104ba82613809565b6000818152609b60205260409020805473ffffffffffffffffffffffffffffffffffffffff19166001600160a01b0384169081179091558190612df68261106a565b6001600160a01b03167f8c5be1e5ebec7d5bd14f71427d1e84f3dd0314c0f7b2291e5b200ac8c7c3b92560405160405180910390a45050565b6000818152609960205260408120546001600160a01b0316612eb95760405162461bcd60e51b815260206004820152602c60248201527f4552433732313a206f70657261746f7220717565727920666f72206e6f6e657860448201527f697374656e7420746f6b656e000000000000000000000000000000000000000060648201526084016105d8565b6000612ec48361106a565b9050806001600160a01b0316846001600160a01b03161480612eff5750836001600160a01b0316612ef484610552565b6001600160a01b0316145b80612f2f57506001600160a01b038082166000908152609c602090815260408083209388168352929052205460ff165b949350505050565b826001600160a01b0316612f4a8261106a565b6001600160a01b031614612fc65760405162461bcd60e51b815260206004820152602560248201527f4552433732313a207472616e736665722066726f6d20696e636f72726563742060448201527f6f776e657200000000000000000000000000000000000000000000000000000060648201526084016105d8565b6001600160a01b0382166130415760405162461bcd60e51b8152602060048201526024808201527f4552433732313a207472616e7366657220746f20746865207a65726f2061646460448201527f726573730000000000000000000000000000000000000000000000000000000060648201526084016105d8565b61304c8383836138ec565b613057600082612db4565b6001600160a01b0383166000908152609a60205260408120805460019290613080908490614693565b90915550506001600160a01b0382166000908152609a602052604081208054600192906130ae9084906146aa565b9091555050600081815260996020526040808220805473ffffffffffffffffffffffffffffffffffffffff19166001600160a01b0386811691821790925591518493918716917fddf252ad1be2c89b69c2b068fc378daa952ba7f163c4a11628f55a4df523b3ef91a4505050565b60006131278261106a565b9050613135816000846138ec565b613140600083612db4565b6001600160a01b0381166000908152609a60205260408120805460019290613169908490614693565b9091555050600082815260996020526040808220805473ffffffffffffffffffffffffffffffffffffffff19169055518391906001600160a01b038416907fddf252ad1be2c89b69c2b068fc378daa952ba7f163c4a11628f55a4df523b3ef908390a45050565b6131d933610c5c565b61324b5760405162461bcd60e51b815260206004820152603060248201527f4552433732314275726e61626c653a2063616c6c6572206973206e6f74206f7760448201527f6e6572206e6f7220617070726f7665640000000000000000000000000000000060648201526084016105d8565b612cc48161311c565b600054610100900460ff166132bf5760405162461bcd60e51b815260206004820152602b60248201527f496e697469616c697a61626c653a20636f6e7472616374206973206e6f74206960448201526a6e697469616c697a696e6760a81b60648201526084016105d8565b6111f3613b5e565b600054610100900460ff166133325760405162461bcd60e51b815260206004820152602b60248201527f496e697469616c697a61626c653a20636f6e7472616374206973206e6f74206960448201526a6e697469616c697a696e6760a81b60648201526084016105d8565b610deb8282613bd2565b600054610100900460ff166111f35760405162461bcd60e51b815260206004820152602b60248201527f496e697469616c697a61626c653a20636f6e7472616374206973206e6f74206960448201526a6e697469616c697a696e6760a81b60648201526084016105d8565b603380546001600160a01b0383811673ffffffffffffffffffffffffffffffffffffffff19831681179093556040519116919082907f8be0079c531659141344cd1fd0a4f28419497f9722a3daafe3b4186f6b6457e090600090a35050565b816001600160a01b0316836001600160a01b031614156134685760405162461bcd60e51b815260206004820152601960248201527f4552433732313a20617070726f766520746f2063616c6c65720000000000000060448201526064016105d8565b6001600160a01b038381166000818152609c602090815260408083209487168084529482529182902080547fffffffffffffffffffffffffffffffffffffffffffffffffffffffffffffff001686151590811790915591519182527f17307eab39ab6107e8899845ad3d59bd9653f200f220920489ca2b5937696c31910160405180910390a3505050565b6134fe848484612f37565b61350a84848484613c64565b6119b75760405162461bcd60e51b815260206004820152603260248201527f4552433732313a207472616e7366657220746f206e6f6e20455243373231526560448201527f63656976657220696d706c656d656e746572000000000000000000000000000060648201526084016105d8565b6060816135bc57505060408051808201909152600181527f3000000000000000000000000000000000000000000000000000000000000000602082015290565b8160005b81156135e657806135d0816145e6565b91506135df9050600a836146d8565b91506135c0565b60008167ffffffffffffffff81111561360157613601614385565b6040519080825280601f01601f19166020018201604052801561362b576020820181803683370190505b5090505b8415612f2f57613640600183614693565b915061364d600a866146ec565b6136589060306146aa565b60f81b81838151811061366d5761366d6145ba565b60200101907effffffffffffffffffffffffffffffffffffffffffffffffffffffffffffff1916908160001a9053506136a7600a866146d8565b945061362f565b6001600160a01b0382166137045760405162461bcd60e51b815260206004820181905260248201527f4552433732313a206d696e7420746f20746865207a65726f206164647265737360448201526064016105d8565b6000818152609960205260409020546001600160a01b0316156137695760405162461bcd60e51b815260206004820152601c60248201527f4552433732313a20746f6b656e20616c7265616479206d696e7465640000000060448201526064016105d8565b613775600083836138ec565b6001600160a01b0382166000908152609a6020526040812080546001929061379e9084906146aa565b9091555050600081815260996020526040808220805473ffffffffffffffffffffffffffffffffffffffff19166001600160a01b03861690811790915590518392907fddf252ad1be2c89b69c2b068fc378daa952ba7f163c4a11628f55a4df523b3ef908290a45050565b60007fffffffff0000000000000000000000000000000000000000000000000000000082167f80ac58cd00000000000000000000000000000000000000000000000000000000148061389c57507fffffffff0000000000000000000000000000000000000000000000000000000082167f5b5e139f00000000000000000000000000000000000000000000000000000000145b806104ba57507f01ffc9a7000000000000000000000000000000000000000000000000000000007fffffffff000000000000000000000000000000000000000000000000000000008316146104ba565b6001600160a01b03831615613b53576139048161106a565b6001600160a01b0316336001600160a01b0316148061399a575061013460009054906101000a90046001600160a01b03166001600160a01b031663b7e2ba206040518163ffffffff1660e01b8152600401602060405180830381865afa158015613972573d6000803e3d6000fd5b505050506040513d601f19601f8201168201806040525081019061399691906145a1565b8116155b6139e65760405162461bcd60e51b815260206004820152601360248201527f4e6f74206f776e65722f726573616c61626c650000000000000000000000000060448201526064016105d8565b6139ef8161106a565b6001600160a01b0316336001600160a01b031614158015613a1e57506000818152610130602052604090205415155b8015613a355750610132546001600160a01b031615155b15613b535761013254600082815261013060205260408082205490517f42e7d70c0000000000000000000000000000000000000000000000000000000081526001600160a01b0386811660048301526024820192909252919216906342e7d70c90604401602060405180830381865afa158015613ab6573d6000803e3d6000fd5b505050506040513d601f19601f82011682018060405250810190613ada91906145a1565b905060008111613b515760405162461bcd60e51b8152602060048201526024808201527f52696361726469616e206368696c642061677265656d656e74206e6f7420666f60448201527f756e642e0000000000000000000000000000000000000000000000000000000060648201526084016105d8565b505b61072a838383613e02565b600054610100900460ff16613bc95760405162461bcd60e51b815260206004820152602b60248201527f496e697469616c697a61626c653a20636f6e7472616374206973206e6f74206960448201526a6e697469616c697a696e6760a81b60648201526084016105d8565b6111f3336133a7565b600054610100900460ff16613c3d5760405162461bcd60e51b815260206004820152602b60248201527f496e697469616c697a61626c653a20636f6e7472616374206973206e6f74206960448201526a6e697469616c697a696e6760a81b60648201526084016105d8565b8151613c5090609790602085019061404a565b50805161072a90609890602084019061404a565b60006001600160a01b0384163b15613df7576040517f150b7a020000000000000000000000000000000000000000000000000000000081526001600160a01b0385169063150b7a0290613cc1903390899088908890600401614700565b6020604051808303816000875af1925050508015613cfc575060408051601f3d908101601f19168201909252613cf99181019061473c565b60015b613dac573d808015613d2a576040519150601f19603f3d011682016040523d82523d6000602084013e613d2f565b606091505b508051613da45760405162461bcd60e51b815260206004820152603260248201527f4552433732313a207472616e7366657220746f206e6f6e20455243373231526560448201527f63656976657220696d706c656d656e746572000000000000000000000000000060648201526084016105d8565b805181602001fd5b7fffffffff00000000000000000000000000000000000000000000000000000000167f150b7a0200000000000000000000000000000000000000000000000000000000149050612f2f565b506001949350505050565b6001600160a01b038316613e5d57613e588160cb8054600083815260cc60205260408120829055600182018355919091527fa7ce836d032b2bf62b7e2097a8e0a6d8aeb35405ad15271e96d3b0188a1d06fb0155565b613e80565b816001600160a01b0316836001600160a01b031614613e8057613e808382613eba565b6001600160a01b038216613e975761072a81613f57565b826001600160a01b0316826001600160a01b03161461072a5761072a8282614006565b60006001613ec7846110f5565b613ed19190614693565b600083815260ca6020526040902054909150808214613f24576001600160a01b038416600090815260c960209081526040808320858452825280832054848452818420819055835260ca90915290208190555b50600091825260ca602090815260408084208490556001600160a01b03909416835260c981528383209183525290812055565b60cb54600090613f6990600190614693565b600083815260cc602052604081205460cb8054939450909284908110613f9157613f916145ba565b906000526020600020015490508060cb8381548110613fb257613fb26145ba565b600091825260208083209091019290925582815260cc909152604080822084905585825281205560cb805480613fea57613fea614759565b6001900381819060005260206000200160009055905550505050565b6000614011836110f5565b6001600160a01b03909316600090815260c960209081526040808320868452825280832085905593825260ca9052919091209190915550565b828054614056906144ef565b90600052602060002090601f01602090048101928261407857600085556140be565b82601f1061409157805160ff19168380011785556140be565b828001600101855582156140be579182015b828111156140be5782518255916020019190600101906140a3565b506140ca9291506140ce565b5090565b5b808211156140ca57600081556001016140cf565b7fffffffff0000000000000000000000000000000000000000000000000000000081168114612cc457600080fd5b60006020828403121561412357600080fd5b8135611aac816140e3565b60005b83811015614149578181015183820152602001614131565b838111156119b75750506000910152565b6000815180845261417281602086016020860161412e565b601f01601f19169290920160200192915050565b602081526000611aac602083018461415a565b6000602082840312156141ab57600080fd5b5035919050565b6001600160a01b0381168114612cc457600080fd5b600080604083850312156141da57600080fd5b82356141e5816141b2565b946020939093013593505050565b60008060006060848603121561420857600080fd5b505081359360208301359350604090920135919050565b60008060006060848603121561423457600080fd5b833561423f816141b2565b9250602084013561424f816141b2565b929592945050506040919091013590565b6000806040838503121561427357600080fd5b823561427e816141b2565b9150602083013561428e816141b2565b809150509250929050565b6000602082840312156142ab57600080fd5b8135611aac816141b2565b600081518084526020808501945080840160005b838110156142e6578151875295820195908201906001016142ca565b509495945050505050565b60a08152600061430460a08301886142b6565b828103602084015261431681886142b6565b9050828103604084015261432a81876142b6565b9050828103606084015261433e81866142b6565b90508281036080840152612bd981856142b6565b6000806040838503121561436557600080fd5b8235614370816141b2565b91506020830135801515811461428e57600080fd5b634e487b7160e01b600052604160045260246000fd5b604051601f8201601f1916810167ffffffffffffffff811182821017156143c4576143c4614385565b604052919050565b600067ffffffffffffffff8211156143e6576143e6614385565b50601f01601f191660200190565b6000806000806080858703121561440a57600080fd5b8435614415816141b2565b93506020850135614425816141b2565b925060408501359150606085013567ffffffffffffffff81111561444857600080fd5b8501601f8101871361445957600080fd5b803561446c614467826143cc565b61439b565b81815288602083850101111561448157600080fd5b8160208401602083013760006020838301015280935050505092959194509250565b60008060008060008060c087890312156144bc57600080fd5b86356144c7816141b2565b9860208801359850604088013597606081013597506080810135965060a00135945092505050565b600181811c9082168061450357607f821691505b6020821081141561452457634e487b7160e01b600052602260045260246000fd5b50919050565b60006020828403121561453c57600080fd5b815167ffffffffffffffff81111561455357600080fd5b8201601f8101841361456457600080fd5b8051614572614467826143cc565b81815285602083850101111561458757600080fd5b61459882602083016020860161412e565b95945050505050565b6000602082840312156145b357600080fd5b5051919050565b634e487b7160e01b600052603260045260246000fd5b634e487b7160e01b600052601160045260246000fd5b60007fffffffffffffffffffffffffffffffffffffffffffffffffffffffffffffffff821415614618576146186145d0565b5060010190565b60006020828403121561463157600080fd5b8151611aac816141b2565b6000835161464e81846020880161412e565b83519083019061466281836020880161412e565b01949350505050565b600067ffffffffffffffff80831681811415614689576146896145d0565b6001019392505050565b6000828210156146a5576146a56145d0565b500390565b600082198211156146bd576146bd6145d0565b500190565b634e487b7160e01b600052601260045260246000fd5b6000826146e7576146e76146c2565b500490565b6000826146fb576146fb6146c2565b500690565b60006001600160a01b03808716835280861660208401525083604083015260806060830152614732608083018461415a565b9695505050505050565b60006020828403121561474e57600080fd5b8151611aac816140e3565b634e487b7160e01b600052603160045260246000fdfea264697066735822122080fdaaba24ec6971cc66fb79ae7d148afdcaf4b45bcb072120bd81edf18c744564736f6c634300080b0033",
  "immutableReferences": {},
  "source": "pragma solidity >=0.7.6;\r\n\r\n// SPDX-License-Identifier: GPL-3.0-or-later\r\n\r\nimport \"./StringCommon.sol\";\r\nimport \"./ImmutableEntity.sol\";\r\nimport \"./CreatorToken.sol\";\r\nimport \"./ProductActivate.sol\";\r\n\r\n// OpenZepellin upgradable contracts\r\nimport \"@openzeppelin/contracts-upgradeable/proxy/utils/Initializable.sol\";\r\nimport \"@openzeppelin/contracts-upgradeable/access/OwnableUpgradeable.sol\";\r\nimport \"@openzeppelin/contracts-upgradeable/token/ERC721/extensions/ERC721BurnableUpgradeable.sol\";\r\nimport \"@openzeppelin/contracts-upgradeable/token/ERC721/extensions/ERC721EnumerableUpgradeable.sol\";\r\n\r\n/*\r\n// OpenZepellin standard contracts\r\n//import \"@openzeppelin/contracts/proxy/utils/Initializable.sol\";\r\nimport \"@openzeppelin/contracts/access/Ownable.sol\";\r\nimport \"@openzeppelin/contracts/token/ERC721/extensions/ERC721Burnable.sol\";\r\nimport \"@openzeppelin/contracts/token/ERC721/extensions/ERC721Enumerable.sol\";\r\nimport \"@openzeppelin/contracts/token/ERC20/IERC20.sol\";\r\n*/\r\n\r\n/*\r\n  The ActivateToken unique token id is a conglomeration of the entity, product,\r\n  expiration, identifier and license value. The licenseValue portion is 128 bits\r\n  and is product specific, allowing millions of uniquely identifiable sub-products\r\n\r\n    uint256 tokenId = entityIndex | (productIndex << 32) | (licenseExpiration << 64) |\r\n                      (activationIdFlags << 96) | (licenseValue << 128);\r\n*/\r\n\r\n// OpenZepellin upgradable contracts\r\ncontract ActivateToken is Initializable, OwnableUpgradeable,\r\n                          ERC721EnumerableUpgradeable,\r\n                          ERC721BurnableUpgradeable\r\n/*\r\ncontract ActivateToken is Ownable,\r\n                          ERC721Enumerable,\r\n                          ERC721Burnable\r\n*/\r\n{\r\n  // Mapping to and from token id and activation id\r\n  mapping (uint256 => uint256) private ActivateIdToTokenId;\r\n  mapping (uint256 => uint256) private TokenIdToActivateId;\r\n\r\n  // Mapping the number of activations (used for uniqueness)\r\n  mapping (uint64 => uint64) private NumberOfActivations;\r\n\r\n  // Mapping any Ricardian contract requirements\r\n  mapping (uint256 => uint256) private TokenIdToRicardianParent;\r\n\r\n  ProductActivate private activateInterface;\r\n  CreatorToken private creatorInterface;\r\n  ImmutableEntity private entityInterface;\r\n  StringCommon private commonInterface;\r\n\r\n  /// @notice Initialize the activate token smart contract\r\n  ///   Called during first deployment only (not on upgrade) as\r\n  ///   this is an OpenZepellin upgradable contract\r\n  /// @param commonContractAddr The StringCommon contract address\r\n  /// @param entityContractAddr The ImmutableEntity token contract address\r\n  function initialize(address commonContractAddr, address entityContractAddr)\r\n    public initializer\r\n  {\r\n    __Ownable_init();\r\n    __ERC721_init(\"Activate\", \"ACT\");\r\n    __ERC721Enumerable_init();\r\n    __ERC721Burnable_init();\r\n/*\r\n  // OpenZepellin standard contracts\r\n  constructor(address commonContractAddr, address entityContractAddr)\r\n                                           Ownable()\r\n                                           ERC721(\"Activate\", \"ACT\")\r\n                                           ERC721Enumerable()\r\n  {\r\n*/\r\n    // Initialize the contract interfaces\r\n    commonInterface = StringCommon(commonContractAddr);\r\n    entityInterface = ImmutableEntity(entityContractAddr);\r\n  }\r\n\r\n  /// @notice Restrict the token to the activate contract\r\n  ///   Called once after deployment to initialize Ecosystem.\r\n  ///   msg.sender must be contract owner\r\n  /// @param activateAddress The ProductActivate contract address\r\n  /// @param creatorAddress The Creator token contract address\r\n  function restrictToken(address activateAddress, address creatorAddress)\r\n    public onlyOwner\r\n  {\r\n    activateInterface = ProductActivate(activateAddress);  \r\n    creatorInterface = CreatorToken(creatorAddress);\r\n  }\r\n\r\n  /// @notice Burn a product activation license.\r\n  /// Not public, called internally. msg.sender must be the token owner.\r\n  /// @param tokenId The tokenId to burn\r\n  function burn(uint256 tokenId) public override(ERC721BurnableUpgradeable)\r\n  {\r\n    uint256 activationId = TokenIdToActivateId[tokenId];\r\n\r\n    ActivateIdToTokenId[activationId] = 0;\r\n    TokenIdToActivateId[tokenId] = 0;\r\n\r\n    // If called from restricted address skip approval check\r\n    if (msg.sender == address(activateInterface))\r\n      super._burn(tokenId);\r\n\r\n    // Otherwise ensure caller is approved for the token\r\n    else\r\n      super.burn(tokenId);\r\n  }\r\n\r\n  /// @notice Create a product activation license.\r\n  /// Public but internal. msg.sender must be product activate contract\r\n  /// @param entityIndex The local entity index of the license\r\n  /// @param productIndex The specific ID of the product\r\n  /// @param licenseHash The external license activation hash\r\n  /// @param licenseValue The activation value and flags (192 bits)\r\n  /// @param ricardianParent The Ricardian contract parent (if required)\r\n  /// @return tokenId The resulting new unique token identifier\r\n  function mint(address sender, uint256 entityIndex, uint256 productIndex,\r\n                uint256 licenseHash, uint256 licenseValue,\r\n                uint256 ricardianParent)\r\n    public returns (uint256)\r\n  {\r\n    require(entityIndex > 0, commonInterface.EntityIsZero());\r\n\r\n    uint256 activationId =\r\n      ++NumberOfActivations[(uint64)(entityIndex | (productIndex << 32))];\r\n\r\n    uint256 tokenId = ((entityIndex << commonInterface.EntityIdOffset()) & commonInterface.EntityIdMask()) |\r\n                      ((productIndex << commonInterface.ProductIdOffset()) & commonInterface.ProductIdMask()) |\r\n                      ((activationId << commonInterface.UniqueIdOffset()) & commonInterface.UniqueIdMask()) |\r\n                      (licenseValue & (commonInterface.FlagsMask() | commonInterface.ExpirationMask() | commonInterface.ValueMask()));\r\n\r\n    // Require the product activate contract be the sender\r\n    require(msg.sender == address(activateInterface), \"sender not link\");\r\n\r\n    // If no expiration to the activation, use those bits for more randomness\r\n    if ((licenseValue & commonInterface.ExpirationFlag() == 0) && (activationId > 0xFFFF))\r\n      tokenId |= ((activationId >> 16) << commonInterface.ExpirationOffset()) & commonInterface.ExpirationMask();\r\n\r\n// Do NOT uncomment this, it can potentially infinite loop\r\n//   But the idea is valid, leaving until a better solution\r\n/*\r\n    // If not unique, fudge the values until unique\r\n    while (TokenIdToActivateId[tokenId] != 0)\r\n    {\r\n      // Bump up the activation id\r\n      activationId =\r\n        ++NumberOfActivations[entityIndex | (productIndex << 32)];\r\n\r\n      tokenId = ((entityIndex << commonInterface.EntityIdOffset()) & commonInterface.EntityIdMask()) |\r\n                ((productIndex << commonInterface.ProductIdOffset()) & commonInterface.ProductIdMask()) |\r\n                ((activationId << commonInterface.UniqueIdOffset()) & commonInterface.UniqueIdMask()) |\r\n                (licenseValue & (commonInterface.FlagsMask() | commonInterface.ExpirationMask() | commonInterface.ValueMask()));\r\n*/\r\n/*\r\n      // If still not unique, decrease the expiration time slightly\r\n      // Must decrease since zero is unlimited time\r\n      if (TokenIdToActivateId[tokenId] != 0)\r\n      {\r\n        uint256 theDuration = ((licenseValue & ImmutableConstants.ExpirationMask) >> ImmutableConstants.ExpirationOffset);\r\n        theDuration -= block.timestamp % 0xFF;\r\n\r\n        // Update tokenId to include new expiration\r\n        //  Clear the expiration\r\n        licenseValue &= ~ImmutableConstants.ExpirationMask;\r\n        licenseValue |= (theDuration << ImmutableConstants.ExpirationOffset) & ImmutableConstants.ExpirationMask;\r\n\r\n        tokenId = ((entityIndex << ImmutableConstants.EntityIdOffset) & ImmutableConstants.EntityIdMask) |\r\n                  ((productIndex << ImmutableConstants.ProductIdOffset) & ImmutableConstants.ProductIdMask) |\r\n                  ((activationId << ImmutableConstants.UniqueIdOffset) & ImmutableConstants.UniqueIdMask) |\r\n                  (licenseValue & (ImmutableConstants.FlagsMask | ImmutableConstants.ExpirationMask | ImmutableConstants.ValueMask));\r\n      }\r\n*/\r\n//    }\r\n\r\n\r\n    // Require a unique tokenId\r\n    require(TokenIdToActivateId[tokenId] == 0, commonInterface.TokenNotUnique());\r\n    require(ActivateIdToTokenId[licenseHash] == 0, commonInterface.TokenNotUnique());\r\n\r\n    // Mint the new activate token\r\n    _mint(sender, tokenId);\r\n\r\n    // Assign mappings for id-to-hash and hash-to-id\r\n    TokenIdToActivateId[tokenId] = licenseHash;\r\n    if (licenseHash > 0)\r\n      ActivateIdToTokenId[licenseHash] = tokenId;\r\n    if (ricardianParent > 0)\r\n      TokenIdToRicardianParent[tokenId] = ricardianParent;\r\n    return tokenId;\r\n  }\r\n\r\n  ///////////////////////////////////////////////////////////\r\n  /// PRODUCT ACTIVATE LICENSE\r\n  ///////////////////////////////////////////////////////////\r\n\r\n  /// @notice Change owner for all activate tokens (activations)\r\n  /// Not public, called internally. msg.sender is the license owner.\r\n  /// @param newOwner The new owner to receive transfer of tokens\r\n  function activateOwner(address newOwner)\r\n      external\r\n  {\r\n    // Retrieve the balance of activation tokens\r\n    uint256 numActivations = balanceOf(msg.sender);\r\n\r\n    // Safely transfer each token (index 0) to the new owner\r\n    for (uint i = 0; i < numActivations; ++i)\r\n    {\r\n      // Always transfer token index zero, to ensure the same\r\n      // order/index for the new address\r\n      safeTransferFrom(msg.sender, newOwner, tokenOfOwnerByIndex(msg.sender, 0));\r\n    }      \r\n  }\r\n\r\n  /// @notice Change activation identifier for an activate token\r\n  ///   Caller must be the ProductActivate contract.\r\n  /// @param tokenId The token identifier to move\r\n  /// @param newHash The new activation hash/identifier\r\n  /// @param oldHash The previous activation hash/identifier\r\n  function activateTokenMoveHash(uint256 tokenId, uint256 newHash,\r\n                                 uint256 oldHash)\r\n    external\r\n  {\r\n    require(address(activateInterface) != address(0));\r\n    require(msg.sender == address(activateInterface));\r\n\r\n    // Clear old hash if present\r\n    if (oldHash > 0)\r\n      ActivateIdToTokenId[oldHash] = 0;\r\n\r\n    // Clear token-to-activate lookup\r\n    if (TokenIdToActivateId[tokenId] > 0)\r\n      ActivateIdToTokenId[TokenIdToActivateId[tokenId]] = 0;\r\n\r\n    // Update tokenId references and new activation on blockchain\r\n    ActivateIdToTokenId[newHash] = tokenId;\r\n    TokenIdToActivateId[tokenId] = newHash;\r\n  }\r\n\r\n  /// All activate functions below are view type (read only)\r\n\r\n  /// @notice Find token identifier associated with activation hash\r\n  /// @param licenseHash the external unique identifier\r\n  /// @return the tokenId value\r\n  function activateIdToTokenId(uint256 licenseHash)\r\n    external view returns (uint256)\r\n  {\r\n    return ActivateIdToTokenId[licenseHash];\r\n  }\r\n\r\n  /// @notice Find activation hash associated with token identifier\r\n  /// @param tokenId is the unique token identifier\r\n  /// @return the license hash/unique activation identifier\r\n  function tokenIdToActivateId(uint256 tokenId)\r\n    external view returns (uint256)\r\n  {\r\n    return TokenIdToActivateId[tokenId];\r\n  }\r\n  \r\n  /// @notice Find end user activation value and expiration for product\r\n  /// Entity and product must be valid.\r\n  /// @param entityIndex The entity the product license is for\r\n  /// @param productIndex The specific ID of the product\r\n  /// @param licenseHash the external unique identifier to activate\r\n  /// @return value (with flags) and price of the activation.\\\r\n  ///         **value** The activation value (flags, expiration, value)\\\r\n  ///         **price** The price in tokens if offered for resale\r\n  function activateStatus(uint256 entityIndex, uint256 productIndex,\r\n                          uint256 licenseHash)\r\n    external view returns (uint256 value, uint256 price)\r\n  {\r\n    require(entityIndex > 0, commonInterface.EntityIsZero());\r\n    uint256 tokenId = ActivateIdToTokenId[licenseHash];\r\n\r\n    if (tokenId > 0)\r\n    {\r\n      require(entityIndex == (tokenId & commonInterface.EntityIdMask()) >> commonInterface.EntityIdOffset(),\r\n              \"EntityId does not match\");\r\n      require(productIndex == (tokenId & commonInterface.ProductIdMask()) >> commonInterface.ProductIdOffset(),\r\n              \"ProductId does not match\");\r\n    }\r\n\r\n    // Return license flags, value. expiration and price\r\n    return (\r\n             (tokenId & (commonInterface.FlagsMask() |      //flags\r\n                         commonInterface.ExpirationMask() | //expiration\r\n                         commonInterface.ValueMask())),     //value\r\n                         activateInterface.activateTokenIdToOfferPrice(tokenId) //price\r\n           );\r\n  }\r\n\r\n  /// @notice Find all license activation details for an address\r\n  /// @param entityAddress The address that owns the activations\r\n  /// @return entities , products, hashes, values and prices as arrays.\\\r\n  ///         **entities** Array of entity ids of product\\\r\n  ///         **products** Array of product ids of product\\\r\n  ///         **hashes** Array of activation identifiers\\\r\n  ///         **values** Array of token values\\\r\n  ///         **prices** Array of price in tokens if for resale\r\n  function activateAllDetailsForAddress(address entityAddress)\r\n    public view returns (uint256[] memory entities, uint256[] memory products,\r\n                         uint256[] memory hashes, uint256[] memory values,\r\n                         uint256[] memory prices)\r\n  {\r\n    // Allocate result array based on the number of activate tokens\r\n    //   Using tokenId for result length since no more stack space\r\n    uint256 tokenId = balanceOf(entityAddress);\r\n    uint256[] memory resultEntityId = new uint256[](tokenId);\r\n    uint256[] memory resultProductId = new uint256[](tokenId);\r\n    uint256[] memory resultHash = new uint256[](tokenId);\r\n    uint256[] memory resultValue = new uint256[](tokenId);\r\n    uint256[] memory resultPrice = new uint256[](tokenId);\r\n\r\n    // Build result arrays for all activations of an Entity\r\n    for (uint i = 0; i < balanceOf(entityAddress); ++i)\r\n    {\r\n      // Retrieve the token id of this index\r\n      tokenId = tokenOfOwnerByIndex(entityAddress, i);\r\n\r\n      // Return activate information from tokenId and mappings\r\n      resultEntityId[i] = (tokenId & commonInterface.EntityIdMask()) >> commonInterface.EntityIdOffset(); // entityID\r\n      resultProductId[i] = (tokenId & commonInterface.ProductIdMask()) >> commonInterface.ProductIdOffset(); //productID,\r\n      resultValue[i] = tokenId & (commonInterface.FlagsMask() |      //flags\r\n                                  commonInterface.ExpirationMask() | //expiration\r\n                                  commonInterface.ValueMask());      //value\r\n      resultHash[i] = TokenIdToActivateId[tokenId]; // activation hash\r\n      resultPrice[i] = activateInterface.activateTokenIdToOfferPrice(tokenId); // offer price\r\n    }\r\n\r\n    return (resultEntityId, resultProductId, resultHash,\r\n            resultValue, resultPrice);\r\n  }\r\n\r\n  /// @notice Find all license activation details for an entity\r\n  /// Entity must be valid.\r\n  /// @param entityIndex The entity to return activations for\r\n  /// @return entities , products, hashes, values and prices as arrays.\\\r\n  ///         **entities** Array of entity ids of product\\\r\n  ///         **products** Array of product ids of product\\\r\n  ///         **hashes** Array of activation identifiers\\\r\n  ///         **values** Array of token values (flags, expiration)\\\r\n  ///         **prices** Array of price in tokens if for resale\r\n  function activateAllDetails(uint256 entityIndex)\r\n    external view returns (uint256[] memory entities, uint256[] memory products,\r\n                           uint256[] memory hashes, uint256[] memory values,\r\n                           uint256[] memory prices)\r\n  {\r\n    // Convert entityId to address and call details-for-address\r\n    return activateAllDetailsForAddress(\r\n                        entityInterface.entityIndexToAddress(entityIndex));\r\n  }\r\n\r\n  /// @notice Return all license activations for sale in the ecosystem\r\n  /// When this exceeds available return size index will be added\r\n  /// @return entities , products, hashes, values and prices as arrays.\\\r\n  ///         **entities** Array of entity ids of product\\\r\n  ///         **products** Array of product ids of product\\\r\n  ///         **hashes** Array of activation identifiers\\\r\n  ///         **values** Array of token values (flags, expiration)\\\r\n  ///         **prices** Array of price in tokens if for resale\r\n  function activateAllForSaleTokenDetails()\r\n    external view returns (uint256[] memory entities, uint256[] memory products,\r\n                           uint256[] memory hashes, uint256[] memory values,\r\n                           uint256[] memory prices)\r\n  {\r\n    // Allocate result array based on the number of activate tokens\r\n    //   Using tokenId for result length since no more stack space\r\n    uint256 tokenId;\r\n    uint i = 0;\r\n    uint j = 0;\r\n\r\n\r\n    // First iterate and find how many are for sale\r\n    for (i = 0; i < totalSupply(); ++i)\r\n    {\r\n      // Return the number of activations (number of activate tokens)\r\n      tokenId = tokenByIndex(i);\r\n\r\n      if (activateInterface.activateTokenIdToOfferPrice(tokenId) > 0)\r\n        j++;\r\n    }\r\n\r\n    // Allocate resulting arrays based on size\r\n    uint256[] memory resultEntityId = new uint256[](j);\r\n    uint256[] memory resultProductId = new uint256[](j);\r\n    uint256[] memory resultHash = new uint256[](j);\r\n    uint256[] memory resultValue = new uint256[](j);\r\n    uint256[] memory resultPrice = new uint256[](j);\r\n\r\n    // Build result arrays for all activations of an Entity\r\n    if (j > 0)\r\n    {\r\n      i = 0;\r\n      for (j = 0; i < totalSupply(); ++i)\r\n      {\r\n        // Return the number of activations (number of activate tokens)\r\n        tokenId = tokenByIndex(i);\r\n\r\n        if (activateInterface.activateTokenIdToOfferPrice(tokenId) > 0)\r\n        {\r\n          // Return activate information from tokenId and mappings\r\n          resultPrice[j] = activateInterface.activateTokenIdToOfferPrice(tokenId); // offer price\r\n          resultEntityId[j] = (tokenId & commonInterface.EntityIdMask()) >> commonInterface.EntityIdOffset(); // entityID\r\n          resultProductId[j] = (tokenId & commonInterface.ProductIdMask()) >> commonInterface.ProductIdOffset(); //productID,\r\n          resultValue[j] = tokenId & (commonInterface.FlagsMask() |      //flags\r\n                                      commonInterface.ExpirationMask() | //expiration\r\n                                      commonInterface.ValueMask());      //value\r\n          resultHash[j] = TokenIdToActivateId[tokenId]; // activation hash\r\n          j++;\r\n        }\r\n      }\r\n    }\r\n\r\n    return (resultEntityId, resultProductId, resultHash,\r\n            resultValue, resultPrice);\r\n  }\r\n\r\n  /// @notice Perform validity check before transfer of token allowed.\r\n  /// Called internally before any token transfer and used to enforce\r\n  /// resale rights and Ricardian contract agreement requirements,\r\n  /// even when using third party exchanges.\r\n  /// @param from The token origin address\r\n  /// @param to The token destination address\r\n  /// @param tokenId The token intended for transfer\r\n  function _beforeTokenTransfer(address from, address to, uint256 tokenId)\r\n      internal override(ERC721Upgradeable, ERC721EnumerableUpgradeable)\r\n  {\r\n\r\n    // Check flags/validity only after the first mint\r\n    if (from != address(0))\r\n    {\r\n      // Only token owner may transfer without resale rights\r\n      require((msg.sender == ownerOf(tokenId)) ||\r\n              ((tokenId & commonInterface.NoResaleFlag()) == 0), \"Not owner/resalable\");\r\n\r\n      // Check any required Ricardian contracts\r\n      if ((msg.sender != ownerOf(tokenId)) &&\r\n          (TokenIdToRicardianParent[tokenId] > 0) &&\r\n          (address(creatorInterface) != address(0)))\r\n      {\r\n        uint hasChild = creatorInterface.creatorHasChildOf(to, TokenIdToRicardianParent[tokenId]);\r\n        require(hasChild > 0, \"Ricardian child agreement not found.\");\r\n      }\r\n    }\r\n\r\n    super._beforeTokenTransfer(from, to, tokenId);\r\n  }\r\n\r\n  /// @notice Return the type of supported ERC interfaces\r\n  /// @param interfaceId The interface desired\r\n  /// @return TRUE (1) if supported, FALSE (0) otherwise\r\n  function supportsInterface(bytes4 interfaceId)\r\n      public view virtual override(ERC721Upgradeable, ERC721EnumerableUpgradeable) returns (bool)\r\n  {\r\n    return super.supportsInterface(interfaceId);\r\n  }\r\n}\r\n",
  "sourcePath": "/home/pi/Source/github/ImmutableEcosystem/contracts/ActivateToken.sol",
  "compiler": {
    "name": "solc",
    "version": "0.8.11+commit.d7f03943.Emscripten.clang"
  },
  "schemaVersion": "3.4.4",
  "updatedAt": "2022-03-31T21:20:06.602Z",
  "devdoc": {
    "kind": "dev",
    "methods": {
      "activateAllDetails(uint256)": {
        "params": {
          "entityIndex": "The entity to return activations for"
        },
        "returns": {
          "entities": ", products, hashes, values and prices as arrays.\\         **entities** Array of entity ids of product\\         **products** Array of product ids of product\\         **hashes** Array of activation identifiers\\         **values** Array of token values (flags, expiration)\\         **prices** Array of price in tokens if for resale"
        }
      },
      "activateAllDetailsForAddress(address)": {
        "params": {
          "entityAddress": "The address that owns the activations"
        },
        "returns": {
          "entities": ", products, hashes, values and prices as arrays.\\         **entities** Array of entity ids of product\\         **products** Array of product ids of product\\         **hashes** Array of activation identifiers\\         **values** Array of token values\\         **prices** Array of price in tokens if for resale"
        }
      },
      "activateAllForSaleTokenDetails()": {
        "returns": {
          "entities": ", products, hashes, values and prices as arrays.\\         **entities** Array of entity ids of product\\         **products** Array of product ids of product\\         **hashes** Array of activation identifiers\\         **values** Array of token values (flags, expiration)\\         **prices** Array of price in tokens if for resale"
        }
      },
      "activateIdToTokenId(uint256)": {
        "params": {
          "licenseHash": "the external unique identifier"
        },
        "returns": {
          "_0": "the tokenId value"
        }
      },
      "activateOwner(address)": {
        "params": {
          "newOwner": "The new owner to receive transfer of tokens"
        }
      },
      "activateStatus(uint256,uint256,uint256)": {
        "params": {
          "entityIndex": "The entity the product license is for",
          "licenseHash": "the external unique identifier to activate",
          "productIndex": "The specific ID of the product"
        },
        "returns": {
          "value": "(with flags) and price of the activation.\\         **value** The activation value (flags, expiration, value)\\         **price** The price in tokens if offered for resale"
        }
      },
      "activateTokenMoveHash(uint256,uint256,uint256)": {
        "params": {
          "newHash": "The new activation hash/identifier",
          "oldHash": "The previous activation hash/identifier",
          "tokenId": "The token identifier to move"
        }
      },
      "approve(address,uint256)": {
        "details": "See {IERC721-approve}."
      },
      "balanceOf(address)": {
        "details": "See {IERC721-balanceOf}."
      },
      "burn(uint256)": {
        "params": {
          "tokenId": "The tokenId to burn"
        }
      },
      "getApproved(uint256)": {
        "details": "See {IERC721-getApproved}."
      },
      "initialize(address,address)": {
        "params": {
          "commonContractAddr": "The StringCommon contract address",
          "entityContractAddr": "The ImmutableEntity token contract address"
        }
      },
      "isApprovedForAll(address,address)": {
        "details": "See {IERC721-isApprovedForAll}."
      },
      "mint(address,uint256,uint256,uint256,uint256,uint256)": {
        "params": {
          "entityIndex": "The local entity index of the license",
          "licenseHash": "The external license activation hash",
          "licenseValue": "The activation value and flags (192 bits)",
          "productIndex": "The specific ID of the product",
          "ricardianParent": "The Ricardian contract parent (if required)"
        },
        "returns": {
          "_0": "tokenId The resulting new unique token identifier"
        }
      },
      "name()": {
        "details": "See {IERC721Metadata-name}."
      },
      "owner()": {
        "details": "Returns the address of the current owner."
      },
      "ownerOf(uint256)": {
        "details": "See {IERC721-ownerOf}."
      },
      "renounceOwnership()": {
        "details": "Leaves the contract without owner. It will not be possible to call `onlyOwner` functions anymore. Can only be called by the current owner. NOTE: Renouncing ownership will leave the contract without an owner, thereby removing any functionality that is only available to the owner."
      },
      "restrictToken(address,address)": {
        "params": {
          "activateAddress": "The ProductActivate contract address",
          "creatorAddress": "The Creator token contract address"
        }
      },
      "safeTransferFrom(address,address,uint256)": {
        "details": "See {IERC721-safeTransferFrom}."
      },
      "safeTransferFrom(address,address,uint256,bytes)": {
        "details": "See {IERC721-safeTransferFrom}."
      },
      "setApprovalForAll(address,bool)": {
        "details": "See {IERC721-setApprovalForAll}."
      },
      "supportsInterface(bytes4)": {
        "params": {
          "interfaceId": "The interface desired"
        },
        "returns": {
          "_0": "TRUE (1) if supported, FALSE (0) otherwise"
        }
      },
      "symbol()": {
        "details": "See {IERC721Metadata-symbol}."
      },
      "tokenByIndex(uint256)": {
        "details": "See {IERC721Enumerable-tokenByIndex}."
      },
      "tokenIdToActivateId(uint256)": {
        "params": {
          "tokenId": "is the unique token identifier"
        },
        "returns": {
          "_0": "the license hash/unique activation identifier"
        }
      },
      "tokenOfOwnerByIndex(address,uint256)": {
        "details": "See {IERC721Enumerable-tokenOfOwnerByIndex}."
      },
      "tokenURI(uint256)": {
        "details": "See {IERC721Metadata-tokenURI}."
      },
      "totalSupply()": {
        "details": "See {IERC721Enumerable-totalSupply}."
      },
      "transferFrom(address,address,uint256)": {
        "details": "See {IERC721-transferFrom}."
      },
      "transferOwnership(address)": {
        "details": "Transfers ownership of the contract to a new account (`newOwner`). Can only be called by the current owner."
      }
    },
    "version": 1
  },
  "userdoc": {
    "kind": "user",
    "methods": {
      "activateAllDetails(uint256)": {
        "notice": "Find all license activation details for an entity Entity must be valid."
      },
      "activateAllDetailsForAddress(address)": {
        "notice": "Find all license activation details for an address"
      },
      "activateAllForSaleTokenDetails()": {
        "notice": "Return all license activations for sale in the ecosystem When this exceeds available return size index will be added"
      },
      "activateIdToTokenId(uint256)": {
        "notice": "Find token identifier associated with activation hash"
      },
      "activateOwner(address)": {
        "notice": "Change owner for all activate tokens (activations) Not public, called internally. msg.sender is the license owner."
      },
      "activateStatus(uint256,uint256,uint256)": {
        "notice": "Find end user activation value and expiration for product Entity and product must be valid."
      },
      "activateTokenMoveHash(uint256,uint256,uint256)": {
        "notice": "Change activation identifier for an activate token   Caller must be the ProductActivate contract."
      },
      "burn(uint256)": {
        "notice": "Burn a product activation license. Not public, called internally. msg.sender must be the token owner."
      },
      "initialize(address,address)": {
        "notice": "Initialize the activate token smart contract   Called during first deployment only (not on upgrade) as   this is an OpenZepellin upgradable contract"
      },
      "mint(address,uint256,uint256,uint256,uint256,uint256)": {
        "notice": "Create a product activation license. Public but internal. msg.sender must be product activate contract"
      },
      "restrictToken(address,address)": {
        "notice": "Restrict the token to the activate contract   Called once after deployment to initialize Ecosystem.   msg.sender must be contract owner"
      },
      "supportsInterface(bytes4)": {
        "notice": "Return the type of supported ERC interfaces"
      },
      "tokenIdToActivateId(uint256)": {
        "notice": "Find activation hash associated with token identifier"
      }
    },
    "version": 1
  }
}