{
  "contractName": "CollectionProxy",
  "abi": [
    {
      "anonymous": false,
      "inputs": [
        {
          "indexed": true,
          "internalType": "address",
          "name": "owner",
          "type": "address"
        },
        {
          "indexed": true,
          "internalType": "address",
          "name": "approved",
          "type": "address"
        },
        {
          "indexed": true,
          "internalType": "uint256",
          "name": "tokenId",
          "type": "uint256"
        }
      ],
      "name": "Approval",
      "type": "event"
    },
    {
      "anonymous": false,
      "inputs": [
        {
          "indexed": true,
          "internalType": "address",
          "name": "owner",
          "type": "address"
        },
        {
          "indexed": true,
          "internalType": "address",
          "name": "operator",
          "type": "address"
        },
        {
          "indexed": false,
          "internalType": "bool",
          "name": "approved",
          "type": "bool"
        }
      ],
      "name": "ApprovalForAll",
      "type": "event"
    },
    {
      "anonymous": false,
      "inputs": [
        {
          "indexed": false,
          "internalType": "uint8",
          "name": "version",
          "type": "uint8"
        }
      ],
      "name": "Initialized",
      "type": "event"
    },
    {
      "anonymous": false,
      "inputs": [
        {
          "indexed": true,
          "internalType": "address",
          "name": "previousOwner",
          "type": "address"
        },
        {
          "indexed": true,
          "internalType": "address",
          "name": "newOwner",
          "type": "address"
        }
      ],
      "name": "OwnershipTransferred",
      "type": "event"
    },
    {
      "anonymous": false,
      "inputs": [
        {
          "indexed": true,
          "internalType": "address",
          "name": "from",
          "type": "address"
        },
        {
          "indexed": true,
          "internalType": "address",
          "name": "to",
          "type": "address"
        },
        {
          "indexed": true,
          "internalType": "uint256",
          "name": "tokenId",
          "type": "uint256"
        }
      ],
      "name": "Transfer",
      "type": "event"
    },
    {
      "inputs": [],
      "name": "owner",
      "outputs": [
        {
          "internalType": "address",
          "name": "",
          "type": "address"
        }
      ],
      "stateMutability": "view",
      "type": "function"
    },
    {
      "inputs": [],
      "name": "renounceOwnership",
      "outputs": [],
      "stateMutability": "nonpayable",
      "type": "function"
    },
    {
      "inputs": [
        {
          "internalType": "address",
          "name": "newOwner",
          "type": "address"
        }
      ],
      "name": "transferOwnership",
      "outputs": [],
      "stateMutability": "nonpayable",
      "type": "function"
    },
    {
      "inputs": [
        {
          "internalType": "address",
          "name": "commonAddr",
          "type": "address"
        },
        {
          "internalType": "address",
          "name": "creatorTokenAddr",
          "type": "address"
        },
        {
          "internalType": "address",
          "name": "entityAddr",
          "type": "address"
        },
        {
          "internalType": "address",
          "name": "productAddr",
          "type": "address"
        },
        {
          "internalType": "string",
          "name": "collectionName",
          "type": "string"
        },
        {
          "internalType": "string",
          "name": "theSymbol",
          "type": "string"
        },
        {
          "internalType": "uint256",
          "name": "entity",
          "type": "uint256"
        },
        {
          "internalType": "uint256",
          "name": "product",
          "type": "uint256"
        }
      ],
      "name": "initialize",
      "outputs": [],
      "stateMutability": "nonpayable",
      "type": "function"
    },
    {
      "inputs": [],
      "name": "name",
      "outputs": [
        {
          "internalType": "string",
          "name": "",
          "type": "string"
        }
      ],
      "stateMutability": "view",
      "type": "function"
    },
    {
      "inputs": [],
      "name": "symbol",
      "outputs": [
        {
          "internalType": "string",
          "name": "",
          "type": "string"
        }
      ],
      "stateMutability": "view",
      "type": "function"
    },
    {
      "inputs": [
        {
          "internalType": "bytes4",
          "name": "interfaceId",
          "type": "bytes4"
        }
      ],
      "name": "supportsInterface",
      "outputs": [
        {
          "internalType": "bool",
          "name": "",
          "type": "bool"
        }
      ],
      "stateMutability": "view",
      "type": "function"
    },
    {
      "inputs": [
        {
          "internalType": "uint256",
          "name": "tokenId",
          "type": "uint256"
        }
      ],
      "name": "idToDAO",
      "outputs": [
        {
          "internalType": "uint256",
          "name": "",
          "type": "uint256"
        }
      ],
      "stateMutability": "view",
      "type": "function"
    },
    {
      "inputs": [
        {
          "internalType": "uint256",
          "name": "tokenId",
          "type": "uint256"
        }
      ],
      "name": "tokenURI",
      "outputs": [
        {
          "internalType": "string",
          "name": "",
          "type": "string"
        }
      ],
      "stateMutability": "view",
      "type": "function"
    },
    {
      "inputs": [
        {
          "internalType": "address",
          "name": "to",
          "type": "address"
        },
        {
          "internalType": "uint256",
          "name": "tokenId",
          "type": "uint256"
        }
      ],
      "name": "approve",
      "outputs": [],
      "stateMutability": "nonpayable",
      "type": "function"
    },
    {
      "inputs": [
        {
          "internalType": "uint256",
          "name": "tokenId",
          "type": "uint256"
        }
      ],
      "name": "getApproved",
      "outputs": [
        {
          "internalType": "address",
          "name": "operator",
          "type": "address"
        }
      ],
      "stateMutability": "view",
      "type": "function"
    },
    {
      "inputs": [
        {
          "internalType": "address",
          "name": "owner",
          "type": "address"
        },
        {
          "internalType": "address",
          "name": "operator",
          "type": "address"
        }
      ],
      "name": "isApprovedForAll",
      "outputs": [
        {
          "internalType": "bool",
          "name": "",
          "type": "bool"
        }
      ],
      "stateMutability": "view",
      "type": "function"
    },
    {
      "inputs": [
        {
          "internalType": "uint256",
          "name": "tokenId",
          "type": "uint256"
        }
      ],
      "name": "ownerOf",
      "outputs": [
        {
          "internalType": "address",
          "name": "owner",
          "type": "address"
        }
      ],
      "stateMutability": "view",
      "type": "function"
    },
    {
      "inputs": [
        {
          "internalType": "address",
          "name": "operator",
          "type": "address"
        },
        {
          "internalType": "bool",
          "name": "_approved",
          "type": "bool"
        }
      ],
      "name": "setApprovalForAll",
      "outputs": [],
      "stateMutability": "nonpayable",
      "type": "function"
    },
    {
      "inputs": [
        {
          "internalType": "address",
          "name": "from",
          "type": "address"
        },
        {
          "internalType": "address",
          "name": "to",
          "type": "address"
        },
        {
          "internalType": "uint256",
          "name": "tokenId",
          "type": "uint256"
        }
      ],
      "name": "safeTransferFrom",
      "outputs": [],
      "stateMutability": "nonpayable",
      "type": "function"
    },
    {
      "inputs": [
        {
          "internalType": "address",
          "name": "from",
          "type": "address"
        },
        {
          "internalType": "address",
          "name": "to",
          "type": "address"
        },
        {
          "internalType": "uint256",
          "name": "tokenId",
          "type": "uint256"
        },
        {
          "internalType": "bytes",
          "name": "data",
          "type": "bytes"
        }
      ],
      "name": "safeTransferFrom",
      "outputs": [],
      "stateMutability": "nonpayable",
      "type": "function"
    },
    {
      "inputs": [
        {
          "internalType": "address",
          "name": "from",
          "type": "address"
        },
        {
          "internalType": "address",
          "name": "to",
          "type": "address"
        },
        {
          "internalType": "uint256",
          "name": "tokenId",
          "type": "uint256"
        }
      ],
      "name": "transferFrom",
      "outputs": [],
      "stateMutability": "nonpayable",
      "type": "function"
    },
    {
      "inputs": [
        {
          "internalType": "address",
          "name": "owner",
          "type": "address"
        }
      ],
      "name": "balanceOf",
      "outputs": [
        {
          "internalType": "uint256",
          "name": "balance",
          "type": "uint256"
        }
      ],
      "stateMutability": "view",
      "type": "function"
    },
    {
      "inputs": [
        {
          "internalType": "address",
          "name": "owner",
          "type": "address"
        },
        {
          "internalType": "uint256",
          "name": "index",
          "type": "uint256"
        }
      ],
      "name": "tokenOfOwnerByIndex",
      "outputs": [
        {
          "internalType": "uint256",
          "name": "",
          "type": "uint256"
        }
      ],
      "stateMutability": "view",
      "type": "function"
    },
    {
      "inputs": [],
      "name": "totalSupply",
      "outputs": [
        {
          "internalType": "uint256",
          "name": "",
          "type": "uint256"
        }
      ],
      "stateMutability": "view",
      "type": "function"
    },
    {
      "inputs": [
        {
          "internalType": "uint256",
          "name": "index",
          "type": "uint256"
        }
      ],
      "name": "tokenByIndex",
      "outputs": [
        {
          "internalType": "uint256",
          "name": "",
          "type": "uint256"
        }
      ],
      "stateMutability": "view",
      "type": "function"
    }
  ],
  "bytecode": "0x608060405234801561001057600080fd5b50612258806100206000396000f3fe608060405234801561001057600080fd5b50600436106101775760003560e01c80634f6ccce7116100d857806395d89b411161008c578063c87b56dd11610066578063c87b56dd146102ee578063e985e9c514610301578063f2fde38b1461031457600080fd5b806395d89b41146102c0578063a22cb465146102c8578063b88d4fde146102db57600080fd5b806370a08231116100bd57806370a0823114610294578063715018a6146102a75780638da5cb5b146102af57600080fd5b80634f6ccce71461026e5780636352211e1461028157600080fd5b806318160ddd1161012f5780632f745c59116101145780632f745c591461023557806342842e0e146102485780634aa83f571461025b57600080fd5b806318160ddd1461020c57806323b872dd1461022257600080fd5b806306fdde031161016057806306fdde03146101b9578063081812fc146101ce578063095ea7b3146101f957600080fd5b806301ffc9a71461017c57806306db3ecd146101a4575b600080fd5b61018f61018a366004611b61565b610327565b60405190151581526020015b60405180910390f35b6101b76101b2366004611c65565b6103bd565b005b6101c1610a0a565b60405161019b9190611d83565b6101e16101dc366004611d96565b610a9c565b6040516001600160a01b03909116815260200161019b565b6101b7610207366004611daf565b610b18565b610214610b96565b60405190815260200161019b565b6101b7610230366004611ddb565b610ba8565b610214610243366004611daf565b610c30565b6101b7610256366004611ddb565b610c43565b610214610269366004611d96565b610c5b565b61021461027c366004611d96565b610f4d565b6101e161028f366004611d96565b610f5a565b6102146102a2366004611e1c565b610f77565b6101b7610f84565b6033546001600160a01b03166101e1565b6101c1610fea565b6101b76102d6366004611e47565b610ff9565b6101b76102e9366004611e80565b61104c565b6101c16102fc366004611d96565b6110b8565b61018f61030f366004611f1f565b611138565b6101b7610322366004611e1c565b6111c8565b606a546040517f01ffc9a70000000000000000000000000000000000000000000000000000000081526001600160e01b0319831660048201526000916001600160a01b0316906301ffc9a790602401602060405180830381865afa158015610393573d6000803e3d6000fd5b505050506040513d601f19601f820116820180604052508101906103b79190611f4d565b92915050565b60006103c960016112aa565b905080156103e1576000805461ff0019166101001790555b6103e96113de565b6000879050806001600160a01b0316638da5cb5b6040518163ffffffff1660e01b8152600401602060405180830381865afa15801561042c573d6000803e3d6000fd5b505050506040513d601f19601f820116820180604052508101906104509190611f6a565b6001600160a01b0316336001600160a01b031614610948576040517f042f33210000000000000000000000000000000000000000000000000000000081523360048201526000906001600160a01b0383169063042f332190602401602060405180830381865afa1580156104c8573d6000803e3d6000fd5b505050506040513d601f19601f820116820180604052508101906104ec9190611f87565b6040517e4cd7700000000000000000000000000000000000000000000000000000000081523360048201529091506000906001600160a01b03841690624cd77090602401602060405180830381865afa15801561054d573d6000803e3d6000fd5b505050506040513d601f19601f820116820180604052508101906105719190611f87565b90508086146105c75760405162461bcd60e51b815260206004820152600e60248201527f4e6f7420617574686f72697a656400000000000000000000000000000000000060448201526064015b60405180910390fd5b606954604080517f2023c5190000000000000000000000000000000000000000000000000000000081529051841515926001600160a01b031691632023c5199160048083019260009291908290030181865afa15801561062b573d6000803e3d6000fd5b505050506040513d6000823e601f3d908101601f191682016040526106539190810190611fed565b906106715760405162461bcd60e51b81526004016105be9190611d83565b50606960009054906101000a90046001600160a01b03166001600160a01b0316637d3eb7f46040518163ffffffff1660e01b8152600401602060405180830381865afa1580156106c5573d6000803e3d6000fd5b505050506040513d601f19601f820116820180604052508101906106e99190611f87565b606960009054906101000a90046001600160a01b03166001600160a01b0316637d3eb7f46040518163ffffffff1660e01b8152600401602060405180830381865afa15801561073c573d6000803e3d6000fd5b505050506040513d601f19601f820116820180604052508101906107609190611f87565b8316036107af5760405162461bcd60e51b815260206004820152601460248201527f4e6f6e70726f6669742070726f6869626974656400000000000000000000000060448201526064016105be565b6040517f97276081000000000000000000000000000000000000000000000000000000008152600481018790526024810186905260609081906000908c906001600160a01b03821690639727608190604401600060405180830381865afa15801561081e573d6000803e3d6000fd5b505050506040513d6000823e601f3d908101601f191682016040526108469190810190612022565b83519297509095509350859085908590610867906065906020870190611ac8565b5050505050606960009054906101000a90046001600160a01b03166001600160a01b03166313d1995060658e6040518363ffffffff1660e01b81526004016108b09291906120ec565b602060405180830381865afa1580156108cd573d6000803e3d6000fd5b505050506040513d601f19601f820116820180604052508101906108f19190611f4d565b61093d5760405162461bcd60e51b815260206004820152601b60248201527f50726f64756374206e616d6520646f6573206e6f74206d61746368000000000060448201526064016105be565b50505050505061095d565b855161095b906065906020890190611ac8565b505b8451610970906066906020880190611ac8565b505060678390556068829055606980546001600160a01b03808c1673ffffffffffffffffffffffffffffffffffffffff1992831617909255606a8054928b169290911691909117905580156109ff576000805461ff0019169055604051600181527f7f26b83ff96e1f2b6a682f133852f6798a09c465da95921460cefb38474024989060200160405180910390a15b505050505050505050565b606060658054610a19906120b2565b80601f0160208091040260200160405190810160405280929190818152602001828054610a45906120b2565b8015610a925780601f10610a6757610100808354040283529160200191610a92565b820191906000526020600020905b815481529060010190602001808311610a7557829003601f168201915b5050505050905090565b606a546000906001600160a01b031663081812fc610ab984610c5b565b6040518263ffffffff1660e01b8152600401610ad791815260200190565b602060405180830381865afa158015610af4573d6000803e3d6000fd5b505050506040513d601f19601f820116820180604052508101906103b79190611f6a565b606a546001600160a01b031663095ea7b383610b3384610c5b565b6040516001600160e01b031960e085901b1681526001600160a01b03909216600483015260248201526044015b600060405180830381600087803b158015610b7a57600080fd5b505af1158015610b8e573d6000803e3d6000fd5b505050505050565b6000610ba3600080611451565b905090565b606a546001600160a01b03166323b872dd8484610bc485610c5b565b6040516001600160e01b031960e086901b1681526001600160a01b0393841660048201529290911660248301526044820152606401600060405180830381600087803b158015610c1357600080fd5b505af1158015610c27573d6000803e3d6000fd5b50505050505050565b6000610c3c8383611451565b9392505050565b606a546001600160a01b03166342842e0e8484610bc4855b606954604080517fd2bd664200000000000000000000000000000000000000000000000000000000815290516000926001600160a01b03169163d2bd66429160048083019260209291908290030181865afa158015610cbe573d6000803e3d6000fd5b505050506040513d601f19601f82011682018060405250810190610ce29190611f87565b606960009054906101000a90046001600160a01b03166001600160a01b031663fd8e99256040518163ffffffff1660e01b8152600401602060405180830381865afa158015610d35573d6000803e3d6000fd5b505050506040513d601f19601f82011682018060405250810190610d599190611f87565b83901b16606960009054906101000a90046001600160a01b03166001600160a01b03166361b156556040518163ffffffff1660e01b8152600401602060405180830381865afa158015610db0573d6000803e3d6000fd5b505050506040513d601f19601f82011682018060405250810190610dd49190611f87565b606960009054906101000a90046001600160a01b03166001600160a01b03166334ef6a706040518163ffffffff1660e01b8152600401602060405180830381865afa158015610e27573d6000803e3d6000fd5b505050506040513d601f19601f82011682018060405250810190610e4b9190611f87565b606854901b16606960009054906101000a90046001600160a01b03166001600160a01b031663d09ab7476040518163ffffffff1660e01b8152600401602060405180830381865afa158015610ea4573d6000803e3d6000fd5b505050506040513d601f19601f82011682018060405250810190610ec89190611f87565b606960009054906101000a90046001600160a01b03166001600160a01b03166310871b7c6040518163ffffffff1660e01b8152600401602060405180830381865afa158015610f1b573d6000803e3d6000fd5b505050506040513d601f19601f82011682018060405250810190610f3f9190611f87565b606754901b16171792915050565b60006103b7600083611451565b606a546000906001600160a01b0316636352211e610ab984610c5b565b60006103b7826000611451565b6033546001600160a01b03163314610fde5760405162461bcd60e51b815260206004820181905260248201527f4f776e61626c653a2063616c6c6572206973206e6f7420746865206f776e657260448201526064016105be565b610fe860006119f5565b565b606060668054610a19906120b2565b606a546040517fa22cb4650000000000000000000000000000000000000000000000000000000081526001600160a01b03848116600483015283151560248301529091169063a22cb46590604401610b60565b606a546001600160a01b031663b88d4fde868661106887610c5b565b86866040518663ffffffff1660e01b815260040161108a9594939291906121a7565b600060405180830381600087803b1580156110a457600080fd5b505af11580156109ff573d6000803e3d6000fd5b606a546060906001600160a01b031663c87b56dd6110d584610c5b565b6040518263ffffffff1660e01b81526004016110f391815260200190565b600060405180830381865afa158015611110573d6000803e3d6000fd5b505050506040513d6000823e601f3d908101601f191682016040526103b79190810190611fed565b606a546040517fe985e9c50000000000000000000000000000000000000000000000000000000081526001600160a01b0384811660048301528381166024830152600092169063e985e9c590604401602060405180830381865afa1580156111a4573d6000803e3d6000fd5b505050506040513d601f19601f82011682018060405250810190610c3c9190611f4d565b6033546001600160a01b031633146112225760405162461bcd60e51b815260206004820181905260248201527f4f776e61626c653a2063616c6c6572206973206e6f7420746865206f776e657260448201526064016105be565b6001600160a01b03811661129e5760405162461bcd60e51b815260206004820152602660248201527f4f776e61626c653a206e6577206f776e657220697320746865207a65726f206160448201527f646472657373000000000000000000000000000000000000000000000000000060648201526084016105be565b6112a7816119f5565b50565b60008054610100900460ff1615611347578160ff1660011480156112cd5750303b155b61133f5760405162461bcd60e51b815260206004820152602e60248201527f496e697469616c697a61626c653a20636f6e747261637420697320616c72656160448201527f647920696e697469616c697a656400000000000000000000000000000000000060648201526084016105be565b506000919050565b60005460ff8084169116106113c45760405162461bcd60e51b815260206004820152602e60248201527f496e697469616c697a61626c653a20636f6e747261637420697320616c72656160448201527f647920696e697469616c697a656400000000000000000000000000000000000060648201526084016105be565b506000805460ff191660ff92909216919091179055600190565b600054610100900460ff166114495760405162461bcd60e51b815260206004820152602b60248201527f496e697469616c697a61626c653a20636f6e7472616374206973206e6f74206960448201526a6e697469616c697a696e6760a81b60648201526084016105be565b610fe8611a54565b60008080806001600160a01b0386166114e057606a60009054906101000a90046001600160a01b03166001600160a01b03166318160ddd6040518163ffffffff1660e01b8152600401602060405180830381865afa1580156114b7573d6000803e3d6000fd5b505050506040513d601f19601f820116820180604052508101906114db9190611f87565b611567565b606a546040517f70a082310000000000000000000000000000000000000000000000000000000081526001600160a01b038881166004830152909116906370a0823190602401602060405180830381865afa158015611543573d6000803e3d6000fd5b505050506040513d601f19601f820116820180604052508101906115679190611f87565b9050600091505b808210156119d65760006001600160a01b03871661161157606a546040517f4f6ccce7000000000000000000000000000000000000000000000000000000008152600481018590526001600160a01b0390911690634f6ccce790602401602060405180830381865afa1580156115e8573d6000803e3d6000fd5b505050506040513d601f19601f8201168201806040525081019061160c9190611f87565b61169f565b606a546040517f2f745c590000000000000000000000000000000000000000000000000000000081526001600160a01b0389811660048301526024820186905290911690632f745c5990604401602060405180830381865afa15801561167b573d6000803e3d6000fd5b505050506040513d601f19601f8201168201806040525081019061169f9190611f87565b90506000606960009054906101000a90046001600160a01b03166001600160a01b03166310871b7c6040518163ffffffff1660e01b8152600401602060405180830381865afa1580156116f6573d6000803e3d6000fd5b505050506040513d601f19601f8201168201806040525081019061171a9190611f87565b606960009054906101000a90046001600160a01b03166001600160a01b031663d09ab7476040518163ffffffff1660e01b8152600401602060405180830381865afa15801561176d573d6000803e3d6000fd5b505050506040513d601f19601f820116820180604052508101906117919190611f87565b8316901c90506000606960009054906101000a90046001600160a01b03166001600160a01b03166334ef6a706040518163ffffffff1660e01b8152600401602060405180830381865afa1580156117ec573d6000803e3d6000fd5b505050506040513d601f19601f820116820180604052508101906118109190611f87565b606960009054906101000a90046001600160a01b03166001600160a01b03166361b156556040518163ffffffff1660e01b8152600401602060405180830381865afa158015611863573d6000803e3d6000fd5b505050506040513d601f19601f820116820180604052508101906118879190611f87565b8416901c90506067548214801561189f575060685481145b156119c2576118ad866121fb565b95506000881180156118be57508588145b156119c257606960009054906101000a90046001600160a01b03166001600160a01b031663fd8e99256040518163ffffffff1660e01b8152600401602060405180830381865afa158015611916573d6000803e3d6000fd5b505050506040513d601f19601f8201168201806040525081019061193a9190611f87565b606960009054906101000a90046001600160a01b03166001600160a01b031663d2bd66426040518163ffffffff1660e01b8152600401602060405180830381865afa15801561198d573d6000803e3d6000fd5b505050506040513d601f19601f820116820180604052508101906119b19190611f87565b8416901c96505050505050506103b7565b505050816119cf906121fb565b915061156e565b846000036119e9578293505050506103b7565b600093505050506103b7565b603380546001600160a01b0383811673ffffffffffffffffffffffffffffffffffffffff19831681179093556040519116919082907f8be0079c531659141344cd1fd0a4f28419497f9722a3daafe3b4186f6b6457e090600090a35050565b600054610100900460ff16611abf5760405162461bcd60e51b815260206004820152602b60248201527f496e697469616c697a61626c653a20636f6e7472616374206973206e6f74206960448201526a6e697469616c697a696e6760a81b60648201526084016105be565b610fe8336119f5565b828054611ad4906120b2565b90600052602060002090601f016020900481019282611af65760008555611b3c565b82601f10611b0f57805160ff1916838001178555611b3c565b82800160010185558215611b3c579182015b82811115611b3c578251825591602001919060010190611b21565b50611b48929150611b4c565b5090565b5b80821115611b485760008155600101611b4d565b600060208284031215611b7357600080fd5b81356001600160e01b031981168114610c3c57600080fd5b6001600160a01b03811681146112a757600080fd5b634e487b7160e01b600052604160045260246000fd5b604051601f8201601f1916810167ffffffffffffffff81118282101715611bdf57611bdf611ba0565b604052919050565b600067ffffffffffffffff821115611c0157611c01611ba0565b50601f01601f191660200190565b600082601f830112611c2057600080fd5b8135611c33611c2e82611be7565b611bb6565b818152846020838601011115611c4857600080fd5b816020850160208301376000918101602001919091529392505050565b600080600080600080600080610100898b031215611c8257600080fd5b8835611c8d81611b8b565b97506020890135611c9d81611b8b565b96506040890135611cad81611b8b565b95506060890135611cbd81611b8b565b9450608089013567ffffffffffffffff80821115611cda57600080fd5b611ce68c838d01611c0f565b955060a08b0135915080821115611cfc57600080fd5b50611d098b828c01611c0f565b93505060c0890135915060e089013590509295985092959890939650565b60005b83811015611d42578181015183820152602001611d2a565b83811115611d51576000848401525b50505050565b60008151808452611d6f816020860160208601611d27565b601f01601f19169290920160200192915050565b602081526000610c3c6020830184611d57565b600060208284031215611da857600080fd5b5035919050565b60008060408385031215611dc257600080fd5b8235611dcd81611b8b565b946020939093013593505050565b600080600060608486031215611df057600080fd5b8335611dfb81611b8b565b92506020840135611e0b81611b8b565b929592945050506040919091013590565b600060208284031215611e2e57600080fd5b8135610c3c81611b8b565b80151581146112a757600080fd5b60008060408385031215611e5a57600080fd5b8235611e6581611b8b565b91506020830135611e7581611e39565b809150509250929050565b600080600080600060808688031215611e9857600080fd5b8535611ea381611b8b565b94506020860135611eb381611b8b565b935060408601359250606086013567ffffffffffffffff80821115611ed757600080fd5b818801915088601f830112611eeb57600080fd5b813581811115611efa57600080fd5b896020828501011115611f0c57600080fd5b9699959850939650602001949392505050565b60008060408385031215611f3257600080fd5b8235611f3d81611b8b565b91506020830135611e7581611b8b565b600060208284031215611f5f57600080fd5b8151610c3c81611e39565b600060208284031215611f7c57600080fd5b8151610c3c81611b8b565b600060208284031215611f9957600080fd5b5051919050565b600082601f830112611fb157600080fd5b8151611fbf611c2e82611be7565b818152846020838601011115611fd457600080fd5b611fe5826020830160208701611d27565b949350505050565b600060208284031215611fff57600080fd5b815167ffffffffffffffff81111561201657600080fd5b611fe584828501611fa0565b6000806000806080858703121561203857600080fd5b845167ffffffffffffffff8082111561205057600080fd5b61205c88838901611fa0565b9550602087015191508082111561207257600080fd5b61207e88838901611fa0565b9450604087015191508082111561209457600080fd5b506120a187828801611fa0565b606096909601519497939650505050565b600181811c908216806120c657607f821691505b6020821081036120e657634e487b7160e01b600052602260045260246000fd5b50919050565b60408152600080845481600182811c91508083168061210c57607f831692505b6020808410820361212b57634e487b7160e01b86526022600452602486fd5b604088018490526060880182801561214a576001811461215b57612186565b60ff19871682528282019750612186565b60008c81526020902060005b8781101561218057815484820152908601908401612167565b83019850505b505087860381890152505050505061219e8185611d57565b95945050505050565b60006001600160a01b03808816835280871660208401525084604083015260806060830152826080830152828460a0840137600060a0848401015260a0601f19601f85011683010190509695505050505050565b60006001820161221b57634e487b7160e01b600052601160045260246000fd5b506001019056fea2646970667358221220e36f07da3cdcc16b7e0ef1f59f465bd71796370c26a7f762eaa033ad02e03ea264736f6c634300080e0033",
  "immutableReferences": {},
  "source": "// Copyright 2022 ImmutableSoft Inc.\r\n\r\npragma solidity >=0.7.6;\r\n\r\n// SPDX-License-Identifier: GPL-3.0-or-later\r\n\r\n// OpenZepellin upgradable contracts\r\nimport \"@openzeppelin/contracts-upgradeable/proxy/utils/Initializable.sol\";\r\nimport \"@openzeppelin/contracts-upgradeable/access/OwnableUpgradeable.sol\";\r\nimport \"@openzeppelin/contracts-upgradeable/token/ERC721/extensions/IERC721MetadataUpgradeable.sol\";\r\nimport \"@openzeppelin/contracts-upgradeable/token/ERC721/extensions/IERC721EnumerableUpgradeable.sol\";\r\n\r\n/*\r\n// OpenZepellin standard contracts\r\n//import \"@openzeppelin/contracts/proxy/utils/Initializable.sol\";\r\nimport \"@openzeppelin/contracts/access/Ownable.sol\";\r\nimport \"@openzeppelin/contracts/token/ERC721/extensions/IERC721Metadata.sol\";\r\nimport \"@openzeppelin/contracts/token/ERC721/extensions/IERC721Enumerable.sol\";\r\n*/\r\n\r\n// ImmutableSoft DAO smart contracts\r\nimport \"./StringCommon.sol\";\r\nimport \"./ImmutableEntity.sol\";\r\nimport \"./ImmutableProduct.sol\";\r\nimport \"./CreatorToken.sol\";\r\n\r\n/// @title Example call proxy for NFT collection - uses CreatorToken\r\n/// @author Sean Lawless for ImmutableSoft Inc.\r\ncontract CollectionProxy is Initializable, OwnableUpgradeable,\r\n                          IERC721MetadataUpgradeable,\r\n                          IERC721EnumerableUpgradeable\r\n/*\r\ncontract CollectionProxy is Ownable, IERC721Metadata, IERC721Enumerable\r\n*/\r\n{\r\n  string private _name;\r\n  string private _symbol;\r\n  uint256 private _entity;\r\n  uint256 private _product;\r\n\r\n  // External contract interfaces (ImmutableSoft DAO)\r\n  StringCommon private commonInterface;\r\n  CreatorToken private creatorToken;\r\n\r\n  /// @notice Initialize the CollectionProxy smart contract\r\n  ///   Called during first deployment only\r\n  /// @param commonAddr The StringCommon contract address\r\n  /// @param creatorTokenAddr The Creator Token contract address\r\n  /// @param entity The Immutable DAO entityID of collection\r\n  /// @param product The Immutable DAO productID of collection\r\n/*  constructor(address commonAddr, address creatorTokenAddr,\r\n              uint256 entity, uint256 product)\r\n     Ownable()*/\r\n  function initialize(address commonAddr, address creatorTokenAddr,\r\n      address entityAddr, address productAddr,\r\n      string memory collectionName, string memory theSymbol,\r\n      uint256 entity, uint256 product) public initializer\r\n  {\r\n    __Ownable_init();\r\n    ImmutableEntity entityInterface = ImmutableEntity(entityAddr);\r\n\r\n    // If not immutablesoft owner, check entity owner matches sender\r\n    if (msg.sender != entityInterface.owner())\r\n    {\r\n      uint256 entityStatus = entityInterface.entityAddressStatus(msg.sender);\r\n      uint256 entityIndex = entityInterface.entityAddressToIndex(msg.sender);\r\n\r\n      // Ensure the proxy is deployed with entity address\r\n      require(entity == entityIndex, \"Not authorized\");\r\n\r\n      // Only a validated commercial entity can create a proxy\r\n      require(entityStatus > 0, commonInterface.EntityNotValidated());\r\n      require((entityStatus & commonInterface.Nonprofit()) !=\r\n              commonInterface.Nonprofit(), \"Nonprofit prohibited\");\r\n\r\n      // Verify product and use product name as collection name\r\n      string memory url;\r\n      string memory logo;\r\n      uint256 details;\r\n      ImmutableProduct productInterface = ImmutableProduct(productAddr);\r\n      (_name, url, logo, details) = productInterface.productDetails(entity, product);\r\n      require(commonInterface.stringsEqual(_name, collectionName),\r\n              \"Product name does not match\");\r\n    }\r\n    else\r\n      _name = collectionName;\r\n\r\n    // Finalize the smart contract data\r\n    _symbol = theSymbol;\r\n    _entity = entity;\r\n    _product = product;\r\n    commonInterface = StringCommon(commonAddr);\r\n    creatorToken = CreatorToken(creatorTokenAddr);\r\n  }\r\n\r\n  /// @notice Retrieve the token name (ie. collection name)\r\n  /// @return Return the token name as a string\r\n  function name() public view\r\n      returns (string memory)\r\n  {\r\n    return _name;\r\n  }\r\n\r\n  /// @notice Retrieve the token symbol\r\n  /// @return Return the token symbol as a string\r\n  function symbol() public view\r\n      returns (string memory)\r\n  {\r\n    return _symbol;\r\n  }\r\n\r\n  /// @notice Return the type of supported ERC interfaces\r\n  /// @param interfaceId The interface desired\r\n  /// @return TRUE (1) if supported, FALSE (0) otherwise\r\n  function supportsInterface(bytes4 interfaceId) public view\r\n      returns (bool)\r\n  {\r\n    return creatorToken.supportsInterface(interfaceId);\r\n  }\r\n\r\n  /// @notice Convert tokenID from this proxy to ImmutableSoft DAO\r\n  /// @param tokenId The proxy identifier (only release id)\r\n  /// @return The CreatorToken (ImmutableSoft) token Id\r\n  function idToDAO(uint256 tokenId)\r\n    public view returns (uint256)\r\n  {\r\n    return ((_entity << commonInterface.EntityIdOffset()) &\r\n            commonInterface.EntityIdMask()) |\r\n           ((_product << commonInterface.ProductIdOffset()) &\r\n            commonInterface.ProductIdMask()) |\r\n           ((tokenId << commonInterface.ReleaseIdOffset()) &\r\n            commonInterface.ReleaseIdMask());\r\n  }\r\n\r\n  /// @notice Look up the release URI from the token Id\r\n  /// @param tokenId The unique token identifier\r\n  /// @return the file name and/or URI secured by this token\r\n  function tokenURI(uint256 tokenId) public view\r\n      returns (string memory)\r\n  {\r\n    return creatorToken.tokenURI(idToDAO(tokenId));\r\n  }\r\n\r\n  /// @notice Approve and address for token Id transfer/burn\r\n  /// @param to The address to approve (smart contract, etc.)\r\n  /// @param to The tokenId to approve\r\n  function approve(address to, uint256 tokenId) public\r\n  {\r\n    return creatorToken.approve(to, idToDAO(tokenId));\r\n  }\r\n  \r\n  /// @notice Query approval address for token Id\r\n  /// @param tokenId The token identifier\r\n  /// @return operator The approved address of operator\r\n  function getApproved(uint256 tokenId) public view\r\n    returns (address operator)\r\n  {\r\n    return creatorToken.getApproved(idToDAO(tokenId));\r\n  }\r\n\r\n  /// @notice Query approval address for owner\r\n  /// @param owner The address of token owner\r\n  /// @param operator The address of operator to check\r\n  /// @return The true if approved for all tokens\r\n  function isApprovedForAll(address owner, address operator) public view\r\n    returns (bool)\r\n  {\r\n    return creatorToken.isApprovedForAll(owner, operator);\r\n  }\r\n\r\n  /// @notice Query owner of token\r\n  /// @param tokenId The token identifier to lookup owner of\r\n  /// @return owner The address of the token owner\r\n  function ownerOf(uint256 tokenId) public view\r\n    returns (address owner)\r\n  {\r\n    return creatorToken.ownerOf(idToDAO(tokenId));\r\n  }\r\n\r\n  /// @notice Change approval rights for operator\r\n  /// @param operator The address to token operator\r\n  /// @param _approved True or false of new approval status\r\n  function setApprovalForAll(address operator, bool _approved) public\r\n  {\r\n    return creatorToken.setApprovalForAll(operator, _approved);\r\n  }\r\n\r\n  /// @notice Safely transfer a token\r\n  /// @param from The old token owner address\r\n  /// @param to The new token owner address\r\n  /// @param tokenId The token id to transfer\r\n  function safeTransferFrom(address from, address to, uint256 tokenId)\r\n    public\r\n  {\r\n    return creatorToken.safeTransferFrom(from, to, idToDAO(tokenId));\r\n  }\r\n\r\n  /// @notice Safely transfer a token with data\r\n  /// @param from The old token owner address\r\n  /// @param to The new token owner address\r\n  /// @param tokenId The token id to transfer\r\n  /// @param data Additional data\r\n  function safeTransferFrom(address from, address to, uint256 tokenId,\r\n                            bytes calldata data)\r\n    public\r\n  {\r\n    return creatorToken.safeTransferFrom(from, to, idToDAO(tokenId),\r\n                                         data);\r\n  }\r\n\r\n  /// @notice Transfer a token\r\n  /// @param from The old token owner address\r\n  /// @param to The new token owner address\r\n  /// @param tokenId The token id to transfer\r\n  function transferFrom(address from, address to, uint256 tokenId)\r\n    public\r\n  {\r\n    return creatorToken.transferFrom(from, to, idToDAO(tokenId));\r\n  }\r\n\r\n  /// @notice Find and return the number of or tokenID of\r\n  /// @param owner The (optional) owner of\r\n  /// @param index The (optaionl) index of\r\n  /// @return The token count or ID of the lookup\r\n  function _tokenOf(address owner, uint256 index)\r\n    internal view returns (uint256)\r\n  {\r\n    uint256 currentIndex = 0;\r\n    uint256 i;\r\n    uint256 max =(owner != address(0)) ?\r\n                   creatorToken.balanceOf(owner) :\r\n                   creatorToken.totalSupply();\r\n\r\n    //Interate ownedTokens and count only this entity and product\r\n    for (i = 0;i < max; ++i)\r\n    {\r\n      // Read the next token id (by owner or global)\r\n      uint256 tokenId = (owner != address(0)) ?\r\n                        creatorToken.tokenOfOwnerByIndex(owner, i) :\r\n                        creatorToken.tokenByIndex(i);\r\n\r\n      // Deserialize the entity and product identifiers\r\n      uint256 entityIndex = ((tokenId &\r\n                             commonInterface.EntityIdMask()) >>\r\n                             commonInterface.EntityIdOffset());\r\n      uint256 productIndex = ((tokenId &\r\n                              commonInterface.ProductIdMask()) >>\r\n                              commonInterface.ProductIdOffset());\r\n\r\n      // If identifiers match this proxy, count and/or return if found\r\n      if ((entityIndex == _entity) && (productIndex == _product))\r\n      {\r\n        ++currentIndex;\r\n\r\n        // If specific token, return just the release identifier\r\n        //   shifted to LSB.\r\n        if ((index > 0) && (index == currentIndex))\r\n          return ((tokenId & commonInterface.ReleaseIdMask()) >>\r\n                   commonInterface.ReleaseIdOffset());\r\n      }\r\n    }\r\n\r\n    // If not a tokenId lookup then return the token count\r\n    if (index == 0)\r\n      return currentIndex;\r\n\r\n    // Otherwise return tokenId zero (not found)\r\n    else\r\n      return 0;\r\n  }\r\n\r\n  /// @notice Return balance of owned tokens\r\n  /// @dev Returns subset of ImmutableSoft DAO tokens that match\r\n  ///      the entity and product this proxy was initialized for.\r\n  /// @param owner The old token owner address\r\n  /// @return balance The number of tokens owned\r\n  function balanceOf(address owner) public view\r\n    returns (uint256 balance)\r\n  {\r\n    return _tokenOf(owner, 0);\r\n  }\r\n\r\n  /// @notice Return tokenId of index owned by an address\r\n  /// @dev Returns subset of ImmutableSoft DAO tokens that match\r\n  ///      the entity and product this proxy was initialized for.\r\n  /// @param owner The old token owner address\r\n  /// @param index The old token index of this specific owner\r\n  /// @return the tokenId of the specific token\r\n  function tokenOfOwnerByIndex(address owner, uint256 index) public view \r\n    returns (uint256)\r\n  {\r\n    return _tokenOf(owner, index);\r\n  }\r\n\r\n  /// @notice Return the total supply of tokens\r\n  /// @dev Returns subset of ImmutableSoft DAO tokens that match\r\n  ///      the entity and product this proxy was initialized for.\r\n  /// @return the number of tokens within this collection\r\n  function totalSupply() public view\r\n    returns (uint256)\r\n  {\r\n    return _tokenOf(address(0), 0);\r\n  }\r\n\r\n  /// @notice Return the tokenId by global index\r\n  /// @dev Returns subset of ImmutableSoft DAO tokens that match\r\n  ///      the entity and product this proxy was initialized for.\r\n  /// @return the tokenId of specific index within this collection\r\n  function tokenByIndex(uint256 index) public view \r\n    returns (uint256)\r\n  {\r\n    return _tokenOf(address(0), index);\r\n  }\r\n}\r\n",
  "sourcePath": "C:\\Users\\slawl\\Source\\github\\ImmutableEcosystem\\contracts\\CollectionProxy.sol",
  "compiler": {
    "name": "solc",
    "version": "0.8.14+commit.80d49f37.Emscripten.clang"
  },
  "schemaVersion": "3.4.16",
  "updatedAt": "2024-01-20T00:17:24.606Z",
  "devdoc": {
    "author": "Sean Lawless for ImmutableSoft Inc.",
    "kind": "dev",
    "methods": {
      "approve(address,uint256)": {
        "params": {
          "to": "The tokenId to approve"
        }
      },
      "balanceOf(address)": {
        "details": "Returns subset of ImmutableSoft DAO tokens that match      the entity and product this proxy was initialized for.",
        "params": {
          "owner": "The old token owner address"
        },
        "returns": {
          "balance": "The number of tokens owned"
        }
      },
      "getApproved(uint256)": {
        "params": {
          "tokenId": "The token identifier"
        },
        "returns": {
          "operator": "The approved address of operator"
        }
      },
      "idToDAO(uint256)": {
        "params": {
          "tokenId": "The proxy identifier (only release id)"
        },
        "returns": {
          "_0": "The CreatorToken (ImmutableSoft) token Id"
        }
      },
      "initialize(address,address,address,address,string,string,uint256,uint256)": {
        "params": {
          "commonAddr": "The StringCommon contract address",
          "creatorTokenAddr": "The Creator Token contract address",
          "entity": "The Immutable DAO entityID of collection",
          "product": "The Immutable DAO productID of collection"
        }
      },
      "isApprovedForAll(address,address)": {
        "params": {
          "operator": "The address of operator to check",
          "owner": "The address of token owner"
        },
        "returns": {
          "_0": "The true if approved for all tokens"
        }
      },
      "name()": {
        "returns": {
          "_0": "Return the token name as a string"
        }
      },
      "owner()": {
        "details": "Returns the address of the current owner."
      },
      "ownerOf(uint256)": {
        "params": {
          "tokenId": "The token identifier to lookup owner of"
        },
        "returns": {
          "owner": "The address of the token owner"
        }
      },
      "renounceOwnership()": {
        "details": "Leaves the contract without owner. It will not be possible to call `onlyOwner` functions anymore. Can only be called by the current owner. NOTE: Renouncing ownership will leave the contract without an owner, thereby removing any functionality that is only available to the owner."
      },
      "safeTransferFrom(address,address,uint256)": {
        "params": {
          "from": "The old token owner address",
          "to": "The new token owner address",
          "tokenId": "The token id to transfer"
        }
      },
      "safeTransferFrom(address,address,uint256,bytes)": {
        "params": {
          "data": "Additional data",
          "from": "The old token owner address",
          "to": "The new token owner address",
          "tokenId": "The token id to transfer"
        }
      },
      "setApprovalForAll(address,bool)": {
        "params": {
          "_approved": "True or false of new approval status",
          "operator": "The address to token operator"
        }
      },
      "supportsInterface(bytes4)": {
        "params": {
          "interfaceId": "The interface desired"
        },
        "returns": {
          "_0": "TRUE (1) if supported, FALSE (0) otherwise"
        }
      },
      "symbol()": {
        "returns": {
          "_0": "Return the token symbol as a string"
        }
      },
      "tokenByIndex(uint256)": {
        "details": "Returns subset of ImmutableSoft DAO tokens that match      the entity and product this proxy was initialized for.",
        "returns": {
          "_0": "the tokenId of specific index within this collection"
        }
      },
      "tokenOfOwnerByIndex(address,uint256)": {
        "details": "Returns subset of ImmutableSoft DAO tokens that match      the entity and product this proxy was initialized for.",
        "params": {
          "index": "The old token index of this specific owner",
          "owner": "The old token owner address"
        },
        "returns": {
          "_0": "the tokenId of the specific token"
        }
      },
      "tokenURI(uint256)": {
        "params": {
          "tokenId": "The unique token identifier"
        },
        "returns": {
          "_0": "the file name and/or URI secured by this token"
        }
      },
      "totalSupply()": {
        "details": "Returns subset of ImmutableSoft DAO tokens that match      the entity and product this proxy was initialized for.",
        "returns": {
          "_0": "the number of tokens within this collection"
        }
      },
      "transferFrom(address,address,uint256)": {
        "params": {
          "from": "The old token owner address",
          "to": "The new token owner address",
          "tokenId": "The token id to transfer"
        }
      },
      "transferOwnership(address)": {
        "details": "Transfers ownership of the contract to a new account (`newOwner`). Can only be called by the current owner."
      }
    },
    "title": "Example call proxy for NFT collection - uses CreatorToken",
    "version": 1
  },
  "userdoc": {
    "kind": "user",
    "methods": {
      "approve(address,uint256)": {
        "notice": "Approve and address for token Id transfer/burn"
      },
      "balanceOf(address)": {
        "notice": "Return balance of owned tokens"
      },
      "getApproved(uint256)": {
        "notice": "Query approval address for token Id"
      },
      "idToDAO(uint256)": {
        "notice": "Convert tokenID from this proxy to ImmutableSoft DAO"
      },
      "initialize(address,address,address,address,string,string,uint256,uint256)": {
        "notice": "Initialize the CollectionProxy smart contract   Called during first deployment only"
      },
      "isApprovedForAll(address,address)": {
        "notice": "Query approval address for owner"
      },
      "name()": {
        "notice": "Retrieve the token name (ie. collection name)"
      },
      "ownerOf(uint256)": {
        "notice": "Query owner of token"
      },
      "safeTransferFrom(address,address,uint256)": {
        "notice": "Safely transfer a token"
      },
      "safeTransferFrom(address,address,uint256,bytes)": {
        "notice": "Safely transfer a token with data"
      },
      "setApprovalForAll(address,bool)": {
        "notice": "Change approval rights for operator"
      },
      "supportsInterface(bytes4)": {
        "notice": "Return the type of supported ERC interfaces"
      },
      "symbol()": {
        "notice": "Retrieve the token symbol"
      },
      "tokenByIndex(uint256)": {
        "notice": "Return the tokenId by global index"
      },
      "tokenOfOwnerByIndex(address,uint256)": {
        "notice": "Return tokenId of index owned by an address"
      },
      "tokenURI(uint256)": {
        "notice": "Look up the release URI from the token Id"
      },
      "totalSupply()": {
        "notice": "Return the total supply of tokens"
      },
      "transferFrom(address,address,uint256)": {
        "notice": "Transfer a token"
      }
    },
    "version": 1
  }
}