{
  "contractName": "CollectionProxy",
  "abi": [
    {
      "anonymous": false,
      "inputs": [
        {
          "indexed": true,
          "internalType": "address",
          "name": "owner",
          "type": "address"
        },
        {
          "indexed": true,
          "internalType": "address",
          "name": "approved",
          "type": "address"
        },
        {
          "indexed": true,
          "internalType": "uint256",
          "name": "tokenId",
          "type": "uint256"
        }
      ],
      "name": "Approval",
      "type": "event"
    },
    {
      "anonymous": false,
      "inputs": [
        {
          "indexed": true,
          "internalType": "address",
          "name": "owner",
          "type": "address"
        },
        {
          "indexed": true,
          "internalType": "address",
          "name": "operator",
          "type": "address"
        },
        {
          "indexed": false,
          "internalType": "bool",
          "name": "approved",
          "type": "bool"
        }
      ],
      "name": "ApprovalForAll",
      "type": "event"
    },
    {
      "anonymous": false,
      "inputs": [
        {
          "indexed": false,
          "internalType": "uint8",
          "name": "version",
          "type": "uint8"
        }
      ],
      "name": "Initialized",
      "type": "event"
    },
    {
      "anonymous": false,
      "inputs": [
        {
          "indexed": true,
          "internalType": "address",
          "name": "previousOwner",
          "type": "address"
        },
        {
          "indexed": true,
          "internalType": "address",
          "name": "newOwner",
          "type": "address"
        }
      ],
      "name": "OwnershipTransferred",
      "type": "event"
    },
    {
      "anonymous": false,
      "inputs": [
        {
          "indexed": true,
          "internalType": "address",
          "name": "from",
          "type": "address"
        },
        {
          "indexed": true,
          "internalType": "address",
          "name": "to",
          "type": "address"
        },
        {
          "indexed": true,
          "internalType": "uint256",
          "name": "tokenId",
          "type": "uint256"
        }
      ],
      "name": "Transfer",
      "type": "event"
    },
    {
      "inputs": [],
      "name": "owner",
      "outputs": [
        {
          "internalType": "address",
          "name": "",
          "type": "address"
        }
      ],
      "stateMutability": "view",
      "type": "function"
    },
    {
      "inputs": [],
      "name": "renounceOwnership",
      "outputs": [],
      "stateMutability": "nonpayable",
      "type": "function"
    },
    {
      "inputs": [
        {
          "internalType": "address",
          "name": "newOwner",
          "type": "address"
        }
      ],
      "name": "transferOwnership",
      "outputs": [],
      "stateMutability": "nonpayable",
      "type": "function"
    },
    {
      "inputs": [
        {
          "internalType": "address",
          "name": "commonAddr",
          "type": "address"
        },
        {
          "internalType": "address",
          "name": "creatorTokenAddr",
          "type": "address"
        },
        {
          "internalType": "uint256",
          "name": "entity",
          "type": "uint256"
        },
        {
          "internalType": "uint256",
          "name": "product",
          "type": "uint256"
        }
      ],
      "name": "initialize",
      "outputs": [],
      "stateMutability": "nonpayable",
      "type": "function"
    },
    {
      "inputs": [],
      "name": "name",
      "outputs": [
        {
          "internalType": "string",
          "name": "",
          "type": "string"
        }
      ],
      "stateMutability": "view",
      "type": "function"
    },
    {
      "inputs": [],
      "name": "symbol",
      "outputs": [
        {
          "internalType": "string",
          "name": "",
          "type": "string"
        }
      ],
      "stateMutability": "view",
      "type": "function"
    },
    {
      "inputs": [
        {
          "internalType": "bytes4",
          "name": "interfaceId",
          "type": "bytes4"
        }
      ],
      "name": "supportsInterface",
      "outputs": [
        {
          "internalType": "bool",
          "name": "",
          "type": "bool"
        }
      ],
      "stateMutability": "view",
      "type": "function"
    },
    {
      "inputs": [
        {
          "internalType": "uint256",
          "name": "tokenId",
          "type": "uint256"
        }
      ],
      "name": "tokenURI",
      "outputs": [
        {
          "internalType": "string",
          "name": "",
          "type": "string"
        }
      ],
      "stateMutability": "view",
      "type": "function"
    },
    {
      "inputs": [
        {
          "internalType": "address",
          "name": "to",
          "type": "address"
        },
        {
          "internalType": "uint256",
          "name": "tokenId",
          "type": "uint256"
        }
      ],
      "name": "approve",
      "outputs": [],
      "stateMutability": "nonpayable",
      "type": "function"
    },
    {
      "inputs": [
        {
          "internalType": "uint256",
          "name": "tokenId",
          "type": "uint256"
        }
      ],
      "name": "getApproved",
      "outputs": [
        {
          "internalType": "address",
          "name": "operator",
          "type": "address"
        }
      ],
      "stateMutability": "view",
      "type": "function"
    },
    {
      "inputs": [
        {
          "internalType": "address",
          "name": "owner",
          "type": "address"
        },
        {
          "internalType": "address",
          "name": "operator",
          "type": "address"
        }
      ],
      "name": "isApprovedForAll",
      "outputs": [
        {
          "internalType": "bool",
          "name": "",
          "type": "bool"
        }
      ],
      "stateMutability": "view",
      "type": "function"
    },
    {
      "inputs": [
        {
          "internalType": "uint256",
          "name": "tokenId",
          "type": "uint256"
        }
      ],
      "name": "ownerOf",
      "outputs": [
        {
          "internalType": "address",
          "name": "owner",
          "type": "address"
        }
      ],
      "stateMutability": "view",
      "type": "function"
    },
    {
      "inputs": [
        {
          "internalType": "address",
          "name": "operator",
          "type": "address"
        },
        {
          "internalType": "bool",
          "name": "_approved",
          "type": "bool"
        }
      ],
      "name": "setApprovalForAll",
      "outputs": [],
      "stateMutability": "nonpayable",
      "type": "function"
    },
    {
      "inputs": [
        {
          "internalType": "address",
          "name": "from",
          "type": "address"
        },
        {
          "internalType": "address",
          "name": "to",
          "type": "address"
        },
        {
          "internalType": "uint256",
          "name": "tokenId",
          "type": "uint256"
        }
      ],
      "name": "safeTransferFrom",
      "outputs": [],
      "stateMutability": "nonpayable",
      "type": "function"
    },
    {
      "inputs": [
        {
          "internalType": "address",
          "name": "from",
          "type": "address"
        },
        {
          "internalType": "address",
          "name": "to",
          "type": "address"
        },
        {
          "internalType": "uint256",
          "name": "tokenId",
          "type": "uint256"
        },
        {
          "internalType": "bytes",
          "name": "data",
          "type": "bytes"
        }
      ],
      "name": "safeTransferFrom",
      "outputs": [],
      "stateMutability": "nonpayable",
      "type": "function"
    },
    {
      "inputs": [
        {
          "internalType": "address",
          "name": "from",
          "type": "address"
        },
        {
          "internalType": "address",
          "name": "to",
          "type": "address"
        },
        {
          "internalType": "uint256",
          "name": "tokenId",
          "type": "uint256"
        }
      ],
      "name": "transferFrom",
      "outputs": [],
      "stateMutability": "nonpayable",
      "type": "function"
    },
    {
      "inputs": [
        {
          "internalType": "address",
          "name": "owner",
          "type": "address"
        }
      ],
      "name": "balanceOf",
      "outputs": [
        {
          "internalType": "uint256",
          "name": "balance",
          "type": "uint256"
        }
      ],
      "stateMutability": "view",
      "type": "function"
    },
    {
      "inputs": [
        {
          "internalType": "address",
          "name": "owner",
          "type": "address"
        },
        {
          "internalType": "uint256",
          "name": "index",
          "type": "uint256"
        }
      ],
      "name": "tokenOfOwnerByIndex",
      "outputs": [
        {
          "internalType": "uint256",
          "name": "",
          "type": "uint256"
        }
      ],
      "stateMutability": "view",
      "type": "function"
    },
    {
      "inputs": [],
      "name": "totalSupply",
      "outputs": [
        {
          "internalType": "uint256",
          "name": "",
          "type": "uint256"
        }
      ],
      "stateMutability": "view",
      "type": "function"
    },
    {
      "inputs": [
        {
          "internalType": "uint256",
          "name": "index",
          "type": "uint256"
        }
      ],
      "name": "tokenByIndex",
      "outputs": [
        {
          "internalType": "uint256",
          "name": "",
          "type": "uint256"
        }
      ],
      "stateMutability": "view",
      "type": "function"
    }
  ],
  "bytecode": "0x608060405234801561001057600080fd5b506117dd806100206000396000f3fe608060405234801561001057600080fd5b506004361061016c5760003560e01c806370a08231116100cd578063b88d4fde11610081578063e985e9c511610066578063e985e9c5146102d0578063eb990c59146102e3578063f2fde38b146102f657600080fd5b8063b88d4fde146102aa578063c87b56dd146102bd57600080fd5b80638da5cb5b116100b25780638da5cb5b1461027e57806395d89b411461028f578063a22cb4651461029757600080fd5b806370a0823114610263578063715018a61461027657600080fd5b806323b872dd1161012457806342842e0e1161010957806342842e0e1461022a5780634f6ccce71461023d5780636352211e1461025057600080fd5b806323b872dd146102045780632f745c591461021757600080fd5b8063081812fc11610155578063081812fc146101ae578063095ea7b3146101d957806318160ddd146101ee57600080fd5b806301ffc9a71461017157806306fdde0314610199575b600080fd5b61018461017f366004611325565b610309565b60405190151581526020015b60405180910390f35b6101a16103b7565b6040516101909190611397565b6101c16101bc3660046113ca565b610449565b6040516001600160a01b039091168152602001610190565b6101ec6101e73660046113f8565b6104d1565b005b6101f6610555565b604051908152602001610190565b6101ec610212366004611424565b610567565b6101f66102253660046113f8565b6105f4565b6101ec610238366004611424565b610607565b6101f661024b3660046113ca565b610661565b6101c161025e3660046113ca565b61066e565b6101f6610271366004611465565b6106b9565b6101ec6106c6565b6033546001600160a01b03166101c1565b6101a1610731565b6101ec6102a5366004611490565b610740565b6101ec6102b83660046114c9565b610793565b6101a16102cb3660046113ca565b61081e565b6101846102de366004611568565b6108a9565b6101ec6102f1366004611596565b610939565b6101ec610304366004611465565b610a82565b606a546040517f01ffc9a70000000000000000000000000000000000000000000000000000000081527fffffffff00000000000000000000000000000000000000000000000000000000831660048201526000916001600160a01b0316906301ffc9a790602401602060405180830381865afa15801561038d573d6000803e3d6000fd5b505050506040513d601f19601f820116820180604052508101906103b191906115dc565b92915050565b6060606580546103c6906115f9565b80601f01602080910402602001604051908101604052809291908181526020018280546103f2906115f9565b801561043f5780601f106104145761010080835404028352916020019161043f565b820191906000526020600020905b81548152906001019060200180831161042257829003601f168201915b5050505050905090565b606a546040517f081812fc000000000000000000000000000000000000000000000000000000008152600481018390526000916001600160a01b03169063081812fc906024015b602060405180830381865afa1580156104ad573d6000803e3d6000fd5b505050506040513d601f19601f820116820180604052508101906103b19190611633565b606a546040517f095ea7b30000000000000000000000000000000000000000000000000000000081526001600160a01b038481166004830152602482018490529091169063095ea7b3906044015b600060405180830381600087803b15801561053957600080fd5b505af115801561054d573d6000803e3d6000fd5b505050505050565b6000610562600080610b64565b905090565b606a546040517f23b872dd0000000000000000000000000000000000000000000000000000000081526001600160a01b038581166004830152848116602483015260448201849052909116906323b872dd906064015b600060405180830381600087803b1580156105d757600080fd5b505af11580156105eb573d6000803e3d6000fd5b50505050505050565b60006106008383610b64565b9392505050565b606a546040517f42842e0e0000000000000000000000000000000000000000000000000000000081526001600160a01b038581166004830152848116602483015260448201849052909116906342842e0e906064016105bd565b60006103b1600083610b64565b606a546040517f6352211e000000000000000000000000000000000000000000000000000000008152600481018390526000916001600160a01b031690636352211e90602401610490565b60006103b1826000610b64565b6033546001600160a01b031633146107255760405162461bcd60e51b815260206004820181905260248201527f4f776e61626c653a2063616c6c6572206973206e6f7420746865206f776e657260448201526064015b60405180910390fd5b61072f6000611017565b565b6060606680546103c6906115f9565b606a546040517fa22cb4650000000000000000000000000000000000000000000000000000000081526001600160a01b03848116600483015283151560248301529091169063a22cb4659060440161051f565b606a546040517fb88d4fde0000000000000000000000000000000000000000000000000000000081526001600160a01b039091169063b88d4fde906107e49088908890889088908890600401611650565b600060405180830381600087803b1580156107fe57600080fd5b505af1158015610812573d6000803e3d6000fd5b505050505b5050505050565b606a546040517fc87b56dd000000000000000000000000000000000000000000000000000000008152600481018390526060916001600160a01b03169063c87b56dd90602401600060405180830381865afa158015610881573d6000803e3d6000fd5b505050506040513d6000823e601f3d908101601f191682016040526103b191908101906116ba565b606a546040517fe985e9c50000000000000000000000000000000000000000000000000000000081526001600160a01b0384811660048301528381166024830152600092169063e985e9c590604401602060405180830381865afa158015610915573d6000803e3d6000fd5b505050506040513d601f19601f8201168201806040525081019061060091906115dc565b60006109456001611076565b9050801561095d576000805461ff0019166101001790555b6109656111aa565b60408051808201909152600f8082527f436f6c6c656374696f6e50726f7879000000000000000000000000000000000060209092019182526109a99160659161128c565b506040805180820190915260038082527f505859000000000000000000000000000000000000000000000000000000000060209092019182526109ee9160669161128c565b5060678390556068829055606980546001600160a01b0380881673ffffffffffffffffffffffffffffffffffffffff1992831617909255606a8054928716929091169190911790558015610817576000805461ff0019169055604051600181527f7f26b83ff96e1f2b6a682f133852f6798a09c465da95921460cefb38474024989060200160405180910390a15050505050565b6033546001600160a01b03163314610adc5760405162461bcd60e51b815260206004820181905260248201527f4f776e61626c653a2063616c6c6572206973206e6f7420746865206f776e6572604482015260640161071c565b6001600160a01b038116610b585760405162461bcd60e51b815260206004820152602660248201527f4f776e61626c653a206e6577206f776e657220697320746865207a65726f206160448201527f6464726573730000000000000000000000000000000000000000000000000000606482015260840161071c565b610b6181611017565b50565b60008080806001600160a01b038616610bf357606a60009054906101000a90046001600160a01b03166001600160a01b03166318160ddd6040518163ffffffff1660e01b8152600401602060405180830381865afa158015610bca573d6000803e3d6000fd5b505050506040513d601f19601f82011682018060405250810190610bee9190611767565b610c7a565b606a546040517f70a082310000000000000000000000000000000000000000000000000000000081526001600160a01b038881166004830152909116906370a0823190602401602060405180830381865afa158015610c56573d6000803e3d6000fd5b505050506040513d601f19601f82011682018060405250810190610c7a9190611767565b9050600091505b80821015610ff85760006001600160a01b038716610d2457606a546040517f4f6ccce7000000000000000000000000000000000000000000000000000000008152600481018590526001600160a01b0390911690634f6ccce790602401602060405180830381865afa158015610cfb573d6000803e3d6000fd5b505050506040513d601f19601f82011682018060405250810190610d1f9190611767565b610db2565b606a546040517f2f745c590000000000000000000000000000000000000000000000000000000081526001600160a01b0389811660048301526024820186905290911690632f745c5990604401602060405180830381865afa158015610d8e573d6000803e3d6000fd5b505050506040513d601f19601f82011682018060405250810190610db29190611767565b90506000606960009054906101000a90046001600160a01b03166001600160a01b03166310871b7c6040518163ffffffff1660e01b8152600401602060405180830381865afa158015610e09573d6000803e3d6000fd5b505050506040513d601f19601f82011682018060405250810190610e2d9190611767565b606960009054906101000a90046001600160a01b03166001600160a01b031663d09ab7476040518163ffffffff1660e01b8152600401602060405180830381865afa158015610e80573d6000803e3d6000fd5b505050506040513d601f19601f82011682018060405250810190610ea49190611767565b8316901c90506000606960009054906101000a90046001600160a01b03166001600160a01b03166334ef6a706040518163ffffffff1660e01b8152600401602060405180830381865afa158015610eff573d6000803e3d6000fd5b505050506040513d601f19601f82011682018060405250810190610f239190611767565b606960009054906101000a90046001600160a01b03166001600160a01b03166361b156556040518163ffffffff1660e01b8152600401602060405180830381865afa158015610f76573d6000803e3d6000fd5b505050506040513d601f19601f82011682018060405250810190610f9a9190611767565b8416901c905060675482148015610fb2575060685481145b15610fe457610fc086611780565b9550600088118015610fd157508588145b15610fe4578296505050505050506103b1565b50505081610ff190611780565b9150610c81565b8460000361100b578293505050506103b1565b600093505050506103b1565b603380546001600160a01b0383811673ffffffffffffffffffffffffffffffffffffffff19831681179093556040519116919082907f8be0079c531659141344cd1fd0a4f28419497f9722a3daafe3b4186f6b6457e090600090a35050565b60008054610100900460ff1615611113578160ff1660011480156110995750303b155b61110b5760405162461bcd60e51b815260206004820152602e60248201527f496e697469616c697a61626c653a20636f6e747261637420697320616c72656160448201527f647920696e697469616c697a6564000000000000000000000000000000000000606482015260840161071c565b506000919050565b60005460ff8084169116106111905760405162461bcd60e51b815260206004820152602e60248201527f496e697469616c697a61626c653a20636f6e747261637420697320616c72656160448201527f647920696e697469616c697a6564000000000000000000000000000000000000606482015260840161071c565b506000805460ff191660ff92909216919091179055600190565b600054610100900460ff166112155760405162461bcd60e51b815260206004820152602b60248201527f496e697469616c697a61626c653a20636f6e7472616374206973206e6f74206960448201526a6e697469616c697a696e6760a81b606482015260840161071c565b61072f600054610100900460ff166112835760405162461bcd60e51b815260206004820152602b60248201527f496e697469616c697a61626c653a20636f6e7472616374206973206e6f74206960448201526a6e697469616c697a696e6760a81b606482015260840161071c565b61072f33611017565b828054611298906115f9565b90600052602060002090601f0160209004810192826112ba5760008555611300565b82601f106112d357805160ff1916838001178555611300565b82800160010185558215611300579182015b828111156113005782518255916020019190600101906112e5565b5061130c929150611310565b5090565b5b8082111561130c5760008155600101611311565b60006020828403121561133757600080fd5b81357fffffffff000000000000000000000000000000000000000000000000000000008116811461060057600080fd5b60005b8381101561138257818101518382015260200161136a565b83811115611391576000848401525b50505050565b60208152600082518060208401526113b6816040850160208701611367565b601f01601f19169190910160400192915050565b6000602082840312156113dc57600080fd5b5035919050565b6001600160a01b0381168114610b6157600080fd5b6000806040838503121561140b57600080fd5b8235611416816113e3565b946020939093013593505050565b60008060006060848603121561143957600080fd5b8335611444816113e3565b92506020840135611454816113e3565b929592945050506040919091013590565b60006020828403121561147757600080fd5b8135610600816113e3565b8015158114610b6157600080fd5b600080604083850312156114a357600080fd5b82356114ae816113e3565b915060208301356114be81611482565b809150509250929050565b6000806000806000608086880312156114e157600080fd5b85356114ec816113e3565b945060208601356114fc816113e3565b935060408601359250606086013567ffffffffffffffff8082111561152057600080fd5b818801915088601f83011261153457600080fd5b81358181111561154357600080fd5b89602082850101111561155557600080fd5b9699959850939650602001949392505050565b6000806040838503121561157b57600080fd5b8235611586816113e3565b915060208301356114be816113e3565b600080600080608085870312156115ac57600080fd5b84356115b7816113e3565b935060208501356115c7816113e3565b93969395505050506040820135916060013590565b6000602082840312156115ee57600080fd5b815161060081611482565b600181811c9082168061160d57607f821691505b60208210810361162d57634e487b7160e01b600052602260045260246000fd5b50919050565b60006020828403121561164557600080fd5b8151610600816113e3565b60006001600160a01b03808816835280871660208401525084604083015260806060830152826080830152828460a0840137600060a0848401015260a0601f19601f85011683010190509695505050505050565b634e487b7160e01b600052604160045260246000fd5b6000602082840312156116cc57600080fd5b815167ffffffffffffffff808211156116e457600080fd5b818401915084601f8301126116f857600080fd5b81518181111561170a5761170a6116a4565b604051601f8201601f19908116603f01168101908382118183101715611732576117326116a4565b8160405282815287602084870101111561174b57600080fd5b61175c836020830160208801611367565b979650505050505050565b60006020828403121561177957600080fd5b5051919050565b6000600182016117a057634e487b7160e01b600052601160045260246000fd5b506001019056fea2646970667358221220a65ea4f288a3ae5e04c9591e4beae82357b6f7c922a9c7f47f6bd461a1f85bf864736f6c634300080e0033",
  "immutableReferences": {},
  "source": "// Copyright 2022 ImmutableSoft Inc.\r\n\r\npragma solidity >=0.7.6;\r\n\r\n// SPDX-License-Identifier: GPL-3.0-or-later\r\n\r\n// OpenZepellin upgradable contracts\r\nimport \"@openzeppelin/contracts-upgradeable/proxy/utils/Initializable.sol\";\r\nimport \"@openzeppelin/contracts-upgradeable/access/OwnableUpgradeable.sol\";\r\nimport \"@openzeppelin/contracts-upgradeable/token/ERC721/extensions/IERC721MetadataUpgradeable.sol\";\r\nimport \"@openzeppelin/contracts-upgradeable/token/ERC721/extensions/IERC721EnumerableUpgradeable.sol\";\r\n\r\n/*\r\n// OpenZepellin standard contracts\r\n//import \"@openzeppelin/contracts/proxy/utils/Initializable.sol\";\r\nimport \"@openzeppelin/contracts/access/Ownable.sol\";\r\nimport \"@openzeppelin/contracts/token/ERC721/extensions/IERC721Metadata.sol\";\r\nimport \"@openzeppelin/contracts/token/ERC721/extensions/IERC721Enumerable.sol\";\r\n*/\r\n\r\n// ImmutableSoft DAO smart contracts\r\nimport \"./StringCommon.sol\";\r\nimport \"./CreatorToken.sol\";\r\n\r\n/// @title Example call proxy for NFT collection - uses CreatorToken\r\n/// @author Sean Lawless for ImmutableSoft Inc.\r\ncontract CollectionProxy is Initializable, OwnableUpgradeable,\r\n                          IERC721MetadataUpgradeable,\r\n                          IERC721EnumerableUpgradeable\r\n/*\r\ncontract CollectionProxy is Ownable, IERC721Metadata, IERC721Enumerable\r\n*/\r\n{\r\n  string private _name;\r\n  string private _symbol;\r\n  uint256 private _entity;\r\n  uint256 private _product;\r\n\r\n  // External contract interfaces (ImmutableSoft DAO)\r\n  StringCommon private commonInterface;\r\n  CreatorToken private creatorToken;\r\n\r\n  /// @notice Initialize the CollectionProxy smart contract\r\n  ///   Called during first deployment only\r\n  /// @param commonAddr The StringCommon contract address\r\n  /// @param creatorTokenAddr The Creator Token contract address\r\n  /// @param entity The Immutable DAO entityID of collection\r\n  /// @param product The Immutable DAO productID of collection\r\n/*  constructor(address commonAddr, address creatorTokenAddr,\r\n              uint256 entity, uint256 product)\r\n     Ownable()*/\r\n  function initialize(address commonAddr, address creatorTokenAddr,\r\n                uint256 entity, uint256 product) public initializer\r\n  {\r\n    __Ownable_init();\r\n    _name = \"CollectionProxy\";\r\n    _symbol = \"PXY\";\r\n    _entity = entity;\r\n    _product = product;\r\n    commonInterface = StringCommon(commonAddr);\r\n    creatorToken = CreatorToken(creatorTokenAddr);\r\n  }\r\n\r\n  /// @notice Retrieve the token name (ie. collection name)\r\n  /// @return Return the token name as a string\r\n  function name() public view\r\n      returns (string memory)\r\n  {\r\n    return _name;\r\n  }\r\n\r\n  /// @notice Retrieve the token symbol\r\n  /// @return Return the token symbol as a string\r\n  function symbol() public view\r\n      returns (string memory)\r\n  {\r\n    return _symbol;\r\n  }\r\n\r\n  /// @notice Return the type of supported ERC interfaces\r\n  /// @param interfaceId The interface desired\r\n  /// @return TRUE (1) if supported, FALSE (0) otherwise\r\n  function supportsInterface(bytes4 interfaceId) public view\r\n      returns (bool)\r\n  {\r\n    return creatorToken.supportsInterface(interfaceId);\r\n  }\r\n\r\n  /// @notice Look up the release URI from the token Id\r\n  /// @param tokenId The unique token identifier\r\n  /// @return the file name and/or URI secured by this token\r\n  function tokenURI(uint256 tokenId) public view\r\n      returns (string memory)\r\n  {\r\n    return creatorToken.tokenURI(tokenId);\r\n  }\r\n\r\n  /// @notice Approve and address for token Id transfer/burn\r\n  /// @param to The address to approve (smart contract, etc.)\r\n  /// @param to The tokenId to approve\r\n  function approve(address to, uint256 tokenId) public\r\n  {\r\n    return creatorToken.approve(to, tokenId);\r\n  }\r\n  \r\n  /// @notice Query approval address for token Id\r\n  /// @param tokenId The token identifier\r\n  /// @return operator The approved address of operator\r\n  function getApproved(uint256 tokenId) public view\r\n    returns (address operator)\r\n  {\r\n    return creatorToken.getApproved(tokenId);\r\n  }\r\n\r\n  /// @notice Query approval address for owner\r\n  /// @param owner The address of token owner\r\n  /// @param operator The address of operator to check\r\n  /// @return The true if approved for all tokens\r\n  function isApprovedForAll(address owner, address operator) public view\r\n    returns (bool)\r\n  {\r\n    return creatorToken.isApprovedForAll(owner, operator);\r\n  }\r\n\r\n  /// @notice Query owner of token\r\n  /// @param tokenId The token identifier to lookup owner of\r\n  /// @return owner The address of the token owner\r\n  function ownerOf(uint256 tokenId) public view\r\n    returns (address owner)\r\n  {\r\n    return creatorToken.ownerOf(tokenId);\r\n  }\r\n\r\n  /// @notice Change approval rights for operator\r\n  /// @param operator The address to token operator\r\n  /// @param _approved True or false of new approval status\r\n  function setApprovalForAll(address operator, bool _approved) public\r\n  {\r\n    return creatorToken.setApprovalForAll(operator, _approved);\r\n  }\r\n\r\n  /// @notice Safely transfer a token\r\n  /// @param from The old token owner address\r\n  /// @param to The new token owner address\r\n  /// @param tokenId The token id to transfer\r\n  function safeTransferFrom(address from, address to, uint256 tokenId)\r\n    public\r\n  {\r\n    return creatorToken.safeTransferFrom(from, to, tokenId);\r\n  }\r\n\r\n  /// @notice Safely transfer a token with data\r\n  /// @param from The old token owner address\r\n  /// @param to The new token owner address\r\n  /// @param tokenId The token id to transfer\r\n  /// @param data Additional data\r\n  function safeTransferFrom(address from, address to, uint256 tokenId,\r\n                            bytes calldata data)\r\n    public\r\n  {\r\n    return creatorToken.safeTransferFrom(from, to, tokenId, data);\r\n  }\r\n\r\n  /// @notice Transfer a token\r\n  /// @param from The old token owner address\r\n  /// @param to The new token owner address\r\n  /// @param tokenId The token id to transfer\r\n  function transferFrom(address from, address to, uint256 tokenId)\r\n    public\r\n  {\r\n    return creatorToken.transferFrom(from, to, tokenId);\r\n  }\r\n\r\n  /// @notice Find and return the number of or tokenID of\r\n  /// @param owner The (optional) owner of\r\n  /// @param index The (optaionl) index of\r\n  /// @return The token count or ID of the lookup\r\n  function _tokenOf(address owner, uint256 index)\r\n    internal view returns (uint256)\r\n  {\r\n    uint256 currentIndex = 0;\r\n    uint256 i;\r\n    uint256 max =(owner != address(0)) ?\r\n                   creatorToken.balanceOf(owner) :\r\n                   creatorToken.totalSupply();\r\n\r\n    //Interate ownedTokens and count those of this entity and product\r\n    for (i = 0;i < max; ++i)\r\n    {\r\n      uint256 tokenId = (owner != address(0)) ?\r\n                          creatorToken.tokenOfOwnerByIndex(owner, i) :\r\n                          creatorToken.tokenByIndex(i);\r\n                          \r\n      uint256 entityIndex = ((tokenId &\r\n                             commonInterface.EntityIdMask()) >>\r\n                             commonInterface.EntityIdOffset());\r\n      uint256 productIndex = ((tokenId &\r\n                              commonInterface.ProductIdMask()) >>\r\n                              commonInterface.ProductIdOffset());\r\n\r\n      if ((entityIndex == _entity) && (productIndex == _product))\r\n      {\r\n        ++currentIndex;\r\n        if ((index > 0) && (index == currentIndex))\r\n          return tokenId;\r\n\r\n      }\r\n    }\r\n\r\n    // If not a tokenId lookup then return the token count\r\n    if (index == 0)\r\n      return currentIndex;\r\n\r\n    // Otherwise return tokenId zero (not found)\r\n    else\r\n      return 0;\r\n  }\r\n\r\n  /// @notice Return balance of owned tokens\r\n  /// @dev Only returns subset of ImmutableSoft DAO tokens that match\r\n  ///      the entity and product this proxy was initialized for.\r\n  /// @param owner The old token owner address\r\n  /// @return balance The number of tokens owned\r\n  function balanceOf(address owner) public view\r\n    returns (uint256 balance)\r\n  {\r\n    return _tokenOf(owner, 0);\r\n  }\r\n\r\n  /// @notice Return tokenId of index owned by an address\r\n  /// @dev Returns subset of ImmutableSoft DAO tokens that match\r\n  ///      the entity and product this proxy was initialized for.\r\n  /// @param owner The old token owner address\r\n  /// @param index The old token index of this specific owner\r\n  /// @return the tokenId of the specific token\r\n  function tokenOfOwnerByIndex(address owner, uint256 index) public view \r\n    returns (uint256)\r\n  {\r\n    return _tokenOf(owner, index);\r\n  }\r\n\r\n  /// @notice Return the total supply of tokens\r\n  /// @dev Returns subset of ImmutableSoft DAO tokens that match\r\n  ///      the entity and product this proxy was initialized for.\r\n  /// @return the number of tokens within this collection\r\n  function totalSupply() public view\r\n    returns (uint256)\r\n  {\r\n    return _tokenOf(address(0), 0);\r\n  }\r\n\r\n  /// @notice Return the tokenId by global index\r\n  /// @dev Returns subset of ImmutableSoft DAO tokens that match\r\n  ///      the entity and product this proxy was initialized for.\r\n  /// @return the tokenId of the specific index within this collection\r\n  function tokenByIndex(uint256 index) public view \r\n    returns (uint256)\r\n  {\r\n    return _tokenOf(address(0), index);\r\n  }\r\n}\r\n",
  "sourcePath": "C:\\Users\\slawl\\Source\\ImmutableEcosystem\\contracts\\CollectionProxy.sol",
  "compiler": {
    "name": "solc",
    "version": "0.8.14+commit.80d49f37.Emscripten.clang"
  },
  "schemaVersion": "3.4.3",
  "updatedAt": "2022-09-12T20:21:43.583Z",
  "devdoc": {
    "author": "Sean Lawless for ImmutableSoft Inc.",
    "kind": "dev",
    "methods": {
      "approve(address,uint256)": {
        "params": {
          "to": "The tokenId to approve"
        }
      },
      "balanceOf(address)": {
        "details": "Only returns subset of ImmutableSoft DAO tokens that match      the entity and product this proxy was initialized for.",
        "params": {
          "owner": "The old token owner address"
        },
        "returns": {
          "balance": "The number of tokens owned"
        }
      },
      "getApproved(uint256)": {
        "params": {
          "tokenId": "The token identifier"
        },
        "returns": {
          "operator": "The approved address of operator"
        }
      },
      "initialize(address,address,uint256,uint256)": {
        "params": {
          "commonAddr": "The StringCommon contract address",
          "creatorTokenAddr": "The Creator Token contract address",
          "entity": "The Immutable DAO entityID of collection",
          "product": "The Immutable DAO productID of collection"
        }
      },
      "isApprovedForAll(address,address)": {
        "params": {
          "operator": "The address of operator to check",
          "owner": "The address of token owner"
        },
        "returns": {
          "_0": "The true if approved for all tokens"
        }
      },
      "name()": {
        "returns": {
          "_0": "Return the token name as a string"
        }
      },
      "owner()": {
        "details": "Returns the address of the current owner."
      },
      "ownerOf(uint256)": {
        "params": {
          "tokenId": "The token identifier to lookup owner of"
        },
        "returns": {
          "owner": "The address of the token owner"
        }
      },
      "renounceOwnership()": {
        "details": "Leaves the contract without owner. It will not be possible to call `onlyOwner` functions anymore. Can only be called by the current owner. NOTE: Renouncing ownership will leave the contract without an owner, thereby removing any functionality that is only available to the owner."
      },
      "safeTransferFrom(address,address,uint256)": {
        "params": {
          "from": "The old token owner address",
          "to": "The new token owner address",
          "tokenId": "The token id to transfer"
        }
      },
      "safeTransferFrom(address,address,uint256,bytes)": {
        "params": {
          "data": "Additional data",
          "from": "The old token owner address",
          "to": "The new token owner address",
          "tokenId": "The token id to transfer"
        }
      },
      "setApprovalForAll(address,bool)": {
        "params": {
          "_approved": "True or false of new approval status",
          "operator": "The address to token operator"
        }
      },
      "supportsInterface(bytes4)": {
        "params": {
          "interfaceId": "The interface desired"
        },
        "returns": {
          "_0": "TRUE (1) if supported, FALSE (0) otherwise"
        }
      },
      "symbol()": {
        "returns": {
          "_0": "Return the token symbol as a string"
        }
      },
      "tokenByIndex(uint256)": {
        "details": "Returns subset of ImmutableSoft DAO tokens that match      the entity and product this proxy was initialized for.",
        "returns": {
          "_0": "the tokenId of the specific index within this collection"
        }
      },
      "tokenOfOwnerByIndex(address,uint256)": {
        "details": "Returns subset of ImmutableSoft DAO tokens that match      the entity and product this proxy was initialized for.",
        "params": {
          "index": "The old token index of this specific owner",
          "owner": "The old token owner address"
        },
        "returns": {
          "_0": "the tokenId of the specific token"
        }
      },
      "tokenURI(uint256)": {
        "params": {
          "tokenId": "The unique token identifier"
        },
        "returns": {
          "_0": "the file name and/or URI secured by this token"
        }
      },
      "totalSupply()": {
        "details": "Returns subset of ImmutableSoft DAO tokens that match      the entity and product this proxy was initialized for.",
        "returns": {
          "_0": "the number of tokens within this collection"
        }
      },
      "transferFrom(address,address,uint256)": {
        "params": {
          "from": "The old token owner address",
          "to": "The new token owner address",
          "tokenId": "The token id to transfer"
        }
      },
      "transferOwnership(address)": {
        "details": "Transfers ownership of the contract to a new account (`newOwner`). Can only be called by the current owner."
      }
    },
    "title": "Example call proxy for NFT collection - uses CreatorToken",
    "version": 1
  },
  "userdoc": {
    "kind": "user",
    "methods": {
      "approve(address,uint256)": {
        "notice": "Approve and address for token Id transfer/burn"
      },
      "balanceOf(address)": {
        "notice": "Return balance of owned tokens"
      },
      "getApproved(uint256)": {
        "notice": "Query approval address for token Id"
      },
      "initialize(address,address,uint256,uint256)": {
        "notice": "Initialize the CollectionProxy smart contract   Called during first deployment only"
      },
      "isApprovedForAll(address,address)": {
        "notice": "Query approval address for owner"
      },
      "name()": {
        "notice": "Retrieve the token name (ie. collection name)"
      },
      "ownerOf(uint256)": {
        "notice": "Query owner of token"
      },
      "safeTransferFrom(address,address,uint256)": {
        "notice": "Safely transfer a token"
      },
      "safeTransferFrom(address,address,uint256,bytes)": {
        "notice": "Safely transfer a token with data"
      },
      "setApprovalForAll(address,bool)": {
        "notice": "Change approval rights for operator"
      },
      "supportsInterface(bytes4)": {
        "notice": "Return the type of supported ERC interfaces"
      },
      "symbol()": {
        "notice": "Retrieve the token symbol"
      },
      "tokenByIndex(uint256)": {
        "notice": "Return the tokenId by global index"
      },
      "tokenOfOwnerByIndex(address,uint256)": {
        "notice": "Return tokenId of index owned by an address"
      },
      "tokenURI(uint256)": {
        "notice": "Look up the release URI from the token Id"
      },
      "totalSupply()": {
        "notice": "Return the total supply of tokens"
      },
      "transferFrom(address,address,uint256)": {
        "notice": "Transfer a token"
      }
    },
    "version": 1
  }
}