{
  "contractName": "CreatorToken",
  "abi": [
    {
      "anonymous": false,
      "inputs": [
        {
          "indexed": true,
          "internalType": "address",
          "name": "owner",
          "type": "address"
        },
        {
          "indexed": true,
          "internalType": "address",
          "name": "approved",
          "type": "address"
        },
        {
          "indexed": true,
          "internalType": "uint256",
          "name": "tokenId",
          "type": "uint256"
        }
      ],
      "name": "Approval",
      "type": "event"
    },
    {
      "anonymous": false,
      "inputs": [
        {
          "indexed": true,
          "internalType": "address",
          "name": "owner",
          "type": "address"
        },
        {
          "indexed": true,
          "internalType": "address",
          "name": "operator",
          "type": "address"
        },
        {
          "indexed": false,
          "internalType": "bool",
          "name": "approved",
          "type": "bool"
        }
      ],
      "name": "ApprovalForAll",
      "type": "event"
    },
    {
      "anonymous": false,
      "inputs": [
        {
          "indexed": true,
          "internalType": "address",
          "name": "previousOwner",
          "type": "address"
        },
        {
          "indexed": true,
          "internalType": "address",
          "name": "newOwner",
          "type": "address"
        }
      ],
      "name": "OwnershipTransferred",
      "type": "event"
    },
    {
      "anonymous": false,
      "inputs": [
        {
          "indexed": true,
          "internalType": "address",
          "name": "from",
          "type": "address"
        },
        {
          "indexed": true,
          "internalType": "address",
          "name": "to",
          "type": "address"
        },
        {
          "indexed": true,
          "internalType": "uint256",
          "name": "tokenId",
          "type": "uint256"
        }
      ],
      "name": "Transfer",
      "type": "event"
    },
    {
      "inputs": [],
      "name": "AnonFee",
      "outputs": [
        {
          "internalType": "uint256",
          "name": "",
          "type": "uint256"
        }
      ],
      "stateMutability": "view",
      "type": "function"
    },
    {
      "inputs": [
        {
          "internalType": "address",
          "name": "to",
          "type": "address"
        },
        {
          "internalType": "uint256",
          "name": "tokenId",
          "type": "uint256"
        }
      ],
      "name": "approve",
      "outputs": [],
      "stateMutability": "nonpayable",
      "type": "function"
    },
    {
      "inputs": [
        {
          "internalType": "address",
          "name": "owner",
          "type": "address"
        }
      ],
      "name": "balanceOf",
      "outputs": [
        {
          "internalType": "uint256",
          "name": "",
          "type": "uint256"
        }
      ],
      "stateMutability": "view",
      "type": "function"
    },
    {
      "inputs": [
        {
          "internalType": "uint256",
          "name": "tokenId",
          "type": "uint256"
        }
      ],
      "name": "burn",
      "outputs": [],
      "stateMutability": "nonpayable",
      "type": "function"
    },
    {
      "inputs": [
        {
          "internalType": "uint256",
          "name": "tokenId",
          "type": "uint256"
        }
      ],
      "name": "getApproved",
      "outputs": [
        {
          "internalType": "address",
          "name": "",
          "type": "address"
        }
      ],
      "stateMutability": "view",
      "type": "function"
    },
    {
      "inputs": [
        {
          "internalType": "address",
          "name": "owner",
          "type": "address"
        },
        {
          "internalType": "address",
          "name": "operator",
          "type": "address"
        }
      ],
      "name": "isApprovedForAll",
      "outputs": [
        {
          "internalType": "bool",
          "name": "",
          "type": "bool"
        }
      ],
      "stateMutability": "view",
      "type": "function"
    },
    {
      "inputs": [],
      "name": "name",
      "outputs": [
        {
          "internalType": "string",
          "name": "",
          "type": "string"
        }
      ],
      "stateMutability": "view",
      "type": "function"
    },
    {
      "inputs": [],
      "name": "owner",
      "outputs": [
        {
          "internalType": "address",
          "name": "",
          "type": "address"
        }
      ],
      "stateMutability": "view",
      "type": "function"
    },
    {
      "inputs": [
        {
          "internalType": "uint256",
          "name": "tokenId",
          "type": "uint256"
        }
      ],
      "name": "ownerOf",
      "outputs": [
        {
          "internalType": "address",
          "name": "",
          "type": "address"
        }
      ],
      "stateMutability": "view",
      "type": "function"
    },
    {
      "inputs": [],
      "name": "renounceOwnership",
      "outputs": [],
      "stateMutability": "nonpayable",
      "type": "function"
    },
    {
      "inputs": [
        {
          "internalType": "address",
          "name": "from",
          "type": "address"
        },
        {
          "internalType": "address",
          "name": "to",
          "type": "address"
        },
        {
          "internalType": "uint256",
          "name": "tokenId",
          "type": "uint256"
        }
      ],
      "name": "safeTransferFrom",
      "outputs": [],
      "stateMutability": "nonpayable",
      "type": "function"
    },
    {
      "inputs": [
        {
          "internalType": "address",
          "name": "from",
          "type": "address"
        },
        {
          "internalType": "address",
          "name": "to",
          "type": "address"
        },
        {
          "internalType": "uint256",
          "name": "tokenId",
          "type": "uint256"
        },
        {
          "internalType": "bytes",
          "name": "_data",
          "type": "bytes"
        }
      ],
      "name": "safeTransferFrom",
      "outputs": [],
      "stateMutability": "nonpayable",
      "type": "function"
    },
    {
      "inputs": [
        {
          "internalType": "address",
          "name": "operator",
          "type": "address"
        },
        {
          "internalType": "bool",
          "name": "approved",
          "type": "bool"
        }
      ],
      "name": "setApprovalForAll",
      "outputs": [],
      "stateMutability": "nonpayable",
      "type": "function"
    },
    {
      "inputs": [],
      "name": "symbol",
      "outputs": [
        {
          "internalType": "string",
          "name": "",
          "type": "string"
        }
      ],
      "stateMutability": "view",
      "type": "function"
    },
    {
      "inputs": [
        {
          "internalType": "uint256",
          "name": "index",
          "type": "uint256"
        }
      ],
      "name": "tokenByIndex",
      "outputs": [
        {
          "internalType": "uint256",
          "name": "",
          "type": "uint256"
        }
      ],
      "stateMutability": "view",
      "type": "function"
    },
    {
      "inputs": [
        {
          "internalType": "address",
          "name": "owner",
          "type": "address"
        },
        {
          "internalType": "uint256",
          "name": "index",
          "type": "uint256"
        }
      ],
      "name": "tokenOfOwnerByIndex",
      "outputs": [
        {
          "internalType": "uint256",
          "name": "",
          "type": "uint256"
        }
      ],
      "stateMutability": "view",
      "type": "function"
    },
    {
      "inputs": [],
      "name": "totalSupply",
      "outputs": [
        {
          "internalType": "uint256",
          "name": "",
          "type": "uint256"
        }
      ],
      "stateMutability": "view",
      "type": "function"
    },
    {
      "inputs": [
        {
          "internalType": "address",
          "name": "from",
          "type": "address"
        },
        {
          "internalType": "address",
          "name": "to",
          "type": "address"
        },
        {
          "internalType": "uint256",
          "name": "tokenId",
          "type": "uint256"
        }
      ],
      "name": "transferFrom",
      "outputs": [],
      "stateMutability": "nonpayable",
      "type": "function"
    },
    {
      "inputs": [
        {
          "internalType": "address",
          "name": "newOwner",
          "type": "address"
        }
      ],
      "name": "transferOwnership",
      "outputs": [],
      "stateMutability": "nonpayable",
      "type": "function"
    },
    {
      "inputs": [
        {
          "internalType": "address",
          "name": "commonAddr",
          "type": "address"
        },
        {
          "internalType": "address",
          "name": "entityAddr",
          "type": "address"
        },
        {
          "internalType": "address",
          "name": "productAddr",
          "type": "address"
        }
      ],
      "name": "initialize",
      "outputs": [],
      "stateMutability": "nonpayable",
      "type": "function"
    },
    {
      "inputs": [
        {
          "internalType": "uint256",
          "name": "newFee",
          "type": "uint256"
        }
      ],
      "name": "creatorAnonFee",
      "outputs": [],
      "stateMutability": "nonpayable",
      "type": "function"
    },
    {
      "inputs": [
        {
          "internalType": "uint256",
          "name": "newHash",
          "type": "uint256"
        },
        {
          "internalType": "string",
          "name": "newFileUri",
          "type": "string"
        }
      ],
      "name": "anonFile",
      "outputs": [],
      "stateMutability": "payable",
      "type": "function"
    },
    {
      "inputs": [
        {
          "internalType": "uint256[]",
          "name": "productIndex",
          "type": "uint256[]"
        },
        {
          "internalType": "uint256[]",
          "name": "newVersion",
          "type": "uint256[]"
        },
        {
          "internalType": "uint256[]",
          "name": "newHash",
          "type": "uint256[]"
        },
        {
          "internalType": "string[]",
          "name": "newFileUri",
          "type": "string[]"
        },
        {
          "internalType": "uint256[]",
          "name": "parentHash",
          "type": "uint256[]"
        }
      ],
      "name": "creatorReleases",
      "outputs": [],
      "stateMutability": "nonpayable",
      "type": "function"
    },
    {
      "inputs": [
        {
          "internalType": "uint256",
          "name": "entityIndex",
          "type": "uint256"
        },
        {
          "internalType": "uint256",
          "name": "productIndex",
          "type": "uint256"
        },
        {
          "internalType": "uint256",
          "name": "releaseIndex",
          "type": "uint256"
        }
      ],
      "name": "creatorReleaseDetails",
      "outputs": [
        {
          "internalType": "uint256",
          "name": "flags",
          "type": "uint256"
        },
        {
          "internalType": "string",
          "name": "URI",
          "type": "string"
        },
        {
          "internalType": "uint256",
          "name": "fileHash",
          "type": "uint256"
        },
        {
          "internalType": "uint256",
          "name": "parentHash",
          "type": "uint256"
        }
      ],
      "stateMutability": "view",
      "type": "function"
    },
    {
      "inputs": [
        {
          "internalType": "uint256",
          "name": "fileHash",
          "type": "uint256"
        }
      ],
      "name": "creatorReleaseHashDetails",
      "outputs": [
        {
          "internalType": "uint256",
          "name": "entity",
          "type": "uint256"
        },
        {
          "internalType": "uint256",
          "name": "product",
          "type": "uint256"
        },
        {
          "internalType": "uint256",
          "name": "release",
          "type": "uint256"
        },
        {
          "internalType": "uint256",
          "name": "version",
          "type": "uint256"
        },
        {
          "internalType": "string",
          "name": "URI",
          "type": "string"
        },
        {
          "internalType": "uint256",
          "name": "parent",
          "type": "uint256"
        }
      ],
      "stateMutability": "view",
      "type": "function"
    },
    {
      "inputs": [
        {
          "internalType": "uint256",
          "name": "childHash",
          "type": "uint256"
        },
        {
          "internalType": "uint256",
          "name": "parentHash",
          "type": "uint256"
        }
      ],
      "name": "creatorParentOf",
      "outputs": [
        {
          "internalType": "uint256",
          "name": "",
          "type": "uint256"
        }
      ],
      "stateMutability": "view",
      "type": "function"
    },
    {
      "inputs": [
        {
          "internalType": "address",
          "name": "clientAddress",
          "type": "address"
        },
        {
          "internalType": "uint256",
          "name": "parentHash",
          "type": "uint256"
        }
      ],
      "name": "creatorHasChildOf",
      "outputs": [
        {
          "internalType": "uint256",
          "name": "",
          "type": "uint256"
        }
      ],
      "stateMutability": "view",
      "type": "function"
    },
    {
      "inputs": [
        {
          "internalType": "uint256",
          "name": "entityIndex",
          "type": "uint256"
        },
        {
          "internalType": "uint256",
          "name": "productIndex",
          "type": "uint256"
        }
      ],
      "name": "creatorAllReleaseDetails",
      "outputs": [
        {
          "internalType": "uint256[]",
          "name": "versions",
          "type": "uint256[]"
        },
        {
          "internalType": "string[]",
          "name": "URIs",
          "type": "string[]"
        },
        {
          "internalType": "uint256[]",
          "name": "hashes",
          "type": "uint256[]"
        },
        {
          "internalType": "uint256[]",
          "name": "parents",
          "type": "uint256[]"
        }
      ],
      "stateMutability": "view",
      "type": "function"
    },
    {
      "inputs": [
        {
          "internalType": "uint256",
          "name": "entityIndex",
          "type": "uint256"
        },
        {
          "internalType": "uint256",
          "name": "productIndex",
          "type": "uint256"
        }
      ],
      "name": "creatorReleasesNumberOf",
      "outputs": [
        {
          "internalType": "uint256",
          "name": "",
          "type": "uint256"
        }
      ],
      "stateMutability": "view",
      "type": "function"
    },
    {
      "inputs": [
        {
          "internalType": "uint256",
          "name": "tokenId",
          "type": "uint256"
        }
      ],
      "name": "tokenURI",
      "outputs": [
        {
          "internalType": "string",
          "name": "",
          "type": "string"
        }
      ],
      "stateMutability": "view",
      "type": "function"
    },
    {
      "inputs": [
        {
          "internalType": "bytes4",
          "name": "interfaceId",
          "type": "bytes4"
        }
      ],
      "name": "supportsInterface",
      "outputs": [
        {
          "internalType": "bool",
          "name": "",
          "type": "bool"
        }
      ],
      "stateMutability": "view",
      "type": "function"
    }
  ],
  "bytecode": "0x608060405234801561001057600080fd5b50615a0080620000216000396000f3fe6080604052600436106101d85760003560e01c80634f6ccce711610102578063a22cb46511610095578063cc35e08711610064578063cc35e08714610555578063dcff7a8d14610585578063e985e9c5146105b5578063f2fde38b146105fe57600080fd5b8063a22cb465146104d5578063b88d4fde146104f5578063c0c53b8b14610515578063c87b56dd1461053557600080fd5b80638c9e52c3116100d15780638c9e52c31461046f5780638da5cb5b1461048257806395d89b41146104a057806397680dd3146104b557600080fd5b80634f6ccce7146103fa5780636352211e1461041a57806370a082311461043a578063715018a61461045a57600080fd5b8063132bc2d11161017a5780632f745c59116101495780632f745c591461037a57806342842e0e1461039a57806342966c68146103ba57806342e7d70c146103da57600080fd5b8063132bc2d1146102f357806318160ddd1461031357806323b872dd146103285780632d7687931461034857600080fd5b8063095ea7b3116101b6578063095ea7b31461026c5780630bf3da581461028e5780630ff05d0c146102b357806310162596146102d357600080fd5b806301ffc9a7146101dd57806306fdde0314610212578063081812fc14610234575b600080fd5b3480156101e957600080fd5b506101fd6101f8366004615054565b61061e565b60405190151581526020015b60405180910390f35b34801561021e57600080fd5b5061022761062f565b60405161020991906150c9565b34801561024057600080fd5b5061025461024f3660046150dc565b6106c1565b6040516001600160a01b039091168152602001610209565b34801561027857600080fd5b5061028c610287366004615111565b61076c565b005b34801561029a57600080fd5b506102a56101635481565b604051908152602001610209565b3480156102bf57600080fd5b5061028c6102ce36600461535e565b61089e565b3480156102df57600080fd5b506102a56102ee366004615436565b611642565b3480156102ff57600080fd5b5061028c61030e3660046150dc565b61177f565b34801561031f57600080fd5b5060cb546102a5565b34801561033457600080fd5b5061028c610343366004615458565b6117df565b34801561035457600080fd5b506103686103633660046150dc565b611867565b60405161020996959493929190615494565b34801561038657600080fd5b506102a5610395366004615111565b611bf9565b3480156103a657600080fd5b5061028c6103b5366004615458565b611ca1565b3480156103c657600080fd5b5061028c6103d53660046150dc565b611cbc565b3480156103e657600080fd5b506102a56103f5366004615111565b611d43565b34801561040657600080fd5b506102a56104153660046150dc565b612119565b34801561042657600080fd5b506102546104353660046150dc565b6121bd565b34801561044657600080fd5b506102a56104553660046154d2565b612248565b34801561046657600080fd5b5061028c6122e2565b61028c61047d3660046154ed565b612348565b34801561048e57600080fd5b506033546001600160a01b0316610254565b3480156104ac57600080fd5b506102276129e0565b3480156104c157600080fd5b506102a56104d0366004615436565b6129ef565b3480156104e157600080fd5b5061028c6104f0366004615534565b612c42565b34801561050157600080fd5b5061028c610510366004615570565b612c51565b34801561052157600080fd5b5061028c6105303660046155ec565b612cdf565b34801561054157600080fd5b506102276105503660046150dc565b612ed1565b34801561056157600080fd5b5061057561057036600461562f565b612edc565b604051610209949392919061565b565b34801561059157600080fd5b506105a56105a0366004615436565b613411565b60405161020994939291906156c2565b3480156105c157600080fd5b506101fd6105d036600461575c565b6001600160a01b039182166000908152609c6020908152604080832093909416825291909152205460ff1690565b34801561060a57600080fd5b5061028c6106193660046154d2565b613b3b565b600061062982613c1a565b92915050565b60606097805461063e9061578f565b80601f016020809104026020016040519081016040528092919081815260200182805461066a9061578f565b80156106b75780601f1061068c576101008083540402835291602001916106b7565b820191906000526020600020905b81548152906001019060200180831161069a57829003601f168201915b5050505050905090565b6000818152609960205260408120546001600160a01b03166107505760405162461bcd60e51b815260206004820152602c60248201527f4552433732313a20617070726f76656420717565727920666f72206e6f6e657860448201527f697374656e7420746f6b656e000000000000000000000000000000000000000060648201526084015b60405180910390fd5b506000908152609b60205260409020546001600160a01b031690565b6000610777826121bd565b9050806001600160a01b0316836001600160a01b031614156108015760405162461bcd60e51b815260206004820152602160248201527f4552433732313a20617070726f76616c20746f2063757272656e74206f776e6560448201527f72000000000000000000000000000000000000000000000000000000000000006064820152608401610747565b336001600160a01b038216148061081d575061081d81336105d0565b61088f5760405162461bcd60e51b815260206004820152603860248201527f4552433732313a20617070726f76652063616c6c6572206973206e6f74206f7760448201527f6e6572206e6f7220617070726f76656420666f7220616c6c00000000000000006064820152608401610747565b6108998383613c70565b505050565b610165546040517e4cd7700000000000000000000000000000000000000000000000000000000081523360048201526000916001600160a01b031690624cd77090602401602060405180830381865afa1580156108ff573d6000803e3d6000fd5b505050506040513d601f19601f8201168201806040525081019061092391906157ca565b610165546040517f042f33210000000000000000000000000000000000000000000000000000000081523360048201529192506000916001600160a01b039091169063042f332190602401602060405180830381865afa15801561098b573d6000803e3d6000fd5b505050506040513d601f19601f820116820180604052508101906109af91906157ca565b90506000811161016460009054906101000a90046001600160a01b03166001600160a01b0316632023c5196040518163ffffffff1660e01b8152600401600060405180830381865afa158015610a09573d6000803e3d6000fd5b505050506040513d6000823e601f3d908101601f19168201604052610a3191908101906157e3565b90610a4f5760405162461bcd60e51b815260040161074791906150c9565b5086518851148015610a62575085518751145b8015610a6f575084518651145b8015610a7b5750845183145b610aed5760405162461bcd60e51b815260206004820152602260248201527f506172616d6574657220617272617973206d7573742062652073616d6520736960448201527f7a650000000000000000000000000000000000000000000000000000000000006064820152608401610747565b60005b885181101561163757600060a042901b898381518110610b1257610b1261585a565b6020026020010151179050878281518110610b2f57610b2f61585a565b602002602001015160001415610b875760405162461bcd60e51b815260206004820152601660248201527f4861736820706172616d65746572206973207a65726f000000000000000000006044820152606401610747565b868281518110610b9957610b9961585a565b60200260200101515160001415610bf25760405162461bcd60e51b815260206004820152601360248201527f5552492063616e6e6f7420626520656d707479000000000000000000000000006044820152606401610747565b898281518110610c0457610c0461585a565b602090810291909101015161016654604051636e416b6f60e01b8152600481018790526001600160a01b0390911690636e416b6f90602401602060405180830381865afa158015610c59573d6000803e3d6000fd5b505050506040513d601f19601f82011682018060405250810190610c7d91906157ca565b1161016460009054906101000a90046001600160a01b03166001600160a01b03166379de4af56040518163ffffffff1660e01b8152600401600060405180830381865afa158015610cd2573d6000803e3d6000fd5b505050506040513d6000823e601f3d908101601f19168201604052610cfa91908101906157e3565b90610d185760405162461bcd60e51b815260040161074791906150c9565b50610164546040805163695eb32160e11b815290516000926001600160a01b03169163d2bd66429160048083019260209291908290030181865afa158015610d64573d6000803e3d6000fd5b505050506040513d601f19601f82011682018060405250810190610d8891906157ca565b61016460009054906101000a90046001600160a01b03166001600160a01b031663fd8e99256040518163ffffffff1660e01b8152600401602060405180830381865afa158015610ddc573d6000803e3d6000fd5b505050506040513d601f19601f82011682018060405250810190610e0091906157ca565b610161600088815260200190815260200160002060008e8781518110610e2857610e2861585a565b6020026020010151815260200190815260200160002054901b1661016460009054906101000a90046001600160a01b03166001600160a01b03166361b156556040518163ffffffff1660e01b8152600401602060405180830381865afa158015610e96573d6000803e3d6000fd5b505050506040513d601f19601f82011682018060405250810190610eba91906157ca565b61016460009054906101000a90046001600160a01b03166001600160a01b03166334ef6a706040518163ffffffff1660e01b8152600401602060405180830381865afa158015610f0e573d6000803e3d6000fd5b505050506040513d601f19601f82011682018060405250810190610f3291906157ca565b8d8681518110610f4457610f4461585a565b6020026020010151901b1661016460009054906101000a90046001600160a01b03166001600160a01b031663d09ab7476040518163ffffffff1660e01b8152600401602060405180830381865afa158015610fa3573d6000803e3d6000fd5b505050506040513d601f19601f82011682018060405250810190610fc791906157ca565b61016460009054906101000a90046001600160a01b03166001600160a01b03166310871b7c6040518163ffffffff1660e01b8152600401602060405180830381865afa15801561101b573d6000803e3d6000fd5b505050506040513d601f19601f8201168201806040525081019061103f91906157ca565b88901b161717905061016060008a858151811061105e5761105e61585a565b60200260200101518152602001908152602001600020546000146110c45760405162461bcd60e51b815260206004820152601360248201527f4861736820616c726561647920657869737473000000000000000000000000006044820152606401610747565b600081815261015f6020526040902054156111215760405162461bcd60e51b815260206004820152601460248201527f746f6b656e20616c7265616479206578697374730000000000000000000000006044820152606401610747565b60008787858181106111355761113561585a565b9050602002013511156114eb576000610160600089898781811061115b5761115b61585a565b905060200201358152602001908152602001600020549050600081116111c35760405162461bcd60e51b815260206004820152601660248201527f506172656e7420746f6b656e206e6f7420666f756e64000000000000000000006044820152606401610747565b61016460009054906101000a90046001600160a01b03166001600160a01b03166310871b7c6040518163ffffffff1660e01b8152600401602060405180830381865afa158015611217573d6000803e3d6000fd5b505050506040513d601f19601f8201168201806040525081019061123b91906157ca565b61016460009054906101000a90046001600160a01b03166001600160a01b031663d09ab7476040518163ffffffff1660e01b8152600401602060405180830381865afa15801561128f573d6000803e3d6000fd5b505050506040513d601f19601f820116820180604052508101906112b391906157ca565b8216901c86146113055760405162461bcd60e51b815260206004820152601660248201527f506172656e7420656e74697479206e6f206d61746368000000000000000000006044820152606401610747565b61016460009054906101000a90046001600160a01b03166001600160a01b03166334ef6a706040518163ffffffff1660e01b8152600401602060405180830381865afa158015611359573d6000803e3d6000fd5b505050506040513d601f19601f8201168201806040525081019061137d91906157ca565b61016460009054906101000a90046001600160a01b03166001600160a01b03166361b156556040518163ffffffff1660e01b8152600401602060405180830381865afa1580156113d1573d6000803e3d6000fd5b505050506040513d601f19601f820116820180604052508101906113f591906157ca565b8216901c8c858151811061140b5761140b61585a565b6020026020010151146114605760405162461bcd60e51b815260206004820152601760248201527f506172656e742070726f64756374206e6f206d617463680000000000000000006044820152606401610747565b61015f60008281526020019081526020016000206001015467ffffffffffffffff168b85815181106114945761149461585a565b6020026020010151116114e95760405162461bcd60e51b815260206004820152601b60248201527f506172656e742076657273696f6e206d757374206265206c65737300000000006044820152606401610747565b505b8883815181106114fd576114fd61585a565b602090810291909101810151600083815261015f909252604082209081556001018390558787858181106115335761153361585a565b905060200201351115611575578686848181106115525761155261585a565b9050602002013561015f6000838152602001908152602001600020600201819055505b8061016060008b868151811061158d5761158d61585a565b60200260200101518152602001908152602001600020819055506115b13382613ceb565b6115d4818985815181106115c7576115c761585a565b6020026020010151613e46565b610161600086815260200190815260200160002060008c85815181106115fc576115fc61585a565b602002602001015181526020019081526020016000206000815461161f90615886565b909155506116309150829050615886565b9050610af0565b505050505050505050565b600080831161016460009054906101000a90046001600160a01b03166001600160a01b031663498ed7706040518163ffffffff1660e01b8152600401600060405180830381865afa15801561169b573d6000803e3d6000fd5b505050506040513d6000823e601f3d908101601f191682016040526116c391908101906157e3565b906116e15760405162461bcd60e51b815260040161074791906150c9565b5061016654604051636e416b6f60e01b81526004810185905283916001600160a01b031690636e416b6f90602401602060405180830381865afa15801561172c573d6000803e3d6000fd5b505050506040513d601f19601f8201168201806040525081019061175091906157ca565b106117765750600082815261016160209081526040808320848452909152902054610629565b50600092915050565b6033546001600160a01b031633146117d95760405162461bcd60e51b815260206004820181905260248201527f4f776e61626c653a2063616c6c6572206973206e6f7420746865206f776e65726044820152606401610747565b61016355565b6117ea335b82613ef0565b61185c5760405162461bcd60e51b815260206004820152603160248201527f4552433732313a207472616e736665722063616c6c6572206973206e6f74206f60448201527f776e6572206e6f7220617070726f7665640000000000000000000000000000006064820152608401610747565b610899838383613ff8565b6000818152610160602052604081205481908190819060609082908015611bcf5761016454604080517f10871b7c00000000000000000000000000000000000000000000000000000000815290516000926001600160a01b0316916310871b7c9160048083019260209291908290030181865afa1580156118ec573d6000803e3d6000fd5b505050506040513d601f19601f8201168201806040525081019061191091906157ca565b61016460009054906101000a90046001600160a01b03166001600160a01b031663d09ab7476040518163ffffffff1660e01b8152600401602060405180830381865afa158015611964573d6000803e3d6000fd5b505050506040513d601f19601f8201168201806040525081019061198891906157ca565b8316901c9050600061016460009054906101000a90046001600160a01b03166001600160a01b03166334ef6a706040518163ffffffff1660e01b8152600401602060405180830381865afa1580156119e4573d6000803e3d6000fd5b505050506040513d601f19601f82011682018060405250810190611a0891906157ca565b61016460009054906101000a90046001600160a01b03166001600160a01b03166361b156556040518163ffffffff1660e01b8152600401602060405180830381865afa158015611a5c573d6000803e3d6000fd5b505050506040513d601f19601f82011682018060405250810190611a8091906157ca565b8416901c9050600061016460009054906101000a90046001600160a01b03166001600160a01b031663fd8e99256040518163ffffffff1660e01b8152600401602060405180830381865afa158015611adc573d6000803e3d6000fd5b505050506040513d601f19601f82011682018060405250810190611b0091906157ca565b61016460009054906101000a90046001600160a01b03166001600160a01b031663d2bd66426040518163ffffffff1660e01b8152600401602060405180830381865afa158015611b54573d6000803e3d6000fd5b505050506040513d601f19601f82011682018060405250810190611b7891906157ca565b8516901c905082828261015f600088815260200190815260200160002060010154611ba288612ed1565b61015f60008a81526020019081526020016000206002015499509950995099509950995050505050611bf0565b50506040805160208101909152600080825295508594508493508392509050815b91939550919395565b6000611c0483612248565b8210611c785760405162461bcd60e51b815260206004820152602b60248201527f455243373231456e756d657261626c653a206f776e657220696e646578206f7560448201527f74206f6620626f756e64730000000000000000000000000000000000000000006064820152608401610747565b506001600160a01b0391909116600090815260c960209081526040808320938352929052205490565b61089983838360405180602001604052806000815250612c51565b611cc5336117e4565b611d375760405162461bcd60e51b815260206004820152603060248201527f4552433732314275726e61626c653a2063616c6c6572206973206e6f74206f7760448201527f6e6572206e6f7220617070726f766564000000000000000000000000000000006064820152608401610747565b611d40816141dd565b50565b6000611d7e6040518060c001604052806000815260200160008152602001600081526020016000815260200160608152602001600081525090565b600080611d8a85611867565b60a08901526080880152606087015260408087019190915260208601919091528185526101645481517f498ed7700000000000000000000000000000000000000000000000000000000081529151921515926001600160a01b039091169163498ed7709160048083019260009291908290030181865afa158015611e12573d6000803e3d6000fd5b505050506040513d6000823e601f3d908101601f19168201604052611e3a91908101906157e3565b90611e585760405162461bcd60e51b815260040161074791906150c9565b506001600160a01b038616611eaf5760405162461bcd60e51b815260206004820152600f60248201527f41646472657373206973207a65726f00000000000000000000000000000000006044820152606401610747565b60005b611ebb87612248565b81101561210c57611ecc8782611bf9565b9250836000015161016460009054906101000a90046001600160a01b03166001600160a01b03166310871b7c6040518163ffffffff1660e01b8152600401602060405180830381865afa158015611f27573d6000803e3d6000fd5b505050506040513d601f19601f82011682018060405250810190611f4b91906157ca565b61016460009054906101000a90046001600160a01b03166001600160a01b031663d09ab7476040518163ffffffff1660e01b8152600401602060405180830381865afa158015611f9f573d6000803e3d6000fd5b505050506040513d601f19601f82011682018060405250810190611fc391906157ca565b8516901c1480156120ca5750836020015161016460009054906101000a90046001600160a01b03166001600160a01b03166334ef6a706040518163ffffffff1660e01b8152600401602060405180830381865afa158015612028573d6000803e3d6000fd5b505050506040513d601f19601f8201168201806040525081019061204c91906157ca565b61016460009054906101000a90046001600160a01b03166001600160a01b03166361b156556040518163ffffffff1660e01b8152600401602060405180830381865afa1580156120a0573d6000803e3d6000fd5b505050506040513d601f19601f820116820180604052508101906120c491906157ca565b8516901c145b156120fc57600083815261015f60205260409020546120e990876129ef565b915081156120fc57509250610629915050565b61210581615886565b9050611eb2565b5060009695505050505050565b600061212460cb5490565b82106121985760405162461bcd60e51b815260206004820152602c60248201527f455243373231456e756d657261626c653a20676c6f62616c20696e646578206f60448201527f7574206f6620626f756e647300000000000000000000000000000000000000006064820152608401610747565b60cb82815481106121ab576121ab61585a565b90600052602060002001549050919050565b6000818152609960205260408120546001600160a01b0316806106295760405162461bcd60e51b815260206004820152602960248201527f4552433732313a206f776e657220717565727920666f72206e6f6e657869737460448201527f656e7420746f6b656e00000000000000000000000000000000000000000000006064820152608401610747565b60006001600160a01b0382166122c65760405162461bcd60e51b815260206004820152602a60248201527f4552433732313a2062616c616e636520717565727920666f7220746865207a6560448201527f726f2061646472657373000000000000000000000000000000000000000000006064820152608401610747565b506001600160a01b03166000908152609a602052604090205490565b6033546001600160a01b0316331461233c5760405162461bcd60e51b815260206004820181905260248201527f4f776e61626c653a2063616c6c6572206973206e6f7420746865206f776e65726044820152606401610747565b61234660006141e6565b565b816123955760405162461bcd60e51b815260206004820152601660248201527f4861736820706172616d65746572206973207a65726f000000000000000000006044820152606401610747565b80516123e35760405162461bcd60e51b815260206004820152601860248201527f5552492f6e616d652063616e6e6f7420626520656d70747900000000000000006044820152606401610747565b6101635434101561016460009054906101000a90046001600160a01b03166001600160a01b031663498ed7706040518163ffffffff1660e01b8152600401600060405180830381865afa15801561243e573d6000803e3d6000fd5b505050506040513d6000823e601f3d908101601f1916820160405261246691908101906157e3565b906124845760405162461bcd60e51b815260040161074791906150c9565b50610164546040805163695eb32160e11b815290516000926001600160a01b03169163d2bd66429160048083019260209291908290030181865afa1580156124d0573d6000803e3d6000fd5b505050506040513d601f19601f820116820180604052508101906124f491906157ca565b61016460009054906101000a90046001600160a01b03166001600160a01b031663fd8e99256040518163ffffffff1660e01b8152600401602060405180830381865afa158015612548573d6000803e3d6000fd5b505050506040513d601f19601f8201168201806040525081019061256c91906157ca565b60008080527f4cdf2c841e4d152d74c60f76cc8ce4b29682e276e316ac9d2d73654088739d6e6020527f0f53332442472a8af819d3086ef0f5524ea2a52dda1f7d11bafaf43e76f4b78f80549091906125c490615886565b919050819055901b1661016460009054906101000a90046001600160a01b03166001600160a01b03166361b156556040518163ffffffff1660e01b8152600401602060405180830381865afa158015612621573d6000803e3d6000fd5b505050506040513d601f19601f8201168201806040525081019061264591906157ca565b61016460009054906101000a90046001600160a01b03166001600160a01b03166334ef6a706040518163ffffffff1660e01b8152600401602060405180830381865afa158015612699573d6000803e3d6000fd5b505050506040513d601f19601f820116820180604052508101906126bd91906157ca565b61016254901b1661016460009054906101000a90046001600160a01b03166001600160a01b031663d09ab7476040518163ffffffff1660e01b8152600401602060405180830381865afa158015612718573d6000803e3d6000fd5b505050506040513d601f19601f8201168201806040525081019061273c91906157ca565b61016460009054906101000a90046001600160a01b03166001600160a01b03166310871b7c6040518163ffffffff1660e01b8152600401602060405180830381865afa158015612790573d6000803e3d6000fd5b505050506040513d601f19601f820116820180604052508101906127b491906157ca565b50506000858152610160602052604090205491179150156128175760405162461bcd60e51b815260206004820152601360248201527f4861736820616c726561647920657869737473000000000000000000000000006044820152606401610747565b600081815261015f6020526040902054156128745760405162461bcd60e51b815260206004820152601460248201527f746f6b656e20616c7265616479206578697374730000000000000000000000006044820152606401610747565b610165546040517f4e44cb5d000000000000000000000000000000000000000000000000000000008152600060048201526001600160a01b0390911690634e44cb5d9034906024016000604051808303818588803b1580156128d557600080fd5b505af11580156128e9573d6000803e3d6000fd5b505050600083815261015f6020908152604080832088905587835261016090915290208390555061291c90503382613ceb565b6129268183613e46565b600080527f4cdf2c841e4d152d74c60f76cc8ce4b29682e276e316ac9d2d73654088739d6e6020527f0f53332442472a8af819d3086ef0f5524ea2a52dda1f7d11bafaf43e76f4b78f5463ffffffff1161089957610162805490600061298b83615886565b909155505060008080527f4cdf2c841e4d152d74c60f76cc8ce4b29682e276e316ac9d2d73654088739d6e6020527f0f53332442472a8af819d3086ef0f5524ea2a52dda1f7d11bafaf43e76f4b78f55505050565b60606098805461063e9061578f565b60006129f9614f2f565b83612a0381611867565b875160a0810191909152608081019190915260608101919091526040810191909152602081019190915252612a3784611867565b60208881015160a0810192909252608082019290925260608101929092526040820192909252908101919091525260015b8115612c365782515161016454604080517f498ed7700000000000000000000000000000000000000000000000000000000081529051921515926001600160a01b039092169163498ed770916004808201926000929091908290030181865afa158015612ad9573d6000803e3d6000fd5b505050506040513d6000823e601f3d908101601f19168201604052612b0191908101906157e3565b90612b1f5760405162461bcd60e51b815260040161074791906150c9565b5060208301515183515114612b765760405162461bcd60e51b815260206004820152600f60248201527f456e74697479206d69736d6174636800000000000000000000000000000000006044820152606401610747565b60208381015181015184519091015114612bd25760405162461bcd60e51b815260206004820152601060248201527f50726f64756374206d69736d61746368000000000000000000000000000000006044820152606401610747565b825160a00151915084821415612bec579250610629915050565b825160a00151612bfb90611867565b885160a0810191909152608081019190915260608101919091526040810191909152602081019190915252612c2f81615886565b9050612a68565b50600095945050505050565b612c4d338383614245565b5050565b612c5b3383613ef0565b612ccd5760405162461bcd60e51b815260206004820152603160248201527f4552433732313a207472616e736665722063616c6c6572206973206e6f74206f60448201527f776e6572206e6f7220617070726f7665640000000000000000000000000000006064820152608401610747565b612cd984848484614332565b50505050565b600054610100900460ff16612cfa5760005460ff1615612cfe565b303b155b612d705760405162461bcd60e51b815260206004820152602e60248201527f496e697469616c697a61626c653a20636f6e747261637420697320616c72656160448201527f647920696e697469616c697a65640000000000000000000000000000000000006064820152608401610747565b600054610100900460ff16158015612daf57600080547fffffffffffffffffffffffffffffffffffffffffffffffffffffffffffff0000166101011790555b612db76143bb565b612e2b6040518060400160405280600881526020017f41637469766174650000000000000000000000000000000000000000000000008152506040518060400160405280600381526020017f414354000000000000000000000000000000000000000000000000000000000081525061442e565b612e336144a3565b612e3b6144a3565b612e436144a3565b61016480546001600160a01b0380871673ffffffffffffffffffffffffffffffffffffffff19928316179092556101658054868416908316179055610166805492851692909116919091179055670de0b6b3a7640000610163558015612cd957600080547fffffffffffffffffffffffffffffffffffffffffffffffffffffffffffff00ff16905550505050565b60606106298261450e565b600060606000806000871161016460009054906101000a90046001600160a01b03166001600160a01b031663498ed7706040518163ffffffff1660e01b8152600401600060405180830381865afa158015612f3b573d6000803e3d6000fd5b505050506040513d6000823e601f3d908101601f19168201604052612f6391908101906157e3565b90612f815760405162461bcd60e51b815260040161074791906150c9565b5061016654604051636e416b6f60e01b81526004810189905287916001600160a01b031690636e416b6f90602401602060405180830381865afa158015612fcc573d6000803e3d6000fd5b505050506040513d601f19601f82011682018060405250810190612ff091906157ca565b1161016460009054906101000a90046001600160a01b03166001600160a01b03166379de4af56040518163ffffffff1660e01b8152600401600060405180830381865afa158015613045573d6000803e3d6000fd5b505050506040513d6000823e601f3d908101601f1916820160405261306d91908101906157e3565b9061308b5760405162461bcd60e51b815260040161074791906150c9565b5060008781526101616020908152604080832089845290915290205485106130f55760405162461bcd60e51b815260206004820152601160248201527f52656c65617365206e6f7420666f756e640000000000000000000000000000006044820152606401610747565b610164546040805163695eb32160e11b815290516000926001600160a01b03169163d2bd66429160048083019260209291908290030181865afa158015613140573d6000803e3d6000fd5b505050506040513d601f19601f8201168201806040525081019061316491906157ca565b61016460009054906101000a90046001600160a01b03166001600160a01b031663fd8e99256040518163ffffffff1660e01b8152600401602060405180830381865afa1580156131b8573d6000803e3d6000fd5b505050506040513d601f19601f820116820180604052508101906131dc91906157ca565b87901b1661016460009054906101000a90046001600160a01b03166001600160a01b03166361b156556040518163ffffffff1660e01b8152600401602060405180830381865afa158015613234573d6000803e3d6000fd5b505050506040513d601f19601f8201168201806040525081019061325891906157ca565b61016460009054906101000a90046001600160a01b03166001600160a01b03166334ef6a706040518163ffffffff1660e01b8152600401602060405180830381865afa1580156132ac573d6000803e3d6000fd5b505050506040513d601f19601f820116820180604052508101906132d091906157ca565b89901b1661016460009054906101000a90046001600160a01b03166001600160a01b031663d09ab7476040518163ffffffff1660e01b8152600401602060405180830381865afa158015613328573d6000803e3d6000fd5b505050506040513d601f19601f8201168201806040525081019061334c91906157ca565b61016460009054906101000a90046001600160a01b03166001600160a01b03166310871b7c6040518163ffffffff1660e01b8152600401602060405180830381865afa1580156133a0573d6000803e3d6000fd5b505050506040513d601f19601f820116820180604052508101906133c491906157ca565b8b901b161717600081815261015f60205260409020600101549091506133e982612ed1565b600092835261015f60205260409092208054600290910154919a929950975095509350505050565b6060806060806000861161016460009054906101000a90046001600160a01b03166001600160a01b031663498ed7706040518163ffffffff1660e01b8152600401600060405180830381865afa15801561346f573d6000803e3d6000fd5b505050506040513d6000823e601f3d908101601f1916820160405261349791908101906157e3565b906134b55760405162461bcd60e51b815260040161074791906150c9565b5061016654604051636e416b6f60e01b81526004810188905286916001600160a01b031690636e416b6f90602401602060405180830381865afa158015613500573d6000803e3d6000fd5b505050506040513d601f19601f8201168201806040525081019061352491906157ca565b1161016460009054906101000a90046001600160a01b03166001600160a01b03166379de4af56040518163ffffffff1660e01b8152600401600060405180830381865afa158015613579573d6000803e3d6000fd5b505050506040513d6000823e601f3d908101601f191682016040526135a191908101906157e3565b906135bf5760405162461bcd60e51b815260040161074791906150c9565b5060008681526101616020908152604080832088845290915281205467ffffffffffffffff8111156135f3576135f361513b565b60405190808252806020026020018201604052801561361c578160200160208202803683370190505b506000888152610161602090815260408083208a84529091528120549192509067ffffffffffffffff8111156136545761365461513b565b60405190808252806020026020018201604052801561368757816020015b60608152602001906001900390816136725790505b506000898152610161602090815260408083208b84529091528120549192509067ffffffffffffffff8111156136bf576136bf61513b565b6040519080825280602002602001820160405280156136e8578160200160208202803683370190505b5060008a8152610161602090815260408083208c84529091528120549192509067ffffffffffffffff8111156137205761372061513b565b604051908082528060200260200182016040528015613749578160200160208202803683370190505b5090506000805b60008c8152610161602090815260408083208e8452909152902054811015613b295761016460009054906101000a90046001600160a01b03166001600160a01b031663d2bd66426040518163ffffffff1660e01b8152600401602060405180830381865afa1580156137c6573d6000803e3d6000fd5b505050506040513d601f19601f820116820180604052508101906137ea91906157ca565b61016460009054906101000a90046001600160a01b03166001600160a01b031663fd8e99256040518163ffffffff1660e01b8152600401602060405180830381865afa15801561383e573d6000803e3d6000fd5b505050506040513d601f19601f8201168201806040525081019061386291906157ca565b82901b1661016460009054906101000a90046001600160a01b03166001600160a01b03166361b156556040518163ffffffff1660e01b8152600401602060405180830381865afa1580156138ba573d6000803e3d6000fd5b505050506040513d601f19601f820116820180604052508101906138de91906157ca565b61016460009054906101000a90046001600160a01b03166001600160a01b03166334ef6a706040518163ffffffff1660e01b8152600401602060405180830381865afa158015613932573d6000803e3d6000fd5b505050506040513d601f19601f8201168201806040525081019061395691906157ca565b8d901b1661016460009054906101000a90046001600160a01b03166001600160a01b031663d09ab7476040518163ffffffff1660e01b8152600401602060405180830381865afa1580156139ae573d6000803e3d6000fd5b505050506040513d601f19601f820116820180604052508101906139d291906157ca565b61016460009054906101000a90046001600160a01b03166001600160a01b03166310871b7c6040518163ffffffff1660e01b8152600401602060405180830381865afa158015613a26573d6000803e3d6000fd5b505050506040513d601f19601f82011682018060405250810190613a4a91906157ca565b8f901b161717915061015f600083815260200190815260200160002060010154868281518110613a7c57613a7c61585a565b602002602001018181525050613a9182612ed1565b858281518110613aa357613aa361585a565b602002602001018190525061015f600083815260200190815260200160002060000154848281518110613ad857613ad861585a565b60200260200101818152505061015f600083815260200190815260200160002060020154838281518110613b0e57613b0e61585a565b6020908102919091010152613b2281615886565b9050613750565b50939a92995090975095509350505050565b6033546001600160a01b03163314613b955760405162461bcd60e51b815260206004820181905260248201527f4f776e61626c653a2063616c6c6572206973206e6f7420746865206f776e65726044820152606401610747565b6001600160a01b038116613c115760405162461bcd60e51b815260206004820152602660248201527f4f776e61626c653a206e6577206f776e657220697320746865207a65726f206160448201527f64647265737300000000000000000000000000000000000000000000000000006064820152608401610747565b611d40816141e6565b60007fffffffff0000000000000000000000000000000000000000000000000000000082167f780e9d6300000000000000000000000000000000000000000000000000000000148061062957506106298261469a565b6000818152609b60205260409020805473ffffffffffffffffffffffffffffffffffffffff19166001600160a01b0384169081179091558190613cb2826121bd565b6001600160a01b03167f8c5be1e5ebec7d5bd14f71427d1e84f3dd0314c0f7b2291e5b200ac8c7c3b92560405160405180910390a45050565b6001600160a01b038216613d415760405162461bcd60e51b815260206004820181905260248201527f4552433732313a206d696e7420746f20746865207a65726f20616464726573736044820152606401610747565b6000818152609960205260409020546001600160a01b031615613da65760405162461bcd60e51b815260206004820152601c60248201527f4552433732313a20746f6b656e20616c7265616479206d696e746564000000006044820152606401610747565b613db26000838361477d565b6001600160a01b0382166000908152609a60205260408120805460019290613ddb9084906158bf565b9091555050600081815260996020526040808220805473ffffffffffffffffffffffffffffffffffffffff19166001600160a01b03861690811790915590518392907fddf252ad1be2c89b69c2b068fc378daa952ba7f163c4a11628f55a4df523b3ef908290a45050565b6000828152609960205260409020546001600160a01b0316613ed05760405162461bcd60e51b815260206004820152602e60248201527f45524337323155524953746f726167653a2055524920736574206f66206e6f6e60448201527f6578697374656e7420746f6b656e0000000000000000000000000000000000006064820152608401610747565b600082815261012d60209081526040909120825161089992840190614f8d565b6000818152609960205260408120546001600160a01b0316613f7a5760405162461bcd60e51b815260206004820152602c60248201527f4552433732313a206f70657261746f7220717565727920666f72206e6f6e657860448201527f697374656e7420746f6b656e00000000000000000000000000000000000000006064820152608401610747565b6000613f85836121bd565b9050806001600160a01b0316846001600160a01b03161480613fc05750836001600160a01b0316613fb5846106c1565b6001600160a01b0316145b80613ff057506001600160a01b038082166000908152609c602090815260408083209388168352929052205460ff165b949350505050565b826001600160a01b031661400b826121bd565b6001600160a01b0316146140875760405162461bcd60e51b815260206004820152602560248201527f4552433732313a207472616e736665722066726f6d20696e636f72726563742060448201527f6f776e65720000000000000000000000000000000000000000000000000000006064820152608401610747565b6001600160a01b0382166141025760405162461bcd60e51b8152602060048201526024808201527f4552433732313a207472616e7366657220746f20746865207a65726f2061646460448201527f72657373000000000000000000000000000000000000000000000000000000006064820152608401610747565b61410d83838361477d565b614118600082613c70565b6001600160a01b0383166000908152609a602052604081208054600192906141419084906158d7565b90915550506001600160a01b0382166000908152609a6020526040812080546001929061416f9084906158bf565b9091555050600081815260996020526040808220805473ffffffffffffffffffffffffffffffffffffffff19166001600160a01b0386811691821790925591518493918716917fddf252ad1be2c89b69c2b068fc378daa952ba7f163c4a11628f55a4df523b3ef91a4505050565b611d4081611cbc565b603380546001600160a01b0383811673ffffffffffffffffffffffffffffffffffffffff19831681179093556040519116919082907f8be0079c531659141344cd1fd0a4f28419497f9722a3daafe3b4186f6b6457e090600090a35050565b816001600160a01b0316836001600160a01b031614156142a75760405162461bcd60e51b815260206004820152601960248201527f4552433732313a20617070726f766520746f2063616c6c6572000000000000006044820152606401610747565b6001600160a01b038381166000818152609c602090815260408083209487168084529482529182902080547fffffffffffffffffffffffffffffffffffffffffffffffffffffffffffffff001686151590811790915591519182527f17307eab39ab6107e8899845ad3d59bd9653f200f220920489ca2b5937696c31910160405180910390a3505050565b61433d848484613ff8565b6143498484848461481b565b612cd95760405162461bcd60e51b815260206004820152603260248201527f4552433732313a207472616e7366657220746f206e6f6e20455243373231526560448201527f63656976657220696d706c656d656e74657200000000000000000000000000006064820152608401610747565b600054610100900460ff166144265760405162461bcd60e51b815260206004820152602b60248201527f496e697469616c697a61626c653a20636f6e7472616374206973206e6f74206960448201526a6e697469616c697a696e6760a81b6064820152608401610747565b6123466149b9565b600054610100900460ff166144995760405162461bcd60e51b815260206004820152602b60248201527f496e697469616c697a61626c653a20636f6e7472616374206973206e6f74206960448201526a6e697469616c697a696e6760a81b6064820152608401610747565b612c4d8282614a2d565b600054610100900460ff166123465760405162461bcd60e51b815260206004820152602b60248201527f496e697469616c697a61626c653a20636f6e7472616374206973206e6f74206960448201526a6e697469616c697a696e6760a81b6064820152608401610747565b6000818152609960205260409020546060906001600160a01b031661459b5760405162461bcd60e51b815260206004820152603160248201527f45524337323155524953746f726167653a2055524920717565727920666f722060448201527f6e6f6e6578697374656e7420746f6b656e0000000000000000000000000000006064820152608401610747565b600082815261012d6020526040812080546145b59061578f565b80601f01602080910402602001604051908101604052809291908181526020018280546145e19061578f565b801561462e5780601f106146035761010080835404028352916020019161462e565b820191906000526020600020905b81548152906001019060200180831161461157829003601f168201915b50505050509050600061464c60408051602081019091526000815290565b905080516000141561465f575092915050565b8151156146915780826040516020016146799291906158ee565b60405160208183030381529060405292505050919050565b613ff084614abf565b60007fffffffff0000000000000000000000000000000000000000000000000000000082167f80ac58cd00000000000000000000000000000000000000000000000000000000148061472d57507fffffffff0000000000000000000000000000000000000000000000000000000082167f5b5e139f00000000000000000000000000000000000000000000000000000000145b8061062957507f01ffc9a7000000000000000000000000000000000000000000000000000000007fffffffff00000000000000000000000000000000000000000000000000000000831614610629565b6001600160a01b0383161561481057614795816121bd565b6001600160a01b0316336001600160a01b031614806147c45750600081815261015f6020526040902060020154155b6148105760405162461bcd60e51b815260206004820152600e60248201527f4e6f74206f776e65722f6c6561660000000000000000000000000000000000006044820152606401610747565b610899838383614bb5565b60006001600160a01b0384163b156149ae576040517f150b7a020000000000000000000000000000000000000000000000000000000081526001600160a01b0385169063150b7a029061487890339089908890889060040161591d565b6020604051808303816000875af19250505080156148b3575060408051601f3d908101601f191682019092526148b091810190615959565b60015b614963573d8080156148e1576040519150601f19603f3d011682016040523d82523d6000602084013e6148e6565b606091505b50805161495b5760405162461bcd60e51b815260206004820152603260248201527f4552433732313a207472616e7366657220746f206e6f6e20455243373231526560448201527f63656976657220696d706c656d656e74657200000000000000000000000000006064820152608401610747565b805181602001fd5b7fffffffff00000000000000000000000000000000000000000000000000000000167f150b7a0200000000000000000000000000000000000000000000000000000000149050613ff0565b506001949350505050565b600054610100900460ff16614a245760405162461bcd60e51b815260206004820152602b60248201527f496e697469616c697a61626c653a20636f6e7472616374206973206e6f74206960448201526a6e697469616c697a696e6760a81b6064820152608401610747565b612346336141e6565b600054610100900460ff16614a985760405162461bcd60e51b815260206004820152602b60248201527f496e697469616c697a61626c653a20636f6e7472616374206973206e6f74206960448201526a6e697469616c697a696e6760a81b6064820152608401610747565b8151614aab906097906020850190614f8d565b508051610899906098906020840190614f8d565b6000818152609960205260409020546060906001600160a01b0316614b4c5760405162461bcd60e51b815260206004820152602f60248201527f4552433732314d657461646174613a2055524920717565727920666f72206e6f60448201527f6e6578697374656e7420746f6b656e00000000000000000000000000000000006064820152608401610747565b6000614b6360408051602081019091526000815290565b90506000815111614b835760405180602001604052806000815250614bae565b80614b8d84614c6d565b604051602001614b9e9291906158ee565b6040516020818303038152906040525b9392505050565b6001600160a01b038316614c1057614c0b8160cb8054600083815260cc60205260408120829055600182018355919091527fa7ce836d032b2bf62b7e2097a8e0a6d8aeb35405ad15271e96d3b0188a1d06fb0155565b614c33565b816001600160a01b0316836001600160a01b031614614c3357614c338382614d9f565b6001600160a01b038216614c4a5761089981614e3c565b826001600160a01b0316826001600160a01b031614610899576108998282614eeb565b606081614cad57505060408051808201909152600181527f3000000000000000000000000000000000000000000000000000000000000000602082015290565b8160005b8115614cd75780614cc181615886565b9150614cd09050600a8361598c565b9150614cb1565b60008167ffffffffffffffff811115614cf257614cf261513b565b6040519080825280601f01601f191660200182016040528015614d1c576020820181803683370190505b5090505b8415613ff057614d316001836158d7565b9150614d3e600a866159a0565b614d499060306158bf565b60f81b818381518110614d5e57614d5e61585a565b60200101907effffffffffffffffffffffffffffffffffffffffffffffffffffffffffffff1916908160001a905350614d98600a8661598c565b9450614d20565b60006001614dac84612248565b614db691906158d7565b600083815260ca6020526040902054909150808214614e09576001600160a01b038416600090815260c960209081526040808320858452825280832054848452818420819055835260ca90915290208190555b50600091825260ca602090815260408084208490556001600160a01b03909416835260c981528383209183525290812055565b60cb54600090614e4e906001906158d7565b600083815260cc602052604081205460cb8054939450909284908110614e7657614e7661585a565b906000526020600020015490508060cb8381548110614e9757614e9761585a565b600091825260208083209091019290925582815260cc909152604080822084905585825281205560cb805480614ecf57614ecf6159b4565b6001900381819060005260206000200160009055905550505050565b6000614ef683612248565b6001600160a01b03909316600090815260c960209081526040808320868452825280832085905593825260ca9052919091209190915550565b60405180604001604052806002905b614f776040518060c001604052806000815260200160008152602001600081526020016000815260200160608152602001600081525090565b815260200190600190039081614f3e5790505090565b828054614f999061578f565b90600052602060002090601f016020900481019282614fbb5760008555615001565b82601f10614fd457805160ff1916838001178555615001565b82800160010185558215615001579182015b82811115615001578251825591602001919060010190614fe6565b5061500d929150615011565b5090565b5b8082111561500d5760008155600101615012565b7fffffffff0000000000000000000000000000000000000000000000000000000081168114611d4057600080fd5b60006020828403121561506657600080fd5b8135614bae81615026565b60005b8381101561508c578181015183820152602001615074565b83811115612cd95750506000910152565b600081518084526150b5816020860160208601615071565b601f01601f19169290920160200192915050565b602081526000614bae602083018461509d565b6000602082840312156150ee57600080fd5b5035919050565b80356001600160a01b038116811461510c57600080fd5b919050565b6000806040838503121561512457600080fd5b61512d836150f5565b946020939093013593505050565b634e487b7160e01b600052604160045260246000fd5b604051601f8201601f1916810167ffffffffffffffff8111828210171561517a5761517a61513b565b604052919050565b600067ffffffffffffffff82111561519c5761519c61513b565b5060051b60200190565b600082601f8301126151b757600080fd5b813560206151cc6151c783615182565b615151565b82815260059290921b840181019181810190868411156151eb57600080fd5b8286015b8481101561520657803583529183019183016151ef565b509695505050505050565b600067ffffffffffffffff82111561522b5761522b61513b565b50601f01601f191660200190565b60006152476151c784615211565b905082815283838301111561525b57600080fd5b828260208301376000602084830101529392505050565b600082601f83011261528357600080fd5b614bae83833560208501615239565b600082601f8301126152a357600080fd5b813560206152b36151c783615182565b82815260059290921b840181019181810190868411156152d257600080fd5b8286015b8481101561520657803567ffffffffffffffff8111156152f65760008081fd5b6153048986838b0101615272565b8452509183019183016152d6565b60008083601f84011261532457600080fd5b50813567ffffffffffffffff81111561533c57600080fd5b6020830191508360208260051b850101111561535757600080fd5b9250929050565b60008060008060008060a0878903121561537757600080fd5b863567ffffffffffffffff8082111561538f57600080fd5b61539b8a838b016151a6565b975060208901359150808211156153b157600080fd5b6153bd8a838b016151a6565b965060408901359150808211156153d357600080fd5b6153df8a838b016151a6565b955060608901359150808211156153f557600080fd5b6154018a838b01615292565b9450608089013591508082111561541757600080fd5b5061542489828a01615312565b979a9699509497509295939492505050565b6000806040838503121561544957600080fd5b50508035926020909101359150565b60008060006060848603121561546d57600080fd5b615476846150f5565b9250615484602085016150f5565b9150604084013590509250925092565b86815285602082015284604082015283606082015260c0608082015260006154bf60c083018561509d565b90508260a0830152979650505050505050565b6000602082840312156154e457600080fd5b614bae826150f5565b6000806040838503121561550057600080fd5b82359150602083013567ffffffffffffffff81111561551e57600080fd5b61552a85828601615272565b9150509250929050565b6000806040838503121561554757600080fd5b615550836150f5565b91506020830135801515811461556557600080fd5b809150509250929050565b6000806000806080858703121561558657600080fd5b61558f856150f5565b935061559d602086016150f5565b925060408501359150606085013567ffffffffffffffff8111156155c057600080fd5b8501601f810187136155d157600080fd5b6155e087823560208401615239565b91505092959194509250565b60008060006060848603121561560157600080fd5b61560a846150f5565b9250615618602085016150f5565b9150615626604085016150f5565b90509250925092565b60008060006060848603121561564457600080fd5b505081359360208301359350604090920135919050565b848152608060208201526000615674608083018661509d565b6040830194909452506060015292915050565b600081518084526020808501945080840160005b838110156156b75781518752958201959082019060010161569b565b509495945050505050565b6080815260006156d56080830187615687565b6020838203818501528187518084528284019150828160051b850101838a0160005b8381101561572557601f1987840301855261571383835161509d565b948601949250908501906001016156f7565b50508681036040880152615739818a615687565b94505050505082810360608401526157518185615687565b979650505050505050565b6000806040838503121561576f57600080fd5b615778836150f5565b9150615786602084016150f5565b90509250929050565b600181811c908216806157a357607f821691505b602082108114156157c457634e487b7160e01b600052602260045260246000fd5b50919050565b6000602082840312156157dc57600080fd5b5051919050565b6000602082840312156157f557600080fd5b815167ffffffffffffffff81111561580c57600080fd5b8201601f8101841361581d57600080fd5b805161582b6151c782615211565b81815285602083850101111561584057600080fd5b615851826020830160208601615071565b95945050505050565b634e487b7160e01b600052603260045260246000fd5b634e487b7160e01b600052601160045260246000fd5b60007fffffffffffffffffffffffffffffffffffffffffffffffffffffffffffffffff8214156158b8576158b8615870565b5060010190565b600082198211156158d2576158d2615870565b500190565b6000828210156158e9576158e9615870565b500390565b60008351615900818460208801615071565b835190830190615914818360208801615071565b01949350505050565b60006001600160a01b0380871683528086166020840152508360408301526080606083015261594f608083018461509d565b9695505050505050565b60006020828403121561596b57600080fd5b8151614bae81615026565b634e487b7160e01b600052601260045260246000fd5b60008261599b5761599b615976565b500490565b6000826159af576159af615976565b500690565b634e487b7160e01b600052603160045260246000fdfea2646970667358221220b695821705747cd0a0f607812f363e0a4260e024e7872508cfff42d71e4d6eac64736f6c634300080b0033",
  "immutableReferences": {},
  "source": "pragma solidity >=0.7.6;\npragma abicoder v2;\n\n// SPDX-License-Identifier: GPL-3.0-or-later\n\n// OpenZepellin upgradable contracts\nimport \"@openzeppelin/contracts-upgradeable/proxy/utils/Initializable.sol\";\nimport \"@openzeppelin/contracts-upgradeable/access/OwnableUpgradeable.sol\";\nimport \"@openzeppelin/contracts-upgradeable/token/ERC20/IERC20Upgradeable.sol\";\nimport \"@openzeppelin/contracts-upgradeable/token/ERC721/extensions/ERC721BurnableUpgradeable.sol\";\nimport \"@openzeppelin/contracts-upgradeable/token/ERC721/extensions/ERC721URIStorageUpgradeable.sol\";\nimport \"@openzeppelin/contracts-upgradeable/token/ERC721/extensions/ERC721EnumerableUpgradeable.sol\";\n\n/*\n// OpenZepellin standard contracts\n//import \"@openzeppelin/contracts/proxy/utils/Initializable.sol\";\nimport \"@openzeppelin/contracts/access/Ownable.sol\";\nimport \"@openzeppelin/contracts/token/ERC721/extensions/ERC721Burnable.sol\";\nimport \"@openzeppelin/contracts/token/ERC721/extensions/ERC721URIStorage.sol\";\nimport \"@openzeppelin/contracts/token/ERC721/extensions/ERC721Enumerable.sol\";\n*/\n\nimport \"./StringCommon.sol\";\nimport \"./ImmutableEntity.sol\";\nimport \"./ImmutableProduct.sol\";\n\n/// @title The Immutable Product - authentic product distribution\n/// @author Sean Lawless for ImmutableSoft Inc.\n/// @notice Token transfers use the ImmuteToken only\n/// @dev Ecosystem is split in three, Entities, Releases and Licenses\ncontract CreatorToken is Initializable, OwnableUpgradeable,\n                         ERC721EnumerableUpgradeable,\n                         ERC721BurnableUpgradeable,\n                         ERC721URIStorageUpgradeable\n/*\ncontract CreatorToken is  Ownable,\n                          ERC721Enumerable,\n                          ERC721Burnable,\n                          ERC721URIStorage\n*/\n{\n  struct Release\n  {\n    uint256 hash;\n    uint256 version; // version, architecture, languages\n    uint256 parent; // Ricardian parent of this file (SHA256 hash)\n  }\n\n  mapping(uint256 => Release) private Releases;\n  mapping (uint256 => uint256) private HashToRelease;\n  mapping (uint256 => mapping (uint256 => uint256)) private ReleasesNumberOf;\n  uint256 private AnonProductID;\n  uint256 public AnonFee;\n\n  // External contract interfaces\n  StringCommon private commonInterface;\n  ImmutableEntity private entityInterface;\n  ImmutableProduct private productInterface;\n\n  ///////////////////////////////////////////////////////////\n  /// PRODUCT RELEASE\n  ///////////////////////////////////////////////////////////\n\n  /// @notice Initialize the ImmutableProduct smart contract\n  ///   Called during first deployment only (not on upgrade) as\n  ///   this is an OpenZepellin upgradable contract\n  /// @param commonAddr The StringCommon contract address\n  /// @param entityAddr The ImmutableEntity token contract address\n  /// @param productAddr The ImmutableProduct token contract address\n  function initialize(address commonAddr, address entityAddr,\n                      address productAddr) public initializer\n  {\n    __Ownable_init();\n    __ERC721_init(\"Activate\", \"ACT\");\n    __ERC721Enumerable_init();\n    __ERC721Burnable_init();\n    __ERC721URIStorage_init();\n/*\n  // OpenZepellin standard contracts\n  constructor(address commonAddr, address entityAddr, address productAddr)\n                                           Ownable()\n                                           ERC721(\"Creator\", \"CRT\")\n                                           ERC721URIStorage()\n                                           ERC721Enumerable()\n  {\n*/\n    commonInterface = StringCommon(commonAddr);\n    entityInterface = ImmutableEntity(entityAddr);\n    productInterface = ImmutableProduct(productAddr);\n    AnonFee = 1000000000000000000; //(1 MATIC ~ $2)\n  }\n\n  /// @notice Retrieve fee to upgrade.\n  /// Administrator only.\n  /// @param newFee the new anonymous use fee\n  function creatorAnonFee(uint256 newFee)\n    external onlyOwner\n  {\n    AnonFee = newFee;\n  }\n\n  /// @notice Anonymous file security (PoE without credentials)\n  /// Entity and Product must exist.\n  /// @param newHash The file SHA256 CRC hash\n  /// @param newFileUri Public URI/name/reference of the file\n  function anonFile(uint256 newHash, string memory newFileUri)\n    external payable\n  {\n    // Create the file PoE/release or revert if any error\n    require(newHash != 0, \"Hash parameter is zero\");\n    require(bytes(newFileUri).length != 0, \"URI/name cannot be empty\");\n    require(msg.value >= AnonFee, commonInterface.EntityIsZero());\n\n    // Serialize the entity (0), product and release IDs into unique tokenID\n    uint256 tokenId = ((0 << commonInterface.EntityIdOffset()) & commonInterface.EntityIdMask()) |\n                ((AnonProductID << commonInterface.ProductIdOffset()) & commonInterface.ProductIdMask()) |\n                (((++ReleasesNumberOf[0][0])\n                  << commonInterface.ReleaseIdOffset()) & commonInterface.ReleaseIdMask());\n\n    require(HashToRelease[newHash] == 0, \"Hash already exists\");\n    require(Releases[tokenId].hash == 0, \"token already exists\");\n\n    // Transfer ETH funds to ImmutableSoft\n    entityInterface.entityPay{value: msg.value }(0);\n\n    // Populate the release\n    Releases[tokenId].hash = newHash;\n\n    // Populate the reverse lookup (hash to token id lookup)\n    HashToRelease[newHash] = tokenId;\n\n    // Mint the new creator token\n    _mint(msg.sender, tokenId);\n    _setTokenURI(tokenId, newFileUri);\n\n    // Increment release counter and increment product ID on roll over\n    if (ReleasesNumberOf[0][0] >= 0xFFFFFFFF)\n    {\n      AnonProductID++;\n      ReleasesNumberOf[0][0] = 0;\n    }\n  }\n\n  /// @notice Create new release(s) of an existing product.\n  /// Entity and Product must exist.\n  /// @param productIndex Array of product IDs of new release(s)\n  /// @param newVersion Array of version, architecture and languages\n  /// @param newHash Array of file SHA256 CRC hash\n  /// @param newFileUri Array of valid URIs of the release binary\n  /// @param parentHash Array of SHA256 CRC hash of parent contract\n  function creatorReleases(uint256[] memory productIndex, uint256[] memory newVersion,\n                           uint256[] memory newHash, string[] memory newFileUri,\n                           uint256[] calldata parentHash)\n    external\n  {\n    uint entityIndex = entityInterface.entityAddressToIndex(msg.sender);\n    uint256 entityStatus = entityInterface.entityAddressStatus(msg.sender);\n\n    // Only a validated entity can create a release\n    require(entityStatus > 0, commonInterface.EntityNotValidated());\n\n    require((productIndex.length == newVersion.length) &&\n            (newVersion.length == newHash.length) &&\n            (newHash.length == newFileUri.length) &&\n            (newFileUri.length == parentHash.length),\n            \"Parameter arrays must be same size\");\n\n    // Create each release or revert if any error\n    for (uint i = 0; i < productIndex.length; ++i)\n    {\n      uint256 version = newVersion[i] | (block.timestamp << 160); // add timestamp\n\n      require(newHash[i] != 0, \"Hash parameter is zero\");\n      require(bytes(newFileUri[i]).length != 0, \"URI cannot be empty\");\n      require(productInterface.productNumberOf(entityIndex) > productIndex[i],\n              commonInterface.ProductNotFound());\n\n      // Serialize the entity, product and release IDs into unique tokenID\n      uint256 tokenId = ((entityIndex << commonInterface.EntityIdOffset()) & commonInterface.EntityIdMask()) |\n                ((productIndex[i] << commonInterface.ProductIdOffset()) & commonInterface.ProductIdMask()) |\n                (((ReleasesNumberOf[entityIndex][productIndex[i]])\n                  << commonInterface.ReleaseIdOffset()) & commonInterface.ReleaseIdMask());\n\n      require(HashToRelease[newHash[i]] == 0, \"Hash already exists\");\n      require(Releases[tokenId].hash == 0, \"token already exists\");\n\n      // If a Ricardian leaf ensure the leaf is valid\n      if (parentHash[i] > 0)\n      {\n        uint256 parentId = HashToRelease[parentHash[i]];\n        require(parentId > 0, \"Parent token not found\");\n\n        require(entityIndex ==\n          ((parentId & commonInterface.EntityIdMask()) >> commonInterface.EntityIdOffset()),\n           \"Parent entity no match\");\n        require(productIndex[i] ==\n          ((parentId & commonInterface.ProductIdMask()) >> commonInterface.ProductIdOffset()),\n          \"Parent product no match\");\n        require((newVersion[i] > Releases[parentId].version & 0xFFFFFFFFFFFFFFFF),\n          \"Parent version must be less\");\n      }\n\n      // Populate the release\n      Releases[tokenId].hash = newHash[i];\n      Releases[tokenId].version = version;\n      if (parentHash[i] > 0)\n        Releases[tokenId].parent = parentHash[i];\n\n      // Populate the reverse lookup (hash to token id lookup)\n      HashToRelease[newHash[i]] = tokenId;\n\n      // Mint the new creator token\n      _mint(msg.sender, tokenId);\n      _setTokenURI(tokenId, newFileUri[i]);\n\n      ++ReleasesNumberOf[entityIndex][productIndex[i]];\n    }\n  }\n\n  /// @notice Return version, URI and hash of existing product release.\n  /// Entity, Product and Release must exist.\n  /// @param entityIndex The index of the entity owner of product\n  /// @param productIndex The product ID of the new release\n  /// @param releaseIndex The index of the product release\n  /// @return flags , URI, fileHash and parentHash are return values.\\\n  ///         **flags** The version, architecture and language(s)\\\n  ///         **URI** The URI to the product release file\\\n  ///         **fileHash** The SHA256 checksum hash of the file\\\n  ///         **parentHash** The SHA256 checksum hash of the parent file\n  function creatorReleaseDetails(uint256 entityIndex,\n                            uint256 productIndex, uint256 releaseIndex)\n    external view returns (uint256 flags, string memory URI,\n                           uint256 fileHash, uint256 parentHash)\n  {\n    require(entityIndex > 0, commonInterface.EntityIsZero());\n    require(productInterface.productNumberOf(entityIndex) > productIndex,\n            commonInterface.ProductNotFound());\n    require(ReleasesNumberOf[entityIndex][productIndex] > releaseIndex,\n            \"Release not found\");\n\n    // Serialize the entity, product and release IDs into unique tokenID\n    uint256 tokenId = ((entityIndex << commonInterface.EntityIdOffset()) & commonInterface.EntityIdMask()) |\n              ((productIndex << commonInterface.ProductIdOffset()) & commonInterface.ProductIdMask()) |\n              (((releaseIndex) << commonInterface.ReleaseIdOffset()) & commonInterface.ReleaseIdMask());\n\n    // Return the version, URI and hash's for this product\n    return (Releases[tokenId].version, tokenURI(tokenId),\n            Releases[tokenId].hash, Releases[tokenId].parent);\n  }\n\n  /// @notice Reverse lookup, return entity, product, URI of product release.\n  /// Entity, Product and Release must exist.\n  /// @param fileHash The index of the product release\n  /// @return entity , product, release, version, URI and parent are return values.\\\n  ///         **entity** The index of the entity owner of product\\\n  ///         **product** The product ID of the release\\\n  ///         **release** The release ID of the release\\\n  ///         **version** The version, architecture and language(s)\\\n  ///         **URI** The URI to the product release file\n  ///         **parent** The SHA256 checksum of ricarding parent file\n  function creatorReleaseHashDetails(uint256 fileHash)\n    public view returns (uint256 entity, uint256 product,\n                         uint256 release, uint256 version,\n                         string memory URI, uint256 parent)\n  {\n    uint256 tokenId = HashToRelease[fileHash];\n\n    // Return token information if found\n    if (tokenId != 0)\n    {\n      uint256 entityIndex = ((tokenId & commonInterface.EntityIdMask()) >> commonInterface.EntityIdOffset());\n      uint256 productIndex = ((tokenId & commonInterface.ProductIdMask()) >> commonInterface.ProductIdOffset());\n      uint256 releaseIndex = ((tokenId & commonInterface.ReleaseIdMask()) >> commonInterface.ReleaseIdOffset());\n\n      // Return entity, product, version, URI and parent for this hash\n      return (entityIndex, productIndex, releaseIndex,\n              Releases[tokenId].version, tokenURI(tokenId),\n              Releases[tokenId].parent);\n    }\n    else\n      return (0, 0, 0, 0, \"\", 0);\n  }\n\n  struct ReleaseInformation\n  {\n    uint256 index;\n    uint256 product;\n    uint256 release;\n    uint256 version; // version, architecture, languages\n    string fileURI;\n    uint256 parent; // Ricardian parent of this file\n  }\n\n  /// @notice Return depth of ricardian parent relative to child\n  ///   The childHash and parentHash must exist as same product\n  /// @param childHash SHA256 checksum hash of the child file\n  /// @param parentHash SHA256 checksum hash of the parent file\n  /// @return the child document depth compared to parent (> 0 is parent)\n  function creatorParentOf(uint256 childHash, uint256 parentHash)\n    public view returns (uint)\n  {\n\n    ReleaseInformation[2] memory childAndParent;\n    uint256 currentRicardianHash = childHash;\n\n    ( childAndParent[0].index, childAndParent[0].product, childAndParent[0].release,\n      childAndParent[0].version, childAndParent[0].fileURI,\n      childAndParent[0].parent ) = creatorReleaseHashDetails(childHash);\n    ( childAndParent[1].index, childAndParent[1].product, childAndParent[1].release,\n      childAndParent[1].version, childAndParent[1].fileURI,\n      childAndParent[1].parent ) = creatorReleaseHashDetails(parentHash);\n\n    // Recursively search up the tree to find the parent\n    for (uint i = 1; currentRicardianHash != 0; ++i)\n    {\n      require((childAndParent[0].index != 0), commonInterface.EntityIsZero());\n      require((childAndParent[0].index == childAndParent[1].index), \"Entity mismatch\");\n      require((childAndParent[0].product == childAndParent[1].product), \"Product mismatch\");\n\n      currentRicardianHash = childAndParent[0].parent;\n\n      // If we found the parent return the ricardian depth\n      if (currentRicardianHash == parentHash)\n        return i;\n\n      ( childAndParent[0].index, childAndParent[0].product, childAndParent[0].release,\n        childAndParent[0].version, childAndParent[0].fileURI,\n        childAndParent[0].parent ) = creatorReleaseHashDetails(childAndParent[0].parent);\n    }\n\n    // Return not found\n    return 0;\n  }\n\n  /// @notice Determine if an address owns a client token of parent\n  ///   The clientAddress and parentHash must be valid\n  /// @param clientAddress Ethereum address of client\n  /// @param parentHash SHA256 checksum hash of the parent file\n  /// @return The child Ricardian depth to parent (> 0 has child)\n  function creatorHasChildOf(address clientAddress, uint256 parentHash)\n    public view returns (uint)\n  {\n    ReleaseInformation memory parentInfo;\n    uint256 tokenId;\n    uint depth;\n\n    ( parentInfo.index, parentInfo.product, parentInfo.release,\n      parentInfo.version, parentInfo.fileURI,\n      parentInfo.parent ) = creatorReleaseHashDetails(parentHash);\n    require((parentInfo.index != 0), commonInterface.EntityIsZero());\n    require((clientAddress != address(0)), \"Address is zero\");\n\n\n    // Search through the creator tokens of the client\n    for (uint i = 0; i < balanceOf(clientAddress); ++i)\n    {\n      // Retrieve the token id of this index\n      tokenId = tokenOfOwnerByIndex(clientAddress, i);\n\n      // Ensure same entity and product ids before checking parent\n      if ((((tokenId & commonInterface.EntityIdMask()) >> commonInterface.EntityIdOffset())\n           == parentInfo.index) &&\n          (((tokenId & commonInterface.ProductIdMask()) >> commonInterface.ProductIdOffset())\n              == parentInfo.product))\n      {\n        // If we found the parent return the Ricardian depth\n        depth = creatorParentOf(Releases[tokenId].hash, parentHash);\n        if (depth > 0)\n          return depth;\n      }\n    }\n\n    // Return not found\n    return 0;\n  }\n\n  /// @notice Retrieve details for all product releases\n  /// Status of empty arrays if none found.\n  /// @param entityIndex The index of the entity owner of product\n  /// @param productIndex The product ID of the new release\n  /// @return versions , URIs, hashes, parents are array return values.\\\n  ///         **versions** Array of version, architecture and language(s)\\\n  ///         **URIs** Array of URI to the product release files\\\n  ///         **hashes** Array of SHA256 checksum hash of the files\\\n  ///         **parents** Aarray of SHA256 checksum hash of the parent files\n  function creatorAllReleaseDetails(uint256 entityIndex, uint256 productIndex)\n    external view returns (uint256[] memory versions, string[] memory URIs,\n                           uint256[] memory hashes, uint256[] memory parents)\n  {\n    require(entityIndex > 0, commonInterface.EntityIsZero());\n    require(productInterface.productNumberOf(entityIndex) > productIndex,\n            commonInterface.ProductNotFound());\n\n    uint256[] memory resultVersion = new uint256[](ReleasesNumberOf[entityIndex][productIndex]);\n    string[] memory resultURI = new string[](ReleasesNumberOf[entityIndex][productIndex]);\n    uint256[] memory resultHash = new uint256[](ReleasesNumberOf[entityIndex][productIndex]);\n    uint256[] memory resultParent = new uint256[](ReleasesNumberOf[entityIndex][productIndex]);\n    uint256 tokenId;\n\n    // Build result arrays for all release information of a product\n    for (uint i = 0; i < ReleasesNumberOf[entityIndex][productIndex]; ++i)\n    {\n      // Serialize the entity, product and release IDs into unique tokenID\n      tokenId = ((entityIndex << commonInterface.EntityIdOffset()) & commonInterface.EntityIdMask()) |\n              ((productIndex << commonInterface.ProductIdOffset()) & commonInterface.ProductIdMask()) |\n              ((i << commonInterface.ReleaseIdOffset()) & commonInterface.ReleaseIdMask());\n      resultVersion[i] = Releases[tokenId].version;\n      resultURI[i] = tokenURI(tokenId);\n      resultHash[i] = Releases[tokenId].hash;\n      resultParent[i] = Releases[tokenId].parent;\n    }\n\n    return (resultVersion, resultURI, resultHash, resultParent);\n  }\n\n  /// @notice Return the number of releases of a product\n  /// Entity must exist.\n  /// @param entityIndex The index of the entity\n  /// @return the current number of products for the entity\n  function creatorReleasesNumberOf(uint256 entityIndex, uint256 productIndex)\n    external view returns (uint256)\n  {\n    require(entityIndex > 0, commonInterface.EntityIsZero());\n\n    // Return the number of releases for this entity/product\n    if (productInterface.productNumberOf(entityIndex) >= productIndex)\n      return ReleasesNumberOf[entityIndex][productIndex];\n    else\n      return 0;\n  }\n\n  // Pass through the overrides to inherited super class\n  //   To add per-transfer fee's/logic in the future do so here\n  function _beforeTokenTransfer(address from, address to, uint256 tokenId)\n      internal override(ERC721Upgradeable,\n                        ERC721EnumerableUpgradeable)\n  {\n\n    // Only token owner transfer or master contract exchange\n    //   Skip this check when first minting\n    if (from != address(0))\n      require((msg.sender == ownerOf(tokenId)) ||\n              (Releases[tokenId].parent == 0), \"Not owner/leaf\");\n\n    super._beforeTokenTransfer(from, to, tokenId);\n  }\n\n\n  /// @notice Look up the release URI from the token Id\n  /// @param tokenId The unique token identifier\n  /// @return the file name and/or URI secured by this token\n  function tokenURI(uint256 tokenId) public view virtual override\n    (ERC721Upgradeable, ERC721URIStorageUpgradeable)\n      returns (string memory)\n  {\n    return super.tokenURI(tokenId);\n  }\n\n  /// @notice Burn a product activation license.\n  /// Not public, called internally. msg.sender must be the token owner.\n  /// @param tokenId The tokenId to burn\n  function _burn(uint256 tokenId) internal virtual override(ERC721Upgradeable,\n                                                       ERC721URIStorageUpgradeable)\n  {\n    super.burn(tokenId);\n  }\n\n  /// @notice Return the type of supported ERC interfaces\n  /// @param interfaceId The interface desired\n  /// @return TRUE (1) if supported, FALSE (0) otherwise\n  function supportsInterface(bytes4 interfaceId) public view virtual\n    override(ERC721Upgradeable, ERC721EnumerableUpgradeable)\n      returns (bool)\n  {\n    return super.supportsInterface(interfaceId);\n  }\n}\n",
  "sourcePath": "/home/pi/Source/github/ImmutableEcosystem/contracts/CreatorToken.sol",
  "compiler": {
    "name": "solc",
    "version": "0.8.11+commit.d7f03943.Emscripten.clang"
  },
  "schemaVersion": "3.4.4",
  "updatedAt": "2022-03-31T21:20:06.690Z",
  "devdoc": {
    "author": "Sean Lawless for ImmutableSoft Inc.",
    "details": "Ecosystem is split in three, Entities, Releases and Licenses",
    "kind": "dev",
    "methods": {
      "anonFile(uint256,string)": {
        "params": {
          "newFileUri": "Public URI/name/reference of the file",
          "newHash": "The file SHA256 CRC hash"
        }
      },
      "approve(address,uint256)": {
        "details": "See {IERC721-approve}."
      },
      "balanceOf(address)": {
        "details": "See {IERC721-balanceOf}."
      },
      "burn(uint256)": {
        "details": "Burns `tokenId`. See {ERC721-_burn}. Requirements: - The caller must own `tokenId` or be an approved operator."
      },
      "creatorAllReleaseDetails(uint256,uint256)": {
        "params": {
          "entityIndex": "The index of the entity owner of product",
          "productIndex": "The product ID of the new release"
        },
        "returns": {
          "versions": ", URIs, hashes, parents are array return values.\\         **versions** Array of version, architecture and language(s)\\         **URIs** Array of URI to the product release files\\         **hashes** Array of SHA256 checksum hash of the files\\         **parents** Aarray of SHA256 checksum hash of the parent files"
        }
      },
      "creatorAnonFee(uint256)": {
        "params": {
          "newFee": "the new anonymous use fee"
        }
      },
      "creatorHasChildOf(address,uint256)": {
        "params": {
          "clientAddress": "Ethereum address of client",
          "parentHash": "SHA256 checksum hash of the parent file"
        },
        "returns": {
          "_0": "The child Ricardian depth to parent (> 0 has child)"
        }
      },
      "creatorParentOf(uint256,uint256)": {
        "params": {
          "childHash": "SHA256 checksum hash of the child file",
          "parentHash": "SHA256 checksum hash of the parent file"
        },
        "returns": {
          "_0": "the child document depth compared to parent (> 0 is parent)"
        }
      },
      "creatorReleaseDetails(uint256,uint256,uint256)": {
        "params": {
          "entityIndex": "The index of the entity owner of product",
          "productIndex": "The product ID of the new release",
          "releaseIndex": "The index of the product release"
        },
        "returns": {
          "flags": ", URI, fileHash and parentHash are return values.\\         **flags** The version, architecture and language(s)\\         **URI** The URI to the product release file\\         **fileHash** The SHA256 checksum hash of the file\\         **parentHash** The SHA256 checksum hash of the parent file"
        }
      },
      "creatorReleaseHashDetails(uint256)": {
        "params": {
          "fileHash": "The index of the product release"
        },
        "returns": {
          "entity": ", product, release, version, URI and parent are return values.\\         **entity** The index of the entity owner of product\\         **product** The product ID of the release\\         **release** The release ID of the release\\         **version** The version, architecture and language(s)\\         **URI** The URI to the product release file         **parent** The SHA256 checksum of ricarding parent file"
        }
      },
      "creatorReleases(uint256[],uint256[],uint256[],string[],uint256[])": {
        "params": {
          "newFileUri": "Array of valid URIs of the release binary",
          "newHash": "Array of file SHA256 CRC hash",
          "newVersion": "Array of version, architecture and languages",
          "parentHash": "Array of SHA256 CRC hash of parent contract",
          "productIndex": "Array of product IDs of new release(s)"
        }
      },
      "creatorReleasesNumberOf(uint256,uint256)": {
        "params": {
          "entityIndex": "The index of the entity"
        },
        "returns": {
          "_0": "the current number of products for the entity"
        }
      },
      "getApproved(uint256)": {
        "details": "See {IERC721-getApproved}."
      },
      "initialize(address,address,address)": {
        "params": {
          "commonAddr": "The StringCommon contract address",
          "entityAddr": "The ImmutableEntity token contract address",
          "productAddr": "The ImmutableProduct token contract address"
        }
      },
      "isApprovedForAll(address,address)": {
        "details": "See {IERC721-isApprovedForAll}."
      },
      "name()": {
        "details": "See {IERC721Metadata-name}."
      },
      "owner()": {
        "details": "Returns the address of the current owner."
      },
      "ownerOf(uint256)": {
        "details": "See {IERC721-ownerOf}."
      },
      "renounceOwnership()": {
        "details": "Leaves the contract without owner. It will not be possible to call `onlyOwner` functions anymore. Can only be called by the current owner. NOTE: Renouncing ownership will leave the contract without an owner, thereby removing any functionality that is only available to the owner."
      },
      "safeTransferFrom(address,address,uint256)": {
        "details": "See {IERC721-safeTransferFrom}."
      },
      "safeTransferFrom(address,address,uint256,bytes)": {
        "details": "See {IERC721-safeTransferFrom}."
      },
      "setApprovalForAll(address,bool)": {
        "details": "See {IERC721-setApprovalForAll}."
      },
      "supportsInterface(bytes4)": {
        "params": {
          "interfaceId": "The interface desired"
        },
        "returns": {
          "_0": "TRUE (1) if supported, FALSE (0) otherwise"
        }
      },
      "symbol()": {
        "details": "See {IERC721Metadata-symbol}."
      },
      "tokenByIndex(uint256)": {
        "details": "See {IERC721Enumerable-tokenByIndex}."
      },
      "tokenOfOwnerByIndex(address,uint256)": {
        "details": "See {IERC721Enumerable-tokenOfOwnerByIndex}."
      },
      "tokenURI(uint256)": {
        "params": {
          "tokenId": "The unique token identifier"
        },
        "returns": {
          "_0": "the file name and/or URI secured by this token"
        }
      },
      "totalSupply()": {
        "details": "See {IERC721Enumerable-totalSupply}."
      },
      "transferFrom(address,address,uint256)": {
        "details": "See {IERC721-transferFrom}."
      },
      "transferOwnership(address)": {
        "details": "Transfers ownership of the contract to a new account (`newOwner`). Can only be called by the current owner."
      }
    },
    "title": "The Immutable Product - authentic product distribution",
    "version": 1
  },
  "userdoc": {
    "kind": "user",
    "methods": {
      "anonFile(uint256,string)": {
        "notice": "Anonymous file security (PoE without credentials) Entity and Product must exist."
      },
      "creatorAllReleaseDetails(uint256,uint256)": {
        "notice": "Retrieve details for all product releases Status of empty arrays if none found."
      },
      "creatorAnonFee(uint256)": {
        "notice": "Retrieve fee to upgrade. Administrator only."
      },
      "creatorHasChildOf(address,uint256)": {
        "notice": "Determine if an address owns a client token of parent   The clientAddress and parentHash must be valid"
      },
      "creatorParentOf(uint256,uint256)": {
        "notice": "Return depth of ricardian parent relative to child   The childHash and parentHash must exist as same product"
      },
      "creatorReleaseDetails(uint256,uint256,uint256)": {
        "notice": "Return version, URI and hash of existing product release. Entity, Product and Release must exist."
      },
      "creatorReleaseHashDetails(uint256)": {
        "notice": "Reverse lookup, return entity, product, URI of product release. Entity, Product and Release must exist."
      },
      "creatorReleases(uint256[],uint256[],uint256[],string[],uint256[])": {
        "notice": "Create new release(s) of an existing product. Entity and Product must exist."
      },
      "creatorReleasesNumberOf(uint256,uint256)": {
        "notice": "Return the number of releases of a product Entity must exist."
      },
      "initialize(address,address,address)": {
        "notice": "Initialize the ImmutableProduct smart contract   Called during first deployment only (not on upgrade) as   this is an OpenZepellin upgradable contract"
      },
      "supportsInterface(bytes4)": {
        "notice": "Return the type of supported ERC interfaces"
      },
      "tokenURI(uint256)": {
        "notice": "Look up the release URI from the token Id"
      }
    },
    "notice": "Token transfers use the ImmuteToken only",
    "version": 1
  }
}