{
  "contractName": "CreatorToken",
  "abi": [
    {
      "anonymous": false,
      "inputs": [
        {
          "indexed": true,
          "internalType": "address",
          "name": "owner",
          "type": "address"
        },
        {
          "indexed": true,
          "internalType": "address",
          "name": "approved",
          "type": "address"
        },
        {
          "indexed": true,
          "internalType": "uint256",
          "name": "tokenId",
          "type": "uint256"
        }
      ],
      "name": "Approval",
      "type": "event"
    },
    {
      "anonymous": false,
      "inputs": [
        {
          "indexed": true,
          "internalType": "address",
          "name": "owner",
          "type": "address"
        },
        {
          "indexed": true,
          "internalType": "address",
          "name": "operator",
          "type": "address"
        },
        {
          "indexed": false,
          "internalType": "bool",
          "name": "approved",
          "type": "bool"
        }
      ],
      "name": "ApprovalForAll",
      "type": "event"
    },
    {
      "anonymous": false,
      "inputs": [
        {
          "indexed": false,
          "internalType": "uint8",
          "name": "version",
          "type": "uint8"
        }
      ],
      "name": "Initialized",
      "type": "event"
    },
    {
      "anonymous": false,
      "inputs": [
        {
          "indexed": true,
          "internalType": "address",
          "name": "previousOwner",
          "type": "address"
        },
        {
          "indexed": true,
          "internalType": "address",
          "name": "newOwner",
          "type": "address"
        }
      ],
      "name": "OwnershipTransferred",
      "type": "event"
    },
    {
      "anonymous": false,
      "inputs": [
        {
          "indexed": true,
          "internalType": "address",
          "name": "from",
          "type": "address"
        },
        {
          "indexed": true,
          "internalType": "address",
          "name": "to",
          "type": "address"
        },
        {
          "indexed": true,
          "internalType": "uint256",
          "name": "tokenId",
          "type": "uint256"
        }
      ],
      "name": "Transfer",
      "type": "event"
    },
    {
      "inputs": [],
      "name": "AnonFee",
      "outputs": [
        {
          "internalType": "uint256",
          "name": "",
          "type": "uint256"
        }
      ],
      "stateMutability": "view",
      "type": "function"
    },
    {
      "inputs": [
        {
          "internalType": "address",
          "name": "to",
          "type": "address"
        },
        {
          "internalType": "uint256",
          "name": "tokenId",
          "type": "uint256"
        }
      ],
      "name": "approve",
      "outputs": [],
      "stateMutability": "nonpayable",
      "type": "function"
    },
    {
      "inputs": [
        {
          "internalType": "address",
          "name": "owner",
          "type": "address"
        }
      ],
      "name": "balanceOf",
      "outputs": [
        {
          "internalType": "uint256",
          "name": "",
          "type": "uint256"
        }
      ],
      "stateMutability": "view",
      "type": "function"
    },
    {
      "inputs": [
        {
          "internalType": "uint256",
          "name": "tokenId",
          "type": "uint256"
        }
      ],
      "name": "burn",
      "outputs": [],
      "stateMutability": "nonpayable",
      "type": "function"
    },
    {
      "inputs": [
        {
          "internalType": "uint256",
          "name": "tokenId",
          "type": "uint256"
        }
      ],
      "name": "getApproved",
      "outputs": [
        {
          "internalType": "address",
          "name": "",
          "type": "address"
        }
      ],
      "stateMutability": "view",
      "type": "function"
    },
    {
      "inputs": [
        {
          "internalType": "address",
          "name": "owner",
          "type": "address"
        },
        {
          "internalType": "address",
          "name": "operator",
          "type": "address"
        }
      ],
      "name": "isApprovedForAll",
      "outputs": [
        {
          "internalType": "bool",
          "name": "",
          "type": "bool"
        }
      ],
      "stateMutability": "view",
      "type": "function"
    },
    {
      "inputs": [],
      "name": "owner",
      "outputs": [
        {
          "internalType": "address",
          "name": "",
          "type": "address"
        }
      ],
      "stateMutability": "view",
      "type": "function"
    },
    {
      "inputs": [
        {
          "internalType": "uint256",
          "name": "tokenId",
          "type": "uint256"
        }
      ],
      "name": "ownerOf",
      "outputs": [
        {
          "internalType": "address",
          "name": "",
          "type": "address"
        }
      ],
      "stateMutability": "view",
      "type": "function"
    },
    {
      "inputs": [],
      "name": "renounceOwnership",
      "outputs": [],
      "stateMutability": "nonpayable",
      "type": "function"
    },
    {
      "inputs": [
        {
          "internalType": "address",
          "name": "from",
          "type": "address"
        },
        {
          "internalType": "address",
          "name": "to",
          "type": "address"
        },
        {
          "internalType": "uint256",
          "name": "tokenId",
          "type": "uint256"
        }
      ],
      "name": "safeTransferFrom",
      "outputs": [],
      "stateMutability": "nonpayable",
      "type": "function"
    },
    {
      "inputs": [
        {
          "internalType": "address",
          "name": "from",
          "type": "address"
        },
        {
          "internalType": "address",
          "name": "to",
          "type": "address"
        },
        {
          "internalType": "uint256",
          "name": "tokenId",
          "type": "uint256"
        },
        {
          "internalType": "bytes",
          "name": "_data",
          "type": "bytes"
        }
      ],
      "name": "safeTransferFrom",
      "outputs": [],
      "stateMutability": "nonpayable",
      "type": "function"
    },
    {
      "inputs": [
        {
          "internalType": "address",
          "name": "operator",
          "type": "address"
        },
        {
          "internalType": "bool",
          "name": "approved",
          "type": "bool"
        }
      ],
      "name": "setApprovalForAll",
      "outputs": [],
      "stateMutability": "nonpayable",
      "type": "function"
    },
    {
      "inputs": [
        {
          "internalType": "uint256",
          "name": "index",
          "type": "uint256"
        }
      ],
      "name": "tokenByIndex",
      "outputs": [
        {
          "internalType": "uint256",
          "name": "",
          "type": "uint256"
        }
      ],
      "stateMutability": "view",
      "type": "function"
    },
    {
      "inputs": [
        {
          "internalType": "address",
          "name": "owner",
          "type": "address"
        },
        {
          "internalType": "uint256",
          "name": "index",
          "type": "uint256"
        }
      ],
      "name": "tokenOfOwnerByIndex",
      "outputs": [
        {
          "internalType": "uint256",
          "name": "",
          "type": "uint256"
        }
      ],
      "stateMutability": "view",
      "type": "function"
    },
    {
      "inputs": [],
      "name": "totalSupply",
      "outputs": [
        {
          "internalType": "uint256",
          "name": "",
          "type": "uint256"
        }
      ],
      "stateMutability": "view",
      "type": "function"
    },
    {
      "inputs": [
        {
          "internalType": "address",
          "name": "from",
          "type": "address"
        },
        {
          "internalType": "address",
          "name": "to",
          "type": "address"
        },
        {
          "internalType": "uint256",
          "name": "tokenId",
          "type": "uint256"
        }
      ],
      "name": "transferFrom",
      "outputs": [],
      "stateMutability": "nonpayable",
      "type": "function"
    },
    {
      "inputs": [
        {
          "internalType": "address",
          "name": "newOwner",
          "type": "address"
        }
      ],
      "name": "transferOwnership",
      "outputs": [],
      "stateMutability": "nonpayable",
      "type": "function"
    },
    {
      "inputs": [
        {
          "internalType": "address",
          "name": "commonAddr",
          "type": "address"
        },
        {
          "internalType": "address",
          "name": "entityAddr",
          "type": "address"
        },
        {
          "internalType": "address",
          "name": "productAddr",
          "type": "address"
        }
      ],
      "name": "initialize",
      "outputs": [],
      "stateMutability": "nonpayable",
      "type": "function"
    },
    {
      "inputs": [
        {
          "internalType": "uint256",
          "name": "newFee",
          "type": "uint256"
        }
      ],
      "name": "creatorAnonFee",
      "outputs": [],
      "stateMutability": "nonpayable",
      "type": "function"
    },
    {
      "inputs": [
        {
          "internalType": "uint256",
          "name": "newHash",
          "type": "uint256"
        },
        {
          "internalType": "string",
          "name": "newFileUri",
          "type": "string"
        },
        {
          "internalType": "uint256",
          "name": "version",
          "type": "uint256"
        }
      ],
      "name": "anonFile",
      "outputs": [],
      "stateMutability": "payable",
      "type": "function"
    },
    {
      "inputs": [
        {
          "internalType": "uint256[]",
          "name": "productIndex",
          "type": "uint256[]"
        },
        {
          "internalType": "uint256[]",
          "name": "newVersion",
          "type": "uint256[]"
        },
        {
          "internalType": "uint256[]",
          "name": "newHash",
          "type": "uint256[]"
        },
        {
          "internalType": "string[]",
          "name": "newFileUri",
          "type": "string[]"
        },
        {
          "internalType": "uint256[]",
          "name": "parentHash",
          "type": "uint256[]"
        }
      ],
      "name": "creatorReleases",
      "outputs": [],
      "stateMutability": "nonpayable",
      "type": "function"
    },
    {
      "inputs": [
        {
          "internalType": "uint256",
          "name": "entityIndex",
          "type": "uint256"
        },
        {
          "internalType": "uint256",
          "name": "productIndex",
          "type": "uint256"
        },
        {
          "internalType": "uint256",
          "name": "releaseIndex",
          "type": "uint256"
        }
      ],
      "name": "creatorReleaseDetails",
      "outputs": [
        {
          "internalType": "uint256",
          "name": "flags",
          "type": "uint256"
        },
        {
          "internalType": "string",
          "name": "URI",
          "type": "string"
        },
        {
          "internalType": "uint256",
          "name": "fileHash",
          "type": "uint256"
        },
        {
          "internalType": "uint256",
          "name": "parentHash",
          "type": "uint256"
        }
      ],
      "stateMutability": "view",
      "type": "function"
    },
    {
      "inputs": [
        {
          "internalType": "uint256",
          "name": "fileHash",
          "type": "uint256"
        }
      ],
      "name": "creatorReleaseHashDetails",
      "outputs": [
        {
          "internalType": "uint256",
          "name": "entity",
          "type": "uint256"
        },
        {
          "internalType": "uint256",
          "name": "product",
          "type": "uint256"
        },
        {
          "internalType": "uint256",
          "name": "release",
          "type": "uint256"
        },
        {
          "internalType": "uint256",
          "name": "version",
          "type": "uint256"
        },
        {
          "internalType": "string",
          "name": "URI",
          "type": "string"
        },
        {
          "internalType": "uint256",
          "name": "parent",
          "type": "uint256"
        }
      ],
      "stateMutability": "view",
      "type": "function"
    },
    {
      "inputs": [
        {
          "internalType": "uint256",
          "name": "childHash",
          "type": "uint256"
        },
        {
          "internalType": "uint256",
          "name": "parentHash",
          "type": "uint256"
        }
      ],
      "name": "creatorParentOf",
      "outputs": [
        {
          "internalType": "uint256",
          "name": "",
          "type": "uint256"
        }
      ],
      "stateMutability": "view",
      "type": "function"
    },
    {
      "inputs": [
        {
          "internalType": "address",
          "name": "clientAddress",
          "type": "address"
        },
        {
          "internalType": "uint256",
          "name": "parentHash",
          "type": "uint256"
        }
      ],
      "name": "creatorHasChildOf",
      "outputs": [
        {
          "internalType": "uint256",
          "name": "",
          "type": "uint256"
        }
      ],
      "stateMutability": "view",
      "type": "function"
    },
    {
      "inputs": [
        {
          "internalType": "uint256",
          "name": "entityIndex",
          "type": "uint256"
        },
        {
          "internalType": "uint256",
          "name": "productIndex",
          "type": "uint256"
        }
      ],
      "name": "creatorAllReleaseDetails",
      "outputs": [
        {
          "internalType": "uint256[]",
          "name": "versions",
          "type": "uint256[]"
        },
        {
          "internalType": "string[]",
          "name": "URIs",
          "type": "string[]"
        },
        {
          "internalType": "uint256[]",
          "name": "hashes",
          "type": "uint256[]"
        },
        {
          "internalType": "uint256[]",
          "name": "parents",
          "type": "uint256[]"
        }
      ],
      "stateMutability": "view",
      "type": "function"
    },
    {
      "inputs": [
        {
          "internalType": "uint256",
          "name": "entityIndex",
          "type": "uint256"
        },
        {
          "internalType": "uint256",
          "name": "productIndex",
          "type": "uint256"
        }
      ],
      "name": "creatorReleasesNumberOf",
      "outputs": [
        {
          "internalType": "uint256",
          "name": "",
          "type": "uint256"
        }
      ],
      "stateMutability": "view",
      "type": "function"
    },
    {
      "inputs": [
        {
          "internalType": "uint256",
          "name": "tokenId",
          "type": "uint256"
        }
      ],
      "name": "tokenURI",
      "outputs": [
        {
          "internalType": "string",
          "name": "",
          "type": "string"
        }
      ],
      "stateMutability": "view",
      "type": "function"
    },
    {
      "inputs": [
        {
          "internalType": "uint256",
          "name": "tokenId",
          "type": "uint256"
        },
        {
          "internalType": "string",
          "name": "_tokenURI",
          "type": "string"
        }
      ],
      "name": "setTokenURI",
      "outputs": [],
      "stateMutability": "nonpayable",
      "type": "function"
    },
    {
      "inputs": [
        {
          "internalType": "bytes4",
          "name": "interfaceId",
          "type": "bytes4"
        }
      ],
      "name": "supportsInterface",
      "outputs": [
        {
          "internalType": "bool",
          "name": "",
          "type": "bool"
        }
      ],
      "stateMutability": "view",
      "type": "function"
    },
    {
      "inputs": [],
      "name": "name",
      "outputs": [
        {
          "internalType": "string",
          "name": "",
          "type": "string"
        }
      ],
      "stateMutability": "view",
      "type": "function"
    },
    {
      "inputs": [],
      "name": "symbol",
      "outputs": [
        {
          "internalType": "string",
          "name": "",
          "type": "string"
        }
      ],
      "stateMutability": "view",
      "type": "function"
    }
  ],
  "bytecode": "0x608060405234801561001057600080fd5b50615fc980620000216000396000f3fe6080604052600436106101e35760003560e01c80634f6ccce711610102578063b88d4fde11610095578063cc35e08711610064578063cc35e08714610580578063dcff7a8d146105b0578063e985e9c5146105e0578063f2fde38b1461062957600080fd5b8063b88d4fde1461050d578063c0c53b8b1461052d578063c41e82691461054d578063c87b56dd1461056057600080fd5b80638da5cb5b116100d15780638da5cb5b1461049a57806395d89b41146104b857806397680dd3146104cd578063a22cb465146104ed57600080fd5b80634f6ccce7146104255780636352211e1461044557806370a0823114610465578063715018a61461048557600080fd5b8063162094c41161017a5780632f745c59116101495780632f745c59146103a557806342842e0e146103c557806342966c68146103e557806342e7d70c1461040557600080fd5b8063162094c41461031e57806318160ddd1461033e57806323b872dd146103535780632d7687931461037357600080fd5b80630bf3da58116101b65780630bf3da58146102995780630ff05d0c146102be57806310162596146102de578063132bc2d1146102fe57600080fd5b806301ffc9a7146101e857806306fdde031461021d578063081812fc1461023f578063095ea7b314610277575b600080fd5b3480156101f457600080fd5b506102086102033660046155dc565b610649565b60405190151581526020015b60405180910390f35b34801561022957600080fd5b5061023261065a565b6040516102149190615651565b34801561024b57600080fd5b5061025f61025a366004615664565b610712565b6040516001600160a01b039091168152602001610214565b34801561028357600080fd5b50610297610292366004615694565b6107ac565b005b3480156102a557600080fd5b506102b06101635481565b604051908152602001610214565b3480156102ca57600080fd5b506102976102d93660046158e1565b6108dd565b3480156102ea57600080fd5b506102b06102f93660046159b9565b61167f565b34801561030a57600080fd5b50610297610319366004615664565b6117bc565b34801561032a57600080fd5b506102976103393660046159db565b61181c565b34801561034a57600080fd5b5060cb546102b0565b34801561035f57600080fd5b5061029761036e366004615a22565b6118a7565b34801561037f57600080fd5b5061039361038e366004615664565b61192f565b60405161021496959493929190615a5e565b3480156103b157600080fd5b506102b06103c0366004615694565b611ca8565b3480156103d157600080fd5b506102976103e0366004615a22565b611d50565b3480156103f157600080fd5b50610297610400366004615664565b611d6b565b34801561041157600080fd5b506102b0610420366004615694565b611df2565b34801561043157600080fd5b506102b0610440366004615664565b6121af565b34801561045157600080fd5b5061025f610460366004615664565b612253565b34801561047157600080fd5b506102b0610480366004615a9c565b6122de565b34801561049157600080fd5b50610297612378565b3480156104a657600080fd5b506033546001600160a01b031661025f565b3480156104c457600080fd5b506102326123de565b3480156104d957600080fd5b506102b06104e83660046159b9565b61240e565b3480156104f957600080fd5b50610297610508366004615ab7565b612647565b34801561051957600080fd5b50610297610528366004615af3565b612652565b34801561053957600080fd5b50610297610548366004615b6f565b6126df565b61029761055b366004615bb2565b61282f565b34801561056c57600080fd5b5061023261057b366004615664565b612eda565b34801561058c57600080fd5b506105a061059b366004615c02565b612ee5565b6040516102149493929190615c2e565b3480156105bc57600080fd5b506105d06105cb3660046159b9565b613471565b6040516102149493929190615c95565b3480156105ec57600080fd5b506102086105fb366004615d2f565b6001600160a01b039182166000908152609c6020908152604080832093909416825291909152205460ff1690565b34801561063557600080fd5b50610297610644366004615a9c565b613be3565b600061065482613cc2565b92915050565b60606000610167805461066c90615d62565b9050111561070557610167805461068290615d62565b80601f01602080910402602001604051908101604052809291908181526020018280546106ae90615d62565b80156106fb5780601f106106d0576101008083540402835291602001916106fb565b820191906000526020600020905b8154815290600101906020018083116106de57829003601f168201915b5050505050905090565b61070d613d00565b905090565b6000818152609960205260408120546001600160a01b03166107905760405162461bcd60e51b815260206004820152602c60248201527f4552433732313a20617070726f76656420717565727920666f72206e6f6e657860448201526b34b9ba32b73a103a37b5b2b760a11b60648201526084015b60405180910390fd5b506000908152609b60205260409020546001600160a01b031690565b60006107b782612253565b9050806001600160a01b0316836001600160a01b0316036108405760405162461bcd60e51b815260206004820152602160248201527f4552433732313a20617070726f76616c20746f2063757272656e74206f776e6560448201527f72000000000000000000000000000000000000000000000000000000000000006064820152608401610787565b336001600160a01b038216148061085c575061085c81336105fb565b6108ce5760405162461bcd60e51b815260206004820152603860248201527f4552433732313a20617070726f76652063616c6c6572206973206e6f74206f7760448201527f6e6572206e6f7220617070726f76656420666f7220616c6c00000000000000006064820152608401610787565b6108d88383613d0f565b505050565b610165546040517e4cd7700000000000000000000000000000000000000000000000000000000081523360048201526000916001600160a01b031690624cd77090602401602060405180830381865afa15801561093e573d6000803e3d6000fd5b505050506040513d601f19601f820116820180604052508101906109629190615d9c565b610165546040517f042f33210000000000000000000000000000000000000000000000000000000081523360048201529192506000916001600160a01b039091169063042f332190602401602060405180830381865afa1580156109ca573d6000803e3d6000fd5b505050506040513d601f19601f820116820180604052508101906109ee9190615d9c565b90506000811161016460009054906101000a90046001600160a01b03166001600160a01b0316632023c5196040518163ffffffff1660e01b8152600401600060405180830381865afa158015610a48573d6000803e3d6000fd5b505050506040513d6000823e601f3d908101601f19168201604052610a709190810190615db5565b90610a8e5760405162461bcd60e51b81526004016107879190615651565b5086518851148015610aa1575085518751145b8015610aae575084518651145b8015610aba5750845183145b610b2c5760405162461bcd60e51b815260206004820152602260248201527f506172616d6574657220617272617973206d7573742062652073616d6520736960448201527f7a650000000000000000000000000000000000000000000000000000000000006064820152608401610787565b60005b885181101561167457600060a042901b898381518110610b5157610b51615e2c565b6020026020010151179050878281518110610b6e57610b6e615e2c565b6020026020010151600003610bc55760405162461bcd60e51b815260206004820152601660248201527f4861736820706172616d65746572206973207a65726f000000000000000000006044820152606401610787565b868281518110610bd757610bd7615e2c565b602002602001015151600003610c2f5760405162461bcd60e51b815260206004820152601360248201527f5552492063616e6e6f7420626520656d707479000000000000000000000000006044820152606401610787565b898281518110610c4157610c41615e2c565b602090810291909101015161016654604051636e416b6f60e01b8152600481018790526001600160a01b0390911690636e416b6f90602401602060405180830381865afa158015610c96573d6000803e3d6000fd5b505050506040513d601f19601f82011682018060405250810190610cba9190615d9c565b1161016460009054906101000a90046001600160a01b03166001600160a01b03166379de4af56040518163ffffffff1660e01b8152600401600060405180830381865afa158015610d0f573d6000803e3d6000fd5b505050506040513d6000823e601f3d908101601f19168201604052610d379190810190615db5565b90610d555760405162461bcd60e51b81526004016107879190615651565b50610164546040805163695eb32160e11b815290516000926001600160a01b03169163d2bd66429160048083019260209291908290030181865afa158015610da1573d6000803e3d6000fd5b505050506040513d601f19601f82011682018060405250810190610dc59190615d9c565b61016460009054906101000a90046001600160a01b03166001600160a01b031663fd8e99256040518163ffffffff1660e01b8152600401602060405180830381865afa158015610e19573d6000803e3d6000fd5b505050506040513d601f19601f82011682018060405250810190610e3d9190615d9c565b610161600088815260200190815260200160002060008e8781518110610e6557610e65615e2c565b6020026020010151815260200190815260200160002054901b1661016460009054906101000a90046001600160a01b03166001600160a01b03166361b156556040518163ffffffff1660e01b8152600401602060405180830381865afa158015610ed3573d6000803e3d6000fd5b505050506040513d601f19601f82011682018060405250810190610ef79190615d9c565b61016460009054906101000a90046001600160a01b03166001600160a01b03166334ef6a706040518163ffffffff1660e01b8152600401602060405180830381865afa158015610f4b573d6000803e3d6000fd5b505050506040513d601f19601f82011682018060405250810190610f6f9190615d9c565b8d8681518110610f8157610f81615e2c565b6020026020010151901b1661016460009054906101000a90046001600160a01b03166001600160a01b031663d09ab7476040518163ffffffff1660e01b8152600401602060405180830381865afa158015610fe0573d6000803e3d6000fd5b505050506040513d601f19601f820116820180604052508101906110049190615d9c565b61016460009054906101000a90046001600160a01b03166001600160a01b03166310871b7c6040518163ffffffff1660e01b8152600401602060405180830381865afa158015611058573d6000803e3d6000fd5b505050506040513d601f19601f8201168201806040525081019061107c9190615d9c565b88901b161717905061016060008a858151811061109b5761109b615e2c565b60200260200101518152602001908152602001600020546000146111015760405162461bcd60e51b815260206004820152601360248201527f4861736820616c726561647920657869737473000000000000000000000000006044820152606401610787565b600081815261015f60205260409020541561115e5760405162461bcd60e51b815260206004820152601460248201527f746f6b656e20616c7265616479206578697374730000000000000000000000006044820152606401610787565b600087878581811061117257611172615e2c565b905060200201351115611528576000610160600089898781811061119857611198615e2c565b905060200201358152602001908152602001600020549050600081116112005760405162461bcd60e51b815260206004820152601660248201527f506172656e7420746f6b656e206e6f7420666f756e64000000000000000000006044820152606401610787565b61016460009054906101000a90046001600160a01b03166001600160a01b03166310871b7c6040518163ffffffff1660e01b8152600401602060405180830381865afa158015611254573d6000803e3d6000fd5b505050506040513d601f19601f820116820180604052508101906112789190615d9c565b61016460009054906101000a90046001600160a01b03166001600160a01b031663d09ab7476040518163ffffffff1660e01b8152600401602060405180830381865afa1580156112cc573d6000803e3d6000fd5b505050506040513d601f19601f820116820180604052508101906112f09190615d9c565b8216901c86146113425760405162461bcd60e51b815260206004820152601660248201527f506172656e7420656e74697479206e6f206d61746368000000000000000000006044820152606401610787565b61016460009054906101000a90046001600160a01b03166001600160a01b03166334ef6a706040518163ffffffff1660e01b8152600401602060405180830381865afa158015611396573d6000803e3d6000fd5b505050506040513d601f19601f820116820180604052508101906113ba9190615d9c565b61016460009054906101000a90046001600160a01b03166001600160a01b03166361b156556040518163ffffffff1660e01b8152600401602060405180830381865afa15801561140e573d6000803e3d6000fd5b505050506040513d601f19601f820116820180604052508101906114329190615d9c565b8216901c8c858151811061144857611448615e2c565b60200260200101511461149d5760405162461bcd60e51b815260206004820152601760248201527f506172656e742070726f64756374206e6f206d617463680000000000000000006044820152606401610787565b61015f60008281526020019081526020016000206001015467ffffffffffffffff168b85815181106114d1576114d1615e2c565b6020026020010151116115265760405162461bcd60e51b815260206004820152601b60248201527f506172656e742076657273696f6e206d757374206265206c65737300000000006044820152606401610787565b505b88838151811061153a5761153a615e2c565b602090810291909101810151600083815261015f9092526040822090815560010183905587878581811061157057611570615e2c565b9050602002013511156115b25786868481811061158f5761158f615e2c565b9050602002013561015f6000838152602001908152602001600020600201819055505b8061016060008b86815181106115ca576115ca615e2c565b60200260200101518152602001908152602001600020819055506115ee3382613d7d565b6116118189858151811061160457611604615e2c565b6020026020010151613ecb565b610161600086815260200190815260200160002060008c858151811061163957611639615e2c565b602002602001015181526020019081526020016000206000815461165c90615e58565b9091555061166d9150829050615e58565b9050610b2f565b505050505050505050565b600080831161016460009054906101000a90046001600160a01b03166001600160a01b031663498ed7706040518163ffffffff1660e01b8152600401600060405180830381865afa1580156116d8573d6000803e3d6000fd5b505050506040513d6000823e601f3d908101601f191682016040526117009190810190615db5565b9061171e5760405162461bcd60e51b81526004016107879190615651565b5061016654604051636e416b6f60e01b81526004810185905283916001600160a01b031690636e416b6f90602401602060405180830381865afa158015611769573d6000803e3d6000fd5b505050506040513d601f19601f8201168201806040525081019061178d9190615d9c565b106117b35750600082815261016160209081526040808320848452909152902054610654565b50600092915050565b6033546001600160a01b031633146118165760405162461bcd60e51b815260206004820181905260248201527f4f776e61626c653a2063616c6c6572206973206e6f7420746865206f776e65726044820152606401610787565b61016355565b611827335b83613f75565b6118995760405162461bcd60e51b815260206004820152602d60248201527f736574546f6b656e5552493a2063616c6c6572206973206e6f74206f776e657260448201527f206e6f7220617070726f766564000000000000000000000000000000000000006064820152608401610787565b6118a38282613ecb565b5050565b6118b2335b82613f75565b6119245760405162461bcd60e51b815260206004820152603160248201527f4552433732313a207472616e736665722063616c6c6572206973206e6f74206f60448201527f776e6572206e6f7220617070726f7665640000000000000000000000000000006064820152608401610787565b6108d883838361406c565b6000818152610160602052604081205481908190819060609082908015611c7e576101645460408051630421c6df60e21b815290516000926001600160a01b0316916310871b7c9160048083019260209291908290030181865afa15801561199b573d6000803e3d6000fd5b505050506040513d601f19601f820116820180604052508101906119bf9190615d9c565b61016460009054906101000a90046001600160a01b03166001600160a01b031663d09ab7476040518163ffffffff1660e01b8152600401602060405180830381865afa158015611a13573d6000803e3d6000fd5b505050506040513d601f19601f82011682018060405250810190611a379190615d9c565b8316901c9050600061016460009054906101000a90046001600160a01b03166001600160a01b03166334ef6a706040518163ffffffff1660e01b8152600401602060405180830381865afa158015611a93573d6000803e3d6000fd5b505050506040513d601f19601f82011682018060405250810190611ab79190615d9c565b61016460009054906101000a90046001600160a01b03166001600160a01b03166361b156556040518163ffffffff1660e01b8152600401602060405180830381865afa158015611b0b573d6000803e3d6000fd5b505050506040513d601f19601f82011682018060405250810190611b2f9190615d9c565b8416901c9050600061016460009054906101000a90046001600160a01b03166001600160a01b031663fd8e99256040518163ffffffff1660e01b8152600401602060405180830381865afa158015611b8b573d6000803e3d6000fd5b505050506040513d601f19601f82011682018060405250810190611baf9190615d9c565b61016460009054906101000a90046001600160a01b03166001600160a01b031663d2bd66426040518163ffffffff1660e01b8152600401602060405180830381865afa158015611c03573d6000803e3d6000fd5b505050506040513d601f19601f82011682018060405250810190611c279190615d9c565b8516901c905082828261015f600088815260200190815260200160002060010154611c5188612eda565b61015f60008a81526020019081526020016000206002015499509950995099509950995050505050611c9f565b50506040805160208101909152600080825295508594508493508392509050815b91939550919395565b6000611cb3836122de565b8210611d275760405162461bcd60e51b815260206004820152602b60248201527f455243373231456e756d657261626c653a206f776e657220696e646578206f7560448201527f74206f6620626f756e64730000000000000000000000000000000000000000006064820152608401610787565b506001600160a01b0391909116600090815260c960209081526040808320938352929052205490565b6108d883838360405180602001604052806000815250612652565b611d74336118ac565b611de65760405162461bcd60e51b815260206004820152603060248201527f4552433732314275726e61626c653a2063616c6c6572206973206e6f74206f7760448201527f6e6572206e6f7220617070726f766564000000000000000000000000000000006064820152608401610787565b611def81614244565b50565b6000611e2d6040518060c001604052806000815260200160008152602001600081526020016000815260200160608152602001600081525090565b600080611e398561192f565b60a0890152608088015260608701526040808701919091526020860191909152818552610164548151630498ed7760e41b81529151921515926001600160a01b039091169163498ed7709160048083019260009291908290030181865afa158015611ea8573d6000803e3d6000fd5b505050506040513d6000823e601f3d908101601f19168201604052611ed09190810190615db5565b90611eee5760405162461bcd60e51b81526004016107879190615651565b506001600160a01b038616611f455760405162461bcd60e51b815260206004820152600f60248201527f41646472657373206973207a65726f00000000000000000000000000000000006044820152606401610787565b60005b611f51876122de565b8110156121a257611f628782611ca8565b9250836000015161016460009054906101000a90046001600160a01b03166001600160a01b03166310871b7c6040518163ffffffff1660e01b8152600401602060405180830381865afa158015611fbd573d6000803e3d6000fd5b505050506040513d601f19601f82011682018060405250810190611fe19190615d9c565b61016460009054906101000a90046001600160a01b03166001600160a01b031663d09ab7476040518163ffffffff1660e01b8152600401602060405180830381865afa158015612035573d6000803e3d6000fd5b505050506040513d601f19601f820116820180604052508101906120599190615d9c565b8516901c1480156121605750836020015161016460009054906101000a90046001600160a01b03166001600160a01b03166334ef6a706040518163ffffffff1660e01b8152600401602060405180830381865afa1580156120be573d6000803e3d6000fd5b505050506040513d601f19601f820116820180604052508101906120e29190615d9c565b61016460009054906101000a90046001600160a01b03166001600160a01b03166361b156556040518163ffffffff1660e01b8152600401602060405180830381865afa158015612136573d6000803e3d6000fd5b505050506040513d601f19601f8201168201806040525081019061215a9190615d9c565b8516901c145b1561219257600083815261015f602052604090205461217f908761240e565b9150811561219257509250610654915050565b61219b81615e58565b9050611f48565b5060009695505050505050565b60006121ba60cb5490565b821061222e5760405162461bcd60e51b815260206004820152602c60248201527f455243373231456e756d657261626c653a20676c6f62616c20696e646578206f60448201527f7574206f6620626f756e647300000000000000000000000000000000000000006064820152608401610787565b60cb828154811061224157612241615e2c565b90600052602060002001549050919050565b6000818152609960205260408120546001600160a01b0316806106545760405162461bcd60e51b815260206004820152602960248201527f4552433732313a206f776e657220717565727920666f72206e6f6e657869737460448201527f656e7420746f6b656e00000000000000000000000000000000000000000000006064820152608401610787565b60006001600160a01b03821661235c5760405162461bcd60e51b815260206004820152602a60248201527f4552433732313a2062616c616e636520717565727920666f7220746865207a6560448201527f726f2061646472657373000000000000000000000000000000000000000000006064820152608401610787565b506001600160a01b03166000908152609a602052604090205490565b6033546001600160a01b031633146123d25760405162461bcd60e51b815260206004820181905260248201527f4f776e61626c653a2063616c6c6572206973206e6f7420746865206f776e65726044820152606401610787565b6123dc60006145d8565b565b6060600061016880546123f090615d62565b9050111561240657610168805461068290615d62565b61070d61462a565b6000612418615499565b836124228161192f565b875160a08101919091526080810191909152606081019190915260408101919091526020810191909152526124568461192f565b60208881015160a0810192909252608082019290925260608101929092526040820192909252908101919091525260015b811561263b578251516101645460408051630498ed7760e41b81529051921515926001600160a01b039092169163498ed770916004808201926000929091908290030181865afa1580156124df573d6000803e3d6000fd5b505050506040513d6000823e601f3d908101601f191682016040526125079190810190615db5565b906125255760405162461bcd60e51b81526004016107879190615651565b506020830151518351511461257c5760405162461bcd60e51b815260206004820152600f60248201527f456e74697479206d69736d6174636800000000000000000000000000000000006044820152606401610787565b602083810151810151845190910151146125d85760405162461bcd60e51b815260206004820152601060248201527f50726f64756374206d69736d61746368000000000000000000000000000000006044820152606401610787565b825160a0015191508482036125f1579250610654915050565b825160a001516126009061192f565b885160a081019190915260808101919091526060810191909152604081019190915260208101919091525261263481615e58565b9050612487565b50600095945050505050565b6118a3338383614639565b61265b33611821565b6126cd5760405162461bcd60e51b815260206004820152603160248201527f4552433732313a207472616e736665722063616c6c6572206973206e6f74206f60448201527f776e6572206e6f7220617070726f7665640000000000000000000000000000006064820152608401610787565b6126d984848484614707565b50505050565b60006126eb6001614790565b90508015612703576000805461ff0019166101001790555b61270b6148c9565b61277f6040518060400160405280600d81526020017f496d6d757461626c65536f6674000000000000000000000000000000000000008152506040518060400160405280600581526020017f494d53465400000000000000000000000000000000000000000000000000000081525061493c565b6127876149b1565b61278f6149b1565b6127976149b1565b61016480546001600160a01b038087166001600160a01b0319928316179092556101658054868416908316179055610166805492851692909116919091179055670de0b6b3a76400006101635580156126d9576000805461ff0019169055604051600181527f7f26b83ff96e1f2b6a682f133852f6798a09c465da95921460cefb38474024989060200160405180910390a150505050565b8260000361287f5760405162461bcd60e51b815260206004820152601660248201527f4861736820706172616d65746572206973207a65726f000000000000000000006044820152606401610787565b81516000036128d05760405162461bcd60e51b815260206004820152601860248201527f5552492f6e616d652063616e6e6f7420626520656d70747900000000000000006044820152606401610787565b6101635434101561016460009054906101000a90046001600160a01b03166001600160a01b031663498ed7706040518163ffffffff1660e01b8152600401600060405180830381865afa15801561292b573d6000803e3d6000fd5b505050506040513d6000823e601f3d908101601f191682016040526129539190810190615db5565b906129715760405162461bcd60e51b81526004016107879190615651565b50610164546040805163695eb32160e11b815290516000926001600160a01b03169163d2bd66429160048083019260209291908290030181865afa1580156129bd573d6000803e3d6000fd5b505050506040513d601f19601f820116820180604052508101906129e19190615d9c565b61016460009054906101000a90046001600160a01b03166001600160a01b031663fd8e99256040518163ffffffff1660e01b8152600401602060405180830381865afa158015612a35573d6000803e3d6000fd5b505050506040513d601f19601f82011682018060405250810190612a599190615d9c565b60008080527f4cdf2c841e4d152d74c60f76cc8ce4b29682e276e316ac9d2d73654088739d6e6020527f0f53332442472a8af819d3086ef0f5524ea2a52dda1f7d11bafaf43e76f4b78f8054909190612ab190615e58565b919050819055901b1661016460009054906101000a90046001600160a01b03166001600160a01b03166361b156556040518163ffffffff1660e01b8152600401602060405180830381865afa158015612b0e573d6000803e3d6000fd5b505050506040513d601f19601f82011682018060405250810190612b329190615d9c565b61016460009054906101000a90046001600160a01b03166001600160a01b03166334ef6a706040518163ffffffff1660e01b8152600401602060405180830381865afa158015612b86573d6000803e3d6000fd5b505050506040513d601f19601f82011682018060405250810190612baa9190615d9c565b61016254901b1661016460009054906101000a90046001600160a01b03166001600160a01b031663d09ab7476040518163ffffffff1660e01b8152600401602060405180830381865afa158015612c05573d6000803e3d6000fd5b505050506040513d601f19601f82011682018060405250810190612c299190615d9c565b61016460009054906101000a90046001600160a01b03166001600160a01b03166310871b7c6040518163ffffffff1660e01b8152600401602060405180830381865afa158015612c7d573d6000803e3d6000fd5b505050506040513d601f19601f82011682018060405250810190612ca19190615d9c565b5050600086815261016060205260409020549117915015612d045760405162461bcd60e51b815260206004820152601360248201527f4861736820616c726561647920657869737473000000000000000000000000006044820152606401610787565b600081815261015f602052604090205415612d615760405162461bcd60e51b815260206004820152601460248201527f746f6b656e20616c7265616479206578697374730000000000000000000000006044820152606401610787565b610165546040517f4e44cb5d000000000000000000000000000000000000000000000000000000008152600060048201526001600160a01b0390911690634e44cb5d9034906024016000604051808303818588803b158015612dc257600080fd5b505af1158015612dd6573d6000803e3d6000fd5b505050600083815261015f602090815260408083208981554260a01b8817600190910155888352610160909152902083905550612e1590503382613d7d565b612e1f8184613ecb565b600080527f4cdf2c841e4d152d74c60f76cc8ce4b29682e276e316ac9d2d73654088739d6e6020527f0f53332442472a8af819d3086ef0f5524ea2a52dda1f7d11bafaf43e76f4b78f5463ffffffff116126d9576101628054906000612e8483615e58565b909155505060008080527f4cdf2c841e4d152d74c60f76cc8ce4b29682e276e316ac9d2d73654088739d6e6020527f0f53332442472a8af819d3086ef0f5524ea2a52dda1f7d11bafaf43e76f4b78f5550505050565b606061065482614a1c565b600060606000806000871161016460009054906101000a90046001600160a01b03166001600160a01b031663498ed7706040518163ffffffff1660e01b8152600401600060405180830381865afa158015612f44573d6000803e3d6000fd5b505050506040513d6000823e601f3d908101601f19168201604052612f6c9190810190615db5565b90612f8a5760405162461bcd60e51b81526004016107879190615651565b5061016654604051636e416b6f60e01b81526004810189905287916001600160a01b031690636e416b6f90602401602060405180830381865afa158015612fd5573d6000803e3d6000fd5b505050506040513d601f19601f82011682018060405250810190612ff99190615d9c565b1161016460009054906101000a90046001600160a01b03166001600160a01b03166379de4af56040518163ffffffff1660e01b8152600401600060405180830381865afa15801561304e573d6000803e3d6000fd5b505050506040513d6000823e601f3d908101601f191682016040526130769190810190615db5565b906130945760405162461bcd60e51b81526004016107879190615651565b5060008781526101616020908152604080832089845290915290205485106130fe5760405162461bcd60e51b815260206004820152601160248201527f52656c65617365206e6f7420666f756e640000000000000000000000000000006044820152606401610787565b610164546040805163695eb32160e11b815290516000926001600160a01b03169163d2bd66429160048083019260209291908290030181865afa158015613149573d6000803e3d6000fd5b505050506040513d601f19601f8201168201806040525081019061316d9190615d9c565b61016460009054906101000a90046001600160a01b03166001600160a01b031663fd8e99256040518163ffffffff1660e01b8152600401602060405180830381865afa1580156131c1573d6000803e3d6000fd5b505050506040513d601f19601f820116820180604052508101906131e59190615d9c565b87901b1661016460009054906101000a90046001600160a01b03166001600160a01b03166361b156556040518163ffffffff1660e01b8152600401602060405180830381865afa15801561323d573d6000803e3d6000fd5b505050506040513d601f19601f820116820180604052508101906132619190615d9c565b61016460009054906101000a90046001600160a01b03166001600160a01b03166334ef6a706040518163ffffffff1660e01b8152600401602060405180830381865afa1580156132b5573d6000803e3d6000fd5b505050506040513d601f19601f820116820180604052508101906132d99190615d9c565b89901b1661016460009054906101000a90046001600160a01b03166001600160a01b031663d09ab7476040518163ffffffff1660e01b8152600401602060405180830381865afa158015613331573d6000803e3d6000fd5b505050506040513d601f19601f820116820180604052508101906133559190615d9c565b61016460009054906101000a90046001600160a01b03166001600160a01b03166310871b7c6040518163ffffffff1660e01b8152600401602060405180830381865afa1580156133a9573d6000803e3d6000fd5b505050506040513d601f19601f820116820180604052508101906133cd9190615d9c565b8b901b161717600081815261015f60205260409020600101549091501561343257600081815261015f602052604090206001015461340a82612eda565b600092835261015f602052604090922080546002909101549196509194509092509050613468565b600090815261015f6020908152604080832060018101548154600290920154835194850190935293835292965090945090925090505b93509350935093565b6060806060806000861161016460009054906101000a90046001600160a01b03166001600160a01b031663498ed7706040518163ffffffff1660e01b8152600401600060405180830381865afa1580156134cf573d6000803e3d6000fd5b505050506040513d6000823e601f3d908101601f191682016040526134f79190810190615db5565b906135155760405162461bcd60e51b81526004016107879190615651565b5061016654604051636e416b6f60e01b81526004810188905286916001600160a01b031690636e416b6f90602401602060405180830381865afa158015613560573d6000803e3d6000fd5b505050506040513d601f19601f820116820180604052508101906135849190615d9c565b1161016460009054906101000a90046001600160a01b03166001600160a01b03166379de4af56040518163ffffffff1660e01b8152600401600060405180830381865afa1580156135d9573d6000803e3d6000fd5b505050506040513d6000823e601f3d908101601f191682016040526136019190810190615db5565b9061361f5760405162461bcd60e51b81526004016107879190615651565b5060008681526101616020908152604080832088845290915281205467ffffffffffffffff811115613653576136536156be565b60405190808252806020026020018201604052801561367c578160200160208202803683370190505b506000888152610161602090815260408083208a84529091528120549192509067ffffffffffffffff8111156136b4576136b46156be565b6040519080825280602002602001820160405280156136e757816020015b60608152602001906001900390816136d25790505b506000898152610161602090815260408083208b84529091528120549192509067ffffffffffffffff81111561371f5761371f6156be565b604051908082528060200260200182016040528015613748578160200160208202803683370190505b5060008a8152610161602090815260408083208c84529091528120549192509067ffffffffffffffff811115613780576137806156be565b6040519080825280602002602001820160405280156137a9578160200160208202803683370190505b5090506000805b60008c8152610161602090815260408083208e8452909152902054811015613bd15761016460009054906101000a90046001600160a01b03166001600160a01b031663d2bd66426040518163ffffffff1660e01b8152600401602060405180830381865afa158015613826573d6000803e3d6000fd5b505050506040513d601f19601f8201168201806040525081019061384a9190615d9c565b61016460009054906101000a90046001600160a01b03166001600160a01b031663fd8e99256040518163ffffffff1660e01b8152600401602060405180830381865afa15801561389e573d6000803e3d6000fd5b505050506040513d601f19601f820116820180604052508101906138c29190615d9c565b82901b1661016460009054906101000a90046001600160a01b03166001600160a01b03166361b156556040518163ffffffff1660e01b8152600401602060405180830381865afa15801561391a573d6000803e3d6000fd5b505050506040513d601f19601f8201168201806040525081019061393e9190615d9c565b61016460009054906101000a90046001600160a01b03166001600160a01b03166334ef6a706040518163ffffffff1660e01b8152600401602060405180830381865afa158015613992573d6000803e3d6000fd5b505050506040513d601f19601f820116820180604052508101906139b69190615d9c565b8d901b1661016460009054906101000a90046001600160a01b03166001600160a01b031663d09ab7476040518163ffffffff1660e01b8152600401602060405180830381865afa158015613a0e573d6000803e3d6000fd5b505050506040513d601f19601f82011682018060405250810190613a329190615d9c565b61016460009054906101000a90046001600160a01b03166001600160a01b03166310871b7c6040518163ffffffff1660e01b8152600401602060405180830381865afa158015613a86573d6000803e3d6000fd5b505050506040513d601f19601f82011682018060405250810190613aaa9190615d9c565b8f901b161717915061015f600083815260200190815260200160002060010154868281518110613adc57613adc615e2c565b602090810291909101810191909152600083815261015f909152604090206001015415613b2e57613b0c82612eda565b858281518110613b1e57613b1e615e2c565b6020026020010181905250613b5c565b60405180602001604052806000815250858281518110613b5057613b50615e2c565b60200260200101819052505b600082815261015f60205260409020548451859083908110613b8057613b80615e2c565b60200260200101818152505061015f600083815260200190815260200160002060020154838281518110613bb657613bb6615e2c565b6020908102919091010152613bca81615e58565b90506137b0565b50939a92995090975095509350505050565b6033546001600160a01b03163314613c3d5760405162461bcd60e51b815260206004820181905260248201527f4f776e61626c653a2063616c6c6572206973206e6f7420746865206f776e65726044820152606401610787565b6001600160a01b038116613cb95760405162461bcd60e51b815260206004820152602660248201527f4f776e61626c653a206e6577206f776e657220697320746865207a65726f206160448201527f64647265737300000000000000000000000000000000000000000000000000006064820152608401610787565b611def816145d8565b60006001600160e01b031982167f780e9d63000000000000000000000000000000000000000000000000000000001480610654575061065482614ba7565b60606097805461068290615d62565b6000818152609b6020526040902080546001600160a01b0319166001600160a01b0384169081179091558190613d4482612253565b6001600160a01b03167f8c5be1e5ebec7d5bd14f71427d1e84f3dd0314c0f7b2291e5b200ac8c7c3b92560405160405180910390a45050565b6001600160a01b038216613dd35760405162461bcd60e51b815260206004820181905260248201527f4552433732313a206d696e7420746f20746865207a65726f20616464726573736044820152606401610787565b6000818152609960205260409020546001600160a01b031615613e385760405162461bcd60e51b815260206004820152601c60248201527f4552433732313a20746f6b656e20616c7265616479206d696e746564000000006044820152606401610787565b613e4460008383614c42565b6001600160a01b0382166000908152609a60205260408120805460019290613e6d908490615e71565b909155505060008181526099602052604080822080546001600160a01b0319166001600160a01b03861690811790915590518392907fddf252ad1be2c89b69c2b068fc378daa952ba7f163c4a11628f55a4df523b3ef908290a45050565b6000828152609960205260409020546001600160a01b0316613f555760405162461bcd60e51b815260206004820152602e60248201527f45524337323155524953746f726167653a2055524920736574206f66206e6f6e60448201527f6578697374656e7420746f6b656e0000000000000000000000000000000000006064820152608401610787565b600082815261012d6020908152604090912082516108d8928401906154f7565b6000818152609960205260408120546001600160a01b0316613fee5760405162461bcd60e51b815260206004820152602c60248201527f4552433732313a206f70657261746f7220717565727920666f72206e6f6e657860448201526b34b9ba32b73a103a37b5b2b760a11b6064820152608401610787565b6000613ff983612253565b9050806001600160a01b0316846001600160a01b0316148061404057506001600160a01b038082166000908152609c602090815260408083209388168352929052205460ff165b806140645750836001600160a01b031661405984610712565b6001600160a01b0316145b949350505050565b826001600160a01b031661407f82612253565b6001600160a01b0316146140fb5760405162461bcd60e51b815260206004820152602560248201527f4552433732313a207472616e736665722066726f6d20696e636f72726563742060448201527f6f776e65720000000000000000000000000000000000000000000000000000006064820152608401610787565b6001600160a01b0382166141765760405162461bcd60e51b8152602060048201526024808201527f4552433732313a207472616e7366657220746f20746865207a65726f2061646460448201527f72657373000000000000000000000000000000000000000000000000000000006064820152608401610787565b614181838383614c42565b61418c600082613d0f565b6001600160a01b0383166000908152609a602052604081208054600192906141b5908490615e89565b90915550506001600160a01b0382166000908152609a602052604081208054600192906141e3908490615e71565b909155505060008181526099602052604080822080546001600160a01b0319166001600160a01b0386811691821790925591518493918716917fddf252ad1be2c89b69c2b068fc378daa952ba7f163c4a11628f55a4df523b3ef91a4505050565b6101645460408051630421c6df60e21b815290516000926001600160a01b0316916310871b7c9160048083019260209291908290030181865afa15801561428f573d6000803e3d6000fd5b505050506040513d601f19601f820116820180604052508101906142b39190615d9c565b61016460009054906101000a90046001600160a01b03166001600160a01b031663d09ab7476040518163ffffffff1660e01b8152600401602060405180830381865afa158015614307573d6000803e3d6000fd5b505050506040513d601f19601f8201168201806040525081019061432b9190615d9c565b8316901c9050600061016460009054906101000a90046001600160a01b03166001600160a01b03166334ef6a706040518163ffffffff1660e01b8152600401602060405180830381865afa158015614387573d6000803e3d6000fd5b505050506040513d601f19601f820116820180604052508101906143ab9190615d9c565b61016460009054906101000a90046001600160a01b03166001600160a01b03166361b156556040518163ffffffff1660e01b8152600401602060405180830381865afa1580156143ff573d6000803e3d6000fd5b505050506040513d601f19601f820116820180604052508101906144239190615d9c565b8416901c9050600061016460009054906101000a90046001600160a01b03166001600160a01b031663fd8e99256040518163ffffffff1660e01b8152600401602060405180830381865afa15801561447f573d6000803e3d6000fd5b505050506040513d601f19601f820116820180604052508101906144a39190615d9c565b61016460009054906101000a90046001600160a01b03166001600160a01b031663d2bd66426040518163ffffffff1660e01b8152600401602060405180830381865afa1580156144f7573d6000803e3d6000fd5b505050506040513d601f19601f8201168201806040525081019061451b9190615d9c565b8516901c905061452a84614ce0565b600084815261015f602081815260408084208054855261016083529084208490558784529190528181556001810191909155600201541561457957600084815261015f60205260408120600201555b6000838152610161602090815260408083208584529091529020546145a090600190615e89565b81036126d957600083815261016160209081526040808320858452909152812080549091906145ce90615ea0565b9091555050505050565b603380546001600160a01b038381166001600160a01b0319831681179093556040519116919082907f8be0079c531659141344cd1fd0a4f28419497f9722a3daafe3b4186f6b6457e090600090a35050565b60606098805461068290615d62565b816001600160a01b0316836001600160a01b03160361469a5760405162461bcd60e51b815260206004820152601960248201527f4552433732313a20617070726f766520746f2063616c6c6572000000000000006044820152606401610787565b6001600160a01b038381166000818152609c6020908152604080832094871680845294825291829020805460ff191686151590811790915591519182527f17307eab39ab6107e8899845ad3d59bd9653f200f220920489ca2b5937696c31910160405180910390a3505050565b61471284848461406c565b61471e84848484614d22565b6126d95760405162461bcd60e51b815260206004820152603260248201527f4552433732313a207472616e7366657220746f206e6f6e20455243373231526560448201527f63656976657220696d706c656d656e74657200000000000000000000000000006064820152608401610787565b60008054610100900460ff161561482d578160ff1660011480156147b35750303b155b6148255760405162461bcd60e51b815260206004820152602e60248201527f496e697469616c697a61626c653a20636f6e747261637420697320616c72656160448201527f647920696e697469616c697a65640000000000000000000000000000000000006064820152608401610787565b506000919050565b60005460ff8084169116106148aa5760405162461bcd60e51b815260206004820152602e60248201527f496e697469616c697a61626c653a20636f6e747261637420697320616c72656160448201527f647920696e697469616c697a65640000000000000000000000000000000000006064820152608401610787565b506000805460ff191660ff92909216919091179055600190565b919050565b600054610100900460ff166149345760405162461bcd60e51b815260206004820152602b60248201527f496e697469616c697a61626c653a20636f6e7472616374206973206e6f74206960448201526a6e697469616c697a696e6760a81b6064820152608401610787565b6123dc614e79565b600054610100900460ff166149a75760405162461bcd60e51b815260206004820152602b60248201527f496e697469616c697a61626c653a20636f6e7472616374206973206e6f74206960448201526a6e697469616c697a696e6760a81b6064820152608401610787565b6118a38282614eed565b600054610100900460ff166123dc5760405162461bcd60e51b815260206004820152602b60248201527f496e697469616c697a61626c653a20636f6e7472616374206973206e6f74206960448201526a6e697469616c697a696e6760a81b6064820152608401610787565b6000818152609960205260409020546060906001600160a01b0316614aa95760405162461bcd60e51b815260206004820152603160248201527f45524337323155524953746f726167653a2055524920717565727920666f722060448201527f6e6f6e6578697374656e7420746f6b656e0000000000000000000000000000006064820152608401610787565b600082815261012d602052604081208054614ac390615d62565b80601f0160208091040260200160405190810160405280929190818152602001828054614aef90615d62565b8015614b3c5780601f10614b1157610100808354040283529160200191614b3c565b820191906000526020600020905b815481529060010190602001808311614b1f57829003601f168201915b505050505090506000614b5a60408051602081019091526000815290565b90508051600003614b6c575092915050565b815115614b9e578082604051602001614b86929190615eb7565b60405160208183030381529060405292505050919050565b61406484614f7f565b60006001600160e01b031982167f80ac58cd000000000000000000000000000000000000000000000000000000001480614c0a57506001600160e01b031982167f5b5e139f00000000000000000000000000000000000000000000000000000000145b8061065457507f01ffc9a7000000000000000000000000000000000000000000000000000000006001600160e01b0319831614610654565b6001600160a01b03831615614cd557614c5a81612253565b6001600160a01b0316336001600160a01b03161480614c895750600081815261015f6020526040902060020154155b614cd55760405162461bcd60e51b815260206004820152600e60248201527f4e6f74206f776e65722f6c6561660000000000000000000000000000000000006044820152606401610787565b6108d8838383615075565b614ce98161512d565b600081815261012d602052604090208054614d0390615d62565b159050611def57600081815261012d60205260408120611def9161557b565b60006001600160a01b0384163b15614e6e57604051630a85bd0160e11b81526001600160a01b0385169063150b7a0290614d66903390899088908890600401615ee6565b6020604051808303816000875af1925050508015614da1575060408051601f3d908101601f19168201909252614d9e91810190615f22565b60015b614e54573d808015614dcf576040519150601f19603f3d011682016040523d82523d6000602084013e614dd4565b606091505b508051600003614e4c5760405162461bcd60e51b815260206004820152603260248201527f4552433732313a207472616e7366657220746f206e6f6e20455243373231526560448201527f63656976657220696d706c656d656e74657200000000000000000000000000006064820152608401610787565b805181602001fd5b6001600160e01b031916630a85bd0160e11b149050614064565b506001949350505050565b600054610100900460ff16614ee45760405162461bcd60e51b815260206004820152602b60248201527f496e697469616c697a61626c653a20636f6e7472616374206973206e6f74206960448201526a6e697469616c697a696e6760a81b6064820152608401610787565b6123dc336145d8565b600054610100900460ff16614f585760405162461bcd60e51b815260206004820152602b60248201527f496e697469616c697a61626c653a20636f6e7472616374206973206e6f74206960448201526a6e697469616c697a696e6760a81b6064820152608401610787565b8151614f6b9060979060208501906154f7565b5080516108d89060989060208401906154f7565b6000818152609960205260409020546060906001600160a01b031661500c5760405162461bcd60e51b815260206004820152602f60248201527f4552433732314d657461646174613a2055524920717565727920666f72206e6f60448201527f6e6578697374656e7420746f6b656e00000000000000000000000000000000006064820152608401610787565b600061502360408051602081019091526000815290565b90506000815111615043576040518060200160405280600081525061506e565b8061504d846151d4565b60405160200161505e929190615eb7565b6040516020818303038152906040525b9392505050565b6001600160a01b0383166150d0576150cb8160cb8054600083815260cc60205260408120829055600182018355919091527fa7ce836d032b2bf62b7e2097a8e0a6d8aeb35405ad15271e96d3b0188a1d06fb0155565b6150f3565b816001600160a01b0316836001600160a01b0316146150f3576150f38382615309565b6001600160a01b03821661510a576108d8816153a6565b826001600160a01b0316826001600160a01b0316146108d8576108d88282615455565b600061513882612253565b905061514681600084614c42565b615151600083613d0f565b6001600160a01b0381166000908152609a6020526040812080546001929061517a908490615e89565b909155505060008281526099602052604080822080546001600160a01b0319169055518391906001600160a01b038416907fddf252ad1be2c89b69c2b068fc378daa952ba7f163c4a11628f55a4df523b3ef908390a45050565b60608160000361521757505060408051808201909152600181527f3000000000000000000000000000000000000000000000000000000000000000602082015290565b8160005b8115615241578061522b81615e58565b915061523a9050600a83615f55565b915061521b565b60008167ffffffffffffffff81111561525c5761525c6156be565b6040519080825280601f01601f191660200182016040528015615286576020820181803683370190505b5090505b84156140645761529b600183615e89565b91506152a8600a86615f69565b6152b3906030615e71565b60f81b8183815181106152c8576152c8615e2c565b60200101907effffffffffffffffffffffffffffffffffffffffffffffffffffffffffffff1916908160001a905350615302600a86615f55565b945061528a565b60006001615316846122de565b6153209190615e89565b600083815260ca6020526040902054909150808214615373576001600160a01b038416600090815260c960209081526040808320858452825280832054848452818420819055835260ca90915290208190555b50600091825260ca602090815260408084208490556001600160a01b03909416835260c981528383209183525290812055565b60cb546000906153b890600190615e89565b600083815260cc602052604081205460cb80549394509092849081106153e0576153e0615e2c565b906000526020600020015490508060cb838154811061540157615401615e2c565b600091825260208083209091019290925582815260cc909152604080822084905585825281205560cb80548061543957615439615f7d565b6001900381819060005260206000200160009055905550505050565b6000615460836122de565b6001600160a01b03909316600090815260c960209081526040808320868452825280832085905593825260ca9052919091209190915550565b60405180604001604052806002905b6154e16040518060c001604052806000815260200160008152602001600081526020016000815260200160608152602001600081525090565b8152602001906001900390816154a85790505090565b82805461550390615d62565b90600052602060002090601f016020900481019282615525576000855561556b565b82601f1061553e57805160ff191683800117855561556b565b8280016001018555821561556b579182015b8281111561556b578251825591602001919060010190615550565b506155779291506155b1565b5090565b50805461558790615d62565b6000825580601f10615597575050565b601f016020900490600052602060002090810190611def91905b5b8082111561557757600081556001016155b2565b6001600160e01b031981168114611def57600080fd5b6000602082840312156155ee57600080fd5b813561506e816155c6565b60005b838110156156145781810151838201526020016155fc565b838111156126d95750506000910152565b6000815180845261563d8160208601602086016155f9565b601f01601f19169290920160200192915050565b60208152600061506e6020830184615625565b60006020828403121561567657600080fd5b5035919050565b80356001600160a01b03811681146148c457600080fd5b600080604083850312156156a757600080fd5b6156b08361567d565b946020939093013593505050565b634e487b7160e01b600052604160045260246000fd5b604051601f8201601f1916810167ffffffffffffffff811182821017156156fd576156fd6156be565b604052919050565b600067ffffffffffffffff82111561571f5761571f6156be565b5060051b60200190565b600082601f83011261573a57600080fd5b8135602061574f61574a83615705565b6156d4565b82815260059290921b8401810191818101908684111561576e57600080fd5b8286015b848110156157895780358352918301918301615772565b509695505050505050565b600067ffffffffffffffff8211156157ae576157ae6156be565b50601f01601f191660200190565b60006157ca61574a84615794565b90508281528383830111156157de57600080fd5b828260208301376000602084830101529392505050565b600082601f83011261580657600080fd5b61506e838335602085016157bc565b600082601f83011261582657600080fd5b8135602061583661574a83615705565b82815260059290921b8401810191818101908684111561585557600080fd5b8286015b8481101561578957803567ffffffffffffffff8111156158795760008081fd5b6158878986838b01016157f5565b845250918301918301615859565b60008083601f8401126158a757600080fd5b50813567ffffffffffffffff8111156158bf57600080fd5b6020830191508360208260051b85010111156158da57600080fd5b9250929050565b60008060008060008060a087890312156158fa57600080fd5b863567ffffffffffffffff8082111561591257600080fd5b61591e8a838b01615729565b9750602089013591508082111561593457600080fd5b6159408a838b01615729565b9650604089013591508082111561595657600080fd5b6159628a838b01615729565b9550606089013591508082111561597857600080fd5b6159848a838b01615815565b9450608089013591508082111561599a57600080fd5b506159a789828a01615895565b979a9699509497509295939492505050565b600080604083850312156159cc57600080fd5b50508035926020909101359150565b600080604083850312156159ee57600080fd5b82359150602083013567ffffffffffffffff811115615a0c57600080fd5b615a18858286016157f5565b9150509250929050565b600080600060608486031215615a3757600080fd5b615a408461567d565b9250615a4e6020850161567d565b9150604084013590509250925092565b86815285602082015284604082015283606082015260c060808201526000615a8960c0830185615625565b90508260a0830152979650505050505050565b600060208284031215615aae57600080fd5b61506e8261567d565b60008060408385031215615aca57600080fd5b615ad38361567d565b915060208301358015158114615ae857600080fd5b809150509250929050565b60008060008060808587031215615b0957600080fd5b615b128561567d565b9350615b206020860161567d565b925060408501359150606085013567ffffffffffffffff811115615b4357600080fd5b8501601f81018713615b5457600080fd5b615b63878235602084016157bc565b91505092959194509250565b600080600060608486031215615b8457600080fd5b615b8d8461567d565b9250615b9b6020850161567d565b9150615ba96040850161567d565b90509250925092565b600080600060608486031215615bc757600080fd5b83359250602084013567ffffffffffffffff811115615be557600080fd5b615bf1868287016157f5565b925050604084013590509250925092565b600080600060608486031215615c1757600080fd5b505081359360208301359350604090920135919050565b848152608060208201526000615c476080830186615625565b6040830194909452506060015292915050565b600081518084526020808501945080840160005b83811015615c8a57815187529582019590820190600101615c6e565b509495945050505050565b608081526000615ca86080830187615c5a565b6020838203818501528187518084528284019150828160051b850101838a0160005b83811015615cf857601f19878403018552615ce6838351615625565b94860194925090850190600101615cca565b50508681036040880152615d0c818a615c5a565b9450505050508281036060840152615d248185615c5a565b979650505050505050565b60008060408385031215615d4257600080fd5b615d4b8361567d565b9150615d596020840161567d565b90509250929050565b600181811c90821680615d7657607f821691505b602082108103615d9657634e487b7160e01b600052602260045260246000fd5b50919050565b600060208284031215615dae57600080fd5b5051919050565b600060208284031215615dc757600080fd5b815167ffffffffffffffff811115615dde57600080fd5b8201601f81018413615def57600080fd5b8051615dfd61574a82615794565b818152856020838501011115615e1257600080fd5b615e238260208301602086016155f9565b95945050505050565b634e487b7160e01b600052603260045260246000fd5b634e487b7160e01b600052601160045260246000fd5b600060018201615e6a57615e6a615e42565b5060010190565b60008219821115615e8457615e84615e42565b500190565b600082821015615e9b57615e9b615e42565b500390565b600081615eaf57615eaf615e42565b506000190190565b60008351615ec98184602088016155f9565b835190830190615edd8183602088016155f9565b01949350505050565b60006001600160a01b03808716835280861660208401525083604083015260806060830152615f186080830184615625565b9695505050505050565b600060208284031215615f3457600080fd5b815161506e816155c6565b634e487b7160e01b600052601260045260246000fd5b600082615f6457615f64615f3f565b500490565b600082615f7857615f78615f3f565b500690565b634e487b7160e01b600052603160045260246000fdfea26469706673582212203b5e76c1be0fd296a74d1b3b7e4b89d5e1fbb429fd5724ba9921d833d1a8ab9464736f6c634300080e0033",
  "immutableReferences": {},
  "source": "pragma solidity >=0.7.6;\npragma abicoder v2;\n\n// SPDX-License-Identifier: GPL-3.0-or-later\n\n// OpenZepellin upgradable contracts\nimport \"@openzeppelin/contracts-upgradeable/proxy/utils/Initializable.sol\";\nimport \"@openzeppelin/contracts-upgradeable/access/OwnableUpgradeable.sol\";\nimport \"@openzeppelin/contracts-upgradeable/token/ERC20/IERC20Upgradeable.sol\";\nimport \"@openzeppelin/contracts-upgradeable/token/ERC721/extensions/ERC721BurnableUpgradeable.sol\";\nimport \"@openzeppelin/contracts-upgradeable/token/ERC721/extensions/ERC721URIStorageUpgradeable.sol\";\nimport \"@openzeppelin/contracts-upgradeable/token/ERC721/extensions/ERC721EnumerableUpgradeable.sol\";\n\n/*\n// OpenZepellin standard contracts\n//import \"@openzeppelin/contracts/proxy/utils/Initializable.sol\";\nimport \"@openzeppelin/contracts/access/Ownable.sol\";\nimport \"@openzeppelin/contracts/token/ERC721/extensions/ERC721Burnable.sol\";\nimport \"@openzeppelin/contracts/token/ERC721/extensions/ERC721URIStorage.sol\";\nimport \"@openzeppelin/contracts/token/ERC721/extensions/ERC721Enumerable.sol\";\n*/\n\nimport \"./StringCommon.sol\";\nimport \"./ImmutableEntity.sol\";\nimport \"./ImmutableProduct.sol\";\n\n/// @title The Immutable Product - authentic product distribution\n/// @author Sean Lawless for ImmutableSoft Inc.\n/// @notice Token transfers use the ImmuteToken only\n/// @dev Ecosystem is split in three, Entities, Releases and Licenses\ncontract CreatorToken is Initializable, OwnableUpgradeable,\n                         ERC721EnumerableUpgradeable,\n                         ERC721BurnableUpgradeable,\n                         ERC721URIStorageUpgradeable\n/*\ncontract CreatorToken is  Ownable,\n                          ERC721Enumerable,\n                          ERC721Burnable,\n                          ERC721URIStorage\n*/\n{\n  struct Release\n  {\n    uint256 hash;\n    uint256 version; // version, architecture, languages\n    uint256 parent; // Ricardian parent of this file (SHA256 hash)\n  }\n\n  mapping(uint256 => Release) private Releases;\n  mapping (uint256 => uint256) private HashToRelease;\n  mapping (uint256 => mapping (uint256 => uint256)) private ReleasesNumberOf;\n  uint256 private AnonProductID;\n  uint256 public AnonFee;\n\n  // External contract interfaces\n  StringCommon private commonInterface;\n  ImmutableEntity private entityInterface;\n  ImmutableProduct private productInterface;\n\n  string private __name;\n  string private __symbol;\n\n  ///////////////////////////////////////////////////////////\n  /// PRODUCT RELEASE\n  ///////////////////////////////////////////////////////////\n\n  /// @notice Initialize the CreatorToken smart contract\n  ///   Called during first deployment only (not on upgrade) as\n  ///   this is an OpenZepellin upgradable contract\n  /// @param commonAddr The StringCommon contract address\n  /// @param entityAddr The ImmutableEntity token contract address\n  /// @param productAddr The ImmutableProduct token contract address\n  function initialize(address commonAddr, address entityAddr,\n                      address productAddr) public initializer\n  {\n    __Ownable_init();\n    __ERC721_init(\"ImmutableSoft\", \"IMSFT\");\n    __ERC721Enumerable_init();\n    __ERC721Burnable_init();\n    __ERC721URIStorage_init();\n/*\n  // OpenZepellin standard contracts\n  constructor(address commonAddr, address entityAddr, address productAddr)\n                                           Ownable()\n                                           ERC721(\"Creator\", \"CRT\")\n                                           ERC721URIStorage()\n                                           ERC721Enumerable()\n  {\n*/\n    commonInterface = StringCommon(commonAddr);\n    entityInterface = ImmutableEntity(entityAddr);\n    productInterface = ImmutableProduct(productAddr);\n    AnonFee = 1000000000000000000; //(1 MATIC ~ $2)\n  }\n\n  /// @notice Retrieve fee to upgrade.\n  /// Administrator only.\n  /// @param newFee the new anonymous use fee\n  function creatorAnonFee(uint256 newFee)\n    external onlyOwner\n  {\n    AnonFee = newFee;\n  }\n\n  /// @notice Anonymous file security (PoE without credentials)\n  /// Entity and Product must exist.\n  /// @param newHash The file SHA256 CRC hash\n  /// @param newFileUri URI/name/reference of the file\n  /// @param version The version and flags of the file\n  function anonFile(uint256 newHash, string memory newFileUri, uint256 version)\n    external payable\n  {\n    // Create the file PoE/release or revert if any error\n    require(newHash != 0, \"Hash parameter is zero\");\n    require(bytes(newFileUri).length != 0, \"URI/name cannot be empty\");\n    require(msg.value >= AnonFee, commonInterface.EntityIsZero());\n\n    // Serialize the entity (0), product and release IDs into unique tokenID\n    uint256 tokenId = ((0 << commonInterface.EntityIdOffset()) & commonInterface.EntityIdMask()) |\n                ((AnonProductID << commonInterface.ProductIdOffset()) & commonInterface.ProductIdMask()) |\n                (((++ReleasesNumberOf[0][0])\n                  << commonInterface.ReleaseIdOffset()) & commonInterface.ReleaseIdMask());\n\n    require(HashToRelease[newHash] == 0, \"Hash already exists\");\n    require(Releases[tokenId].hash == 0, \"token already exists\");\n\n    // Transfer ETH funds to ImmutableSoft\n    entityInterface.entityPay{value: msg.value }(0);\n\n    // Populate the release\n    Releases[tokenId].hash = newHash;\n    Releases[tokenId].version = version |\n                           (block.timestamp << 160); // add timestamp\n\n    // Populate the reverse lookup (hash to token id lookup)\n    HashToRelease[newHash] = tokenId;\n\n    // Mint the new creator token\n    _mint(msg.sender, tokenId);\n    _setTokenURI(tokenId, newFileUri);\n\n    // Increment release counter and increment product ID on roll over\n    if (ReleasesNumberOf[0][0] >= 0xFFFFFFFF)\n    {\n      AnonProductID++;\n      ReleasesNumberOf[0][0] = 0;\n    }\n  }\n\n  /// @notice Create new release(s) of an existing product.\n  /// Entity and Product must exist.\n  /// @param productIndex Array of product IDs of new release(s)\n  /// @param newVersion Array of version, architecture and languages\n  /// @param newHash Array of file SHA256 CRC hash\n  /// @param newFileUri Array of valid URIs of the release binary\n  /// @param parentHash Array of SHA256 CRC hash of parent contract\n  function creatorReleases(uint256[] memory productIndex, uint256[] memory newVersion,\n                           uint256[] memory newHash, string[] memory newFileUri,\n                           uint256[] calldata parentHash)\n    external\n  {\n    uint entityIndex = entityInterface.entityAddressToIndex(msg.sender);\n    uint256 entityStatus = entityInterface.entityAddressStatus(msg.sender);\n\n    // Only a validated entity can create a release\n    require(entityStatus > 0, commonInterface.EntityNotValidated());\n\n    require((productIndex.length == newVersion.length) &&\n            (newVersion.length == newHash.length) &&\n            (newHash.length == newFileUri.length) &&\n            (newFileUri.length == parentHash.length),\n            \"Parameter arrays must be same size\");\n\n    // Create each release or revert if any error\n    for (uint i = 0; i < productIndex.length; ++i)\n    {\n      uint256 version = newVersion[i] | (block.timestamp << 160); // add timestamp\n\n      require(newHash[i] != 0, \"Hash parameter is zero\");\n      require(bytes(newFileUri[i]).length != 0, \"URI cannot be empty\");\n      require(productInterface.productNumberOf(entityIndex) > productIndex[i],\n              commonInterface.ProductNotFound());\n\n      // Serialize the entity, product and release IDs into unique tokenID\n      uint256 tokenId = ((entityIndex << commonInterface.EntityIdOffset()) & commonInterface.EntityIdMask()) |\n                ((productIndex[i] << commonInterface.ProductIdOffset()) & commonInterface.ProductIdMask()) |\n                (((ReleasesNumberOf[entityIndex][productIndex[i]])\n                  << commonInterface.ReleaseIdOffset()) & commonInterface.ReleaseIdMask());\n\n      require(HashToRelease[newHash[i]] == 0, \"Hash already exists\");\n      require(Releases[tokenId].hash == 0, \"token already exists\");\n\n      // If a Ricardian leaf ensure the leaf is valid\n      if (parentHash[i] > 0)\n      {\n        uint256 parentId = HashToRelease[parentHash[i]];\n        require(parentId > 0, \"Parent token not found\");\n\n        require(entityIndex ==\n          ((parentId & commonInterface.EntityIdMask()) >> commonInterface.EntityIdOffset()),\n           \"Parent entity no match\");\n        require(productIndex[i] ==\n          ((parentId & commonInterface.ProductIdMask()) >> commonInterface.ProductIdOffset()),\n          \"Parent product no match\");\n        require((newVersion[i] > Releases[parentId].version & 0xFFFFFFFFFFFFFFFF),\n          \"Parent version must be less\");\n      }\n\n      // Populate the release\n      Releases[tokenId].hash = newHash[i];\n      Releases[tokenId].version = version;\n      if (parentHash[i] > 0)\n        Releases[tokenId].parent = parentHash[i];\n\n      // Populate the reverse lookup (hash to token id lookup)\n      HashToRelease[newHash[i]] = tokenId;\n\n      // Mint the new creator token\n      _mint(msg.sender, tokenId);\n      _setTokenURI(tokenId, newFileUri[i]);\n\n      ++ReleasesNumberOf[entityIndex][productIndex[i]];\n    }\n  }\n\n  /// @notice Return version, URI and hash of existing product release.\n  /// Entity, Product and Release must exist.\n  /// @param entityIndex The index of the entity owner of product\n  /// @param productIndex The product ID of the new release\n  /// @param releaseIndex The index of the product release\n  /// @return flags , URI, fileHash and parentHash are return values.\\\n  ///         **flags** The version, architecture and language(s)\\\n  ///         **URI** The URI to the product release file\\\n  ///         **fileHash** The SHA256 checksum hash of the file\\\n  ///         **parentHash** The SHA256 checksum hash of the parent file\n  function creatorReleaseDetails(uint256 entityIndex,\n                            uint256 productIndex, uint256 releaseIndex)\n    external view returns (uint256 flags, string memory URI,\n                           uint256 fileHash, uint256 parentHash)\n  {\n    require(entityIndex > 0, commonInterface.EntityIsZero());\n    require(productInterface.productNumberOf(entityIndex) > productIndex,\n            commonInterface.ProductNotFound());\n    require(ReleasesNumberOf[entityIndex][productIndex] > releaseIndex,\n            \"Release not found\");\n\n    // Serialize the entity, product and release IDs into unique tokenID\n    uint256 tokenId = ((entityIndex << commonInterface.EntityIdOffset()) & commonInterface.EntityIdMask()) |\n              ((productIndex << commonInterface.ProductIdOffset()) & commonInterface.ProductIdMask()) |\n              (((releaseIndex) << commonInterface.ReleaseIdOffset()) & commonInterface.ReleaseIdMask());\n\n    // Return the version, URI and hash's for this product\n    if (Releases[tokenId].version > 0)\n      return (Releases[tokenId].version, tokenURI(tokenId),\n              Releases[tokenId].hash, Releases[tokenId].parent);\n    else // burned\n      return (Releases[tokenId].version, \"\",\n              Releases[tokenId].hash, Releases[tokenId].parent);\n  }\n\n  /// @notice Reverse lookup, return entity, product, URI of product release.\n  /// Entity, Product and Release must exist.\n  /// @param fileHash The index of the product release\n  /// @return entity , product, release, version, URI and parent are return values.\\\n  ///         **entity** The index of the entity owner of product\\\n  ///         **product** The product ID of the release\\\n  ///         **release** The release ID of the release\\\n  ///         **version** The version, architecture and language(s)\\\n  ///         **URI** The URI to the product release file\n  ///         **parent** The SHA256 checksum of ricarding parent file\n  function creatorReleaseHashDetails(uint256 fileHash)\n    public view returns (uint256 entity, uint256 product,\n                         uint256 release, uint256 version,\n                         string memory URI, uint256 parent)\n  {\n    uint256 tokenId = HashToRelease[fileHash];\n\n    // Return token information if found\n    if (tokenId != 0)\n    {\n      uint256 entityIndex = ((tokenId & commonInterface.EntityIdMask()) >> commonInterface.EntityIdOffset());\n      uint256 productIndex = ((tokenId & commonInterface.ProductIdMask()) >> commonInterface.ProductIdOffset());\n      uint256 releaseIndex = ((tokenId & commonInterface.ReleaseIdMask()) >> commonInterface.ReleaseIdOffset());\n\n      // Return entity, product, version, URI and parent for this hash\n      return (entityIndex, productIndex, releaseIndex,\n              Releases[tokenId].version, tokenURI(tokenId),\n              Releases[tokenId].parent);\n    }\n    else\n      return (0, 0, 0, 0, \"\", 0);\n  }\n\n  struct ReleaseInformation\n  {\n    uint256 index;\n    uint256 product;\n    uint256 release;\n    uint256 version; // version, architecture, languages\n    string fileURI;\n    uint256 parent; // Ricardian parent of this file\n  }\n\n  /// @notice Return depth of ricardian parent relative to child\n  ///   The childHash and parentHash must exist as same product\n  /// @param childHash SHA256 checksum hash of the child file\n  /// @param parentHash SHA256 checksum hash of the parent file\n  /// @return the child document depth compared to parent (> 0 is parent)\n  function creatorParentOf(uint256 childHash, uint256 parentHash)\n    public view returns (uint)\n  {\n\n    ReleaseInformation[2] memory childAndParent;\n    uint256 currentRicardianHash = childHash;\n\n    ( childAndParent[0].index, childAndParent[0].product, childAndParent[0].release,\n      childAndParent[0].version, childAndParent[0].fileURI,\n      childAndParent[0].parent ) = creatorReleaseHashDetails(childHash);\n    ( childAndParent[1].index, childAndParent[1].product, childAndParent[1].release,\n      childAndParent[1].version, childAndParent[1].fileURI,\n      childAndParent[1].parent ) = creatorReleaseHashDetails(parentHash);\n\n    // Recursively search up the tree to find the parent\n    for (uint i = 1; currentRicardianHash != 0; ++i)\n    {\n      require((childAndParent[0].index != 0), commonInterface.EntityIsZero());\n      require((childAndParent[0].index == childAndParent[1].index), \"Entity mismatch\");\n      require((childAndParent[0].product == childAndParent[1].product), \"Product mismatch\");\n\n      currentRicardianHash = childAndParent[0].parent;\n\n      // If we found the parent return the ricardian depth\n      if (currentRicardianHash == parentHash)\n        return i;\n\n      ( childAndParent[0].index, childAndParent[0].product, childAndParent[0].release,\n        childAndParent[0].version, childAndParent[0].fileURI,\n        childAndParent[0].parent ) = creatorReleaseHashDetails(childAndParent[0].parent);\n    }\n\n    // Return not found\n    return 0;\n  }\n\n  /// @notice Determine if an address owns a client token of parent\n  ///   The clientAddress and parentHash must be valid\n  /// @param clientAddress Ethereum address of client\n  /// @param parentHash SHA256 checksum hash of the parent file\n  /// @return The child Ricardian depth to parent (> 0 has child)\n  function creatorHasChildOf(address clientAddress, uint256 parentHash)\n    public view returns (uint)\n  {\n    ReleaseInformation memory parentInfo;\n    uint256 tokenId;\n    uint depth;\n\n    ( parentInfo.index, parentInfo.product, parentInfo.release,\n      parentInfo.version, parentInfo.fileURI,\n      parentInfo.parent ) = creatorReleaseHashDetails(parentHash);\n    require((parentInfo.index != 0), commonInterface.EntityIsZero());\n    require((clientAddress != address(0)), \"Address is zero\");\n\n\n    // Search through the creator tokens of the client\n    for (uint i = 0; i < balanceOf(clientAddress); ++i)\n    {\n      // Retrieve the token id of this index\n      tokenId = tokenOfOwnerByIndex(clientAddress, i);\n\n      // Ensure same entity and product ids before checking parent\n      if ((((tokenId & commonInterface.EntityIdMask()) >> commonInterface.EntityIdOffset())\n           == parentInfo.index) &&\n          (((tokenId & commonInterface.ProductIdMask()) >> commonInterface.ProductIdOffset())\n              == parentInfo.product))\n      {\n        // If we found the parent return the Ricardian depth\n        depth = creatorParentOf(Releases[tokenId].hash, parentHash);\n        if (depth > 0)\n          return depth;\n      }\n    }\n\n    // Return not found\n    return 0;\n  }\n\n  /// @notice Retrieve details for all product releases\n  /// Status of empty arrays if none found.\n  /// @param entityIndex The index of the entity owner of product\n  /// @param productIndex The product ID of the new release\n  /// @return versions , URIs, hashes, parents are array return values.\\\n  ///         **versions** Array of version, architecture and language(s)\\\n  ///         **URIs** Array of URI to the product release files\\\n  ///         **hashes** Array of SHA256 checksum hash of the files\\\n  ///         **parents** Aarray of SHA256 checksum hash of the parent files\n  function creatorAllReleaseDetails(uint256 entityIndex, uint256 productIndex)\n    external view returns (uint256[] memory versions, string[] memory URIs,\n                           uint256[] memory hashes, uint256[] memory parents)\n  {\n    require(entityIndex > 0, commonInterface.EntityIsZero());\n    require(productInterface.productNumberOf(entityIndex) > productIndex,\n            commonInterface.ProductNotFound());\n\n    uint256[] memory resultVersion = new uint256[](ReleasesNumberOf[entityIndex][productIndex]);\n    string[] memory resultURI = new string[](ReleasesNumberOf[entityIndex][productIndex]);\n    uint256[] memory resultHash = new uint256[](ReleasesNumberOf[entityIndex][productIndex]);\n    uint256[] memory resultParent = new uint256[](ReleasesNumberOf[entityIndex][productIndex]);\n    uint256 tokenId;\n\n    // Build result arrays for all release information of a product\n    for (uint i = 0; i < ReleasesNumberOf[entityIndex][productIndex]; ++i)\n    {\n      // Serialize the entity, product and release IDs into unique tokenID\n      tokenId = ((entityIndex << commonInterface.EntityIdOffset()) & commonInterface.EntityIdMask()) |\n              ((productIndex << commonInterface.ProductIdOffset()) & commonInterface.ProductIdMask()) |\n              ((i << commonInterface.ReleaseIdOffset()) & commonInterface.ReleaseIdMask());\n      resultVersion[i] = Releases[tokenId].version;\n      if (Releases[tokenId].version > 0)\n        resultURI[i] = tokenURI(tokenId);\n      else\n        resultURI[i] = \"\";\n      resultHash[i] = Releases[tokenId].hash;\n      resultParent[i] = Releases[tokenId].parent;\n    }\n\n    return (resultVersion, resultURI, resultHash, resultParent);\n  }\n\n  /// @notice Return the number of releases of a product\n  /// Entity must exist.\n  /// @param entityIndex The index of the entity\n  /// @return the current number of products for the entity\n  function creatorReleasesNumberOf(uint256 entityIndex, uint256 productIndex)\n    external view returns (uint256)\n  {\n    require(entityIndex > 0, commonInterface.EntityIsZero());\n\n    // Return the number of releases for this entity/product\n    if (productInterface.productNumberOf(entityIndex) >= productIndex)\n      return ReleasesNumberOf[entityIndex][productIndex];\n    else\n      return 0;\n  }\n\n  // Pass through the overrides to inherited super class\n  //   To add per-transfer fee's/logic in the future do so here\n  function _beforeTokenTransfer(address from, address to, uint256 tokenId)\n      internal override(ERC721Upgradeable,\n                        ERC721EnumerableUpgradeable)\n  {\n\n    // Only token owner transfer or master contract exchange\n    //   Skip this check when first minting\n    if (from != address(0))\n      require((msg.sender == ownerOf(tokenId)) ||\n              (Releases[tokenId].parent == 0), \"Not owner/leaf\");\n\n    super._beforeTokenTransfer(from, to, tokenId);\n  }\n\n\n  /// @notice Look up the release URI from the token Id\n  /// @param tokenId The unique token identifier\n  /// @return the file name and/or URI secured by this token\n  function tokenURI(uint256 tokenId) public view virtual override\n    (ERC721Upgradeable, ERC721URIStorageUpgradeable)\n      returns (string memory)\n  {\n    return super.tokenURI(tokenId);\n  }\n\n  /// @notice Change the URI of the token Id\n  ///   Token must exist and caller must be owner or approved\n  /// @param tokenId The unique token identifier\n  /// @param _tokenURI The NFT's new associated URI/URL for this token\n  function setTokenURI(uint256 tokenId, string memory _tokenURI) public\n  {\n    //solhint-disable-next-line max-line-length\n    require(_isApprovedOrOwner(_msgSender(), tokenId), \"setTokenURI: caller is not owner nor approved\");\n    return super._setTokenURI(tokenId, _tokenURI);\n  }\n\n  /// @notice Burn a product file release.\n  /// Not public, called internally. msg.sender must be the token owner.\n  /// @param tokenId The tokenId to burn\n  function _burn(uint256 tokenId) internal virtual override(ERC721Upgradeable,\n                                                       ERC721URIStorageUpgradeable)\n  {\n    uint256 entityIndex = ((tokenId & commonInterface.EntityIdMask()) >> commonInterface.EntityIdOffset());\n    uint256 productIndex = ((tokenId & commonInterface.ProductIdMask()) >> commonInterface.ProductIdOffset());\n    uint256 releaseIndex = ((tokenId & commonInterface.ReleaseIdMask()) >> commonInterface.ReleaseIdOffset());\n\n    // Burn token and remove the recorded info (hash, version, etc.)\n    super._burn(tokenId);\n    HashToRelease[Releases[tokenId].hash] = 0;\n    Releases[tokenId].hash = 0;\n    Releases[tokenId].version = 0;\n    if (Releases[tokenId].parent > 0)\n      Releases[tokenId].parent = 0;\n\n    // If latest release, decrease per-product count\n    if (releaseIndex == ReleasesNumberOf[entityIndex][productIndex] - 1)\n      --ReleasesNumberOf[entityIndex][productIndex];\n  }\n\n  /// @notice Return the type of supported ERC interfaces\n  /// @param interfaceId The interface desired\n  /// @return TRUE (1) if supported, FALSE (0) otherwise\n  function supportsInterface(bytes4 interfaceId) public view virtual\n    override(ERC721Upgradeable, ERC721EnumerableUpgradeable)\n      returns (bool)\n  {\n    return super.supportsInterface(interfaceId);\n  }\n\n/* Used once to fix initial bug (copy/paste error from ActivateToken)\n  /// @notice Change the branding of the token (name and symbol)\n  /// @param newName The new token name\n  /// @param newSymbol The new token symbol\n  function changeBrand(string memory newName, string memory newSymbol) public onlyOwner\n  {\n    __name = newName;\n    __symbol = newSymbol;\n  }\n*/\n\n  /// @notice Retrieve the token name\n  /// @return Return the token name as a string\n  function name() public view virtual override(ERC721Upgradeable)\n      returns (string memory)\n  {\n    if (bytes(__name).length > 0)\n      return __name;\n    else\n      return super.name();\n  }\n\n  /// @notice Retrieve the token symbol\n  /// @return Return the token symbol as a string\n  function symbol() public view virtual override(ERC721Upgradeable)\n      returns (string memory)\n  {\n    if (bytes(__symbol).length > 0)\n      return __symbol;\n    else\n      return super.symbol();\n  }\n}\n",
  "sourcePath": "C:\\Users\\slawl\\Source\\ImmutableEcosystem\\contracts\\CreatorToken.sol",
  "compiler": {
    "name": "solc",
    "version": "0.8.14+commit.80d49f37.Emscripten.clang"
  },
  "schemaVersion": "3.4.3",
  "updatedAt": "2022-09-12T20:21:43.632Z",
  "devdoc": {
    "author": "Sean Lawless for ImmutableSoft Inc.",
    "details": "Ecosystem is split in three, Entities, Releases and Licenses",
    "kind": "dev",
    "methods": {
      "anonFile(uint256,string,uint256)": {
        "params": {
          "newFileUri": "URI/name/reference of the file",
          "newHash": "The file SHA256 CRC hash",
          "version": "The version and flags of the file"
        }
      },
      "approve(address,uint256)": {
        "details": "See {IERC721-approve}."
      },
      "balanceOf(address)": {
        "details": "See {IERC721-balanceOf}."
      },
      "burn(uint256)": {
        "details": "Burns `tokenId`. See {ERC721-_burn}. Requirements: - The caller must own `tokenId` or be an approved operator."
      },
      "creatorAllReleaseDetails(uint256,uint256)": {
        "params": {
          "entityIndex": "The index of the entity owner of product",
          "productIndex": "The product ID of the new release"
        },
        "returns": {
          "versions": ", URIs, hashes, parents are array return values.\\         **versions** Array of version, architecture and language(s)\\         **URIs** Array of URI to the product release files\\         **hashes** Array of SHA256 checksum hash of the files\\         **parents** Aarray of SHA256 checksum hash of the parent files"
        }
      },
      "creatorAnonFee(uint256)": {
        "params": {
          "newFee": "the new anonymous use fee"
        }
      },
      "creatorHasChildOf(address,uint256)": {
        "params": {
          "clientAddress": "Ethereum address of client",
          "parentHash": "SHA256 checksum hash of the parent file"
        },
        "returns": {
          "_0": "The child Ricardian depth to parent (> 0 has child)"
        }
      },
      "creatorParentOf(uint256,uint256)": {
        "params": {
          "childHash": "SHA256 checksum hash of the child file",
          "parentHash": "SHA256 checksum hash of the parent file"
        },
        "returns": {
          "_0": "the child document depth compared to parent (> 0 is parent)"
        }
      },
      "creatorReleaseDetails(uint256,uint256,uint256)": {
        "params": {
          "entityIndex": "The index of the entity owner of product",
          "productIndex": "The product ID of the new release",
          "releaseIndex": "The index of the product release"
        },
        "returns": {
          "flags": ", URI, fileHash and parentHash are return values.\\         **flags** The version, architecture and language(s)\\         **URI** The URI to the product release file\\         **fileHash** The SHA256 checksum hash of the file\\         **parentHash** The SHA256 checksum hash of the parent file"
        }
      },
      "creatorReleaseHashDetails(uint256)": {
        "params": {
          "fileHash": "The index of the product release"
        },
        "returns": {
          "entity": ", product, release, version, URI and parent are return values.\\         **entity** The index of the entity owner of product\\         **product** The product ID of the release\\         **release** The release ID of the release\\         **version** The version, architecture and language(s)\\         **URI** The URI to the product release file         **parent** The SHA256 checksum of ricarding parent file"
        }
      },
      "creatorReleases(uint256[],uint256[],uint256[],string[],uint256[])": {
        "params": {
          "newFileUri": "Array of valid URIs of the release binary",
          "newHash": "Array of file SHA256 CRC hash",
          "newVersion": "Array of version, architecture and languages",
          "parentHash": "Array of SHA256 CRC hash of parent contract",
          "productIndex": "Array of product IDs of new release(s)"
        }
      },
      "creatorReleasesNumberOf(uint256,uint256)": {
        "params": {
          "entityIndex": "The index of the entity"
        },
        "returns": {
          "_0": "the current number of products for the entity"
        }
      },
      "getApproved(uint256)": {
        "details": "See {IERC721-getApproved}."
      },
      "initialize(address,address,address)": {
        "params": {
          "commonAddr": "The StringCommon contract address",
          "entityAddr": "The ImmutableEntity token contract address",
          "productAddr": "The ImmutableProduct token contract address"
        }
      },
      "isApprovedForAll(address,address)": {
        "details": "See {IERC721-isApprovedForAll}."
      },
      "name()": {
        "returns": {
          "_0": "Return the token name as a string"
        }
      },
      "owner()": {
        "details": "Returns the address of the current owner."
      },
      "ownerOf(uint256)": {
        "details": "See {IERC721-ownerOf}."
      },
      "renounceOwnership()": {
        "details": "Leaves the contract without owner. It will not be possible to call `onlyOwner` functions anymore. Can only be called by the current owner. NOTE: Renouncing ownership will leave the contract without an owner, thereby removing any functionality that is only available to the owner."
      },
      "safeTransferFrom(address,address,uint256)": {
        "details": "See {IERC721-safeTransferFrom}."
      },
      "safeTransferFrom(address,address,uint256,bytes)": {
        "details": "See {IERC721-safeTransferFrom}."
      },
      "setApprovalForAll(address,bool)": {
        "details": "See {IERC721-setApprovalForAll}."
      },
      "setTokenURI(uint256,string)": {
        "params": {
          "_tokenURI": "The NFT's new associated URI/URL for this token",
          "tokenId": "The unique token identifier"
        }
      },
      "supportsInterface(bytes4)": {
        "params": {
          "interfaceId": "The interface desired"
        },
        "returns": {
          "_0": "TRUE (1) if supported, FALSE (0) otherwise"
        }
      },
      "symbol()": {
        "returns": {
          "_0": "Return the token symbol as a string"
        }
      },
      "tokenByIndex(uint256)": {
        "details": "See {IERC721Enumerable-tokenByIndex}."
      },
      "tokenOfOwnerByIndex(address,uint256)": {
        "details": "See {IERC721Enumerable-tokenOfOwnerByIndex}."
      },
      "tokenURI(uint256)": {
        "params": {
          "tokenId": "The unique token identifier"
        },
        "returns": {
          "_0": "the file name and/or URI secured by this token"
        }
      },
      "totalSupply()": {
        "details": "See {IERC721Enumerable-totalSupply}."
      },
      "transferFrom(address,address,uint256)": {
        "details": "See {IERC721-transferFrom}."
      },
      "transferOwnership(address)": {
        "details": "Transfers ownership of the contract to a new account (`newOwner`). Can only be called by the current owner."
      }
    },
    "title": "The Immutable Product - authentic product distribution",
    "version": 1
  },
  "userdoc": {
    "kind": "user",
    "methods": {
      "anonFile(uint256,string,uint256)": {
        "notice": "Anonymous file security (PoE without credentials) Entity and Product must exist."
      },
      "creatorAllReleaseDetails(uint256,uint256)": {
        "notice": "Retrieve details for all product releases Status of empty arrays if none found."
      },
      "creatorAnonFee(uint256)": {
        "notice": "Retrieve fee to upgrade. Administrator only."
      },
      "creatorHasChildOf(address,uint256)": {
        "notice": "Determine if an address owns a client token of parent   The clientAddress and parentHash must be valid"
      },
      "creatorParentOf(uint256,uint256)": {
        "notice": "Return depth of ricardian parent relative to child   The childHash and parentHash must exist as same product"
      },
      "creatorReleaseDetails(uint256,uint256,uint256)": {
        "notice": "Return version, URI and hash of existing product release. Entity, Product and Release must exist."
      },
      "creatorReleaseHashDetails(uint256)": {
        "notice": "Reverse lookup, return entity, product, URI of product release. Entity, Product and Release must exist."
      },
      "creatorReleases(uint256[],uint256[],uint256[],string[],uint256[])": {
        "notice": "Create new release(s) of an existing product. Entity and Product must exist."
      },
      "creatorReleasesNumberOf(uint256,uint256)": {
        "notice": "Return the number of releases of a product Entity must exist."
      },
      "initialize(address,address,address)": {
        "notice": "Initialize the CreatorToken smart contract   Called during first deployment only (not on upgrade) as   this is an OpenZepellin upgradable contract"
      },
      "name()": {
        "notice": "Retrieve the token name"
      },
      "setTokenURI(uint256,string)": {
        "notice": "Change the URI of the token Id   Token must exist and caller must be owner or approved"
      },
      "supportsInterface(bytes4)": {
        "notice": "Return the type of supported ERC interfaces"
      },
      "symbol()": {
        "notice": "Retrieve the token symbol"
      },
      "tokenURI(uint256)": {
        "notice": "Look up the release URI from the token Id"
      }
    },
    "notice": "Token transfers use the ImmuteToken only",
    "version": 1
  }
}