{
  "contractName": "ImmutableProduct",
  "abi": [
    {
      "anonymous": false,
      "inputs": [
        {
          "indexed": true,
          "internalType": "address",
          "name": "previousOwner",
          "type": "address"
        },
        {
          "indexed": true,
          "internalType": "address",
          "name": "newOwner",
          "type": "address"
        }
      ],
      "name": "OwnershipTransferred",
      "type": "event"
    },
    {
      "anonymous": false,
      "inputs": [
        {
          "indexed": false,
          "internalType": "uint256",
          "name": "entityIndex",
          "type": "uint256"
        },
        {
          "indexed": false,
          "internalType": "uint256",
          "name": "productIndex",
          "type": "uint256"
        },
        {
          "indexed": false,
          "internalType": "string",
          "name": "name",
          "type": "string"
        },
        {
          "indexed": false,
          "internalType": "string",
          "name": "infoUrl",
          "type": "string"
        },
        {
          "indexed": false,
          "internalType": "uint256",
          "name": "details",
          "type": "uint256"
        }
      ],
      "name": "productEvent",
      "type": "event"
    },
    {
      "anonymous": false,
      "inputs": [
        {
          "indexed": false,
          "internalType": "uint256",
          "name": "entityIndex",
          "type": "uint256"
        },
        {
          "indexed": false,
          "internalType": "uint256",
          "name": "productIndex",
          "type": "uint256"
        },
        {
          "indexed": false,
          "internalType": "string",
          "name": "productName",
          "type": "string"
        },
        {
          "indexed": false,
          "internalType": "address",
          "name": "erc20token",
          "type": "address"
        },
        {
          "indexed": false,
          "internalType": "uint256",
          "name": "price",
          "type": "uint256"
        },
        {
          "indexed": false,
          "internalType": "uint256",
          "name": "value",
          "type": "uint256"
        },
        {
          "indexed": false,
          "internalType": "string",
          "name": "infoUrl",
          "type": "string"
        }
      ],
      "name": "productOfferEvent",
      "type": "event"
    },
    {
      "inputs": [],
      "name": "owner",
      "outputs": [
        {
          "internalType": "address",
          "name": "",
          "type": "address"
        }
      ],
      "stateMutability": "view",
      "type": "function"
    },
    {
      "inputs": [],
      "name": "renounceOwnership",
      "outputs": [],
      "stateMutability": "nonpayable",
      "type": "function"
    },
    {
      "inputs": [
        {
          "internalType": "address",
          "name": "newOwner",
          "type": "address"
        }
      ],
      "name": "transferOwnership",
      "outputs": [],
      "stateMutability": "nonpayable",
      "type": "function"
    },
    {
      "inputs": [
        {
          "internalType": "address",
          "name": "entityAddr",
          "type": "address"
        },
        {
          "internalType": "address",
          "name": "commonAddr",
          "type": "address"
        }
      ],
      "name": "initialize",
      "outputs": [],
      "stateMutability": "nonpayable",
      "type": "function"
    },
    {
      "inputs": [
        {
          "internalType": "string",
          "name": "productName",
          "type": "string"
        },
        {
          "internalType": "string",
          "name": "productURL",
          "type": "string"
        },
        {
          "internalType": "string",
          "name": "logoURL",
          "type": "string"
        },
        {
          "internalType": "uint256",
          "name": "details",
          "type": "uint256"
        }
      ],
      "name": "productCreate",
      "outputs": [
        {
          "internalType": "uint256",
          "name": "",
          "type": "uint256"
        }
      ],
      "stateMutability": "nonpayable",
      "type": "function"
    },
    {
      "inputs": [
        {
          "internalType": "uint256",
          "name": "productIndex",
          "type": "uint256"
        },
        {
          "internalType": "address",
          "name": "erc20token",
          "type": "address"
        },
        {
          "internalType": "uint256",
          "name": "price",
          "type": "uint256"
        },
        {
          "internalType": "uint256",
          "name": "feature",
          "type": "uint256"
        },
        {
          "internalType": "uint256",
          "name": "expiration",
          "type": "uint256"
        },
        {
          "internalType": "uint16",
          "name": "limited",
          "type": "uint16"
        },
        {
          "internalType": "uint16",
          "name": "bulk",
          "type": "uint16"
        },
        {
          "internalType": "string",
          "name": "infoUrl",
          "type": "string"
        },
        {
          "internalType": "bool",
          "name": "noResale",
          "type": "bool"
        },
        {
          "internalType": "uint256",
          "name": "transferSurcharge",
          "type": "uint256"
        },
        {
          "internalType": "uint256",
          "name": "requireRicardian",
          "type": "uint256"
        }
      ],
      "name": "productOfferFeature",
      "outputs": [],
      "stateMutability": "nonpayable",
      "type": "function"
    },
    {
      "inputs": [
        {
          "internalType": "uint256",
          "name": "productIndex",
          "type": "uint256"
        },
        {
          "internalType": "address",
          "name": "erc20token",
          "type": "address"
        },
        {
          "internalType": "uint256",
          "name": "price",
          "type": "uint256"
        },
        {
          "internalType": "uint256",
          "name": "limitation",
          "type": "uint256"
        },
        {
          "internalType": "uint256",
          "name": "expiration",
          "type": "uint256"
        },
        {
          "internalType": "uint16",
          "name": "limited",
          "type": "uint16"
        },
        {
          "internalType": "uint16",
          "name": "bulk",
          "type": "uint16"
        },
        {
          "internalType": "string",
          "name": "infoUrl",
          "type": "string"
        },
        {
          "internalType": "bool",
          "name": "noResale",
          "type": "bool"
        },
        {
          "internalType": "uint256",
          "name": "transferSurcharge",
          "type": "uint256"
        },
        {
          "internalType": "uint256",
          "name": "requireRicardian",
          "type": "uint256"
        }
      ],
      "name": "productOfferLimitation",
      "outputs": [],
      "stateMutability": "nonpayable",
      "type": "function"
    },
    {
      "inputs": [
        {
          "internalType": "uint256",
          "name": "productIndex",
          "type": "uint256"
        },
        {
          "internalType": "uint256",
          "name": "offerIndex",
          "type": "uint256"
        },
        {
          "internalType": "uint256",
          "name": "price",
          "type": "uint256"
        }
      ],
      "name": "productOfferEditPrice",
      "outputs": [],
      "stateMutability": "nonpayable",
      "type": "function"
    },
    {
      "inputs": [
        {
          "internalType": "uint256",
          "name": "entityIndex",
          "type": "uint256"
        },
        {
          "internalType": "uint256",
          "name": "productIndex",
          "type": "uint256"
        },
        {
          "internalType": "uint256",
          "name": "offerIndex",
          "type": "uint256"
        }
      ],
      "name": "productOfferPurchased",
      "outputs": [],
      "stateMutability": "nonpayable",
      "type": "function"
    },
    {
      "inputs": [
        {
          "internalType": "uint256",
          "name": "productIndex",
          "type": "uint256"
        },
        {
          "internalType": "string",
          "name": "productName",
          "type": "string"
        },
        {
          "internalType": "string",
          "name": "productURL",
          "type": "string"
        },
        {
          "internalType": "string",
          "name": "logoURL",
          "type": "string"
        },
        {
          "internalType": "uint256",
          "name": "details",
          "type": "uint256"
        }
      ],
      "name": "productEdit",
      "outputs": [],
      "stateMutability": "nonpayable",
      "type": "function"
    },
    {
      "inputs": [
        {
          "internalType": "uint256",
          "name": "entityIndex",
          "type": "uint256"
        }
      ],
      "name": "productNumberOf",
      "outputs": [
        {
          "internalType": "uint256",
          "name": "",
          "type": "uint256"
        }
      ],
      "stateMutability": "view",
      "type": "function"
    },
    {
      "inputs": [
        {
          "internalType": "uint256",
          "name": "entityIndex",
          "type": "uint256"
        },
        {
          "internalType": "uint256",
          "name": "productIndex",
          "type": "uint256"
        }
      ],
      "name": "productDetails",
      "outputs": [
        {
          "internalType": "string",
          "name": "name",
          "type": "string"
        },
        {
          "internalType": "string",
          "name": "infoURL",
          "type": "string"
        },
        {
          "internalType": "string",
          "name": "logoURL",
          "type": "string"
        },
        {
          "internalType": "uint256",
          "name": "details",
          "type": "uint256"
        }
      ],
      "stateMutability": "view",
      "type": "function"
    },
    {
      "inputs": [
        {
          "internalType": "uint256",
          "name": "entityIndex",
          "type": "uint256"
        }
      ],
      "name": "productAllDetails",
      "outputs": [
        {
          "internalType": "string[]",
          "name": "names",
          "type": "string[]"
        },
        {
          "internalType": "string[]",
          "name": "infoURLs",
          "type": "string[]"
        },
        {
          "internalType": "string[]",
          "name": "logoURLs",
          "type": "string[]"
        },
        {
          "internalType": "uint256[]",
          "name": "details",
          "type": "uint256[]"
        },
        {
          "internalType": "uint256[]",
          "name": "offers",
          "type": "uint256[]"
        }
      ],
      "stateMutability": "view",
      "type": "function"
    },
    {
      "inputs": [
        {
          "internalType": "uint256",
          "name": "entityIndex",
          "type": "uint256"
        },
        {
          "internalType": "uint256",
          "name": "productIndex",
          "type": "uint256"
        },
        {
          "internalType": "uint256",
          "name": "offerIndex",
          "type": "uint256"
        }
      ],
      "name": "productOfferDetails",
      "outputs": [
        {
          "internalType": "address",
          "name": "erc20Token",
          "type": "address"
        },
        {
          "internalType": "uint256",
          "name": "price",
          "type": "uint256"
        },
        {
          "internalType": "uint256",
          "name": "value",
          "type": "uint256"
        },
        {
          "internalType": "string",
          "name": "offerURL",
          "type": "string"
        },
        {
          "internalType": "uint256",
          "name": "surcharge",
          "type": "uint256"
        },
        {
          "internalType": "uint256",
          "name": "parent",
          "type": "uint256"
        }
      ],
      "stateMutability": "view",
      "type": "function"
    },
    {
      "inputs": [
        {
          "internalType": "uint256",
          "name": "entityIndex",
          "type": "uint256"
        },
        {
          "internalType": "uint256",
          "name": "productIndex",
          "type": "uint256"
        }
      ],
      "name": "productAllOfferDetails",
      "outputs": [
        {
          "internalType": "address[]",
          "name": "erc20Tokens",
          "type": "address[]"
        },
        {
          "internalType": "uint256[]",
          "name": "prices",
          "type": "uint256[]"
        },
        {
          "internalType": "uint256[]",
          "name": "values",
          "type": "uint256[]"
        },
        {
          "internalType": "string[]",
          "name": "offerURLs",
          "type": "string[]"
        },
        {
          "internalType": "uint256[]",
          "name": "surcharges",
          "type": "uint256[]"
        },
        {
          "internalType": "uint256[]",
          "name": "parents",
          "type": "uint256[]"
        }
      ],
      "stateMutability": "view",
      "type": "function"
    }
  ],
  "bytecode": "0x608060405234801561001057600080fd5b50614b99806100206000396000f3fe608060405234801561001057600080fd5b50600436106100f45760003560e01c8063715018a611610097578063b5318f4411610066578063b5318f4414610225578063c56d592914610238578063d7a211031461024b578063f2fde38b1461025e57600080fd5b8063715018a6146101cc578063887190f7146101d45780638da5cb5b146101e7578063972760811461020257600080fd5b8063485cc955116100d3578063485cc9551461014e5780635afdabcb14610161578063698c2e00146101865780636e416b6f146101ab57600080fd5b80629ea911146100f957806334f270be1461010e57806338387f4b14610121575b600080fd5b61010c61010736600461426a565b610271565b005b61010c61011c366004614315565b6106f6565b61013461012f366004614341565b610d36565b604051610145959493929190614443565b60405180910390f35b61010c61015c3660046144c7565b611298565b61017461016f3660046144fa565b6113e1565b6040516101459695949392919061451c565b610199610194366004614315565b611a79565b604051610145969594939291906145d0565b6101be6101b9366004614341565b611d7e565b604051908152602001610145565b61010c611e51565b61010c6101e2366004614633565b611eb7565b6033546040516001600160a01b039091168152602001610145565b6102156102103660046144fa565b612525565b60405161014594939291906146fa565b61010c610233366004614315565b612890565b6101be610246366004614745565b612d75565b61010c610259366004614633565b6131b7565b61010c61026c3660046147e8565b6137ac565b6067546040516204cd7760e41b81523360048201526000916001600160a01b031690624cd77090602401602060405180830381865afa1580156102b8573d6000803e3d6000fd5b505050506040513d601f19601f820116820180604052508101906102dc919061480a565b60675460405163042f332160e01b815233600482015291925060009182916001600160a01b03169063042f332190602401602060405180830381865afa15801561032a573d6000803e3d6000fd5b505050506040513d601f19601f8201168201806040525081019061034e919061480a565b11606860009054906101000a90046001600160a01b03166001600160a01b0316632023c5196040518163ffffffff1660e01b8152600401600060405180830381865afa1580156103a2573d6000803e3d6000fd5b505050506040513d6000823e601f3d908101601f191682016040526103ca9190810190614839565b906103f15760405162461bcd60e51b81526004016103e891906148e6565b60405180910390fd5b508715806103fe57508515155b61044a5760405162461bcd60e51b815260206004820152600c60248201527f55524c207265717569726564000000000000000000000000000000000000000060448201526064016103e8565b6000828152606660205260408082205460685482516379de4af560e01b81529251918e10936001600160a01b03909116926379de4af592600480830193928290030181865afa1580156104a1573d6000803e3d6000fd5b505050506040513d6000823e601f3d908101601f191682016040526104c99190810190614839565b906104e75760405162461bcd60e51b81526004016103e891906148e6565b508715610612575060005b60008281526066602052604090205481101561061257808a146106025760685460008381526065602090815260408083208584529091529081902090517f13d199500000000000000000000000000000000000000000000000000000000081526001600160a01b03909216916313d1995091610574918d908d906004016149ff565b602060405180830381865afa158015610591573d6000803e3d6000fd5b505050506040513d601f19601f820116820180604052508101906105b59190614a2f565b156106025760405162461bcd60e51b815260206004820152601360248201527f6e616d6520616c7265616479206578697374730000000000000000000000000060448201526064016103e8565b61060b81614a62565b90506104f2565b60008281526065602090815260408083208d84529091529020610636908a8a614114565b5060008281526065602090815260408083208d8452909152902061065e906001018888614114565b5060008281526065602090815260408083208d84529091529020610686906002018686614114565b5060008281526065602090815260408083208d845290915290819020600301849055517f80268946da1a8eb4039afbc76b436142da7d9778ee9f9c776647a074649578a0906106e29084908d908d908d908d908d908b90614a7d565b60405180910390a150505050505050505050565b606854604080517f498ed7700000000000000000000000000000000000000000000000000000000081529051851515926001600160a01b03169163498ed7709160048083019260009291908290030181865afa15801561075a573d6000803e3d6000fd5b505050506040513d6000823e601f3d908101601f191682016040526107829190810190614839565b906107a05760405162461bcd60e51b81526004016103e891906148e6565b506000838152606660205260408082205460685482516379de4af560e01b81529251918610936001600160a01b03909116926379de4af592600480830193928290030181865afa1580156107f8573d6000803e3d6000fd5b505050506040513d6000823e601f3d908101601f191682016040526108209190810190614839565b9061083e5760405162461bcd60e51b81526004016103e891906148e6565b50600083815260656020908152604080832085845290915280822060049081015460685483517f6df5846d0000000000000000000000000000000000000000000000000000000081529351918610946001600160a01b0390911693636df5846d9381810193918290030181865afa1580156108bd573d6000803e3d6000fd5b505050506040513d6000823e601f3d908101601f191682016040526108e59190810190614839565b906109035760405162461bcd60e51b81526004016103e891906148e6565b506000838152606560209081526040808320858452825280832084845260050182528083206002015460685482517fcb523d1000000000000000000000000000000000000000000000000000000000815292519194936001600160a01b039091169263cb523d1092600480830193928290030181865afa15801561098b573d6000803e3d6000fd5b505050506040513d601f19601f820116820180604052508101906109af919061480a565b606860009054906101000a90046001600160a01b03166001600160a01b0316630b6febeb6040518163ffffffff1660e01b8152600401602060405180830381865afa158015610a02573d6000803e3d6000fd5b505050506040513d601f19601f82011682018060405250810190610a26919061480a565b8316901c905060008111610a7c5760405162461bcd60e51b815260206004820152600e60248201527f436f756e7420726571756972656400000000000000000000000000000000000060448201526064016103e8565b606860009054906101000a90046001600160a01b03166001600160a01b0316630b6febeb6040518163ffffffff1660e01b8152600401602060405180830381865afa158015610acf573d6000803e3d6000fd5b505050506040513d601f19601f82011682018060405250810190610af3919061480a565b1982169150606860009054906101000a90046001600160a01b03166001600160a01b0316630b6febeb6040518163ffffffff1660e01b8152600401602060405180830381865afa158015610b4b573d6000803e3d6000fd5b505050506040513d601f19601f82011682018060405250810190610b6f919061480a565b606860009054906101000a90046001600160a01b03166001600160a01b031663cb523d106040518163ffffffff1660e01b8152600401602060405180830381865afa158015610bc2573d6000803e3d6000fd5b505050506040513d601f19601f82011682018060405250810190610be6919061480a565b610bf1600184614ac5565b60008881526065602090815260408083208a845282528083208984526005019091529020911b91909116929092176002909201829055610c32600182614ac5565b610d2f5760008581526065602090815260408083208784528252808320868452600501909152812060028101829055600101555b600085815260656020908152604080832087845290915290206004015415801590610cb857506000858152606560209081526040808320878452909152902060040154610cb590600190614ac5565b83145b8015610ce9575060008581526065602090815260408083208784528252808320868452600501909152902060010154155b15610d2f5782610cf881614adc565b600087815260656020908152604080832089845290915281206004018054929650919250610d2583614adc565b9190505550610c66565b5050505050565b606080606080606060008611606860009054906101000a90046001600160a01b03166001600160a01b031663498ed7706040518163ffffffff1660e01b8152600401600060405180830381865afa158015610d95573d6000803e3d6000fd5b505050506040513d6000823e601f3d908101601f19168201604052610dbd9190810190614839565b90610ddb5760405162461bcd60e51b81526004016103e891906148e6565b5060008681526066602052604081205467ffffffffffffffff811115610e0357610e03614823565b604051908082528060200260200182016040528015610e3657816020015b6060815260200190600190039081610e215790505b506000888152606660205260408120549192509067ffffffffffffffff811115610e6257610e62614823565b604051908082528060200260200182016040528015610e9557816020015b6060815260200190600190039081610e805790505b506000898152606660205260408120549192509067ffffffffffffffff811115610ec157610ec1614823565b604051908082528060200260200182016040528015610ef457816020015b6060815260200190600190039081610edf5790505b5060008a8152606660205260408120549192509067ffffffffffffffff811115610f2057610f20614823565b604051908082528060200260200182016040528015610f49578160200160208202803683370190505b5060008b8152606660205260408120549192509067ffffffffffffffff811115610f7557610f75614823565b604051908082528060200260200182016040528015610f9e578160200160208202803683370190505b50905060005b60008c8152606660205260409020548110156112855760008c815260656020908152604080832084845290915290208054610fde906148f9565b80601f016020809104026020016040519081016040528092919081815260200182805461100a906148f9565b80156110575780601f1061102c57610100808354040283529160200191611057565b820191906000526020600020905b81548152906001019060200180831161103a57829003601f168201915b505050505086828151811061106e5761106e614af3565b60209081029190910181019190915260008d81526065825260408082208483529092522060010180546110a0906148f9565b80601f01602080910402602001604051908101604052809291908181526020018280546110cc906148f9565b80156111195780601f106110ee57610100808354040283529160200191611119565b820191906000526020600020905b8154815290600101906020018083116110fc57829003601f168201915b505050505085828151811061113057611130614af3565b60209081029190910181019190915260008d8152606582526040808220848352909252206002018054611162906148f9565b80601f016020809104026020016040519081016040528092919081815260200182805461118e906148f9565b80156111db5780601f106111b0576101008083540402835291602001916111db565b820191906000526020600020905b8154815290600101906020018083116111be57829003601f168201915b50505050508482815181106111f2576111f2614af3565b60209081029190910181019190915260008d81526065825260408082208483529092522060030154835184908390811061122e5761122e614af3565b60209081029190910181019190915260008d81526065825260408082208483529092522060040154825183908390811061126a5761126a614af3565b602090810291909101015261127e81614a62565b9050610fa4565b50939a9299509097509550909350915050565b600054610100900460ff166112b35760005460ff16156112b7565b303b155b6113295760405162461bcd60e51b815260206004820152602e60248201527f496e697469616c697a61626c653a20636f6e747261637420697320616c72656160448201527f647920696e697469616c697a656400000000000000000000000000000000000060648201526084016103e8565b600054610100900460ff1615801561136857600080547fffffffffffffffffffffffffffffffffffffffffffffffffffffffffffff0000166101011790555b61137061388e565b606780546001600160a01b0380861673ffffffffffffffffffffffffffffffffffffffff1992831617909255606880549285169290911691909117905580156113dc57600080547fffffffffffffffffffffffffffffffffffffffffffffffffffffffffffff00ff1690555b505050565b60608060608060608060008811606860009054906101000a90046001600160a01b03166001600160a01b031663498ed7706040518163ffffffff1660e01b8152600401600060405180830381865afa158015611441573d6000803e3d6000fd5b505050506040513d6000823e601f3d908101601f191682016040526114699190810190614839565b906114875760405162461bcd60e51b81526004016103e891906148e6565b506000888152606660205260408082205460685482516379de4af560e01b81529251918b10936001600160a01b03909116926379de4af592600480830193928290030181865afa1580156114df573d6000803e3d6000fd5b505050506040513d6000823e601f3d908101601f191682016040526115079190810190614839565b906115255760405162461bcd60e51b81526004016103e891906148e6565b5061155f6040518060c001604052806060815260200160608152602001606081526020016060815260200160608152602001606081525090565b60008981526065602090815260408083208b845290915290206004015467ffffffffffffffff81111561159457611594614823565b6040519080825280602002602001820160405280156115bd578160200160208202803683370190505b50815260008981526065602090815260408083208b845290915290206004015467ffffffffffffffff8111156115f5576115f5614823565b60405190808252806020026020018201604052801561161e578160200160208202803683370190505b5060208083019190915260008a81526065825260408082208b8352909252206004015467ffffffffffffffff81111561165957611659614823565b604051908082528060200260200182016040528015611682578160200160208202803683370190505b5060408083019190915260008a8152606560209081528282208b83529052206004015467ffffffffffffffff8111156116bd576116bd614823565b6040519080825280602002602001820160405280156116f057816020015b60608152602001906001900390816116db5790505b50606082015260008981526065602090815260408083208b845290915290206004015467ffffffffffffffff81111561172b5761172b614823565b604051908082528060200260200182016040528015611754578160200160208202803683370190505b50608082015260008981526065602090815260408083208b845290915290206004015467ffffffffffffffff81111561178f5761178f614823565b6040519080825280602002602001820160405280156117b8578160200160208202803683370190505b5060a082015260005b60008a81526065602090815260408083208c8452909152902060040154811015611a475760008a81526065602090815260408083208c84528252808320848452600501909152902054825180516001600160a01b03909216918390811061182a5761182a614af3565b6001600160a01b0390921660209283029190910182015260008b81526065825260408082208c8352835280822084835260050183529020600101549083015180518390811061187b5761187b614af3565b60209081029190910181019190915260008b81526065825260408082208c8352835280822084835260050190925281902060020154908301518051839081106118c6576118c6614af3565b60209081029190910181019190915260008b81526065825260408082208c83528352808220848352600501909252206003018054611903906148f9565b80601f016020809104026020016040519081016040528092919081815260200182805461192f906148f9565b801561197c5780601f106119515761010080835404028352916020019161197c565b820191906000526020600020905b81548152906001019060200180831161195f57829003601f168201915b50505050508260600151828151811061199757611997614af3565b60209081029190910181019190915260008b81526065825260408082208c83528352808220848352600501909252206004015460808301518051839081106119e1576119e1614af3565b60209081029190910181019190915260008b81526065825260408082208c8352835280822084835260059081019093529020015460a0830151805183908110611a2c57611a2c614af3565b6020908102919091010152611a4081614a62565b90506117c1565b508051602082015160408301516060840151608085015160a090950151939d929c50909a509850919650945092505050565b6000806000606060008060008911606860009054906101000a90046001600160a01b03166001600160a01b031663498ed7706040518163ffffffff1660e01b8152600401600060405180830381865afa158015611ada573d6000803e3d6000fd5b505050506040513d6000823e601f3d908101601f19168201604052611b029190810190614839565b90611b205760405162461bcd60e51b81526004016103e891906148e6565b506000898152606660205260408082205460685482516379de4af560e01b81529251918c10936001600160a01b03909116926379de4af592600480830193928290030181865afa158015611b78573d6000803e3d6000fd5b505050506040513d6000823e601f3d908101601f19168201604052611ba09190810190614839565b90611bbe5760405162461bcd60e51b81526004016103e891906148e6565b5060008981526065602090815260408083208b845290915280822060049081015460685483517f6df5846d0000000000000000000000000000000000000000000000000000000081529351918c10946001600160a01b0390911693636df5846d9381810193918290030181865afa158015611c3d573d6000803e3d6000fd5b505050506040513d6000823e601f3d908101601f19168201604052611c659190810190614839565b90611c835760405162461bcd60e51b81526004016103e891906148e6565b5060008981526065602090815260408083208b845282528083208a84526005908101909252909120805460018201546002830154600484015494840154600390940180546001600160a01b039094169592949193909291908390611ce6906148f9565b80601f0160208091040260200160405190810160405280929190818152602001828054611d12906148f9565b8015611d5f5780601f10611d3457610100808354040283529160200191611d5f565b820191906000526020600020905b815481529060010190602001808311611d4257829003601f168201915b5050505050925095509550955095509550955093975093979195509350565b6000808211606860009054906101000a90046001600160a01b03166001600160a01b031663498ed7706040518163ffffffff1660e01b8152600401600060405180830381865afa158015611dd6573d6000803e3d6000fd5b505050506040513d6000823e601f3d908101601f19168201604052611dfe9190810190614839565b90611e1c5760405162461bcd60e51b81526004016103e891906148e6565b5060008281526066602052604090205415611e44575060009081526066602052604090205490565b506000919050565b919050565b6033546001600160a01b03163314611eab5760405162461bcd60e51b815260206004820181905260248201527f4f776e61626c653a2063616c6c6572206973206e6f7420746865206f776e657260448201526064016103e8565b611eb56000613913565b565b8215611f0d5760008811611f0d5760405162461bcd60e51b815260206004820152601a60248201527f526573616c652072657175697265732065787069726174696f6e00000000000060448201526064016103e8565b61ffff871615611f695761ffff861615611f695760405162461bcd60e51b815260206004820152601460248201527f4e6f2042756c6b207768656e204c696d6974656400000000000000000000000060448201526064016103e8565b6125178c8c8c606860009054906101000a90046001600160a01b03166001600160a01b0316630e20680a6040518163ffffffff1660e01b8152600401602060405180830381865afa158015611fc2573d6000803e3d6000fd5b505050506040513d601f19601f82011682018060405250810190611fe6919061480a565b606860009054906101000a90046001600160a01b03166001600160a01b03166355b0f76e6040518163ffffffff1660e01b8152600401602060405180830381865afa158015612039573d6000803e3d6000fd5b505050506040513d601f19601f8201168201806040525081019061205d919061480a565b8e901b16606860009054906101000a90046001600160a01b03166001600160a01b0316630b6febeb6040518163ffffffff1660e01b8152600401602060405180830381865afa1580156120b4573d6000803e3d6000fd5b505050506040513d601f19601f820116820180604052508101906120d8919061480a565b606860009054906101000a90046001600160a01b03166001600160a01b031663cb523d106040518163ffffffff1660e01b8152600401602060405180830381865afa15801561212b573d6000803e3d6000fd5b505050506040513d601f19601f8201168201806040525081019061214f919061480a565b8c8e1761ffff16901b16606860009054906101000a90046001600160a01b03166001600160a01b0316635b25084b6040518163ffffffff1660e01b8152600401602060405180830381865afa1580156121ac573d6000803e3d6000fd5b505050506040513d601f19601f820116820180604052508101906121d0919061480a565b606860009054906101000a90046001600160a01b03166001600160a01b031663385160ac6040518163ffffffff1660e01b8152600401602060405180830381865afa158015612223573d6000803e3d6000fd5b505050506040513d601f19601f82011682018060405250810190612247919061480a565b8f901b1660008d61ffff161161225e5760006122d5565b606860009054906101000a90046001600160a01b03166001600160a01b0316637736e2e96040518163ffffffff1660e01b8152600401602060405180830381865afa1580156122b1573d6000803e3d6000fd5b505050506040513d601f19601f820116820180604052508101906122d5919061480a565b60008f61ffff16116122e857600061235f565b606860009054906101000a90046001600160a01b03166001600160a01b0316636b379a036040518163ffffffff1660e01b8152600401602060405180830381865afa15801561233b573d6000803e3d6000fd5b505050506040513d601f19601f8201168201806040525081019061235f919061480a565b8b61236b5760006123e2565b606860009054906101000a90046001600160a01b03166001600160a01b031663b7e2ba206040518163ffffffff1660e01b8152600401602060405180830381865afa1580156123be573d6000803e3d6000fd5b505050506040513d601f19601f820116820180604052508101906123e2919061480a565b606860009054906101000a90046001600160a01b03166001600160a01b0316637789e6c76040518163ffffffff1660e01b8152600401602060405180830381865afa158015612435573d6000803e3d6000fd5b505050506040513d601f19601f82011682018060405250810190612459919061480a565b606860009054906101000a90046001600160a01b03166001600160a01b031663accf3c296040518163ffffffff1660e01b8152600401602060405180830381865afa1580156124ac573d6000803e3d6000fd5b505050506040513d601f19601f820116820180604052508101906124d0919061480a565b1717171717171789898080601f0160208091040260200160405190810160405280939291908181526020018383808284376000920191909152508a92508991506139729050565b505050505050505050505050565b60608060606000808611606860009054906101000a90046001600160a01b03166001600160a01b031663498ed7706040518163ffffffff1660e01b8152600401600060405180830381865afa158015612582573d6000803e3d6000fd5b505050506040513d6000823e601f3d908101601f191682016040526125aa9190810190614839565b906125c85760405162461bcd60e51b81526004016103e891906148e6565b506000868152606660205260408082205460685482516379de4af560e01b81529251606094859485948c10936001600160a01b0316926379de4af5926004808401939192918290030181865afa158015612626573d6000803e3d6000fd5b505050506040513d6000823e601f3d908101601f1916820160405261264e9190810190614839565b9061266c5760405162461bcd60e51b81526004016103e891906148e6565b5060008981526065602090815260408083208b845290915290206001018054612694906148f9565b80601f01602080910402602001604051908101604052809291908181526020018280546126c0906148f9565b801561270d5780601f106126e25761010080835404028352916020019161270d565b820191906000526020600020905b8154815290600101906020018083116126f057829003601f168201915b50505060008c81526065602090815260408083208e8452909152902060020180549395509261273e925090506148f9565b80601f016020809104026020016040519081016040528092919081815260200182805461276a906148f9565b80156127b75780601f1061278c576101008083540402835291602001916127b7565b820191906000526020600020905b81548152906001019060200180831161279a57829003601f168201915b50505060008c81526065602090815260408083208e845290915290208054939450926127e5925090506148f9565b80601f0160208091040260200160405190810160405280929190818152602001828054612811906148f9565b801561285e5780601f106128335761010080835404028352916020019161285e565b820191906000526020600020905b81548152906001019060200180831161284157829003601f168201915b50505060009b8c525050606560209081526040808c209a8c529990529790982060030154969890979695509350505050565b60675460405163042f332160e01b81523360048201526000916001600160a01b03169063042f332190602401602060405180830381865afa1580156128d9573d6000803e3d6000fd5b505050506040513d601f19601f820116820180604052508101906128fd919061480a565b6067546040516204cd7760e41b81523360048201529192506000916001600160a01b0390911690624cd77090602401602060405180830381865afa158015612949573d6000803e3d6000fd5b505050506040513d601f19601f8201168201806040525081019061296d919061480a565b905060008211606860009054906101000a90046001600160a01b03166001600160a01b0316632023c5196040518163ffffffff1660e01b8152600401600060405180830381865afa1580156129c6573d6000803e3d6000fd5b505050506040513d6000823e601f3d908101601f191682016040526129ee9190810190614839565b90612a0c5760405162461bcd60e51b81526004016103e891906148e6565b50606860009054906101000a90046001600160a01b03166001600160a01b0316637d3eb7f46040518163ffffffff1660e01b8152600401602060405180830381865afa158015612a60573d6000803e3d6000fd5b505050506040513d601f19601f82011682018060405250810190612a84919061480a565b606860009054906101000a90046001600160a01b03166001600160a01b0316637d3eb7f46040518163ffffffff1660e01b8152600401602060405180830381865afa158015612ad7573d6000803e3d6000fd5b505050506040513d601f19601f82011682018060405250810190612afb919061480a565b83161415612b4b5760405162461bcd60e51b815260206004820152601460248201527f4e6f6e70726f6669742070726f6869626974656400000000000000000000000060448201526064016103e8565b6000818152606660205260408082205460685482516379de4af560e01b81529251918910936001600160a01b03909116926379de4af592600480830193928290030181865afa158015612ba2573d6000803e3d6000fd5b505050506040513d6000823e601f3d908101601f19168201604052612bca9190810190614839565b90612be85760405162461bcd60e51b81526004016103e891906148e6565b5060008181526065602090815260408083208884529091529020600401548410612c545760405162461bcd60e51b815260206004820152601260248201527f4f66666572206f7574206f662072616e6765000000000000000000000000000060448201526064016103e8565b60008181526065602090815260408083208884528252808320878452600501909152902060010183905582612cac57600081815260656020908152604080832088845282528083208784526005019091528120600201555b600081815260656020908152604080832088845290915290206004015415801590612cfe57506000818152606560209081526040808320888452909152902060040154612cfb90600190614ac5565b84145b8015612d2f575060008181526065602090815260408083208884528252808320878452600501909152902060010154155b15610d2f5783612d3e81614adc565b60008381526065602090815260408083208a845290915281206004018054929750919250612d6b83614adc565b9190505550612cac565b6067546040516204cd7760e41b815233600482015260009182916001600160a01b0390911690624cd77090602401602060405180830381865afa158015612dc0573d6000803e3d6000fd5b505050506040513d601f19601f82011682018060405250810190612de4919061480a565b60008181526066602052604080822054606754915163042f332160e01b8152336004820152939450919283916001600160a01b03169063042f332190602401602060405180830381865afa158015612e40573d6000803e3d6000fd5b505050506040513d601f19601f82011682018060405250810190612e64919061480a565b11606860009054906101000a90046001600160a01b03166001600160a01b0316632023c5196040518163ffffffff1660e01b8152600401600060405180830381865afa158015612eb8573d6000803e3d6000fd5b505050506040513d6000823e601f3d908101601f19168201604052612ee09190810190614839565b90612efe5760405162461bcd60e51b81526004016103e891906148e6565b5089612f4c5760405162461bcd60e51b815260206004820152600c60248201527f6e616d6520696e76616c6964000000000000000000000000000000000000000060448201526064016103e8565b87612f995760405162461bcd60e51b815260206004820152600b60248201527f55524c20696e76616c696400000000000000000000000000000000000000000060448201526064016103e8565b600091505b6000838152606660205260409020548210156130b75760685460008481526065602090815260408083208684529091529081902090517f13d199500000000000000000000000000000000000000000000000000000000081526001600160a01b03909216916313d1995091613019918f908f906004016149ff565b602060405180830381865afa158015613036573d6000803e3d6000fd5b505050506040513d601f19601f8201168201806040525081019061305a9190614a2f565b156130a75760405162461bcd60e51b815260206004820152600b60248201527f6e616d652065786973747300000000000000000000000000000000000000000060448201526064016103e8565b6130b082614a62565b9150612f9e565b600083815260656020908152604080832084845290915290206130db908c8c614114565b5060008381526065602090815260408083208484529091529020613103906001018a8a614114565b506000838152606560209081526040808320848452909152902061312b906002018888614114565b50600083815260656020908152604080832084845282528083206003018890558583526066909152812080549161316183614a62565b91905055507f80268946da1a8eb4039afbc76b436142da7d9778ee9f9c776647a074649578a083838d8d8d8d8b6040516131a19796959493929190614a7d565b60405180910390a19a9950505050505050505050565b821561320d576000881161320d5760405162461bcd60e51b815260206004820152601a60248201527f526573616c652072657175697265732065787069726174696f6e00000000000060448201526064016103e8565b61ffff8716156132695761ffff8616156132695760405162461bcd60e51b815260206004820152601460248201527f4e6f2042756c6b207768656e204c696d6974656400000000000000000000000060448201526064016103e8565b6125178c8c8c606860009054906101000a90046001600160a01b03166001600160a01b0316630e20680a6040518163ffffffff1660e01b8152600401602060405180830381865afa1580156132c2573d6000803e3d6000fd5b505050506040513d601f19601f820116820180604052508101906132e6919061480a565b606860009054906101000a90046001600160a01b03166001600160a01b03166355b0f76e6040518163ffffffff1660e01b8152600401602060405180830381865afa158015613339573d6000803e3d6000fd5b505050506040513d601f19601f8201168201806040525081019061335d919061480a565b8e901b16606860009054906101000a90046001600160a01b03166001600160a01b0316630b6febeb6040518163ffffffff1660e01b8152600401602060405180830381865afa1580156133b4573d6000803e3d6000fd5b505050506040513d601f19601f820116820180604052508101906133d8919061480a565b606860009054906101000a90046001600160a01b03166001600160a01b031663cb523d106040518163ffffffff1660e01b8152600401602060405180830381865afa15801561342b573d6000803e3d6000fd5b505050506040513d601f19601f8201168201806040525081019061344f919061480a565b8c8e1761ffff16901b16606860009054906101000a90046001600160a01b03166001600160a01b0316635b25084b6040518163ffffffff1660e01b8152600401602060405180830381865afa1580156134ac573d6000803e3d6000fd5b505050506040513d601f19601f820116820180604052508101906134d0919061480a565b606860009054906101000a90046001600160a01b03166001600160a01b031663385160ac6040518163ffffffff1660e01b8152600401602060405180830381865afa158015613523573d6000803e3d6000fd5b505050506040513d601f19601f82011682018060405250810190613547919061480a565b8f901b1660008d61ffff161161355e5760006135d5565b606860009054906101000a90046001600160a01b03166001600160a01b0316637736e2e96040518163ffffffff1660e01b8152600401602060405180830381865afa1580156135b1573d6000803e3d6000fd5b505050506040513d601f19601f820116820180604052508101906135d5919061480a565b60008f61ffff16116135e857600061365f565b606860009054906101000a90046001600160a01b03166001600160a01b0316636b379a036040518163ffffffff1660e01b8152600401602060405180830381865afa15801561363b573d6000803e3d6000fd5b505050506040513d601f19601f8201168201806040525081019061365f919061480a565b8b61366b5760006136e2565b606860009054906101000a90046001600160a01b03166001600160a01b031663b7e2ba206040518163ffffffff1660e01b8152600401602060405180830381865afa1580156136be573d6000803e3d6000fd5b505050506040513d601f19601f820116820180604052508101906136e2919061480a565b606860009054906101000a90046001600160a01b03166001600160a01b0316637789e6c76040518163ffffffff1660e01b8152600401602060405180830381865afa158015613735573d6000803e3d6000fd5b505050506040513d601f19601f82011682018060405250810190613759919061480a565b606860009054906101000a90046001600160a01b03166001600160a01b0316632a332bad6040518163ffffffff1660e01b8152600401602060405180830381865afa1580156124ac573d6000803e3d6000fd5b6033546001600160a01b031633146138065760405162461bcd60e51b815260206004820181905260248201527f4f776e61626c653a2063616c6c6572206973206e6f7420746865206f776e657260448201526064016103e8565b6001600160a01b0381166138825760405162461bcd60e51b815260206004820152602660248201527f4f776e61626c653a206e6577206f776e657220697320746865207a65726f206160448201527f646472657373000000000000000000000000000000000000000000000000000060648201526084016103e8565b61388b81613913565b50565b600054610100900460ff1661390b5760405162461bcd60e51b815260206004820152602b60248201527f496e697469616c697a61626c653a20636f6e7472616374206973206e6f74206960448201527f6e697469616c697a696e6700000000000000000000000000000000000000000060648201526084016103e8565b611eb561408e565b603380546001600160a01b0383811673ffffffffffffffffffffffffffffffffffffffff19831681179093556040519116919082907f8be0079c531659141344cd1fd0a4f28419497f9722a3daafe3b4186f6b6457e090600090a35050565b60675460405163042f332160e01b81523360048201526000916001600160a01b03169063042f332190602401602060405180830381865afa1580156139bb573d6000803e3d6000fd5b505050506040513d601f19601f820116820180604052508101906139df919061480a565b6067546040516204cd7760e41b81523360048201529192506000916001600160a01b0390911690624cd77090602401602060405180830381865afa158015613a2b573d6000803e3d6000fd5b505050506040513d601f19601f82011682018060405250810190613a4f919061480a565b90506000808311606860009054906101000a90046001600160a01b03166001600160a01b0316632023c5196040518163ffffffff1660e01b8152600401600060405180830381865afa158015613aa9573d6000803e3d6000fd5b505050506040513d6000823e601f3d908101601f19168201604052613ad19190810190614839565b90613aef5760405162461bcd60e51b81526004016103e891906148e6565b50606860009054906101000a90046001600160a01b03166001600160a01b0316637d3eb7f46040518163ffffffff1660e01b8152600401602060405180830381865afa158015613b43573d6000803e3d6000fd5b505050506040513d601f19601f82011682018060405250810190613b67919061480a565b606860009054906101000a90046001600160a01b03166001600160a01b0316637d3eb7f46040518163ffffffff1660e01b8152600401602060405180830381865afa158015613bba573d6000803e3d6000fd5b505050506040513d601f19601f82011682018060405250810190613bde919061480a565b84161415613c2e5760405162461bcd60e51b815260206004820152601460248201527f4e6f6e70726f6669742070726f6869626974656400000000000000000000000060448201526064016103e8565b6000828152606660205260408082205460685482516379de4af560e01b81529251918e10936001600160a01b03909116926379de4af592600480830193928290030181865afa158015613c85573d6000803e3d6000fd5b505050506040513d6000823e601f3d908101601f19168201604052613cad9190810190614839565b90613ccb5760405162461bcd60e51b81526004016103e891906148e6565b506001600160a01b03891615613ef657606860009054906101000a90046001600160a01b03166001600160a01b031663418cb0776040518163ffffffff1660e01b8152600401602060405180830381865afa158015613d2e573d6000803e3d6000fd5b505050506040513d601f19601f82011682018060405250810190613d52919061480a565b606860009054906101000a90046001600160a01b03166001600160a01b031663418cb0776040518163ffffffff1660e01b8152600401602060405180830381865afa158015613da5573d6000803e3d6000fd5b505050506040513d601f19601f82011682018060405250810190613dc9919061480a565b841614613e3e5760405162461bcd60e51b815260206004820152602360248201527f546f6b656e206f6666657273207265717569726520637573746f6d207374617460448201527f75732e000000000000000000000000000000000000000000000000000000000060648201526084016103e8565b60008990506000816001600160a01b03166318160ddd6040518163ffffffff1660e01b8152600401602060405180830381865afa158015613e83573d6000803e3d6000fd5b505050506040513d601f19601f82011682018060405250810190613ea7919061480a565b11613ef45760405162461bcd60e51b815260206004820152601c60248201527f4e6f7420455243323020746f6b656e206f72206e6f20737570706c790000000060448201526064016103e8565b505b60008281526065602090815260408083208d8452909152902060040154811015613f5b5760008281526065602090815260408083208d84528252808320848452600501909152902060010154613f4b57613f5b565b613f5481614a62565b9050613ef6565b60008281526065602090815260408083208d845282528083208484526005018252909120805473ffffffffffffffffffffffffffffffffffffffff19166001600160a01b038c16178155600181018a9055600281018990558751613fc792600390920191890190614198565b5060008281526065602090815260408083208d84528083528184208585526005808201855292852060048082018c90559301899055938e90529091520154811061403a5760008281526065602090815260408083208d8452909152812060040180549161403383614a62565b9190505590505b60008281526065602090815260408083208d84529091529081902090517f28d9aa2c1ef259b696759f19113347b09100e89c5b494efa7f05afe47e04e54f916106e29185918e918e908e908e908e90614b09565b600054610100900460ff1661410b5760405162461bcd60e51b815260206004820152602b60248201527f496e697469616c697a61626c653a20636f6e7472616374206973206e6f74206960448201527f6e697469616c697a696e6700000000000000000000000000000000000000000060648201526084016103e8565b611eb533613913565b828054614120906148f9565b90600052602060002090601f0160209004810192826141425760008555614188565b82601f1061415b5782800160ff19823516178555614188565b82800160010185558215614188579182015b8281111561418857823582559160200191906001019061416d565b5061419492915061420c565b5090565b8280546141a4906148f9565b90600052602060002090601f0160209004810192826141c65760008555614188565b82601f106141df57805160ff1916838001178555614188565b82800160010185558215614188579182015b828111156141885782518255916020019190600101906141f1565b5b80821115614194576000815560010161420d565b60008083601f84011261423357600080fd5b50813567ffffffffffffffff81111561424b57600080fd5b60208301915083602082850101111561426357600080fd5b9250929050565b60008060008060008060008060a0898b03121561428657600080fd5b88359750602089013567ffffffffffffffff808211156142a557600080fd5b6142b18c838d01614221565b909950975060408b01359150808211156142ca57600080fd5b6142d68c838d01614221565b909750955060608b01359150808211156142ef57600080fd5b506142fc8b828c01614221565b999c989b50969995989497949560800135949350505050565b60008060006060848603121561432a57600080fd5b505081359360208301359350604090920135919050565b60006020828403121561435357600080fd5b5035919050565b60005b8381101561437557818101518382015260200161435d565b83811115614384576000848401525b50505050565b600081518084526143a281602086016020860161435a565b601f01601f19169290920160200192915050565b6000815180845260208085019450848260051b860182860160005b858110156143fb5783830389526143e983835161438a565b988501989250908401906001016143d1565b5090979650505050505050565b600081518084526020808501945080840160005b838110156144385781518752958201959082019060010161441c565b509495945050505050565b60a08152600061445660a08301886143b6565b828103602084015261446881886143b6565b9050828103604084015261447c81876143b6565b905082810360608401526144908186614408565b905082810360808401526144a48185614408565b98975050505050505050565b80356001600160a01b0381168114611e4c57600080fd5b600080604083850312156144da57600080fd5b6144e3836144b0565b91506144f1602084016144b0565b90509250929050565b6000806040838503121561450d57600080fd5b50508035926020909101359150565b60c0808252875190820181905260009060209060e0840190828b01845b8281101561455e5781516001600160a01b031684529284019290840190600101614539565b50505083810382850152614572818a614408565b91505082810360408401526145878188614408565b9050828103606084015261459b81876143b6565b905082810360808401526145af8186614408565b905082810360a08401526145c38185614408565b9998505050505050505050565b6001600160a01b038716815285602082015284604082015260c0606082015260006145fe60c083018661438a565b60808301949094525060a00152949350505050565b803561ffff81168114611e4c57600080fd5b801515811461388b57600080fd5b6000806000806000806000806000806000806101608d8f03121561465657600080fd5b8c359b5061466660208e016144b0565b9a5060408d0135995060608d0135985060808d0135975061468960a08e01614613565b965061469760c08e01614613565b955067ffffffffffffffff60e08e013511156146b257600080fd5b6146c28e60e08f01358f01614221565b90955093506101008d01356146d681614625565b809350506101208d013591506101408d013590509295989b509295989b509295989b565b60808152600061470d608083018761438a565b828103602084015261471f818761438a565b90508281036040840152614733818661438a565b91505082606083015295945050505050565b60008060008060008060006080888a03121561476057600080fd5b873567ffffffffffffffff8082111561477857600080fd5b6147848b838c01614221565b909950975060208a013591508082111561479d57600080fd5b6147a98b838c01614221565b909750955060408a01359150808211156147c257600080fd5b506147cf8a828b01614221565b989b979a50959894979596606090950135949350505050565b6000602082840312156147fa57600080fd5b614803826144b0565b9392505050565b60006020828403121561481c57600080fd5b5051919050565b634e487b7160e01b600052604160045260246000fd5b60006020828403121561484b57600080fd5b815167ffffffffffffffff8082111561486357600080fd5b818401915084601f83011261487757600080fd5b81518181111561488957614889614823565b604051601f8201601f19908116603f011681019083821181831017156148b1576148b1614823565b816040528281528760208487010111156148ca57600080fd5b6148db83602083016020880161435a565b979650505050505050565b602081526000614803602083018461438a565b600181811c9082168061490d57607f821691505b6020821081141561492e57634e487b7160e01b600052602260045260246000fd5b50919050565b8054600090600181811c908083168061494e57607f831692505b602080841082141561497057634e487b7160e01b600052602260045260246000fd5b8388526020880182801561498b576001811461499c576149c7565b60ff198716825282820197506149c7565b60008981526020902060005b878110156149c1578154848201529086019084016149a8565b83019850505b5050505050505092915050565b818352818160208501375060006020828401015260006020601f19601f840116840101905092915050565b604081526000614a126040830186614934565b8281036020840152614a258185876149d4565b9695505050505050565b600060208284031215614a4157600080fd5b815161480381614625565b634e487b7160e01b600052601160045260246000fd5b6000600019821415614a7657614a76614a4c565b5060010190565b87815286602082015260a060408201526000614a9d60a0830187896149d4565b8281036060840152614ab08186886149d4565b91505082608083015298975050505050505050565b600082821015614ad757614ad7614a4c565b500390565b600081614aeb57614aeb614a4c565b506000190190565b634e487b7160e01b600052603260045260246000fd5b87815286602082015260e060408201526000614b2860e0830188614934565b6001600160a01b03871660608401528560808401528460a084015282810360c0840152614b55818561438a565b9a995050505050505050505056fea2646970667358221220e4664ca8ef1c68ab26772c3a615b1e0b64677bcfa10a1873d5af3edbcc94274b64736f6c634300080b0033",
  "immutableReferences": {},
  "source": "pragma solidity >=0.7.6;\npragma abicoder v2;\n\n// SPDX-License-Identifier: GPL-3.0-or-later\n\nimport \"./StringCommon.sol\";\nimport \"./ImmutableEntity.sol\";\n\n// OpenZepellin upgradable contracts\nimport \"@openzeppelin/contracts-upgradeable/proxy/utils/Initializable.sol\";\nimport \"@openzeppelin/contracts-upgradeable/access/OwnableUpgradeable.sol\";\nimport \"@openzeppelin/contracts-upgradeable/token/ERC20/IERC20Upgradeable.sol\";\n\n/*\n// OpenZepellin standard contracts\nimport \"@openzeppelin/contracts/token/ERC20/IERC20.sol\";\nimport \"@openzeppelin/contracts/access/Ownable.sol\";\n*/\n\n/// @title Entity self-managed product interface\n/// @author Sean Lawless for ImmutableSoft Inc.\n/// @notice Entity requires registration and approval\ncontract ImmutableProduct is Initializable, OwnableUpgradeable\n{\n  // Product activation offer\n  struct Offer\n  {\n    address tokenAddr; // ERC20 token address of offer. Zero (0) is ETH\n    uint256 price; // the offer price in tokens/ETH\n    uint256 value; // duration, flags/resellability and\n                   // product feature (languages, version, game item, etc.)\n    string  infoURL;// Offer information details\n    uint256 transferSurcharge; // transfer fee in ETH\n    uint256 ricardianParent; // required ricardian parent contract\n  }\n\n  // Product information\n  struct Product\n  {\n    string name;\n    string infoURL;\n    string logoURL;\n    uint256 details; // category, flags/restrictions, languages\n    uint256 numberOfOffers;\n    mapping(uint256 => Offer) offers;\n  }\n\n  // Mapping between external entity id and array of products\n  mapping (uint256 => mapping (uint256 => Product)) private Products;\n  mapping (uint256 => uint256) private NumberOfProducts;\n\n  // Product interface events\n  event productEvent(uint256 entityIndex, uint256 productIndex,\n                     string name, string infoUrl, uint256 details);\n\n  event productOfferEvent(uint256 entityIndex, uint256 productIndex,\n                          string productName, address erc20token,\n                          uint256 price, uint256 value, string infoUrl);\n\n  // External contract interfaces\n  ImmutableEntity private entityInterface;\n  StringCommon private commonInterface;\n\n  ///////////////////////////////////////////////////////////\n  /// PRODUCT RELEASE\n  ///////////////////////////////////////////////////////////\n\n  /// @notice Product contract initializer/constructor.\n  /// Executed on contract creation only.\n  /// @param entityAddr the address of the ImmutableEntity contract\n  /// @param commonAddr the address of the StringCommon contract\n  function initialize(address entityAddr,\n                      address commonAddr) public initializer\n  {\n    __Ownable_init();\n/*\n  constructor(address entityAddr, address commonAddr)\n  {\n*/\n    entityInterface = ImmutableEntity(entityAddr);\n    commonInterface = StringCommon(commonAddr);\n  }\n\n  /// @notice Create a new product for an entity.\n  /// Entity must exist and be validated by Immutable.\n  /// @param productName The name of the new product\n  /// @param productURL The primary URL of the product\n  /// @param logoURL The logo URL of the product\n  /// @param details the product category, languages, etc.\n  /// @return the new (unique per entity) product identifier (index)\n  function productCreate(string calldata productName,\n                         string calldata productURL,\n                         string calldata logoURL,\n                         uint256 details)\n    external returns (uint256)\n  {\n    uint256 entityIndex = entityInterface.entityAddressToIndex(msg.sender);\n    uint256 productID;\n    uint256 lastProduct = NumberOfProducts[entityIndex];\n\n    // Only a validated entity can create a product\n    require(entityInterface.entityAddressStatus(msg.sender) > 0,\n            commonInterface.EntityNotValidated());\n    require(bytes(productName).length != 0, \"name invalid\");\n    require(bytes(productURL).length != 0, \"URL invalid\");\n\n    // If product name exists exactly revert the transaction\n    for (productID = 0; productID < NumberOfProducts[entityIndex];\n         ++productID)\n    {\n      // Check if the product name matches\n      if (commonInterface.stringsEqual(Products[entityIndex][productID].name,\n                                       productName))\n        revert(\"name exists\");\n    }\n\n    // Populate information for new product and increment index\n    Products[entityIndex][lastProduct].name = productName;\n    Products[entityIndex][lastProduct].infoURL = productURL;\n    Products[entityIndex][lastProduct].logoURL = logoURL;\n    Products[entityIndex][lastProduct].details = details;\n    NumberOfProducts[entityIndex]++;\n\n    // Emit an new product event and return the product index\n    emit productEvent(entityIndex, productID, productName,\n                      productURL, details);\n    return lastProduct;\n  }\n\n  /// @notice Offer a software product license for sale.\n  /// mes.sender must have a valid entity and product.\n  /// @param productIndex The specific ID of the product\n  /// @param erc20token Address of ERC 20 token offer\n  /// @param price The token cost to purchase activation\n  /// @param feature The product feature value/item (128 LSB only)\n  ///              (128 MSB only) is duration, flags/resallability\n  /// @param expiration activation expiration, (0) forever/unexpiring\n  /// @param limited number of offers, (0) unlimited, 65535 max\n  /// @param bulk number of activions per offer, > 0 to 65535 max\n  /// @param infoUrl The official URL for more information about offer\n  /// @param noResale Flag to disable resale capabilities for purchaser\n  /// @param transferSurcharge Surcharged levied upon resale of purchase\n  /// @param requireRicardian parent of required Ricardian client contract\n  function productOfferFeature(uint256 productIndex, address erc20token,\n                               uint256 price, uint256 feature,\n                               uint256 expiration, uint16 limited,\n                               uint16 bulk, string calldata infoUrl,\n                               bool noResale,\n                               uint256 transferSurcharge,\n                               uint256 requireRicardian)\n    external\n  {\n    if (noResale)\n      require(expiration > 0, \"Resale requires expiration\");\n    if (limited > 0)\n      require(bulk == 0, \"No Bulk when Limited\");\n\n    return productOffer(productIndex, erc20token, price,\n                        (commonInterface.FeatureFlag() | commonInterface.ExpirationFlag() |\n                        (noResale ? commonInterface.NoResaleFlag() : 0) |\n                        ((limited > 0)? commonInterface.LimitedOffersFlag() : 0) |\n                        ((bulk > 0) ? commonInterface.BulkOffersFlag() : 0) |\n                         ((expiration << commonInterface.ExpirationOffset()) & commonInterface.ExpirationMask())  |\n                         (((uint256)(limited | bulk) << commonInterface.UniqueIdOffset()) & commonInterface.UniqueIdMask()) |\n                         ((feature << commonInterface.ValueOffset()) & commonInterface.ValueMask())),\n                         infoUrl, transferSurcharge, requireRicardian);\n  }\n\n  /// @notice Offer a software product license for sale.\n  /// mes.sender must have a valid entity and product.\n  /// @param productIndex The specific ID of the product\n  /// @param erc20token Address of ERC 20 token offer\n  /// @param price The token cost to purchase activation\n  /// @param limitation The version and language limitations\n  /// @param expiration activation expiration, (0) forever/unexpiring\n  /// @param limited number of offers, (0) unlimited, 65535 max\n  /// @param bulk number of activions per offer, > 0 to 65535 max\n  /// @param infoUrl The official URL for more information about offer\n  /// @param noResale Prevent the resale of any purchased activation\n  /// @param transferSurcharge Surcharged levied upon resale of purchase\n  /// @param requireRicardian parent of required Ricardian client contract\n  function productOfferLimitation(uint256 productIndex, address erc20token,\n                                  uint256 price, uint256 limitation,\n                                  uint256 expiration, uint16 limited,\n                                  uint16 bulk, string calldata infoUrl,\n                                  bool noResale,\n                                  uint256 transferSurcharge,\n                                  uint256 requireRicardian)\n    external\n  {\n    if (noResale)\n      require(expiration > 0, \"Resale requires expiration\");\n    if (limited > 0)\n      require(bulk == 0, \"No Bulk when Limited\");\n\n    return productOffer(productIndex, erc20token, price,\n                        (commonInterface.LimitationFlag() | commonInterface.ExpirationFlag() |\n                        (noResale ? commonInterface.NoResaleFlag() : 0) |\n                        ((limited > 0)? commonInterface.LimitedOffersFlag() : 0) |\n                        ((bulk > 0) ? commonInterface.BulkOffersFlag() : 0) |\n                         ((expiration << commonInterface.ExpirationOffset()) & commonInterface.ExpirationMask())  |\n                         (((uint256)(limited | bulk) << commonInterface.UniqueIdOffset()) & commonInterface.UniqueIdMask()) |\n                         ((limitation << commonInterface.ValueOffset()) & commonInterface.ValueMask())),\n                         infoUrl, transferSurcharge, requireRicardian);\n  }\n\n  /// @notice Offer a software product license for sale.\n  /// mes.sender must have a valid entity and product.\n  /// @param productIndex The specific ID of the product\n  /// @param erc20token Address of ERC 20 token offer\n  /// @param price The token cost to purchase activation\n  /// @param value The product activation value/item (128 LSB only)\n  ///              (128 MSB only) is duration, flags/resallability\n  ///              Zero (0) duration is forever/unexpiring\n  /// @param infoUrl The official URL for more information about offer\n  /// @param transferSurcharge ETH to creator for each transfer\n  /// @param requireRicardian Ricardian leaf required for purchase\n  function productOffer(uint256 productIndex, address erc20token,\n                        uint256 price, uint256 value,\n                       string memory infoUrl, uint256 transferSurcharge,\n                        uint256 requireRicardian)\n    private\n  {\n    uint256 entityStatus = entityInterface.entityAddressStatus(msg.sender);\n    uint256 entityIndex = entityInterface.entityAddressToIndex(msg.sender);\n    uint256 offerId = 0;\n\n    // Only a validated commercial entity can create an offer\n    require(entityStatus > 0, commonInterface.EntityNotValidated());\n    require((entityStatus & commonInterface.Nonprofit()) != commonInterface.Nonprofit(), \"Nonprofit prohibited\");\n\n    // Sanity check the input parameters\n    require(NumberOfProducts[entityIndex] > productIndex,\n            commonInterface.ProductNotFound());\n    require(price >= 0, \"Offer requires price\");\n\n    // If token configured specified, do a quick validity check\n    if (erc20token != address(0))\n    {\n      require((entityStatus & commonInterface.CustomToken()) == commonInterface.CustomToken(),\n              \"Token offers require custom status.\");\n      IERC20Upgradeable theToken = IERC20Upgradeable(erc20token);\n\n      require(theToken.totalSupply() > 0,\n              \"Not ERC20 token or no supply\");\n    }\n\n    // Check if any offer has been exhausted/revoked\n    for (;offerId < Products[entityIndex][productIndex].numberOfOffers; ++offerId)\n      if (Products[entityIndex][productIndex].offers[offerId].price == 0)\n        break;\n\n    // Assign new digital product offer\n    Products[entityIndex][productIndex].offers[offerId].tokenAddr = erc20token;\n    Products[entityIndex][productIndex].offers[offerId].price = price;\n    Products[entityIndex][productIndex].offers[offerId].value = value;\n    Products[entityIndex][productIndex].offers[offerId].infoURL = infoUrl;\n    Products[entityIndex][productIndex].offers[offerId].transferSurcharge = transferSurcharge;\n    Products[entityIndex][productIndex].offers[offerId].ricardianParent = requireRicardian;\n\n    // If creating a new offer update the offer count\n    if (offerId >= Products[entityIndex][productIndex].numberOfOffers)\n      offerId = Products[entityIndex][productIndex].numberOfOffers++;\n\n    emit productOfferEvent(entityIndex, productIndex,\n                           Products[entityIndex][productIndex].name,\n                           erc20token, price, value, infoUrl);\n  }\n\n  /// @notice Change a software product license offer price\n  /// mes.sender must have a valid entity and product\n  /// @param productIndex The specific ID of the product\n  /// @param offerIndex the index of the offer to change\n  /// @param price The token cost to purchase activation\n  function productOfferEditPrice(uint256 productIndex,\n                                 uint256 offerIndex, uint256 price)\n    public\n  {\n    uint256 entityStatus = entityInterface.entityAddressStatus(msg.sender);\n    uint256 entityIndex = entityInterface.entityAddressToIndex(msg.sender);\n\n    // Only a validated commercial entity can create an offer\n    require(entityStatus > 0, commonInterface.EntityNotValidated());\n    require((entityStatus & commonInterface.Nonprofit()) != commonInterface.Nonprofit(), \"Nonprofit prohibited\");\n    require(NumberOfProducts[entityIndex] > productIndex,\n            commonInterface.ProductNotFound());\n    require(Products[entityIndex][productIndex].numberOfOffers > offerIndex,\n            \"Offer out of range\");\n\n    // Update the offer price, zero revokes the offer\n    Products[entityIndex][productIndex].offers[offerIndex].price = price;\n    if (price == 0)\n      Products[entityIndex][productIndex].offers[offerIndex].value = 0;\n\n    // While the last offer and empty, remove index\n    while ((Products[entityIndex][productIndex].numberOfOffers > 0) &&\n           (offerIndex == Products[entityIndex][productIndex].numberOfOffers - 1) &&\n           (Products[entityIndex][productIndex].offers[offerIndex].price == 0))\n    {\n      offerIndex--;\n      Products[entityIndex][productIndex].numberOfOffers--;\n    }\n  }\n\n  /// @notice Count a purchase of a product activation license.\n  /// Entity, Product and Offer must exist.\n  /// @param entityIndex The index of the entity with offer\n  /// @param productIndex The product ID of the offer\n  /// @param offerIndex The per-product offer ID\n  function productOfferPurchased(uint256 entityIndex,\n                                 uint256 productIndex,\n                                 uint256 offerIndex)\n    public\n  {\n    require(entityIndex > 0, commonInterface.EntityIsZero());\n\n    require(NumberOfProducts[entityIndex] > productIndex,\n            commonInterface.ProductNotFound());\n\n    require(Products[entityIndex][productIndex].numberOfOffers > offerIndex,\n            commonInterface.OfferNotFound());\n\n    uint256 value =\n      Products[entityIndex][productIndex].offers[offerIndex].value;\n\n    uint256 count = (value & commonInterface.UniqueIdMask()) >> commonInterface.UniqueIdOffset();\n    require(count > 0, \"Count required\");\n\n    value = value & ~(commonInterface.UniqueIdMask());\n    value = value | (((count - 1) << commonInterface.UniqueIdOffset()) & commonInterface.UniqueIdMask());\n\n    // Update the offer value with the new lower count\n    Products[entityIndex][productIndex].offers[offerIndex].value = value;\n\n    // If no more offers available, remove this offer\n    if (count - 1 == 0)\n    {\n      Products[entityIndex][productIndex].offers[offerIndex].value = 0;\n      Products[entityIndex][productIndex].offers[offerIndex].price = 0;\n\n      // While the last offer and empty, remove index\n      while ((Products[entityIndex][productIndex].numberOfOffers > 0) &&\n             (offerIndex == Products[entityIndex][productIndex].numberOfOffers - 1) &&\n             (Products[entityIndex][productIndex].offers[offerIndex].price == 0))\n      {\n        offerIndex--;\n        Products[entityIndex][productIndex].numberOfOffers--;\n      }\n    }\n  }\n\n  /// @notice Edit an existing product of an entity.\n  /// Entity must exist and be validated by Immutable.\n  /// @param productName The name of the new product\n  /// @param productURL The primary URL of the product\n  /// @param logoURL The logo URL of the product\n  /// @param details the product category, languages, etc.\n  function productEdit(uint256 productIndex,\n                       string calldata productName,\n                       string calldata productURL,\n                       string calldata logoURL,\n                       uint256 details)\n    external\n  {\n    uint256 entityIndex = entityInterface.entityAddressToIndex(msg.sender);\n    uint256 productID;\n\n    // Only a validated entity can create a product\n    require(entityInterface.entityAddressStatus(msg.sender) > 0, commonInterface.EntityNotValidated());\n    require((bytes(productName).length == 0) || (bytes(productURL).length != 0), \"URL required\");\n    require(NumberOfProducts[entityIndex] > productIndex,\n            commonInterface.ProductNotFound());\n\n    // Check the product name for duplicates if present\n    if (bytes(productName).length > 0)\n    {\n      // If product exists with same name then fatal error so revert\n      for (productID = 0; productID < NumberOfProducts[entityIndex];\n           ++productID)\n      {\n        if (productIndex != productID)\n        {\n          // Check if the product name matches an existing product\n          if (commonInterface.stringsEqual(Products[entityIndex][productID].name, productName))\n          {\n            // Revert the transaction as product already exists\n            revert(\"name already exists\");\n          }\n        }\n      }\n    }\n\n    // Update the product information\n    Products[entityIndex][productIndex].name = productName;\n    Products[entityIndex][productIndex].infoURL = productURL;\n    Products[entityIndex][productIndex].logoURL = logoURL;\n    Products[entityIndex][productIndex].details = details;\n\n    // Emit new product event and return the product index\n    emit productEvent(entityIndex, productIndex, productName,\n                      productURL, details);\n    return;\n  }\n\n  /// @notice Return the number of products maintained by an entity.\n  /// Entity must exist.\n  /// @param entityIndex The index of the entity\n  /// @return the current number of products for the entity\n  function productNumberOf(uint256 entityIndex)\n    external view returns (uint256)\n  {\n    require(entityIndex > 0, commonInterface.EntityIsZero());\n\n    // Return the number of products for this entity\n    if (NumberOfProducts[entityIndex] > 0)\n      return NumberOfProducts[entityIndex];\n    else\n      return 0;\n  }\n\n  /// @notice Retrieve existing product name, info and details.\n  /// Entity and product must exist.\n  /// @param entityIndex The index of the entity\n  /// @param productIndex The specific ID of the product\n  /// @return name , infoURL, logoURL and details are return values.\\\n  ///         **name** The name of the product\\\n  ///         **infoURL** The primary URL for information about the product\\\n  ///         **logoURL** The URL for the product logo\\\n  ///         **details** The detail flags (category, language) of product\n  function productDetails(uint256 entityIndex, uint256 productIndex)\n    external view returns (string memory name, string memory infoURL,\n                           string memory logoURL, uint256 details)\n  {\n    require(entityIndex > 0, commonInterface.EntityIsZero());\n    string memory resultName;\n    string memory resultInfoURL;\n    string memory resultLogoURL;\n\n    require(NumberOfProducts[entityIndex] > productIndex,\n            commonInterface.ProductNotFound());\n\n    // Return the hash for this organizations product and version\n    resultInfoURL = Products[entityIndex][productIndex].infoURL;\n    resultLogoURL = Products[entityIndex][productIndex].logoURL;\n    resultName = Products[entityIndex][productIndex].name;\n    return (resultName, resultInfoURL, resultLogoURL,\n            Products[entityIndex][productIndex].details);\n  }\n\n  /// @notice Retrieve details for all products of an entity.\n  /// Empty arrays if no products are found.\n  /// @return names , infoURLs, logoURLs, details and offers are returned as arrays.\\\n  ///         **names** Array of names of the product\\\n  ///         **infoURLs** Array of primary URL about the product\\\n  ///         **logoURLs** Array of URL for the product logos\\\n  ///         **details** Array of detail flags (category, etc.)\\\n  ///         **offers** Array of number of Activation offers\n  function productAllDetails(uint256 entityIndex)\n    external view returns (string[] memory names, string[] memory infoURLs,\n                           string[] memory logoURLs, uint256[] memory details,\n                           uint256[] memory offers)\n  {\n    require(entityIndex > 0, commonInterface.EntityIsZero());\n\n    string[] memory resultName = new string[](NumberOfProducts[entityIndex]);\n    string[] memory resultInfoURL = new string[](NumberOfProducts[entityIndex]);\n    string[] memory resultLogoURL = new string[](NumberOfProducts[entityIndex]);\n    uint256[] memory resultDetails = new uint256[](NumberOfProducts[entityIndex]);\n    uint256[] memory resultNumOffers = new uint256[](NumberOfProducts[entityIndex]);\n\n    // Build result arrays for all product information of an Entity\n    for (uint i = 0; i < NumberOfProducts[entityIndex]; ++i)\n    {\n      resultName[i] = Products[entityIndex][i].name;\n      resultInfoURL[i] = Products[entityIndex][i].infoURL;\n      resultLogoURL[i] = Products[entityIndex][i].logoURL;\n      resultDetails[i] = Products[entityIndex][i].details;\n      resultNumOffers[i] = Products[entityIndex][i].numberOfOffers;\n    }\n\n    return (resultName, resultInfoURL, resultLogoURL, resultDetails,\n            resultNumOffers);\n  }\n\n  /// @notice Return the offer price of a product activation license.\n  /// Entity, Product and Offer must exist.\n  /// @param entityIndex The index of the entity with offer\n  /// @param productIndex The product ID of the offer\n  /// @param offerIndex The per-product offer ID\n  /// @return erc20Token , price, value, offerURL, surcharge and parent are return values.\\\n  ///         **erc20Token** The address of ERC20 token offer (zero is ETH)\\\n  ///         **price** The price (ETH or ERC20) for the activation license\\\n  ///         **value** The duration, flags and value of activation\\\n  ///         **offerURL** The URL to more information about the offer\\\n  ///         **surcharge** The transfer surcharge of offer\\\n  ///         **parent** The required ricardian contract parent (if any)\n  function productOfferDetails(uint256 entityIndex,\n                               uint256 productIndex,\n                               uint256 offerIndex)\n    public view returns (address erc20Token, uint256 price, uint256 value,\n                         string memory offerURL, uint256 surcharge,\n                         uint256 parent)\n  {\n    require(entityIndex > 0, commonInterface.EntityIsZero());\n    require(NumberOfProducts[entityIndex] > productIndex,\n            commonInterface.ProductNotFound());\n\n    require(Products[entityIndex][productIndex].numberOfOffers > offerIndex,\n            commonInterface.OfferNotFound());\n\n    // Return price, value/duration/flags and ERC token of offer\n    return (Products[entityIndex][productIndex].offers[offerIndex].tokenAddr,\n            Products[entityIndex][productIndex].offers[offerIndex].price,\n            Products[entityIndex][productIndex].offers[offerIndex].value,\n            Products[entityIndex][productIndex].offers[offerIndex].infoURL,\n            Products[entityIndex][productIndex].offers[offerIndex].transferSurcharge,\n            Products[entityIndex][productIndex].offers[offerIndex].ricardianParent);\n  }\n\n  struct OfferResult\n  {\n      address[] resultAddr;\n      uint256[] resultPrice;\n      uint256[] resultValue;\n      string[] resultInfoUrl;\n      uint256[] resultSurcharge;\n      uint256[] resultParent;\n  }\n\n  /// @notice Return all the product activation offers\n  /// Entity and Product must exist.\n  /// @param entityIndex The index of the entity with offer\n  /// @param productIndex The product ID of the offer\n  /// @return erc20Tokens , prices, values, offerURLs, surcharges and parents are array return values.\\\n  ///         **erc20Tokens** Array of addresses of ERC20 token offer (zero is ETH)\\\n  ///         **prices** Array of prices for the activation license\\\n  ///         **values** Array of duration, flags, and value of activation\\\n  ///         **offerURLs** Array of URLs to more information on the offers\\\n  ///         **surcharges** Array of transfer surcharge of offers\\\n  ///         **parents** Array of ricardian contract parent (if any)\n  function productAllOfferDetails(uint256 entityIndex,\n                                  uint256 productIndex)\n    public view returns (address[] memory erc20Tokens, uint256[] memory prices,\n                    uint256[] memory values, string[] memory offerURLs,\n                    uint256[] memory surcharges, uint256[] memory parents)\n  {\n    require(entityIndex > 0, commonInterface.EntityIsZero());\n\n    require(NumberOfProducts[entityIndex] > productIndex,\n            commonInterface.ProductNotFound());\n    OfferResult memory theResult;\n\n    {\n      theResult.resultAddr = new address[](Products[entityIndex][productIndex].numberOfOffers);\n      theResult.resultPrice = new uint256[](Products[entityIndex][productIndex].numberOfOffers);\n      theResult.resultValue = new uint256[](Products[entityIndex][productIndex].numberOfOffers);\n      theResult.resultInfoUrl = new string[](Products[entityIndex][productIndex].numberOfOffers);\n      theResult.resultSurcharge = new uint256[](Products[entityIndex][productIndex].numberOfOffers);\n      theResult.resultParent = new uint256[](Products[entityIndex][productIndex].numberOfOffers);\n    }\n\n    // Build result arrays for all offer information of a product\n    for (uint i = 0; i < Products[entityIndex][productIndex].numberOfOffers; ++i)\n    {\n      theResult.resultAddr[i] = Products[entityIndex][productIndex].offers[i].tokenAddr;\n      theResult.resultPrice[i] = Products[entityIndex][productIndex].offers[i].price;\n      theResult.resultValue[i] = Products[entityIndex][productIndex].offers[i].value;\n      theResult.resultInfoUrl[i] = Products[entityIndex][productIndex].offers[i].infoURL;\n      theResult.resultSurcharge[i] = Products[entityIndex][productIndex].offers[i].transferSurcharge;\n      theResult.resultParent[i] = Products[entityIndex][productIndex].offers[i].ricardianParent;\n    }\n\n    // Return array of ERC20 token address, price, value/duration/flags and URL\n    return (theResult.resultAddr, theResult.resultPrice, theResult.resultValue,\n            theResult.resultInfoUrl, theResult.resultSurcharge, theResult.resultParent);\n  }\n}\n",
  "sourcePath": "/home/pi/Source/github/ImmutableEcosystem/contracts/ImmutableProduct.sol",
  "compiler": {
    "name": "solc",
    "version": "0.8.11+commit.d7f03943.Emscripten.clang"
  },
  "schemaVersion": "3.4.4",
  "updatedAt": "2022-03-31T21:20:06.887Z",
  "devdoc": {
    "author": "Sean Lawless for ImmutableSoft Inc.",
    "kind": "dev",
    "methods": {
      "initialize(address,address)": {
        "params": {
          "commonAddr": "the address of the StringCommon contract",
          "entityAddr": "the address of the ImmutableEntity contract"
        }
      },
      "owner()": {
        "details": "Returns the address of the current owner."
      },
      "productAllDetails(uint256)": {
        "returns": {
          "names": ", infoURLs, logoURLs, details and offers are returned as arrays.\\         **names** Array of names of the product\\         **infoURLs** Array of primary URL about the product\\         **logoURLs** Array of URL for the product logos\\         **details** Array of detail flags (category, etc.)\\         **offers** Array of number of Activation offers"
        }
      },
      "productAllOfferDetails(uint256,uint256)": {
        "params": {
          "entityIndex": "The index of the entity with offer",
          "productIndex": "The product ID of the offer"
        },
        "returns": {
          "erc20Tokens": ", prices, values, offerURLs, surcharges and parents are array return values.\\         **erc20Tokens** Array of addresses of ERC20 token offer (zero is ETH)\\         **prices** Array of prices for the activation license\\         **values** Array of duration, flags, and value of activation\\         **offerURLs** Array of URLs to more information on the offers\\         **surcharges** Array of transfer surcharge of offers\\         **parents** Array of ricardian contract parent (if any)"
        }
      },
      "productCreate(string,string,string,uint256)": {
        "params": {
          "details": "the product category, languages, etc.",
          "logoURL": "The logo URL of the product",
          "productName": "The name of the new product",
          "productURL": "The primary URL of the product"
        },
        "returns": {
          "_0": "the new (unique per entity) product identifier (index)"
        }
      },
      "productDetails(uint256,uint256)": {
        "params": {
          "entityIndex": "The index of the entity",
          "productIndex": "The specific ID of the product"
        },
        "returns": {
          "name": ", infoURL, logoURL and details are return values.\\         **name** The name of the product\\         **infoURL** The primary URL for information about the product\\         **logoURL** The URL for the product logo\\         **details** The detail flags (category, language) of product"
        }
      },
      "productEdit(uint256,string,string,string,uint256)": {
        "params": {
          "details": "the product category, languages, etc.",
          "logoURL": "The logo URL of the product",
          "productName": "The name of the new product",
          "productURL": "The primary URL of the product"
        }
      },
      "productNumberOf(uint256)": {
        "params": {
          "entityIndex": "The index of the entity"
        },
        "returns": {
          "_0": "the current number of products for the entity"
        }
      },
      "productOfferDetails(uint256,uint256,uint256)": {
        "params": {
          "entityIndex": "The index of the entity with offer",
          "offerIndex": "The per-product offer ID",
          "productIndex": "The product ID of the offer"
        },
        "returns": {
          "erc20Token": ", price, value, offerURL, surcharge and parent are return values.\\         **erc20Token** The address of ERC20 token offer (zero is ETH)\\         **price** The price (ETH or ERC20) for the activation license\\         **value** The duration, flags and value of activation\\         **offerURL** The URL to more information about the offer\\         **surcharge** The transfer surcharge of offer\\         **parent** The required ricardian contract parent (if any)"
        }
      },
      "productOfferEditPrice(uint256,uint256,uint256)": {
        "params": {
          "offerIndex": "the index of the offer to change",
          "price": "The token cost to purchase activation",
          "productIndex": "The specific ID of the product"
        }
      },
      "productOfferFeature(uint256,address,uint256,uint256,uint256,uint16,uint16,string,bool,uint256,uint256)": {
        "params": {
          "bulk": "number of activions per offer, > 0 to 65535 max",
          "erc20token": "Address of ERC 20 token offer",
          "expiration": "activation expiration, (0) forever/unexpiring",
          "feature": "The product feature value/item (128 LSB only)              (128 MSB only) is duration, flags/resallability",
          "infoUrl": "The official URL for more information about offer",
          "limited": "number of offers, (0) unlimited, 65535 max",
          "noResale": "Flag to disable resale capabilities for purchaser",
          "price": "The token cost to purchase activation",
          "productIndex": "The specific ID of the product",
          "requireRicardian": "parent of required Ricardian client contract",
          "transferSurcharge": "Surcharged levied upon resale of purchase"
        }
      },
      "productOfferLimitation(uint256,address,uint256,uint256,uint256,uint16,uint16,string,bool,uint256,uint256)": {
        "params": {
          "bulk": "number of activions per offer, > 0 to 65535 max",
          "erc20token": "Address of ERC 20 token offer",
          "expiration": "activation expiration, (0) forever/unexpiring",
          "infoUrl": "The official URL for more information about offer",
          "limitation": "The version and language limitations",
          "limited": "number of offers, (0) unlimited, 65535 max",
          "noResale": "Prevent the resale of any purchased activation",
          "price": "The token cost to purchase activation",
          "productIndex": "The specific ID of the product",
          "requireRicardian": "parent of required Ricardian client contract",
          "transferSurcharge": "Surcharged levied upon resale of purchase"
        }
      },
      "productOfferPurchased(uint256,uint256,uint256)": {
        "params": {
          "entityIndex": "The index of the entity with offer",
          "offerIndex": "The per-product offer ID",
          "productIndex": "The product ID of the offer"
        }
      },
      "renounceOwnership()": {
        "details": "Leaves the contract without owner. It will not be possible to call `onlyOwner` functions anymore. Can only be called by the current owner. NOTE: Renouncing ownership will leave the contract without an owner, thereby removing any functionality that is only available to the owner."
      },
      "transferOwnership(address)": {
        "details": "Transfers ownership of the contract to a new account (`newOwner`). Can only be called by the current owner."
      }
    },
    "title": "Entity self-managed product interface",
    "version": 1
  },
  "userdoc": {
    "kind": "user",
    "methods": {
      "initialize(address,address)": {
        "notice": "Product contract initializer/constructor. Executed on contract creation only."
      },
      "productAllDetails(uint256)": {
        "notice": "Retrieve details for all products of an entity. Empty arrays if no products are found."
      },
      "productAllOfferDetails(uint256,uint256)": {
        "notice": "Return all the product activation offers Entity and Product must exist."
      },
      "productCreate(string,string,string,uint256)": {
        "notice": "Create a new product for an entity. Entity must exist and be validated by Immutable."
      },
      "productDetails(uint256,uint256)": {
        "notice": "Retrieve existing product name, info and details. Entity and product must exist."
      },
      "productEdit(uint256,string,string,string,uint256)": {
        "notice": "Edit an existing product of an entity. Entity must exist and be validated by Immutable."
      },
      "productNumberOf(uint256)": {
        "notice": "Return the number of products maintained by an entity. Entity must exist."
      },
      "productOfferDetails(uint256,uint256,uint256)": {
        "notice": "Return the offer price of a product activation license. Entity, Product and Offer must exist."
      },
      "productOfferEditPrice(uint256,uint256,uint256)": {
        "notice": "Change a software product license offer price mes.sender must have a valid entity and product"
      },
      "productOfferFeature(uint256,address,uint256,uint256,uint256,uint16,uint16,string,bool,uint256,uint256)": {
        "notice": "Offer a software product license for sale. mes.sender must have a valid entity and product."
      },
      "productOfferLimitation(uint256,address,uint256,uint256,uint256,uint16,uint16,string,bool,uint256,uint256)": {
        "notice": "Offer a software product license for sale. mes.sender must have a valid entity and product."
      },
      "productOfferPurchased(uint256,uint256,uint256)": {
        "notice": "Count a purchase of a product activation license. Entity, Product and Offer must exist."
      }
    },
    "notice": "Entity requires registration and approval",
    "version": 1
  }
}