{
  "contractName": "ImmutableEntity",
  "abi": [
    {
      "anonymous": false,
      "inputs": [
        {
          "indexed": true,
          "internalType": "address",
          "name": "previousOwner",
          "type": "address"
        },
        {
          "indexed": true,
          "internalType": "address",
          "name": "newOwner",
          "type": "address"
        }
      ],
      "name": "OwnershipTransferred",
      "type": "event"
    },
    {
      "anonymous": false,
      "inputs": [
        {
          "indexed": false,
          "internalType": "uint256",
          "name": "entityIndex",
          "type": "uint256"
        },
        {
          "indexed": false,
          "internalType": "string",
          "name": "name",
          "type": "string"
        },
        {
          "indexed": false,
          "internalType": "string",
          "name": "url",
          "type": "string"
        }
      ],
      "name": "entityEvent",
      "type": "event"
    },
    {
      "inputs": [],
      "name": "owner",
      "outputs": [
        {
          "internalType": "address",
          "name": "",
          "type": "address"
        }
      ],
      "stateMutability": "view",
      "type": "function"
    },
    {
      "inputs": [],
      "name": "renounceOwnership",
      "outputs": [],
      "stateMutability": "nonpayable",
      "type": "function"
    },
    {
      "inputs": [
        {
          "internalType": "address",
          "name": "newOwner",
          "type": "address"
        }
      ],
      "name": "transferOwnership",
      "outputs": [],
      "stateMutability": "nonpayable",
      "type": "function"
    },
    {
      "inputs": [
        {
          "internalType": "address",
          "name": "commonAddr",
          "type": "address"
        }
      ],
      "name": "initialize",
      "outputs": [],
      "stateMutability": "nonpayable",
      "type": "function"
    },
    {
      "inputs": [
        {
          "internalType": "address payable",
          "name": "newBank",
          "type": "address"
        }
      ],
      "name": "entityOwnerBank",
      "outputs": [],
      "stateMutability": "nonpayable",
      "type": "function"
    },
    {
      "inputs": [
        {
          "internalType": "uint256",
          "name": "newFee",
          "type": "uint256"
        }
      ],
      "name": "entityOwnerUpgradeFee",
      "outputs": [],
      "stateMutability": "nonpayable",
      "type": "function"
    },
    {
      "inputs": [
        {
          "internalType": "uint256",
          "name": "entityIndex",
          "type": "uint256"
        },
        {
          "internalType": "uint256",
          "name": "status",
          "type": "uint256"
        }
      ],
      "name": "entityStatusUpdate",
      "outputs": [],
      "stateMutability": "nonpayable",
      "type": "function"
    },
    {
      "inputs": [
        {
          "internalType": "string",
          "name": "entityName",
          "type": "string"
        },
        {
          "internalType": "string",
          "name": "entityURL",
          "type": "string"
        }
      ],
      "name": "entityCreate",
      "outputs": [
        {
          "internalType": "uint256",
          "name": "",
          "type": "uint256"
        }
      ],
      "stateMutability": "nonpayable",
      "type": "function"
    },
    {
      "inputs": [
        {
          "internalType": "string",
          "name": "entityName",
          "type": "string"
        },
        {
          "internalType": "string",
          "name": "entityURL",
          "type": "string"
        }
      ],
      "name": "entityUpdate",
      "outputs": [],
      "stateMutability": "nonpayable",
      "type": "function"
    },
    {
      "inputs": [
        {
          "internalType": "address payable",
          "name": "newBank",
          "type": "address"
        }
      ],
      "name": "entityBankChange",
      "outputs": [],
      "stateMutability": "nonpayable",
      "type": "function"
    },
    {
      "inputs": [
        {
          "internalType": "address",
          "name": "nextAddress",
          "type": "address"
        }
      ],
      "name": "entityAddressNext",
      "outputs": [],
      "stateMutability": "nonpayable",
      "type": "function"
    },
    {
      "inputs": [
        {
          "internalType": "address",
          "name": "entityAddress",
          "type": "address"
        },
        {
          "internalType": "address",
          "name": "nextAddress",
          "type": "address"
        }
      ],
      "name": "entityAdminAddressNext",
      "outputs": [],
      "stateMutability": "nonpayable",
      "type": "function"
    },
    {
      "inputs": [
        {
          "internalType": "address",
          "name": "oldAddress",
          "type": "address"
        }
      ],
      "name": "entityAddressMove",
      "outputs": [],
      "stateMutability": "nonpayable",
      "type": "function"
    },
    {
      "inputs": [],
      "name": "entityUpgrade",
      "outputs": [],
      "stateMutability": "payable",
      "type": "function"
    },
    {
      "inputs": [
        {
          "internalType": "uint256",
          "name": "entityIndex",
          "type": "uint256"
        }
      ],
      "name": "entityPay",
      "outputs": [],
      "stateMutability": "payable",
      "type": "function"
    },
    {
      "inputs": [
        {
          "internalType": "uint256",
          "name": "entityIndex",
          "type": "uint256"
        }
      ],
      "name": "entityIndexStatus",
      "outputs": [
        {
          "internalType": "uint256",
          "name": "",
          "type": "uint256"
        }
      ],
      "stateMutability": "view",
      "type": "function"
    },
    {
      "inputs": [
        {
          "internalType": "address",
          "name": "entityAddress",
          "type": "address"
        }
      ],
      "name": "entityAddressStatus",
      "outputs": [
        {
          "internalType": "uint256",
          "name": "",
          "type": "uint256"
        }
      ],
      "stateMutability": "view",
      "type": "function"
    },
    {
      "inputs": [
        {
          "internalType": "address",
          "name": "entityAddress",
          "type": "address"
        }
      ],
      "name": "entityAddressToIndex",
      "outputs": [
        {
          "internalType": "uint256",
          "name": "",
          "type": "uint256"
        }
      ],
      "stateMutability": "view",
      "type": "function"
    },
    {
      "inputs": [
        {
          "internalType": "uint256",
          "name": "entityIndex",
          "type": "uint256"
        }
      ],
      "name": "entityIndexToAddress",
      "outputs": [
        {
          "internalType": "address",
          "name": "",
          "type": "address"
        }
      ],
      "stateMutability": "view",
      "type": "function"
    },
    {
      "inputs": [
        {
          "internalType": "uint256",
          "name": "entityIndex",
          "type": "uint256"
        }
      ],
      "name": "entityDetailsByIndex",
      "outputs": [
        {
          "internalType": "string",
          "name": "name",
          "type": "string"
        },
        {
          "internalType": "string",
          "name": "URL",
          "type": "string"
        }
      ],
      "stateMutability": "view",
      "type": "function"
    },
    {
      "inputs": [],
      "name": "entityNumberOf",
      "outputs": [
        {
          "internalType": "uint256",
          "name": "",
          "type": "uint256"
        }
      ],
      "stateMutability": "view",
      "type": "function"
    },
    {
      "inputs": [],
      "name": "entityUpgradeFee",
      "outputs": [
        {
          "internalType": "uint256",
          "name": "",
          "type": "uint256"
        }
      ],
      "stateMutability": "view",
      "type": "function"
    },
    {
      "inputs": [
        {
          "internalType": "uint256",
          "name": "entityIndex",
          "type": "uint256"
        }
      ],
      "name": "entityBank",
      "outputs": [
        {
          "internalType": "address",
          "name": "bank",
          "type": "address"
        }
      ],
      "stateMutability": "view",
      "type": "function"
    },
    {
      "inputs": [],
      "name": "entityAllDetails",
      "outputs": [
        {
          "internalType": "uint256[]",
          "name": "status",
          "type": "uint256[]"
        },
        {
          "internalType": "string[]",
          "name": "name",
          "type": "string[]"
        },
        {
          "internalType": "string[]",
          "name": "URL",
          "type": "string[]"
        }
      ],
      "stateMutability": "view",
      "type": "function"
    }
  ],
  "bytecode": "0x608060405234801561001057600080fd5b50613008806100206000396000f3fe60806040526004361061018a5760003560e01c806396904f34116100d6578063c4d66de81161007f578063d348a9f311610059578063d348a9f314610447578063ddae301f14610467578063f2fde38b1461047c57600080fd5b8063c4d66de8146103e7578063cc6f326914610407578063ccfe76831461042757600080fd5b8063bb5a4bdb116100b0578063bb5a4bdb14610379578063be2b2df814610399578063c400f35d146103b957600080fd5b806396904f34146103195780639e79c74914610339578063b47951631461035957600080fd5b80634e44cb5d11610138578063715018a611610112578063715018a6146102c657806382ce516b146102db5780638da5cb5b146102fb57600080fd5b80634e44cb5d1461026657806356839a4f1461027957806361f558901461028e57600080fd5b806311ebf0f71161016957806311ebf0f71461021c5780631f58f2e014610226578063203cf60c1461024657600080fd5b80624cd7701461018f578063042f3321146101d857806311b95c49146101f8575b600080fd5b34801561019b57600080fd5b506101c56101aa366004612926565b6001600160a01b031660009081526067602052604090205490565b6040519081526020015b60405180910390f35b3480156101e457600080fd5b506101c56101f3366004612926565b61049c565b34801561020457600080fd5b5061020d6104c5565b6040516101cf939291906129f3565b6102246107aa565b005b34801561023257600080fd5b50610224610241366004612a5f565b610f7c565b34801561025257600080fd5b50610224610261366004612926565b61107c565b610224610274366004612a81565b6112a6565b34801561028557600080fd5b50606b546101c5565b34801561029a57600080fd5b506102ae6102a9366004612a81565b611490565b6040516001600160a01b0390911681526020016101cf565b3480156102d257600080fd5b506102246114c9565b3480156102e757600080fd5b506101c56102f6366004612a81565b61152f565b34801561030757600080fd5b506033546001600160a01b03166102ae565b34801561032557600080fd5b50610224610334366004612a81565b611562565b34801561034557600080fd5b50610224610354366004612926565b6115c1565b34801561036557600080fd5b506101c5610374366004612b5f565b611693565b34801561038557600080fd5b50610224610394366004612926565b6119b4565b3480156103a557600080fd5b506102ae6103b4366004612a81565b611c44565b3480156103c557600080fd5b506103d96103d4366004612a81565b611c79565b6040516101cf929190612bc3565b3480156103f357600080fd5b50610224610402366004612926565b611dec565b34801561041357600080fd5b50610224610422366004612bf1565b611f2b565b34801561043357600080fd5b50610224610442366004612c73565b612173565b34801561045357600080fd5b50610224610462366004612926565b6123fd565b34801561047357600080fd5b506066546101c5565b34801561048857600080fd5b50610224610497366004612926565b6125ca565b6001600160a01b0381166000908152606760205260408120546104be8161152f565b9392505050565b60608060606000606b5467ffffffffffffffff8111156104e7576104e7612a9a565b604051908082528060200260200182016040528015610510578160200160208202803683370190505b5090506000606b5467ffffffffffffffff81111561053057610530612a9a565b60405190808252806020026020018201604052801561056357816020015b606081526020019060019003908161054e5790505b5090506000606b5467ffffffffffffffff81111561058357610583612a9a565b6040519080825280602002602001820160405280156105b657816020015b60608152602001906001900390816105a15790505b50905060015b606b54811161079d57600081815260686020526040902054846105e0600184612cf5565b815181106105f0576105f0612d0c565b602002602001018181525050606a6000828152602001908152602001600020600301805461061d90612d22565b80601f016020809104026020016040519081016040528092919081815260200182805461064990612d22565b80156106965780601f1061066b57610100808354040283529160200191610696565b820191906000526020600020905b81548152906001019060200180831161067957829003601f168201915b5050505050836001836106a99190612cf5565b815181106106b9576106b9612d0c565b6020026020010181905250606a600082815260200190815260200160002060040180546106e590612d22565b80601f016020809104026020016040519081016040528092919081815260200182805461071190612d22565b801561075e5780601f106107335761010080835404028352916020019161075e565b820191906000526020600020905b81548152906001019060200180831161074157829003601f168201915b5050505050826001836107719190612cf5565b8151811061078157610781612d0c565b60200260200101819052508061079690612d5d565b90506105bc565b5091959094509092509050565b3360009081526067602052604080822054606c548251630498ed7760e41b815292519193841515936001600160a01b039092169263498ed7709260048082019392918290030181865afa158015610805573d6000803e3d6000fd5b505050506040513d6000823e601f3d908101601f1916820160405261082d9190810190612d96565b906108545760405162461bcd60e51b815260040161084b9190612e04565b60405180910390fd5b506066543410156108a75760405162461bcd60e51b815260206004820152601060248201527f5061796d656e7420726571756972656400000000000000000000000000000000604482015260640161084b565b60008181526068602052604080822054606c5482517f2023c51900000000000000000000000000000000000000000000000000000000815292519193841515936001600160a01b0390921692632023c5199260048082019392918290030181865afa15801561091a573d6000803e3d6000fd5b505050506040513d6000823e601f3d908101601f191682016040526109429190810190612d96565b906109605760405162461bcd60e51b815260040161084b9190612e04565b50606c54604080517f385160ac00000000000000000000000000000000000000000000000000000000815290516000926001600160a01b03169163385160ac9160048083019260209291908290030181865afa1580156109c4573d6000803e3d6000fd5b505050506040513d601f19601f820116820180604052508101906109e89190612e17565b606c60009054906101000a90046001600160a01b03166001600160a01b0316635b25084b6040518163ffffffff1660e01b8152600401602060405180830381865afa158015610a3b573d6000803e3d6000fd5b505050506040513d601f19601f82011682018060405250810190610a5f9190612e17565b8316901c905042811115610c3557606c60009054906101000a90046001600160a01b03166001600160a01b031663418cb0776040518163ffffffff1660e01b8152600401602060405180830381865afa158015610ac0573d6000803e3d6000fd5b505050506040513d601f19601f82011682018060405250810190610ae49190612e17565b606c60009054906101000a90046001600160a01b03166001600160a01b031663eecaa1506040518163ffffffff1660e01b8152600401602060405180830381865afa158015610b37573d6000803e3d6000fd5b505050506040513d601f19601f82011682018060405250810190610b5b9190612e17565b178216610be257606c60009054906101000a90046001600160a01b03166001600160a01b031663eecaa1506040518163ffffffff1660e01b8152600401602060405180830381865afa158015610bb5573d6000803e3d6000fd5b505050506040513d601f19601f82011682018060405250810190610bd99190612e17565b82179150610da7565b606c60009054906101000a90046001600160a01b03166001600160a01b031663418cb0776040518163ffffffff1660e01b8152600401602060405180830381865afa158015610bb5573d6000803e3d6000fd5b606c60009054906101000a90046001600160a01b03166001600160a01b031663418cb0776040518163ffffffff1660e01b8152600401602060405180830381865afa158015610c88573d6000803e3d6000fd5b505050506040513d601f19601f82011682018060405250810190610cac9190612e17565b606c60009054906101000a90046001600160a01b03166001600160a01b031663eecaa1506040518163ffffffff1660e01b8152600401602060405180830381865afa158015610cff573d6000803e3d6000fd5b505050506040513d601f19601f82011682018060405250810190610d239190612e17565b171982169150606c60009054906101000a90046001600160a01b03166001600160a01b031663eecaa1506040518163ffffffff1660e01b8152600401602060405180830381865afa158015610d7c573d6000803e3d6000fd5b505050506040513d601f19601f82011682018060405250810190610da09190612e17565b9091179050425b606c60009054906101000a90046001600160a01b03166001600160a01b031663385160ac6040518163ffffffff1660e01b8152600401602060405180830381865afa158015610dfa573d6000803e3d6000fd5b505050506040513d601f19601f82011682018060405250810190610e1e9190612e17565b606c60009054906101000a90046001600160a01b03166001600160a01b0316635b25084b6040518163ffffffff1660e01b8152600401602060405180830381865afa158015610e71573d6000803e3d6000fd5b505050506040513d601f19601f82011682018060405250810190610e959190612e17565b901b1982169150606c60009054906101000a90046001600160a01b03166001600160a01b031663385160ac6040518163ffffffff1660e01b8152600401602060405180830381865afa158015610eef573d6000803e3d6000fd5b505050506040513d601f19601f82011682018060405250810190610f139190612e17565b610f21826301e13380612e30565b6000858152606860205260408082209290931b9490941790819055606554915190936001600160a01b03909216913480156108fc02929091818181858888f19350505050158015610f76573d6000803e3d6000fd5b50505050565b6033546001600160a01b03163314610fd65760405162461bcd60e51b815260206004820181905260248201527f4f776e61626c653a2063616c6c6572206973206e6f7420746865206f776e6572604482015260640161084b565b80801561106657606c60009054906101000a90046001600160a01b03166001600160a01b031663385160ac6040518163ffffffff1660e01b8152600401602060405180830381865afa158015611030573d6000803e3d6000fd5b505050506040513d601f19601f820116820180604052508101906110549190612e17565b611062426301e13380612e30565b901b175b6000928352606860205260409092209190915550565b6001600160a01b0380821660009081526067602052604080822054606c548251630498ed7760e41b8152925191948515159491169263498ed77092600480830193928290030181865afa1580156110d7573d6000803e3d6000fd5b505050506040513d6000823e601f3d908101601f191682016040526110ff9190810190612d96565b9061111d5760405162461bcd60e51b815260040161084b9190612e04565b506000818152606a6020526040902060028101546001600160a01b031633146111885760405162461bcd60e51b815260206004820152600f60248201527f4e657874206e6f742073656e6465720000000000000000000000000000000000604482015260640161084b565b60006111938461049c565b905060008111606c60009054906101000a90046001600160a01b03166001600160a01b0316632023c5196040518163ffffffff1660e01b8152600401600060405180830381865afa1580156111ec573d6000803e3d6000fd5b505050506040513d6000823e601f3d908101601f191682016040526112149190810190612d96565b906112325760405162461bcd60e51b815260040161084b9190612e04565b503360008181526067602090815260408083208790556001600160a01b038881168085528285208590558885526069909352922080546001600160a01b0319908116909417905560018501805490931681179092558354161415610f765781546001600160a01b0319163317825550505050565b60006112b18261152f565b90508115611451576000828152606a6020526040808220606c5482517f2023c51900000000000000000000000000000000000000000000000000000000815292519193851515936001600160a01b0390921692632023c5199260048082019392918290030181865afa15801561132b573d6000803e3d6000fd5b505050506040513d6000823e601f3d908101601f191682016040526113539190810190612d96565b906113715760405162461bcd60e51b815260040161084b9190612e04565b50600034116113c25760405162461bcd60e51b815260206004820152600c60248201527f4554482072657175697265640000000000000000000000000000000000000000604482015260640161084b565b80546001600160a01b03166114195760405162461bcd60e51b815260206004820152601360248201527f42616e6b206e6f7420636f6e6669677572656400000000000000000000000000604482015260640161084b565b80546040516001600160a01b03909116903480156108fc02916000818181858888f19350505050158015610f76573d6000803e3d6000fd5b6065546040516001600160a01b03909116903480156108fc02916000818181858888f1935050505015801561148a573d6000803e3d6000fd5b505b5050565b60008115806114a05750606b5482115b156114ad57506000919050565b506000908152606960205260409020546001600160a01b031690565b6033546001600160a01b031633146115235760405162461bcd60e51b815260206004820181905260248201527f4f776e61626c653a2063616c6c6572206973206e6f7420746865206f776e6572604482015260640161084b565b61152d60006126ac565b565b600080821180156115425750606b548211155b1561155a575060009081526068602052604090205490565b506000919050565b6033546001600160a01b031633146115bc5760405162461bcd60e51b815260206004820181905260248201527f4f776e61626c653a2063616c6c6572206973206e6f7420746865206f776e6572604482015260640161084b565b606655565b6033546001600160a01b0316331461161b5760405162461bcd60e51b815260206004820181905260248201527f4f776e61626c653a2063616c6c6572206973206e6f7420746865206f776e6572604482015260640161084b565b6001600160a01b0381166116715760405162461bcd60e51b815260206004820152600f60248201527f696e76616c696420616464726573730000000000000000000000000000000000604482015260640161084b565b606580546001600160a01b0319166001600160a01b0392909216919091179055565b60008251600014156116e75760405162461bcd60e51b815260206004820152600a60248201527f6e616d6520656d70747900000000000000000000000000000000000000000000604482015260640161084b565b81516117355760405162461bcd60e51b815260206004820152600960248201527f55524c20656d7074790000000000000000000000000000000000000000000000604482015260640161084b565b6000606b5460016117469190612e30565b33600090815260676020526040902054909150156117a65760405162461bcd60e51b815260206004820152600f60248201527f616c726561647920637265617465640000000000000000000000000000000000604482015260640161084b565b60015b606b546117b7906001612e30565b8110156118ba57606c546000828152606a60205260409081902090517f13d199500000000000000000000000000000000000000000000000000000000081526001600160a01b03909216916313d199509161181c916003909101908990600401612ee8565b602060405180830381865afa158015611839573d6000803e3d6000fd5b505050506040513d601f19601f8201168201806040525081019061185d9190612efb565b156118aa5760405162461bcd60e51b815260206004820152600b60248201527f6e616d6520657869737473000000000000000000000000000000000000000000604482015260640161084b565b6118b381612d5d565b90506117a9565b506000818152606a6020908152604090912080546001600160a01b0319163317815585516118f092600390920191870190612804565b506000818152606a60209081526040909120845161191692600490920191860190612804565b506000818152606a60209081526040808320426005909101556069825280832080546001600160a01b0319163390811790915560688352818420849055835260679091528120829055606b80549161196d83612d5d565b91905055507fcbd4160e40b3719bf3b277e996fd2076123e0cc2e491fd27afa3c8d441502a1b8185856040516119a593929190612f1d565b60405180910390a19392505050565b3360009081526067602052604080822054606c548251630498ed7760e41b815292519193841515936001600160a01b039092169263498ed7709260048082019392918290030181865afa158015611a0f573d6000803e3d6000fd5b505050506040513d6000823e601f3d908101601f19168201604052611a379190810190612d96565b90611a555760405162461bcd60e51b815260040161084b9190612e04565b506000818152606a60205260409020336001600160a01b0384161415611abd5760405162461bcd60e51b815260206004820152601260248201527f4e657874206e6f7420646966666572656e740000000000000000000000000000604482015260640161084b565b6001600160a01b038316611b135760405162461bcd60e51b815260206004820152600c60248201527f4e657874206973207a65726f0000000000000000000000000000000000000000604482015260640161084b565b6000611b1e3361049c565b11606c60009054906101000a90046001600160a01b03166001600160a01b0316632023c5196040518163ffffffff1660e01b8152600401600060405180830381865afa158015611b72573d6000803e3d6000fd5b505050506040513d6000823e601f3d908101601f19168201604052611b9a9190810190612d96565b90611bb85760405162461bcd60e51b815260040161084b9190612e04565b506001600160a01b03831660009081526067602052604090205415611c1f5760405162461bcd60e51b815260206004820152600b60248201527f4e65787420696e20757365000000000000000000000000000000000000000000604482015260640161084b565b60020180546001600160a01b0319166001600160a01b03939093169290921790915550565b60008115611c6857506000908152606a60205260409020546001600160a01b031690565b50506065546001600160a01b031690565b606080821580611c8a5750606b5483115b15611cb257505060408051602080820183526000808352835191820190935291825292909150565b6000838152606a6020526040902060038101805460048301908290611cd690612d22565b80601f0160208091040260200160405190810160405280929190818152602001828054611d0290612d22565b8015611d4f5780601f10611d2457610100808354040283529160200191611d4f565b820191906000526020600020905b815481529060010190602001808311611d3257829003601f168201915b50505050509150808054611d6290612d22565b80601f0160208091040260200160405190810160405280929190818152602001828054611d8e90612d22565b8015611ddb5780601f10611db057610100808354040283529160200191611ddb565b820191906000526020600020905b815481529060010190602001808311611dbe57829003601f168201915b505050505090509250925050915091565b600054610100900460ff16611e075760005460ff1615611e0b565b303b155b611e7d5760405162461bcd60e51b815260206004820152602e60248201527f496e697469616c697a61626c653a20636f6e747261637420697320616c72656160448201527f647920696e697469616c697a6564000000000000000000000000000000000000606482015260840161084b565b600054610100900460ff16158015611ebc57600080547fffffffffffffffffffffffffffffffffffffffffffffffffffffffffffff0000166101011790555b611ec46126fe565b606c80546001600160a01b0384166001600160a01b0319918216179091556065805490911633179055678ac7230489e80000606655801561148c57600080547fffffffffffffffffffffffffffffffffffffffffffffffffffffffffffff00ff1690555050565b6033546001600160a01b03163314611f855760405162461bcd60e51b815260206004820181905260248201527f4f776e61626c653a2063616c6c6572206973206e6f7420746865206f776e6572604482015260640161084b565b6001600160a01b0380831660009081526067602052604080822054606c548251630498ed7760e41b8152925191948515159491169263498ed77092600480830193928290030181865afa158015611fe0573d6000803e3d6000fd5b505050506040513d6000823e601f3d908101601f191682016040526120089190810190612d96565b906120265760405162461bcd60e51b815260040161084b9190612e04565b506000818152606a602052604090206001600160a01b0384811690841614156120915760405162461bcd60e51b815260206004820152601260248201527f4e657874206e6f7420646966666572656e740000000000000000000000000000604482015260640161084b565b6001600160a01b0383166120e75760405162461bcd60e51b815260206004820152600c60248201527f4e657874206973207a65726f0000000000000000000000000000000000000000604482015260640161084b565b6001600160a01b0383166000908152606760205260409020541561214d5760405162461bcd60e51b815260206004820152600b60248201527f4e65787420696e20757365000000000000000000000000000000000000000000604482015260640161084b565b60020180546001600160a01b0319166001600160a01b0393909316929092179091555050565b826121c05760405162461bcd60e51b815260206004820152600a60248201527f6e616d6520656d70747900000000000000000000000000000000000000000000604482015260640161084b565b8061220d5760405162461bcd60e51b815260206004820152600960248201527f55524c20656d7074790000000000000000000000000000000000000000000000604482015260640161084b565b336000908152606760205260409020548061226a5760405162461bcd60e51b815260206004820152600e60248201527f53656e64657220756e6b6e6f776e000000000000000000000000000000000000604482015260640161084b565b60005b606b5481101561237c5781811461236c57606c546000828152606a60205260409081902090517f13d199500000000000000000000000000000000000000000000000000000000081526001600160a01b03909216916313d19950916122de916003909101908a908a90600401612f73565b602060405180830381865afa1580156122fb573d6000803e3d6000fd5b505050506040513d601f19601f8201168201806040525081019061231f9190612efb565b1561236c5760405162461bcd60e51b815260206004820152600b60248201527f6e616d6520657869737473000000000000000000000000000000000000000000604482015260640161084b565b61237581612d5d565b905061226d565b506000818152606a60205260409020612399906003018686612888565b506000818152606a602052604090206123b6906004018484612888565b507fcbd4160e40b3719bf3b277e996fd2076123e0cc2e491fd27afa3c8d441502a1b81868686866040516123ee959493929190612f99565b60405180910390a15050505050565b3360009081526067602052604080822054606c548251630498ed7760e41b815292519193841515936001600160a01b039092169263498ed7709260048082019392918290030181865afa158015612458573d6000803e3d6000fd5b505050506040513d6000823e601f3d908101601f191682016040526124809190810190612d96565b9061249e5760405162461bcd60e51b815260040161084b9190612e04565b506000818152606a60205260408120906124b73361049c565b11606c60009054906101000a90046001600160a01b03166001600160a01b0316632023c5196040518163ffffffff1660e01b8152600401600060405180830381865afa15801561250b573d6000803e3d6000fd5b505050506040513d6000823e601f3d908101601f191682016040526125339190810190612d96565b906125515760405162461bcd60e51b815260040161084b9190612e04565b506001600160a01b0383166125a85760405162461bcd60e51b815260206004820152601360248201527f42616e6b2063616e6e6f74206265207a65726f00000000000000000000000000604482015260640161084b565b80546001600160a01b0319166001600160a01b03939093169290921790915550565b6033546001600160a01b031633146126245760405162461bcd60e51b815260206004820181905260248201527f4f776e61626c653a2063616c6c6572206973206e6f7420746865206f776e6572604482015260640161084b565b6001600160a01b0381166126a05760405162461bcd60e51b815260206004820152602660248201527f4f776e61626c653a206e6577206f776e657220697320746865207a65726f206160448201527f6464726573730000000000000000000000000000000000000000000000000000606482015260840161084b565b6126a9816126ac565b50565b603380546001600160a01b038381166001600160a01b0319831681179093556040519116919082907f8be0079c531659141344cd1fd0a4f28419497f9722a3daafe3b4186f6b6457e090600090a35050565b600054610100900460ff1661277b5760405162461bcd60e51b815260206004820152602b60248201527f496e697469616c697a61626c653a20636f6e7472616374206973206e6f74206960448201527f6e697469616c697a696e67000000000000000000000000000000000000000000606482015260840161084b565b61152d600054610100900460ff166127fb5760405162461bcd60e51b815260206004820152602b60248201527f496e697469616c697a61626c653a20636f6e7472616374206973206e6f74206960448201527f6e697469616c697a696e67000000000000000000000000000000000000000000606482015260840161084b565b61152d336126ac565b82805461281090612d22565b90600052602060002090601f0160209004810192826128325760008555612878565b82601f1061284b57805160ff1916838001178555612878565b82800160010185558215612878579182015b8281111561287857825182559160200191906001019061285d565b506128849291506128fc565b5090565b82805461289490612d22565b90600052602060002090601f0160209004810192826128b65760008555612878565b82601f106128cf5782800160ff19823516178555612878565b82800160010185558215612878579182015b828111156128785782358255916020019190600101906128e1565b5b8082111561288457600081556001016128fd565b6001600160a01b03811681146126a957600080fd5b60006020828403121561293857600080fd5b81356104be81612911565b60005b8381101561295e578181015183820152602001612946565b83811115610f765750506000910152565b60008151808452612987816020860160208601612943565b601f01601f19169290920160200192915050565b600082825180855260208086019550808260051b84010181860160005b848110156129e657601f198684030189526129d483835161296f565b988401989250908301906001016129b8565b5090979650505050505050565b606080825284519082018190526000906020906080840190828801845b82811015612a2c57815184529284019290840190600101612a10565b50505083810382850152612a40818761299b565b9150508281036040840152612a55818561299b565b9695505050505050565b60008060408385031215612a7257600080fd5b50508035926020909101359150565b600060208284031215612a9357600080fd5b5035919050565b634e487b7160e01b600052604160045260246000fd5b604051601f8201601f1916810167ffffffffffffffff81118282101715612ad957612ad9612a9a565b604052919050565b600067ffffffffffffffff821115612afb57612afb612a9a565b50601f01601f191660200190565b600082601f830112612b1a57600080fd5b8135612b2d612b2882612ae1565b612ab0565b818152846020838601011115612b4257600080fd5b816020850160208301376000918101602001919091529392505050565b60008060408385031215612b7257600080fd5b823567ffffffffffffffff80821115612b8a57600080fd5b612b9686838701612b09565b93506020850135915080821115612bac57600080fd5b50612bb985828601612b09565b9150509250929050565b604081526000612bd6604083018561296f565b8281036020840152612be8818561296f565b95945050505050565b60008060408385031215612c0457600080fd5b8235612c0f81612911565b91506020830135612c1f81612911565b809150509250929050565b60008083601f840112612c3c57600080fd5b50813567ffffffffffffffff811115612c5457600080fd5b602083019150836020828501011115612c6c57600080fd5b9250929050565b60008060008060408587031215612c8957600080fd5b843567ffffffffffffffff80821115612ca157600080fd5b612cad88838901612c2a565b90965094506020870135915080821115612cc657600080fd5b50612cd387828801612c2a565b95989497509550505050565b634e487b7160e01b600052601160045260246000fd5b600082821015612d0757612d07612cdf565b500390565b634e487b7160e01b600052603260045260246000fd5b600181811c90821680612d3657607f821691505b60208210811415612d5757634e487b7160e01b600052602260045260246000fd5b50919050565b60007fffffffffffffffffffffffffffffffffffffffffffffffffffffffffffffffff821415612d8f57612d8f612cdf565b5060010190565b600060208284031215612da857600080fd5b815167ffffffffffffffff811115612dbf57600080fd5b8201601f81018413612dd057600080fd5b8051612dde612b2882612ae1565b818152856020838501011115612df357600080fd5b612be8826020830160208601612943565b6020815260006104be602083018461296f565b600060208284031215612e2957600080fd5b5051919050565b60008219821115612e4357612e43612cdf565b500190565b8054600090600181811c9080831680612e6257607f831692505b6020808410821415612e8457634e487b7160e01b600052602260045260246000fd5b83885260208801828015612e9f5760018114612eb057612edb565b60ff19871682528282019750612edb565b60008981526020902060005b87811015612ed557815484820152908601908401612ebc565b83019850505b5050505050505092915050565b604081526000612bd66040830185612e48565b600060208284031215612f0d57600080fd5b815180151581146104be57600080fd5b838152606060208201526000612f36606083018561296f565b8281036040840152612a55818561296f565b818352818160208501375060006020828401015260006020601f19601f840116840101905092915050565b604081526000612f866040830186612e48565b8281036020840152612a55818587612f48565b858152606060208201526000612fb3606083018688612f48565b8281036040840152612fc6818587612f48565b9897505050505050505056fea26469706673582212209b6e0c66581d38cabcc10fd1f662524d7f75fe08c208ff8b471f2c275eeb499064736f6c634300080b0033",
  "immutableReferences": {},
  "source": "pragma solidity >=0.7.6;\npragma abicoder v2;\n\n// SPDX-License-Identifier: GPL-3.0-or-later\n\nimport \"./StringCommon.sol\";\n\n// OpenZepellin upgradable contracts\nimport \"@openzeppelin/contracts-upgradeable/proxy/utils/Initializable.sol\";\nimport \"@openzeppelin/contracts-upgradeable/access/OwnableUpgradeable.sol\";\n\n/*\n// OpenZepellin standard contracts\nimport \"@openzeppelin/contracts/access/Ownable.sol\";\n*/\n\n/* //ENS integration (old/deprecated)\nimport \"./ImmutableResolver.sol\";\nimport \"@ensdomains/ens/contracts/ENS.sol\";\nimport \"./AddrResolver.sol\";\n*/\n\n/// @title Immutable Entity trust zone used by ecosystem members\n/// @author Sean Lawless for ImmutableSoft Inc.\n/// @notice Member entities can accept ETH escrow payments and change\n///         or configure a recovery wallet address. Only after new\n///         members create their Entity (with a blockchain transaction)\n///         is ownership of the wallet address proven to ImmutableSoft\n///         which then allows us to approve the new member.\ncontract ImmutableEntity is Initializable, OwnableUpgradeable\n/*\ncontract ImmutableEntity is Initializable, Ownable*/\n{\n  address payable private Bank;\n  uint256 UpgradeFee;\n\n  // Mapping between the organization address and the global entity index\n  mapping (address => uint256) private EntityIndex;\n\n  // Mapping between the entity index and the entity status\n  mapping (uint256 => uint256) private EntityStatus;\n\n  // Organizational entity\n  struct Entity\n  {\n    address payable bank;\n    address prevAddress;\n    address nextAddress;\n    string name;\n    string infoURL;\n    uint256 createTime;\n//    string entityEnsName;\n  }\n\n  // Array of current entity addresses, indexable by entity index\n  mapping (uint256 => address) private EntityArray;\n\n  // Array of entities, indexable by entity index\n  mapping (uint256 => Entity) private Entities;\n  uint256 NumberOfEntities;\n\n  // External contract interfaces\n  StringCommon private commonInterface;\n  // Ethereum Name Service contract and variables\n//  ImmutableResolver private resolver;\n\n  // Entity interface events\n  event entityEvent(uint256 entityIndex,\n                    string name, string url);\n\n  /// @notice Initialize the ImmutableEntity smart contract\n  ///   Called during first deployment only (not on upgrade) as\n  ///   this is an OpenZepellin upgradable contract\n  /// @param commonAddr The StringCommon contract address\n  function initialize(address commonAddr) public initializer\n  {\n    __Ownable_init();\n/*\n  // OpenZepellin standard contracts\n  constructor(address commonAddr) Ownable()\n  {\n*/\n    // Initialize string and token contract interfaces\n    commonInterface = StringCommon(commonAddr);\n    Bank = payable(msg.sender);\n    UpgradeFee = 10000000000000000000; //10 MATIC ~ $20)\n  }\n\n  ///////////////////////////////////////////////////////////\n  /// ADMIN (onlyOwner)\n  ///////////////////////////////////////////////////////////\n/*\n  /// @notice Set ENS resolver. Zero address disables resolver.\n  /// Administrator (onlyOwner)\n  /// @param resolverAddr the address of the immutable resolver\n  function entityResolver(address resolverAddr, bytes32 rootNode)\n    external onlyOwner\n  {\n    resolver = ImmutableResolver(resolverAddr);\n    resolver.setRootNode(rootNode);\n  }\n*/\n  /// @notice Change bank that contract pays ETH out too.\n  /// Administrator only.\n  /// @param newBank The Ethereum address of new ecosystem bank\n  function entityOwnerBank(address payable newBank)\n    external onlyOwner\n  {\n    require(newBank != address(0), \"invalid address\");\n    Bank = newBank;\n  }\n\n  /// @notice Retrieve fee to upgrade.\n  /// Administrator only.\n  /// @param newFee the new upgrade fee\n  function entityOwnerUpgradeFee(uint256 newFee)\n    external onlyOwner\n  {\n    UpgradeFee = newFee;\n  }\n\n  /// @notice Update an entity status, non-zero value is approval.\n  /// See ImmutableConstants.sol for status values and flags.\n  /// Administrator (onlyOwner)\n  /// @param entityIndex index of entity to change status\n  /// @param status The new complete status aggregate value\n  function entityStatusUpdate(uint256 entityIndex, uint256 status)\n    external onlyOwner\n  {\n    uint256 newStatus = status;\n\n    // If not disable, add expiration timestamp (one year from now)\n    if (status != 0)\n      newStatus |= ((block.timestamp + 365 days) << commonInterface.ExpirationOffset());\n\n    // Update the organization status\n    EntityStatus[entityIndex] = newStatus;\n\n/*\n    // If ENS configured, add resolver\n    if (address(resolver) != address(0))\n    {\n      // Register entity with ENS: <entityName>.immutablesoft.eth\n      string memory normalName = commonInterface.normalizeString(entity.name);\n      bytes32 subnode = commonInterface.namehash(entityRootNode(),\n                          commonInterface.stringToBytes32(normalName));\n\n      // Set address for node, owner to entity address and name to\n      //   normalized name string.\n      resolver.setAddr(subnode, EntityArray[entityIndex]);\n//      setName(subnode, normalName);\n      entity.entityEnsName = normalName;\n    }\n*/\n  }\n\n  ///////////////////////////////////////////////////////////\n  /// Ecosystem is split into entity, product and license\n  ///////////////////////////////////////////////////////////\n\n  ///////////////////////////////////////////////////////////\n  /// ENTITY\n  ///////////////////////////////////////////////////////////\n\n  /// @notice Create an organization.\n  /// Entities require approval (entityStatusUpdate) after create.\n  /// @param entityName The legal name of the entity\n  /// @param entityURL The valid URL of the entity\n  /// @return the new entity unique identifier (index)\n  function entityCreate(string memory entityName,\n                        string memory entityURL)\n    public returns (uint256)\n  {\n    require(bytes(entityName).length != 0, \"name empty\");\n    require(bytes(entityURL).length != 0, \"URL empty\");\n    uint256 entityIndex = NumberOfEntities + 1;\n    require(EntityIndex[msg.sender] == 0, \"already created\");\n\n    // Require the entity name be unique\n    for (uint256 i = 1; i < NumberOfEntities + 1; ++i)\n      require(!commonInterface.stringsEqual(Entities[i].name, entityName),\n              \"name exists\");\n\n    // Push the entity to permenant storage on the blockchain\n    Entities[entityIndex].bank = payable(msg.sender);\n    Entities[entityIndex].name = entityName;\n    Entities[entityIndex].infoURL = entityURL;\n    Entities[entityIndex].createTime = block.timestamp;\n\n    // Push the address to the entity array and clear status\n    EntityArray[entityIndex] = msg.sender;\n    EntityStatus[entityIndex] = 0;\n    EntityIndex[msg.sender] = entityIndex; // global entity id\n    NumberOfEntities++;\n\n    // Emit entity event: id, name and URL\n    emit entityEvent(entityIndex, entityName, entityURL);\n    return entityIndex;\n  }\n\n  /// @notice Update an organization.\n  /// Entities require reapproval (entityStatusUpdate) after update.\n  /// @param entityName The legal name of the entity\n  /// @param entityURL The valid URL of the entity\n  function entityUpdate(string calldata entityName,\n                        string calldata entityURL)\n    external\n  {\n    require(bytes(entityName).length != 0, \"name empty\");\n    require(bytes(entityURL).length != 0, \"URL empty\");\n    uint256 entityIndex = EntityIndex[msg.sender];\n    require(entityIndex > 0, \"Sender unknown\");\n\n    // Require the new entity name be unique\n    for (uint256 i = 0; i < NumberOfEntities; ++i)\n    {\n      // Skip the duplicate name check for sender entity\n      //   ie. Allow only URL to be changed\n      if (i != entityIndex)\n        require(!commonInterface.stringsEqual(Entities[i].name,\n                entityName), \"name exists\");\n    }\n\n    // Update entity name and/or URL\n    Entities[entityIndex].name = entityName;\n    Entities[entityIndex].infoURL = entityURL;\n\n    // Not required, will monitor for fraud\n\n    // Clear the entity status as re-validation required\n/*    EntityStatus[entityIndex] &= 0xFF;*/\n\n    // Emit entity event\n    emit entityEvent(entityIndex, entityName, entityURL);\n  }\n\n  /// @notice Change bank address that contract pays out to.\n  /// msg.sender must be a registered entity.\n  /// @param newBank payable Ethereum address owned by entity\n  function entityBankChange(address payable newBank)\n    external\n  {\n    uint256 entityIndex = EntityIndex[msg.sender];\n    require(entityIndex > 0, commonInterface.EntityIsZero());\n    Entity storage entity = Entities[entityIndex];\n\n    // Only a validated entity can configue a bank address\n    require(entityAddressStatus(msg.sender) > 0, commonInterface.EntityNotValidated());\n    require(newBank != address(0), \"Bank cannot be zero\");\n    entity.bank = newBank;\n  }\n\n  /// @notice Propose to move an entity (change addresses).\n  /// To complete move, call entityMoveAddress with new address.\n  /// msg.sender must be a registered entity.\n  /// @param nextAddress The next address of the entity\n  function entityAddressNext(address nextAddress)\n    external\n  {\n    uint256 entityIndex = EntityIndex[msg.sender];\n    require(entityIndex > 0, commonInterface.EntityIsZero());\n    Entity storage entity = Entities[entityIndex];\n\n    // Ensure next address and status and status are valid\n    require(msg.sender != nextAddress, \"Next not different\");\n    require(nextAddress != address(0), \"Next is zero\");\n    require(entityAddressStatus(msg.sender) > 0, commonInterface.EntityNotValidated());\n\n    // Require next address to have no entity configured\n    require(EntityIndex[nextAddress] == 0, \"Next in use\");\n\n    // Assign the new address to the organization\n    entity.nextAddress = nextAddress;\n  }\n\n  /// @notice Admin override for moving an entity (change addresses).\n  /// To complete move call entityMoveAddress with new address.\n  /// msg.sender must be Administrator (owner).\n  /// @param entityAddress The address of the entity to move\n  /// @param nextAddress The next address of the entity\n  function entityAdminAddressNext(address entityAddress,\n                                  address nextAddress)\n    external onlyOwner\n  {\n    uint256 entityIndex = EntityIndex[entityAddress];\n    require(entityIndex > 0, commonInterface.EntityIsZero());\n    Entity storage entity = Entities[entityIndex];\n\n    // Ensure next address is valid\n    require(entityAddress != nextAddress, \"Next not different\");\n    require(nextAddress != address(0), \"Next is zero\");\n    // Require next address to have no entity configured\n    require(EntityIndex[nextAddress] == 0, \"Next in use\");\n\n    // Assign the new address to the organization\n    entity.nextAddress = nextAddress;\n  }\n\n  /// @notice Finish moving an entity (change addresses).\n  /// First call entityNextAddress with previous address.\n  /// msg.sender must be new entity address set with entityNextAddress.\n  /// @param oldAddress The previous address of the entity\n  function entityAddressMove(address oldAddress)\n    external\n  {\n    uint256 entityIndex = EntityIndex[oldAddress];\n    require(entityIndex > 0, commonInterface.EntityIsZero());\n    Entity storage entity = Entities[entityIndex];\n    require(entity.nextAddress == msg.sender, \"Next not sender\");\n    uint256 entityStatus = entityAddressStatus(oldAddress);\n    require(entityStatus > 0, commonInterface.EntityNotValidated());\n\n    // Assign the indexing for the new address\n    EntityIndex[msg.sender] = entityIndex;\n    // Clear the old address\n    EntityIndex[oldAddress] = 0;\n    EntityArray[entityIndex] = msg.sender;\n    entity.prevAddress = oldAddress;\n\n    // If old bank address was adminstrator, move bank to new address\n    if (entity.bank == oldAddress)\n      entity.bank = payable(msg.sender);\n  }\n\n  /// @notice Pay (transfer ETH to ImmutableSoft) for an upgrade.\n  /// msg.sender must be registered Entity in good standing.\n  /// Payable, requires ETH transfer. Current status of Manual upgrades\n  /// to Automatic, Automatic upgrades to Custom. Upgrading Custom only\n  /// extends your membership.\n  function entityUpgrade()\n    public payable\n  {\n    uint256 entityIndex = EntityIndex[msg.sender];\n    require(entityIndex > 0, commonInterface.EntityIsZero());\n    require(msg.value >= UpgradeFee, \"Payment required\");\n\n    uint256 entityStatus = EntityStatus[entityIndex];\n    require(entityStatus > 0, commonInterface.EntityNotValidated());\n\n    // Deserialize the expiration date/time\n    uint256 expiration = ((entityStatus & commonInterface.ExpirationMask()) >>\n                           commonInterface.ExpirationOffset());\n\n    // If unexpired then upgrade AND extend\n    if (expiration > block.timestamp)\n    {\n      // If manual, upgrade to automatic flags\n      if ((entityStatus & (commonInterface.Automatic() |\n                           commonInterface.CustomToken())) == 0)\n        entityStatus |= commonInterface.Automatic();\n\n      // Otherwise upgrade to Custom token flags\n      else\n        entityStatus |= commonInterface.CustomToken();\n    }\n\n    // Otherwise entity expired so set to Automatic and current time\n    else\n    {\n      entityStatus &= ~(commonInterface.Automatic() | commonInterface.CustomToken());\n      entityStatus |= commonInterface.Automatic();\n      expiration = block.timestamp;\n    }\n\n    // All upgrades are given a one year expiration (or extended one year)\n    entityStatus &= ~(commonInterface.ExpirationMask() << commonInterface.ExpirationOffset());\n    entityStatus |= ((expiration + 365 days) << commonInterface.ExpirationOffset());\n\n    // Write new status on-chain\n    EntityStatus[entityIndex] = entityStatus;\n\n    // Transfer ETH funds to ImmutableSoft\n    Bank.transfer(msg.value);\n  }\n\n  /// @notice Pay (transfer ETH to) an entity.\n  /// Entity must exist and have bank configured.\n  /// Payable, requires ETH transfer.\n  /// msg.sender is the payee (could be ProductActivate contract)\n  /// @param entityIndex The index of entity recipient bank\n  function entityPay(uint256 entityIndex)\n    public payable\n  {\n    uint256 entityStatus = entityIndexStatus(entityIndex);\n    if (entityIndex > 0)\n    {\n      Entity storage entity = Entities[entityIndex];\n\n      require(entityStatus > 0, commonInterface.EntityNotValidated());\n      require(msg.value > 0, \"ETH required\");\n      require(entity.bank != address(0), \"Bank not configured\");\n\n      // Transfer ETH funds\n      entity.bank.transfer(msg.value);\n    }\n\n    // Otherwise transfer ETH funds to ImmutableSoft\n    else\n      Bank.transfer(msg.value);\n  }\n\n  /// @notice Retrieve official entity status.\n  /// Status of zero (0) return if entity not found.\n  /// @param entityIndex The index of the entity\n  /// @return the entity status as maintained by Immutable\n  function entityIndexStatus(uint256 entityIndex)\n    public view returns (uint256)\n  {\n    if ((entityIndex > 0) && (entityIndex <= NumberOfEntities))\n      return EntityStatus[entityIndex];\n    else\n      return 0;\n  }\n\n  /// @notice Retrieve official entity status.\n  /// Status of zero (0) return if entity not found.\n  /// @param entityAddress The address of the entity\n  /// @return the entity status as maintained by Immutable\n  function entityAddressStatus(address entityAddress)\n    public view returns (uint256)\n  {\n    uint256 entityIndex = EntityIndex[entityAddress];\n\n    return entityIndexStatus(entityIndex);\n  }\n\n  /// @notice Retrieve official global entity index.\n  /// Return index of zero (0) is not found.\n  /// @param entityAddress The address of the entity\n  /// @return the entity index as maintained by Immutable\n  function entityAddressToIndex(address entityAddress)\n    public view returns (uint256)\n  {\n    return EntityIndex[entityAddress];\n  }\n\n  /// @notice Retrieve current global entity address.\n  /// Return address of zero (0) is not found.\n  /// @param entityIndex The global index of the entity\n  /// @return the current entity address as maintained by Immutable\n  function entityIndexToAddress(uint256 entityIndex)\n    public view returns (address)\n  {\n    if ((entityIndex == 0) || (entityIndex > NumberOfEntities))\n      return (address(0));\n    return EntityArray[entityIndex];\n  }\n\n  /// @notice Retrieve entity details from index.\n  /// @param entityIndex The index of the entity\n  /// @return name and URL are return values.\\\n  ///         **name** the entity name\\\n  ///         **URL** the entity name\\\n  function entityDetailsByIndex(uint256 entityIndex)\n    public view returns (string memory name, string memory URL)\n  {\n    if ((entityIndex == 0) || (entityIndex > NumberOfEntities))\n      return (\"\", \"\");\n    Entity storage entity = Entities[entityIndex];\n\n    // Return the name and URL for this organization\n    return (entity.name, entity.infoURL);\n  }\n\n  /// @notice Retrieve number of entities.\n  /// @return the number of entities\n  function entityNumberOf()\n    public view returns (uint256)\n  {\n    return NumberOfEntities;\n  }\n\n  /// @notice Retrieve fee to upgrade.\n  /// @return the number of entities\n  function entityUpgradeFee()\n    public view returns (uint256)\n  {\n    return UpgradeFee;\n  }\n\n/*\n  /// @notice Return ENS immutablesoft root node.\n  /// @return the bytes32 ENS root node for immutablesoft.eth\n  function entityRootNode()\n    public view returns (bytes32)\n  {\n    if (address(resolver) != address(0))\n      return resolver.rootNode();\n    else\n      return 0;\n  }\n*/\n\n  /// @notice Retrieve bank address that contract pays out to\n  /// @param entityIndex The index of the entity\n  /// @return bank Ethereum address to pay out entity\n  function entityBank(uint256 entityIndex)\n    external view returns (address bank) \n  {\n    if (entityIndex > 0)\n      return Entities[entityIndex].bank;\n    else\n      return Bank;\n  }\n\n  /// @notice Retrieve all entity details\n  /// Status of empty arrays if none found.\n  /// @return status , name and URL arrays are return values.\\\n  ///         **status** Array of entity status\\\n  ///         **name** Array of entity names\\\n  ///         **URL** Array of entity URLs\n  function entityAllDetails()\n    external view returns (uint256[] memory status, string[] memory name,\n                           string[] memory URL)\n  {\n    uint256[] memory resultStatus = new uint256[](NumberOfEntities);\n    string[] memory resultName = new string[](NumberOfEntities);\n    string[] memory resultURL = new string[](NumberOfEntities);\n\n    for (uint i = 1; i <= NumberOfEntities; ++i)\n    {\n      resultStatus[i - 1] = EntityStatus[i];\n      resultName[i- 1] = Entities[i].name;\n      resultURL[i - 1] = Entities[i].infoURL;\n    }\n\n    return (resultStatus, resultName, resultURL);\n  }\n}\n",
  "sourcePath": "/home/pi/Source/github/ImmutableEcosystem/contracts/ImmutableEntity.sol",
  "compiler": {
    "name": "solc",
    "version": "0.8.11+commit.d7f03943.Emscripten.clang"
  },
  "schemaVersion": "3.4.4",
  "updatedAt": "2022-03-31T21:20:06.812Z",
  "devdoc": {
    "author": "Sean Lawless for ImmutableSoft Inc.",
    "kind": "dev",
    "methods": {
      "entityAddressMove(address)": {
        "params": {
          "oldAddress": "The previous address of the entity"
        }
      },
      "entityAddressNext(address)": {
        "params": {
          "nextAddress": "The next address of the entity"
        }
      },
      "entityAddressStatus(address)": {
        "params": {
          "entityAddress": "The address of the entity"
        },
        "returns": {
          "_0": "the entity status as maintained by Immutable"
        }
      },
      "entityAddressToIndex(address)": {
        "params": {
          "entityAddress": "The address of the entity"
        },
        "returns": {
          "_0": "the entity index as maintained by Immutable"
        }
      },
      "entityAdminAddressNext(address,address)": {
        "params": {
          "entityAddress": "The address of the entity to move",
          "nextAddress": "The next address of the entity"
        }
      },
      "entityAllDetails()": {
        "returns": {
          "status": ", name and URL arrays are return values.\\         **status** Array of entity status\\         **name** Array of entity names\\         **URL** Array of entity URLs"
        }
      },
      "entityBank(uint256)": {
        "params": {
          "entityIndex": "The index of the entity"
        },
        "returns": {
          "bank": "Ethereum address to pay out entity"
        }
      },
      "entityBankChange(address)": {
        "params": {
          "newBank": "payable Ethereum address owned by entity"
        }
      },
      "entityCreate(string,string)": {
        "params": {
          "entityName": "The legal name of the entity",
          "entityURL": "The valid URL of the entity"
        },
        "returns": {
          "_0": "the new entity unique identifier (index)"
        }
      },
      "entityDetailsByIndex(uint256)": {
        "params": {
          "entityIndex": "The index of the entity"
        },
        "returns": {
          "name": "and URL are return values.\\         **name** the entity name\\         **URL** the entity name\\"
        }
      },
      "entityIndexStatus(uint256)": {
        "params": {
          "entityIndex": "The index of the entity"
        },
        "returns": {
          "_0": "the entity status as maintained by Immutable"
        }
      },
      "entityIndexToAddress(uint256)": {
        "params": {
          "entityIndex": "The global index of the entity"
        },
        "returns": {
          "_0": "the current entity address as maintained by Immutable"
        }
      },
      "entityNumberOf()": {
        "returns": {
          "_0": "the number of entities"
        }
      },
      "entityOwnerBank(address)": {
        "params": {
          "newBank": "The Ethereum address of new ecosystem bank"
        }
      },
      "entityOwnerUpgradeFee(uint256)": {
        "params": {
          "newFee": "the new upgrade fee"
        }
      },
      "entityPay(uint256)": {
        "params": {
          "entityIndex": "The index of entity recipient bank"
        }
      },
      "entityStatusUpdate(uint256,uint256)": {
        "params": {
          "entityIndex": "index of entity to change status",
          "status": "The new complete status aggregate value"
        }
      },
      "entityUpdate(string,string)": {
        "params": {
          "entityName": "The legal name of the entity",
          "entityURL": "The valid URL of the entity"
        }
      },
      "entityUpgradeFee()": {
        "returns": {
          "_0": "the number of entities"
        }
      },
      "initialize(address)": {
        "params": {
          "commonAddr": "The StringCommon contract address"
        }
      },
      "owner()": {
        "details": "Returns the address of the current owner."
      },
      "renounceOwnership()": {
        "details": "Leaves the contract without owner. It will not be possible to call `onlyOwner` functions anymore. Can only be called by the current owner. NOTE: Renouncing ownership will leave the contract without an owner, thereby removing any functionality that is only available to the owner."
      },
      "transferOwnership(address)": {
        "details": "Transfers ownership of the contract to a new account (`newOwner`). Can only be called by the current owner."
      }
    },
    "title": "Immutable Entity trust zone used by ecosystem members",
    "version": 1
  },
  "userdoc": {
    "kind": "user",
    "methods": {
      "entityAddressMove(address)": {
        "notice": "Finish moving an entity (change addresses). First call entityNextAddress with previous address. msg.sender must be new entity address set with entityNextAddress."
      },
      "entityAddressNext(address)": {
        "notice": "Propose to move an entity (change addresses). To complete move, call entityMoveAddress with new address. msg.sender must be a registered entity."
      },
      "entityAddressStatus(address)": {
        "notice": "Retrieve official entity status. Status of zero (0) return if entity not found."
      },
      "entityAddressToIndex(address)": {
        "notice": "Retrieve official global entity index. Return index of zero (0) is not found."
      },
      "entityAdminAddressNext(address,address)": {
        "notice": "Admin override for moving an entity (change addresses). To complete move call entityMoveAddress with new address. msg.sender must be Administrator (owner)."
      },
      "entityAllDetails()": {
        "notice": "Retrieve all entity details Status of empty arrays if none found."
      },
      "entityBank(uint256)": {
        "notice": "Retrieve bank address that contract pays out to"
      },
      "entityBankChange(address)": {
        "notice": "Change bank address that contract pays out to. msg.sender must be a registered entity."
      },
      "entityCreate(string,string)": {
        "notice": "Create an organization. Entities require approval (entityStatusUpdate) after create."
      },
      "entityDetailsByIndex(uint256)": {
        "notice": "Retrieve entity details from index."
      },
      "entityIndexStatus(uint256)": {
        "notice": "Retrieve official entity status. Status of zero (0) return if entity not found."
      },
      "entityIndexToAddress(uint256)": {
        "notice": "Retrieve current global entity address. Return address of zero (0) is not found."
      },
      "entityNumberOf()": {
        "notice": "Retrieve number of entities."
      },
      "entityOwnerBank(address)": {
        "notice": "Change bank that contract pays ETH out too. Administrator only."
      },
      "entityOwnerUpgradeFee(uint256)": {
        "notice": "Retrieve fee to upgrade. Administrator only."
      },
      "entityPay(uint256)": {
        "notice": "Pay (transfer ETH to) an entity. Entity must exist and have bank configured. Payable, requires ETH transfer. msg.sender is the payee (could be ProductActivate contract)"
      },
      "entityStatusUpdate(uint256,uint256)": {
        "notice": "Update an entity status, non-zero value is approval. See ImmutableConstants.sol for status values and flags. Administrator (onlyOwner)"
      },
      "entityUpdate(string,string)": {
        "notice": "Update an organization. Entities require reapproval (entityStatusUpdate) after update."
      },
      "entityUpgrade()": {
        "notice": "Pay (transfer ETH to ImmutableSoft) for an upgrade. msg.sender must be registered Entity in good standing. Payable, requires ETH transfer. Current status of Manual upgrades to Automatic, Automatic upgrades to Custom. Upgrading Custom only extends your membership."
      },
      "entityUpgradeFee()": {
        "notice": "Retrieve fee to upgrade."
      },
      "initialize(address)": {
        "notice": "Initialize the ImmutableEntity smart contract   Called during first deployment only (not on upgrade) as   this is an OpenZepellin upgradable contract"
      }
    },
    "notice": "Member entities can accept ETH escrow payments and change         or configure a recovery wallet address. Only after new         members create their Entity (with a blockchain transaction)         is ownership of the wallet address proven to ImmutableSoft         which then allows us to approve the new member.",
    "version": 1
  }
}