{
  "contractName": "ProductActivate",
  "abi": [
    {
      "anonymous": false,
      "inputs": [
        {
          "indexed": false,
          "internalType": "uint8",
          "name": "version",
          "type": "uint8"
        }
      ],
      "name": "Initialized",
      "type": "event"
    },
    {
      "anonymous": false,
      "inputs": [
        {
          "indexed": true,
          "internalType": "address",
          "name": "previousOwner",
          "type": "address"
        },
        {
          "indexed": true,
          "internalType": "address",
          "name": "newOwner",
          "type": "address"
        }
      ],
      "name": "OwnershipTransferred",
      "type": "event"
    },
    {
      "inputs": [],
      "name": "owner",
      "outputs": [
        {
          "internalType": "address",
          "name": "",
          "type": "address"
        }
      ],
      "stateMutability": "view",
      "type": "function"
    },
    {
      "inputs": [],
      "name": "renounceOwnership",
      "outputs": [],
      "stateMutability": "nonpayable",
      "type": "function"
    },
    {
      "inputs": [
        {
          "internalType": "address",
          "name": "newOwner",
          "type": "address"
        }
      ],
      "name": "transferOwnership",
      "outputs": [],
      "stateMutability": "nonpayable",
      "type": "function"
    },
    {
      "inputs": [
        {
          "internalType": "address",
          "name": "commonAddr",
          "type": "address"
        },
        {
          "internalType": "address",
          "name": "entityContractAddr",
          "type": "address"
        },
        {
          "internalType": "address",
          "name": "productContractAddr",
          "type": "address"
        },
        {
          "internalType": "address",
          "name": "activateTokenAddr",
          "type": "address"
        },
        {
          "internalType": "address",
          "name": "creatorTokenAddr",
          "type": "address"
        }
      ],
      "name": "initialize",
      "outputs": [],
      "stateMutability": "nonpayable",
      "type": "function"
    },
    {
      "inputs": [
        {
          "internalType": "uint256",
          "name": "productIndex",
          "type": "uint256"
        },
        {
          "internalType": "uint256",
          "name": "licenseHash",
          "type": "uint256"
        },
        {
          "internalType": "uint256",
          "name": "licenseValue",
          "type": "uint256"
        },
        {
          "internalType": "uint256",
          "name": "transferSurcharge",
          "type": "uint256"
        },
        {
          "internalType": "uint256",
          "name": "ricardianParent",
          "type": "uint256"
        }
      ],
      "name": "activateCreate",
      "outputs": [],
      "stateMutability": "nonpayable",
      "type": "function"
    },
    {
      "inputs": [
        {
          "internalType": "uint256",
          "name": "entityIndex",
          "type": "uint256"
        },
        {
          "internalType": "uint256",
          "name": "productIndex",
          "type": "uint256"
        },
        {
          "internalType": "uint256",
          "name": "offerIndex",
          "type": "uint256"
        },
        {
          "internalType": "uint16",
          "name": "numPurchases",
          "type": "uint16"
        },
        {
          "internalType": "uint256[]",
          "name": "licenseHashes",
          "type": "uint256[]"
        },
        {
          "internalType": "uint256[]",
          "name": "ricardianClients",
          "type": "uint256[]"
        }
      ],
      "name": "activatePurchase",
      "outputs": [],
      "stateMutability": "payable",
      "type": "function"
    },
    {
      "inputs": [
        {
          "internalType": "uint256",
          "name": "entityIndex",
          "type": "uint256"
        },
        {
          "internalType": "uint256",
          "name": "productIndex",
          "type": "uint256"
        },
        {
          "internalType": "uint256",
          "name": "oldLicenseHash",
          "type": "uint256"
        },
        {
          "internalType": "uint256",
          "name": "newLicenseHash",
          "type": "uint256"
        }
      ],
      "name": "activateMove",
      "outputs": [],
      "stateMutability": "nonpayable",
      "type": "function"
    },
    {
      "inputs": [
        {
          "internalType": "uint256",
          "name": "entityIndex",
          "type": "uint256"
        },
        {
          "internalType": "uint256",
          "name": "productIndex",
          "type": "uint256"
        },
        {
          "internalType": "uint256",
          "name": "licenseHash",
          "type": "uint256"
        },
        {
          "internalType": "uint256",
          "name": "priceInEth",
          "type": "uint256"
        }
      ],
      "name": "activateOfferResale",
      "outputs": [
        {
          "internalType": "uint256",
          "name": "",
          "type": "uint256"
        }
      ],
      "stateMutability": "nonpayable",
      "type": "function"
    },
    {
      "inputs": [
        {
          "internalType": "uint256",
          "name": "entityIndex",
          "type": "uint256"
        },
        {
          "internalType": "uint256",
          "name": "productIndex",
          "type": "uint256"
        },
        {
          "internalType": "uint256",
          "name": "licenseHash",
          "type": "uint256"
        },
        {
          "internalType": "uint256",
          "name": "newLicenseHash",
          "type": "uint256"
        }
      ],
      "name": "activateTransfer",
      "outputs": [],
      "stateMutability": "payable",
      "type": "function"
    },
    {
      "inputs": [
        {
          "internalType": "uint256",
          "name": "tokenId",
          "type": "uint256"
        }
      ],
      "name": "activateTokenIdToOfferPrice",
      "outputs": [
        {
          "internalType": "uint256",
          "name": "",
          "type": "uint256"
        }
      ],
      "stateMutability": "view",
      "type": "function"
    }
  ],
  "bytecode": "0x608060405234801561001057600080fd5b50614e0b806100206000396000f3fe6080604052600436106100b15760003560e01c80638da5cb5b11610069578063ccc24fcf1161004e578063ccc24fcf146101a8578063db6232c5146101c8578063f2fde38b146101db57600080fd5b80638da5cb5b1461016d578063a8d294f21461019557600080fd5b80631b4b20b41161009a5780631b4b20b4146100f8578063715018a6146101385780638534648d1461014d57600080fd5b806307f734ad146100b65780631459457a146100d8575b600080fd5b3480156100c257600080fd5b506100d66100d136600461486a565b6101fb565b005b3480156100e457600080fd5b506100d66100f33660046148b1565b610979565b34801561010457600080fd5b50610125610113366004614922565b60009081526065602052604090205490565b6040519081526020015b60405180910390f35b34801561014457600080fd5b506100d6610a56565b34801561015957600080fd5b5061012561016836600461486a565b610abc565b34801561017957600080fd5b506033546040516001600160a01b03909116815260200161012f565b6100d66101a3366004614a02565b611135565b3480156101b457600080fd5b506100d66101c3366004614a9b565b612e8b565b6100d66101d636600461486a565b6133ed565b3480156101e757600080fd5b506100d66101f6366004614ad6565b61450e565b6069546040516382ce516b60e01b8152600481018690526000916001600160a01b0316906382ce516b90602401602060405180830381865afa158015610245573d6000803e3d6000fd5b505050506040513d601f19601f820116820180604052508101906102699190614afa565b11606b60009054906101000a90046001600160a01b03166001600160a01b0316632023c5196040518163ffffffff1660e01b8152600401600060405180830381865afa1580156102bd573d6000803e3d6000fd5b505050506040513d6000823e601f3d908101601f191682016040526102e59190810190614baf565b9061030c5760405162461bcd60e51b81526004016103039190614be4565b60405180910390fd5b50606754604051637c798ab360e11b8152600481018490526000916001600160a01b03169063f8f3156690602401602060405180830381865afa158015610357573d6000803e3d6000fd5b505050506040513d601f19601f8201168201806040525081019061037b9190614afa565b9050600081116103bf5760405162461bcd60e51b815260206004820152600f60248201526e151bdad95b9259081a5b9d985b1a59608a1b6044820152606401610303565b6067546040516331a9108f60e11b8152600481018390526001600160a01b0390911690636352211e90602401602060405180830381865afa158015610408573d6000803e3d6000fd5b505050506040513d601f19601f8201168201806040525081019061042c9190614c17565b6001600160a01b0316336001600160a01b03161461048c5760405162461bcd60e51b815260206004820152601360248201527f53656e646572206973206e6f74206f776e6572000000000000000000000000006044820152606401610303565b606b5460408051630421c6df60e21b8152905187926001600160a01b0316916310871b7c9160048083019260209291908290030181865afa1580156104d5573d6000803e3d6000fd5b505050506040513d601f19601f820116820180604052508101906104f99190614afa565b606b60009054906101000a90046001600160a01b03166001600160a01b031663d09ab7476040518163ffffffff1660e01b8152600401602060405180830381865afa15801561054c573d6000803e3d6000fd5b505050506040513d601f19601f820116820180604052508101906105709190614afa565b8316901c14606b60009054906101000a90046001600160a01b03166001600160a01b0316630bd7b8f26040518163ffffffff1660e01b8152600401600060405180830381865afa1580156105c8573d6000803e3d6000fd5b505050506040513d6000823e601f3d908101601f191682016040526105f09190810190614baf565b9061060e5760405162461bcd60e51b81526004016103039190614be4565b50606b546040805163034ef6a760e41b8152905186926001600160a01b0316916334ef6a709160048083019260209291908290030181865afa158015610658573d6000803e3d6000fd5b505050506040513d601f19601f8201168201806040525081019061067c9190614afa565b606b60009054906101000a90046001600160a01b03166001600160a01b03166361b156556040518163ffffffff1660e01b8152600401602060405180830381865afa1580156106cf573d6000803e3d6000fd5b505050506040513d601f19601f820116820180604052508101906106f39190614afa565b8316901c14606b60009054906101000a90046001600160a01b03166001600160a01b031663db6474e66040518163ffffffff1660e01b8152600401600060405180830381865afa15801561074b573d6000803e3d6000fd5b505050506040513d6000823e601f3d908101601f191682016040526107739190810190614baf565b906107915760405162461bcd60e51b81526004016103039190614be4565b50606754604051633dbced0960e11b81526004810183905284916001600160a01b031690637b79da1290602401602060405180830381865afa1580156107db573d6000803e3d6000fd5b505050506040513d601f19601f820116820180604052508101906107ff9190614afa565b1461084c5760405162461bcd60e51b815260206004820152601660248201527f41637469766174652068617368206d69736d61746368000000000000000000006044820152606401610303565b606754604051633dbced0960e11b81526004810183905283916001600160a01b031690637b79da1290602401602060405180830381865afa158015610895573d6000803e3d6000fd5b505050506040513d601f19601f820116820180604052508101906108b99190614afa565b036109065760405162461bcd60e51b815260206004820152601460248201527f4e65772068617368206d757374206469666665720000000000000000000000006044820152606401610303565b606754604051633740e64160e21b81526004810183905260248101849052604481018590526001600160a01b039091169063dd03990490606401600060405180830381600087803b15801561095a57600080fd5b505af115801561096e573d6000803e3d6000fd5b505050505050505050565b600061098560016145f0565b9050801561099d576000805461ff0019166101001790555b6109a5614724565b606b805473ffffffffffffffffffffffffffffffffffffffff199081166001600160a01b0389811691909117909255606980548216888416179055606a80548216878416179055606780548216868416179055606880549091169184169190911790558015610a4e576000805461ff0019169055604051600181527f7f26b83ff96e1f2b6a682f133852f6798a09c465da95921460cefb38474024989060200160405180910390a15b505050505050565b6033546001600160a01b03163314610ab05760405162461bcd60e51b815260206004820181905260248201527f4f776e61626c653a2063616c6c6572206973206e6f7420746865206f776e65726044820152606401610303565b610aba6000614797565b565b6069546040516382ce516b60e01b81526004810186905260009182916001600160a01b03909116906382ce516b90602401602060405180830381865afa158015610b0a573d6000803e3d6000fd5b505050506040513d601f19601f82011682018060405250810190610b2e9190614afa565b905060008111606b60009054906101000a90046001600160a01b03166001600160a01b0316632023c5196040518163ffffffff1660e01b8152600401600060405180830381865afa158015610b87573d6000803e3d6000fd5b505050506040513d6000823e601f3d908101601f19168201604052610baf9190810190614baf565b90610bcd5760405162461bcd60e51b81526004016103039190614be4565b50606754604051637c798ab360e11b8152600481018690526000916001600160a01b03169063f8f3156690602401602060405180830381865afa158015610c18573d6000803e3d6000fd5b505050506040513d601f19601f82011682018060405250810190610c3c9190614afa565b905060008111610c805760405162461bcd60e51b815260206004820152600f60248201526e151bdad95b9259081a5b9d985b1a59608a1b6044820152606401610303565b6067546040516331a9108f60e11b8152600481018390526001600160a01b0390911690636352211e90602401602060405180830381865afa158015610cc9573d6000803e3d6000fd5b505050506040513d601f19601f82011682018060405250810190610ced9190614c17565b6001600160a01b0316336001600160a01b031614610d4d5760405162461bcd60e51b815260206004820152601360248201527f53656e646572206973206e6f74206f776e6572000000000000000000000000006044820152606401610303565b606b5460408051630421c6df60e21b8152905189926001600160a01b0316916310871b7c9160048083019260209291908290030181865afa158015610d96573d6000803e3d6000fd5b505050506040513d601f19601f82011682018060405250810190610dba9190614afa565b606b60009054906101000a90046001600160a01b03166001600160a01b031663d09ab7476040518163ffffffff1660e01b8152600401602060405180830381865afa158015610e0d573d6000803e3d6000fd5b505050506040513d601f19601f82011682018060405250810190610e319190614afa565b8316901c14606b60009054906101000a90046001600160a01b03166001600160a01b0316630bd7b8f26040518163ffffffff1660e01b8152600401600060405180830381865afa158015610e89573d6000803e3d6000fd5b505050506040513d6000823e601f3d908101601f19168201604052610eb19190810190614baf565b90610ecf5760405162461bcd60e51b81526004016103039190614be4565b50606b546040805163034ef6a760e41b8152905188926001600160a01b0316916334ef6a709160048083019260209291908290030181865afa158015610f19573d6000803e3d6000fd5b505050506040513d601f19601f82011682018060405250810190610f3d9190614afa565b606b60009054906101000a90046001600160a01b03166001600160a01b03166361b156556040518163ffffffff1660e01b8152600401602060405180830381865afa158015610f90573d6000803e3d6000fd5b505050506040513d601f19601f82011682018060405250810190610fb49190614afa565b8316901c14606b60009054906101000a90046001600160a01b03166001600160a01b031663db6474e66040518163ffffffff1660e01b8152600401600060405180830381865afa15801561100c573d6000803e3d6000fd5b505050506040513d6000823e601f3d908101601f191682016040526110349190810190614baf565b906110525760405162461bcd60e51b81526004016103039190614be4565b50606b60009054906101000a90046001600160a01b03166001600160a01b031663b7e2ba206040518163ffffffff1660e01b8152600401602060405180830381865afa1580156110a6573d6000803e3d6000fd5b505050506040513d601f19601f820116820180604052508101906110ca9190614afa565b8116156111195760405162461bcd60e51b815260206004820152601060248201527f4e6f20726573616c6520726967687473000000000000000000000000000000006044820152606401610303565b6000818152606560205260409020849055915050949350505050565b6069546040516382ce516b60e01b8152600481018890526000916001600160a01b0316906382ce516b90602401602060405180830381865afa15801561117f573d6000803e3d6000fd5b505050506040513d601f19601f820116820180604052508101906111a39190614afa565b11606b60009054906101000a90046001600160a01b03166001600160a01b0316632023c5196040518163ffffffff1660e01b8152600401600060405180830381865afa1580156111f7573d6000803e3d6000fd5b505050506040513d6000823e601f3d908101601f1916820160405261121f9190810190614baf565b9061123d5760405162461bcd60e51b81526004016103039190614be4565b50606a54604051636e416b6f60e01b81526004810188905286916001600160a01b031690636e416b6f90602401602060405180830381865afa158015611287573d6000803e3d6000fd5b505050506040513d601f19601f820116820180604052508101906112ab9190614afa565b11606b60009054906101000a90046001600160a01b03166001600160a01b03166379de4af56040518163ffffffff1660e01b8152600401600060405180830381865afa1580156112ff573d6000803e3d6000fd5b505050506040513d6000823e601f3d908101601f191682016040526113279190810190614baf565b906113455760405162461bcd60e51b81526004016103039190614be4565b506113886040518060c00160405280600081526020016000815260200160006001600160a01b031681526020016060815260200160008152602001600081525090565b606a546040517f698c2e000000000000000000000000000000000000000000000000000000000081526004810189905260248101889052604481018790526001600160a01b039091169063698c2e0090606401600060405180830381865afa1580156113f8573d6000803e3d6000fd5b505050506040513d6000823e601f3d908101601f191682016040526114209190810190614c34565b60a08701526080860152606085015260208401528083526001600160a01b03918216604080850191909152606b5481517f6df5846d0000000000000000000000000000000000000000000000000000000081529151921515931691636df5846d916004808201926000929091908290030181865afa1580156114a6573d6000803e3d6000fd5b505050506040513d6000823e601f3d908101601f191682016040526114ce9190810190614baf565b906114ec5760405162461bcd60e51b81526004016103039190614be4565b5060008461ffff16116115415760405162461bcd60e51b815260206004820152601560248201527f496e76616c6964206e756d2070757263686173657300000000000000000000006044820152606401610303565b606b5460408051630e14582b60e21b815290516000926001600160a01b03169163385160ac9160048083019260209291908290030181865afa15801561158b573d6000803e3d6000fd5b505050506040513d601f19601f820116820180604052508101906115af9190614afa565b606b60009054906101000a90046001600160a01b03166001600160a01b0316635b25084b6040518163ffffffff1660e01b8152600401602060405180830381865afa158015611602573d6000803e3d6000fd5b505050506040513d601f19601f820116820180604052508101906116269190614afa565b836020015116901c9050600080606b60009054906101000a90046001600160a01b03166001600160a01b0316637736e2e96040518163ffffffff1660e01b8152600401602060405180830381865afa158015611686573d6000803e3d6000fd5b505050506040513d601f19601f820116820180604052508101906116aa9190614afa565b84602001511611156117ba57606b60009054906101000a90046001600160a01b03166001600160a01b031663cb523d106040518163ffffffff1660e01b8152600401602060405180830381865afa158015611709573d6000803e3d6000fd5b505050506040513d601f19601f8201168201806040525081019061172d9190614afa565b606b60009054906101000a90046001600160a01b03166001600160a01b0316630b6febeb6040518163ffffffff1660e01b8152600401602060405180830381865afa158015611780573d6000803e3d6000fd5b505050506040513d601f19601f820116820180604052508101906117a49190614afa565b846020015116901c866117b79190614cc1565b95505b60005b8661ffff168110156128dd5760008311801561184a5750606b5460408051637789e6c760e01b815290516000926001600160a01b031691637789e6c79160048083019260209291908290030181865afa15801561181e573d6000803e3d6000fd5b505050506040513d601f19601f820116820180604052508101906118429190614afa565b856020015116115b156119d157606b60009054906101000a90046001600160a01b03166001600160a01b0316635b25084b6040518163ffffffff1660e01b8152600401602060405180830381865afa1580156118a2573d6000803e3d6000fd5b505050506040513d601f19601f820116820180604052508101906118c69190614afa565b602085810180519219909216909152606b5460408051635b25084b60e01b815290516001600160a01b0390921692635b25084b926004808401938290030181865afa158015611919573d6000803e3d6000fd5b505050506040513d601f19601f8201168201806040525081019061193d9190614afa565b606b60009054906101000a90046001600160a01b03166001600160a01b031663385160ac6040518163ffffffff1660e01b8152600401602060405180830381865afa158015611990573d6000803e3d6000fd5b505050506040513d601f19601f820116820180604052508101906119b49190614afa565b6119be4286614ceb565b901b168460200181815117915081815250505b60a084015115611b3a5760008582815181106119ef576119ef614d03565b602002602001015111611a445760405162461bcd60e51b815260206004820152600f60248201527f436c69656e7420726571756972656400000000000000000000000000000000006044820152606401610303565b60685485516000916001600160a01b0316906397680dd390889085908110611a6e57611a6e614d03565b60200260200101518760a001516040518363ffffffff1660e01b8152600401611aa1929190918252602082015260400190565b602060405180830381865afa158015611abe573d6000803e3d6000fd5b505050506040513d601f19601f82011682018060405250810190611ae29190614afa565b905060008111611b345760405162461bcd60e51b815260206004820152601060248201527f506172656e74206e6f7420666f756e64000000000000000000000000000000006044820152606401610303565b50611ba3565b848181518110611b4c57611b4c614d03565b6020026020010151600014611ba35760405162461bcd60e51b815260206004820152601260248201527f436c69656e74206e6f7420616c6c6f77656400000000000000000000000000006044820152606401610303565b60675486516000916001600160a01b03169063f8f3156690899085908110611bcd57611bcd614d03565b60200260200101516040518263ffffffff1660e01b8152600401611bf391815260200190565b602060405180830381865afa158015611c10573d6000803e3d6000fd5b505050506040513d601f19601f82011682018060405250810190611c349190614afa565b111561261a5760675486516001600160a01b039091169063f8f3156690889084908110611c6357611c63614d03565b60200260200101516040518263ffffffff1660e01b8152600401611c8991815260200190565b602060405180830381865afa158015611ca6573d6000803e3d6000fd5b505050506040513d601f19601f82011682018060405250810190611cca9190614afa565b6067546040516331a9108f60e11b81526004810183905291935033916001600160a01b0390911690636352211e90602401602060405180830381865afa158015611d18573d6000803e3d6000fd5b505050506040513d601f19601f82011682018060405250810190611d3c9190614c17565b6001600160a01b031614611d925760405162461bcd60e51b815260206004820152600f60248201527f4e6f7420746f6b656e206f776e657200000000000000000000000000000000006044820152606401610303565b606b60009054906101000a90046001600160a01b03166001600160a01b0316630e20680a6040518163ffffffff1660e01b8152600401602060405180830381865afa158015611de5573d6000803e3d6000fd5b505050506040513d601f19601f82011682018060405250810190611e099190614afa565b606b60009054906101000a90046001600160a01b03166001600160a01b0316632ffb7d286040518163ffffffff1660e01b8152600401602060405180830381865afa158015611e5c573d6000803e3d6000fd5b505050506040513d601f19601f82011682018060405250810190611e809190614afa565b17846020015116606b60009054906101000a90046001600160a01b03166001600160a01b03166334ef6a706040518163ffffffff1660e01b8152600401602060405180830381865afa158015611eda573d6000803e3d6000fd5b505050506040513d601f19601f82011682018060405250810190611efe9190614afa565b8a901b606b60009054906101000a90046001600160a01b03166001600160a01b03166310871b7c6040518163ffffffff1660e01b8152600401602060405180830381865afa158015611f54573d6000803e3d6000fd5b505050506040513d601f19601f82011682018060405250810190611f789190614afa565b8c901b1717606b60009054906101000a90046001600160a01b03166001600160a01b0316630e20680a6040518163ffffffff1660e01b8152600401602060405180830381865afa158015611fd0573d6000803e3d6000fd5b505050506040513d601f19601f82011682018060405250810190611ff49190614afa565b606b60009054906101000a90046001600160a01b03166001600160a01b0316632ffb7d286040518163ffffffff1660e01b8152600401602060405180830381865afa158015612047573d6000803e3d6000fd5b505050506040513d601f19601f8201168201806040525081019061206b9190614afa565b606b60009054906101000a90046001600160a01b03166001600160a01b03166361b156556040518163ffffffff1660e01b8152600401602060405180830381865afa1580156120be573d6000803e3d6000fd5b505050506040513d601f19601f820116820180604052508101906120e29190614afa565b606b60009054906101000a90046001600160a01b03166001600160a01b031663d09ab7476040518163ffffffff1660e01b8152600401602060405180830381865afa158015612135573d6000803e3d6000fd5b505050506040513d601f19601f820116820180604052508101906121599190614afa565b1717178316146121ab5760405162461bcd60e51b815260206004820152601a60248201527f546f6b656e20646f6573206e6f74206d61746368206f666665720000000000006044820152606401610303565b60008311801561222c5750606b5460408051637789e6c760e01b815290516000926001600160a01b031691637789e6c79160048083019260209291908290030181865afa158015612200573d6000803e3d6000fd5b505050506040513d601f19601f820116820180604052508101906122249190614afa565b856020015116115b801561231d5750606b5460408051630e14582b60e21b8152905142926001600160a01b03169163385160ac9160048083019260209291908290030181865afa15801561227c573d6000803e3d6000fd5b505050506040513d601f19601f820116820180604052508101906122a09190614afa565b606b60009054906101000a90046001600160a01b03166001600160a01b0316635b25084b6040518163ffffffff1660e01b8152600401602060405180830381865afa1580156122f3573d6000803e3d6000fd5b505050506040513d601f19601f820116820180604052508101906123179190614afa565b8416901c115b156125a257606b5460408051630e14582b60e21b8152905142926001600160a01b03169163385160ac9160048083019260209291908290030181865afa15801561236b573d6000803e3d6000fd5b505050506040513d601f19601f8201168201806040525081019061238f9190614afa565b606b60009054906101000a90046001600160a01b03166001600160a01b0316635b25084b6040518163ffffffff1660e01b8152600401602060405180830381865afa1580156123e2573d6000803e3d6000fd5b505050506040513d601f19601f820116820180604052508101906124069190614afa565b8416901c6124149190614d19565b61241e9084614ceb565b9250606b60009054906101000a90046001600160a01b03166001600160a01b0316635b25084b6040518163ffffffff1660e01b8152600401602060405180830381865afa158015612473573d6000803e3d6000fd5b505050506040513d601f19601f820116820180604052508101906124979190614afa565b602085810180519219909216909152606b5460408051635b25084b60e01b815290516001600160a01b0390921692635b25084b926004808401938290030181865afa1580156124ea573d6000803e3d6000fd5b505050506040513d601f19601f8201168201806040525081019061250e9190614afa565b606b60009054906101000a90046001600160a01b03166001600160a01b031663385160ac6040518163ffffffff1660e01b8152600401602060405180830381865afa158015612561573d6000803e3d6000fd5b505050506040513d601f19601f820116820180604052508101906125859190614afa565b61258f4286614ceb565b901b168460200181815117915081815250505b6067546040517f42966c68000000000000000000000000000000000000000000000000000000008152600481018490526001600160a01b03909116906342966c6890602401600060405180830381600087803b15801561260157600080fd5b505af1158015612615573d6000803e3d6000fd5b505050505b606b54604080517f6b379a0300000000000000000000000000000000000000000000000000000000815290516000926001600160a01b031691636b379a039160048083019260209291908290030181865afa15801561267d573d6000803e3d6000fd5b505050506040513d601f19601f820116820180604052508101906126a19190614afa565b856020015116111561273357606a546040517f34f270be000000000000000000000000000000000000000000000000000000008152600481018c9052602481018b9052604481018a90526001600160a01b03909116906334f270be90606401600060405180830381600087803b15801561271a57600080fd5b505af115801561272e573d6000803e3d6000fd5b505050505b606760009054906101000a90046001600160a01b03166001600160a01b031663dfc8fff6338c8c8a868151811061276c5761276c614d03565b602002602001015189602001516000606b60009054906101000a90046001600160a01b03166001600160a01b03166381ff1caf6040518163ffffffff1660e01b8152600401602060405180830381865afa1580156127ce573d6000803e3d6000fd5b505050506040513d601f19601f820116820180604052508101906127f29190614afa565b8c60200151161161280457600061280a565b8a60a001515b6040517fffffffff0000000000000000000000000000000000000000000000000000000060e089901b1681526001600160a01b039096166004870152602486019490945260448501929092526064840152608483015260a482015260c4016020604051808303816000875af1158015612887573d6000803e3d6000fd5b505050506040513d601f19601f820116820180604052508101906128ab9190614afa565b6080850151909250156128cd5760808401516000838152606660205260409020555b6128d681614d30565b90506117bd565b50606b54604080517f7736e2e900000000000000000000000000000000000000000000000000000000815290516000926001600160a01b031691637736e2e99160048083019260209291908290030181865afa158015612941573d6000803e3d6000fd5b505050506040513d601f19601f820116820180604052508101906129659190614afa565b8460200151161115612a7557606b60009054906101000a90046001600160a01b03166001600160a01b031663cb523d106040518163ffffffff1660e01b8152600401602060405180830381865afa1580156129c4573d6000803e3d6000fd5b505050506040513d601f19601f820116820180604052508101906129e89190614afa565b606b60009054906101000a90046001600160a01b03166001600160a01b0316630b6febeb6040518163ffffffff1660e01b8152600401602060405180830381865afa158015612a3b573d6000803e3d6000fd5b505050506040513d601f19601f82011682018060405250810190612a5f9190614afa565b846020015116901c86612a729190614d5f565b95505b60408301516001600160a01b0316612d46578251600090612a9b9061ffff891690614d80565b341015612aea5760405162461bcd60e51b815260206004820152600e60248201527f4e6f7420656e6f756768204554480000000000000000000000000000000000006044820152606401610303565b606b60009054906101000a90046001600160a01b03166001600160a01b031663418cb0776040518163ffffffff1660e01b8152600401602060405180830381865afa158015612b3d573d6000803e3d6000fd5b505050506040513d601f19601f82011682018060405250810190612b619190614afa565b606b60009054906101000a90046001600160a01b03166001600160a01b031663eecaa1506040518163ffffffff1660e01b8152600401602060405180830381865afa158015612bb4573d6000803e3d6000fd5b505050506040513d601f19601f82011682018060405250810190612bd89190614afa565b6069546040516382ce516b60e01b8152600481018e905291909217916001600160a01b0316906382ce516b90602401602060405180830381865afa158015612c24573d6000803e3d6000fd5b505050506040513d601f19601f82011682018060405250810190612c489190614afa565b16600003612c6a576064612c5d346005614d80565b612c679190614d9f565b90505b6069546001600160a01b0316634e44cb5d612c858334614d19565b8c6040518363ffffffff1660e01b8152600401612ca491815260200190565b6000604051808303818588803b158015612cbd57600080fd5b505af1158015612cd1573d6000803e3d6000fd5b50505050506000811115612d4057606954604051634e44cb5d60e01b8152600060048201526001600160a01b0390911690634e44cb5d9083906024016000604051808303818588803b158015612d2657600080fd5b505af1158015612d3a573d6000803e3d6000fd5b50505050505b5061096e565b60408084015160695491517f61f55890000000000000000000000000000000000000000000000000000000008152600481018c905290916001600160a01b03808416926323b872dd92339216906361f5589090602401602060405180830381865afa158015612db9573d6000803e3d6000fd5b505050506040513d601f19601f82011682018060405250810190612ddd9190614c17565b8751612dee9061ffff8d1690614d80565b6040517fffffffff0000000000000000000000000000000000000000000000000000000060e086901b1681526001600160a01b03938416600482015292909116602483015260448201526064016020604051808303816000875af1158015612e5a573d6000803e3d6000fd5b505050506040513d601f19601f82011682018060405250810190612e7e9190614db3565b5050505050505050505050565b6069546040516204cd7760e41b81523360048201526000916001600160a01b031690624cd77090602401602060405180830381865afa158015612ed2573d6000803e3d6000fd5b505050506040513d601f19601f82011682018060405250810190612ef69190614afa565b60695460405163042f332160e01b81523360048201529192506000916001600160a01b039091169063042f332190602401602060405180830381865afa158015612f44573d6000803e3d6000fd5b505050506040513d601f19601f82011682018060405250810190612f689190614afa565b905060008111606b60009054906101000a90046001600160a01b03166001600160a01b0316632023c5196040518163ffffffff1660e01b8152600401600060405180830381865afa158015612fc1573d6000803e3d6000fd5b505050506040513d6000823e601f3d908101601f19168201604052612fe99190810190614baf565b906130075760405162461bcd60e51b81526004016103039190614be4565b50606b60009054906101000a90046001600160a01b03166001600160a01b031663418cb0776040518163ffffffff1660e01b8152600401602060405180830381865afa15801561305b573d6000803e3d6000fd5b505050506040513d601f19601f8201168201806040525081019061307f9190614afa565b606b60009054906101000a90046001600160a01b03166001600160a01b031663418cb0776040518163ffffffff1660e01b8152600401602060405180830381865afa1580156130d2573d6000803e3d6000fd5b505050506040513d601f19601f820116820180604052508101906130f69190614afa565b8216146131455760405162461bcd60e51b815260206004820152601660248201527f456e7469747920726571756972657320637573746f6d000000000000000000006044820152606401610303565b606a54604051636e416b6f60e01b81526004810184905288916001600160a01b031690636e416b6f90602401602060405180830381865afa15801561318e573d6000803e3d6000fd5b505050506040513d601f19601f820116820180604052508101906131b29190614afa565b11606b60009054906101000a90046001600160a01b03166001600160a01b03166379de4af56040518163ffffffff1660e01b8152600401600060405180830381865afa158015613206573d6000803e3d6000fd5b505050506040513d6000823e601f3d908101601f1916820160405261322e9190810190614baf565b9061324c5760405162461bcd60e51b81526004016103039190614be4565b50606b60009054906101000a90046001600160a01b03166001600160a01b03166381ff1caf6040518163ffffffff1660e01b8152600401602060405180830381865afa1580156132a0573d6000803e3d6000fd5b505050506040513d601f19601f820116820180604052508101906132c49190614afa565b851615806132d25750600083115b61331e5760405162461bcd60e51b815260206004820152601c60248201527f52696361726469616e20666c616720627574206e6f20706172656e74000000006044820152606401610303565b6067546040517fdfc8fff60000000000000000000000000000000000000000000000000000000081523360048201526024810184905260448101899052606481018890526084810187905260a481018590526000916001600160a01b03169063dfc8fff69060c4016020604051808303816000875af11580156133a5573d6000803e3d6000fd5b505050506040513d601f19601f820116820180604052508101906133c99190614afa565b905084156133e35760008181526066602052604090208590555b5050505050505050565b6069546040516382ce516b60e01b8152600481018690526000916001600160a01b0316906382ce516b90602401602060405180830381865afa158015613437573d6000803e3d6000fd5b505050506040513d601f19601f8201168201806040525081019061345b9190614afa565b905060008111606b60009054906101000a90046001600160a01b03166001600160a01b0316632023c5196040518163ffffffff1660e01b8152600401600060405180830381865afa1580156134b4573d6000803e3d6000fd5b505050506040513d6000823e601f3d908101601f191682016040526134dc9190810190614baf565b906134fa5760405162461bcd60e51b81526004016103039190614be4565b50606754604051637c798ab360e11b8152600481018590526000916001600160a01b03169063f8f3156690602401602060405180830381865afa158015613545573d6000803e3d6000fd5b505050506040513d601f19601f820116820180604052508101906135699190614afa565b9050600081116135ad5760405162461bcd60e51b815260206004820152600f60248201526e151bdad95b9259081a5b9d985b1a59608a1b6044820152606401610303565b6000818152606560205260409020546136085760405162461bcd60e51b815260206004820152601460248201527f4c6963656e7365206e6f7420666f722073616c650000000000000000000000006044820152606401610303565b606b60009054906101000a90046001600160a01b03166001600160a01b0316637789e6c76040518163ffffffff1660e01b8152600401602060405180830381865afa15801561365b573d6000803e3d6000fd5b505050506040513d601f19601f8201168201806040525081019061367f9190614afa565b606b60009054906101000a90046001600160a01b03166001600160a01b0316637789e6c76040518163ffffffff1660e01b8152600401602060405180830381865afa1580156136d2573d6000803e3d6000fd5b505050506040513d601f19601f820116820180604052508101906136f69190614afa565b82160361395257606b60009054906101000a90046001600160a01b03166001600160a01b031663385160ac6040518163ffffffff1660e01b8152600401602060405180830381865afa158015613750573d6000803e3d6000fd5b505050506040513d601f19601f820116820180604052508101906137749190614afa565b606b60009054906101000a90046001600160a01b03166001600160a01b0316635b25084b6040518163ffffffff1660e01b8152600401602060405180830381865afa1580156137c7573d6000803e3d6000fd5b505050506040513d601f19601f820116820180604052508101906137eb9190614afa565b8216901c15806138e05750606b5460408051630e14582b60e21b8152905142926001600160a01b03169163385160ac9160048083019260209291908290030181865afa15801561383f573d6000803e3d6000fd5b505050506040513d601f19601f820116820180604052508101906138639190614afa565b606b60009054906101000a90046001600160a01b03166001600160a01b0316635b25084b6040518163ffffffff1660e01b8152600401602060405180830381865afa1580156138b6573d6000803e3d6000fd5b505050506040513d601f19601f820116820180604052508101906138da9190614afa565b8316901c115b6139525760405162461bcd60e51b815260206004820152602160248201527f526573616c65206f662065787069726564206c6963656e736520696e76616c6960448201527f64000000000000000000000000000000000000000000000000000000000000006064820152608401610303565b8284036139a15760405162461bcd60e51b815260206004820152601460248201527f4964656e746966696572206964656e746963616c0000000000000000000000006044820152606401610303565b606b54604080517f6d102daf00000000000000000000000000000000000000000000000000000000815290516000926001600160a01b031691636d102daf9160048083019260209291908290030181865afa158015613a04573d6000803e3d6000fd5b505050506040513d601f19601f82011682018060405250810190613a289190614afa565b606b60009054906101000a90046001600160a01b03166001600160a01b0316632ffb7d286040518163ffffffff1660e01b8152600401602060405180830381865afa158015613a7b573d6000803e3d6000fd5b505050506040513d601f19601f82011682018060405250810190613a9f9190614afa565b8316901c11613af05760405162461bcd60e51b815260206004820152601560248201527f4f6c64206c6963656e7365206e6f742076616c696400000000000000000000006044820152606401610303565b606b60009054906101000a90046001600160a01b03166001600160a01b031663b7e2ba206040518163ffffffff1660e01b8152600401602060405180830381865afa158015613b43573d6000803e3d6000fd5b505050506040513d601f19601f82011682018060405250810190613b679190614afa565b811615613bb65760405162461bcd60e51b815260206004820152601060248201527f4e6f20726573616c6520726967687473000000000000000000000000000000006044820152606401610303565b606b5460408051630421c6df60e21b8152905188926001600160a01b0316916310871b7c9160048083019260209291908290030181865afa158015613bff573d6000803e3d6000fd5b505050506040513d601f19601f82011682018060405250810190613c239190614afa565b606b60009054906101000a90046001600160a01b03166001600160a01b031663d09ab7476040518163ffffffff1660e01b8152600401602060405180830381865afa158015613c76573d6000803e3d6000fd5b505050506040513d601f19601f82011682018060405250810190613c9a9190614afa565b8316901c14606b60009054906101000a90046001600160a01b03166001600160a01b0316630bd7b8f26040518163ffffffff1660e01b8152600401600060405180830381865afa158015613cf2573d6000803e3d6000fd5b505050506040513d6000823e601f3d908101601f19168201604052613d1a9190810190614baf565b90613d385760405162461bcd60e51b81526004016103039190614be4565b50606b546040805163034ef6a760e41b8152905187926001600160a01b0316916334ef6a709160048083019260209291908290030181865afa158015613d82573d6000803e3d6000fd5b505050506040513d601f19601f82011682018060405250810190613da69190614afa565b606b60009054906101000a90046001600160a01b03166001600160a01b03166361b156556040518163ffffffff1660e01b8152600401602060405180830381865afa158015613df9573d6000803e3d6000fd5b505050506040513d601f19601f82011682018060405250810190613e1d9190614afa565b8316901c14606b60009054906101000a90046001600160a01b03166001600160a01b031663db6474e66040518163ffffffff1660e01b8152600401600060405180830381865afa158015613e75573d6000803e3d6000fd5b505050506040513d6000823e601f3d908101601f19168201604052613e9d9190810190614baf565b90613ebb5760405162461bcd60e51b81526004016103039190614be4565b506067546040516331a9108f60e11b815260048101839052600091829182916001600160a01b031690636352211e90602401602060405180830381865afa158015613f0a573d6000803e3d6000fd5b505050506040513d601f19601f82011682018060405250810190613f2e9190614c17565b60695460405163042f332160e01b81526001600160a01b0380841660048301529293508392600092169063042f332190602401602060405180830381865afa158015613f7e573d6000803e3d6000fd5b505050506040513d601f19601f82011682018060405250810190613fa29190614afa565b6000878152606560205260409020549091503410156140035760405162461bcd60e51b815260206004820152600e60248201527f4e6f7420656e6f756768204554480000000000000000000000000000000000006044820152606401610303565b6067546040517f42842e0e0000000000000000000000000000000000000000000000000000000081526001600160a01b03858116600483015233602483015260448201899052909116906342842e0e90606401600060405180830381600087803b15801561407057600080fd5b505af1158015614084573d6000803e3d6000fd5b5050505060008811156140fe57606754604051633740e64160e21b815260048101889052602481018a9052600060448201526001600160a01b039091169063dd03990490606401600060405180830381600087803b1580156140e557600080fd5b505af11580156140f9573d6000803e3d6000fd5b505050505b60008681526065602090815260408083208390556066909152902054156141d65760008681526066602052604090205460641115614163576000868152606660205260409020546064906141529034614d80565b61415c9190614d9f565b9350614175565b60008681526066602052604090205493505b606954604051634e44cb5d60e01b8152600481018d90526001600160a01b0390911690634e44cb5d9086906024016000604051808303818588803b1580156141bc57600080fd5b505af11580156141d0573d6000803e3d6000fd5b50505050505b801561443c57606b60009054906101000a90046001600160a01b03166001600160a01b031663418cb0776040518163ffffffff1660e01b8152600401602060405180830381865afa15801561422f573d6000803e3d6000fd5b505050506040513d601f19601f820116820180604052508101906142539190614afa565b606b60009054906101000a90046001600160a01b03166001600160a01b031663eecaa1506040518163ffffffff1660e01b8152600401602060405180830381865afa1580156142a6573d6000803e3d6000fd5b505050506040513d601f19601f820116820180604052508101906142ca9190614afa565b1781166000036142ee5760646142e1346005614d80565b6142eb9190614d9f565b94505b841561435557606954604051634e44cb5d60e01b8152600060048201526001600160a01b0390911690634e44cb5d9087906024016000604051808303818588803b15801561433b57600080fd5b505af115801561434f573d6000803e3d6000fd5b50505050505b6069546001600160a01b0316634e44cb5d866143718734614d19565b61437b9190614d19565b6069546040516204cd7760e41b81526001600160a01b03888116600483015290911690624cd77090602401602060405180830381865afa1580156143c3573d6000803e3d6000fd5b505050506040513d601f19601f820116820180604052508101906143e79190614afa565b6040518363ffffffff1660e01b815260040161440591815260200190565b6000604051808303818588803b15801561441e57600080fd5b505af1158015614432573d6000803e3d6000fd5b5050505050612e7e565b606461444934600f614d80565b6144539190614d9f565b606954604051634e44cb5d60e01b8152600060048201529196506001600160a01b031690634e44cb5d9087906024016000604051808303818588803b15801561449b57600080fd5b505af11580156144af573d6000803e3d6000fd5b5050505050816001600160a01b03166108fc8686346144ce9190614d19565b6144d89190614d19565b6040518115909202916000818181858888f19350505050158015614500573d6000803e3d6000fd5b505050505050505050505050565b6033546001600160a01b031633146145685760405162461bcd60e51b815260206004820181905260248201527f4f776e61626c653a2063616c6c6572206973206e6f7420746865206f776e65726044820152606401610303565b6001600160a01b0381166145e45760405162461bcd60e51b815260206004820152602660248201527f4f776e61626c653a206e6577206f776e657220697320746865207a65726f206160448201527f64647265737300000000000000000000000000000000000000000000000000006064820152608401610303565b6145ed81614797565b50565b60008054610100900460ff161561468d578160ff1660011480156146135750303b155b6146855760405162461bcd60e51b815260206004820152602e60248201527f496e697469616c697a61626c653a20636f6e747261637420697320616c72656160448201527f647920696e697469616c697a65640000000000000000000000000000000000006064820152608401610303565b506000919050565b60005460ff80841691161061470a5760405162461bcd60e51b815260206004820152602e60248201527f496e697469616c697a61626c653a20636f6e747261637420697320616c72656160448201527f647920696e697469616c697a65640000000000000000000000000000000000006064820152608401610303565b506000805460ff191660ff92909216919091179055600190565b600054610100900460ff1661478f5760405162461bcd60e51b815260206004820152602b60248201527f496e697469616c697a61626c653a20636f6e7472616374206973206e6f74206960448201526a6e697469616c697a696e6760a81b6064820152608401610303565b610aba6147f6565b603380546001600160a01b0383811673ffffffffffffffffffffffffffffffffffffffff19831681179093556040519116919082907f8be0079c531659141344cd1fd0a4f28419497f9722a3daafe3b4186f6b6457e090600090a35050565b600054610100900460ff166148615760405162461bcd60e51b815260206004820152602b60248201527f496e697469616c697a61626c653a20636f6e7472616374206973206e6f74206960448201526a6e697469616c697a696e6760a81b6064820152608401610303565b610aba33614797565b6000806000806080858703121561488057600080fd5b5050823594602084013594506040840135936060013592509050565b6001600160a01b03811681146145ed57600080fd5b600080600080600060a086880312156148c957600080fd5b85356148d48161489c565b945060208601356148e48161489c565b935060408601356148f48161489c565b925060608601356149048161489c565b915060808601356149148161489c565b809150509295509295909350565b60006020828403121561493457600080fd5b5035919050565b634e487b7160e01b600052604160045260246000fd5b604051601f8201601f1916810167ffffffffffffffff8111828210171561497a5761497a61493b565b604052919050565b600082601f83011261499357600080fd5b8135602067ffffffffffffffff8211156149af576149af61493b565b8160051b6149be828201614951565b92835284810182019282810190878511156149d857600080fd5b83870192505b848310156149f7578235825291830191908301906149de565b979650505050505050565b60008060008060008060c08789031215614a1b57600080fd5b863595506020870135945060408701359350606087013561ffff81168114614a4257600080fd5b9250608087013567ffffffffffffffff80821115614a5f57600080fd5b614a6b8a838b01614982565b935060a0890135915080821115614a8157600080fd5b50614a8e89828a01614982565b9150509295509295509295565b600080600080600060a08688031215614ab357600080fd5b505083359560208501359550604085013594606081013594506080013592509050565b600060208284031215614ae857600080fd5b8135614af38161489c565b9392505050565b600060208284031215614b0c57600080fd5b5051919050565b60005b83811015614b2e578181015183820152602001614b16565b83811115614b3d576000848401525b50505050565b600082601f830112614b5457600080fd5b815167ffffffffffffffff811115614b6e57614b6e61493b565b614b81601f8201601f1916602001614951565b818152846020838601011115614b9657600080fd5b614ba7826020830160208701614b13565b949350505050565b600060208284031215614bc157600080fd5b815167ffffffffffffffff811115614bd857600080fd5b614ba784828501614b43565b6020815260008251806020840152614c03816040850160208701614b13565b601f01601f19169190910160400192915050565b600060208284031215614c2957600080fd5b8151614af38161489c565b60008060008060008060c08789031215614c4d57600080fd5b8651614c588161489c565b809650506020870151945060408701519350606087015167ffffffffffffffff811115614c8457600080fd5b614c9089828a01614b43565b9350506080870151915060a087015190509295509295509295565b634e487b7160e01b600052601160045260246000fd5b600061ffff80831681851681830481118215151615614ce257614ce2614cab565b02949350505050565b60008219821115614cfe57614cfe614cab565b500190565b634e487b7160e01b600052603260045260246000fd5b600082821015614d2b57614d2b614cab565b500390565b600060018201614d4257614d42614cab565b5060010190565b634e487b7160e01b600052601260045260246000fd5b600061ffff80841680614d7457614d74614d49565b92169190910492915050565b6000816000190483118215151615614d9a57614d9a614cab565b500290565b600082614dae57614dae614d49565b500490565b600060208284031215614dc557600080fd5b81518015158114614af357600080fdfea2646970667358221220bd7c834e67aa190d6b52c302ed746265cc8494c539d0e408fc9bd5af53082a6264736f6c634300080e0033",
  "immutableReferences": {},
  "source": "pragma solidity >=0.7.6;\r\n\r\n// SPDX-License-Identifier: GPL-3.0-or-later\r\n\r\nimport \"./StringCommon.sol\";\r\nimport \"./ImmutableEntity.sol\";\r\nimport \"./ProductActivate.sol\";\r\nimport \"./CreatorToken.sol\";\r\nimport \"./ActivateToken.sol\";\r\n\r\n// OpenZepellin upgradable contracts\r\nimport \"@openzeppelin/contracts-upgradeable/proxy/utils/Initializable.sol\";\r\nimport \"@openzeppelin/contracts-upgradeable/access/OwnableUpgradeable.sol\";\r\nimport \"@openzeppelin/contracts-upgradeable/token/ERC721/extensions/ERC721BurnableUpgradeable.sol\";\r\nimport \"@openzeppelin/contracts-upgradeable/token/ERC721/extensions/ERC721EnumerableUpgradeable.sol\";\r\nimport \"@openzeppelin/contracts-upgradeable/token/ERC20/IERC20Upgradeable.sol\";\r\n\r\n/*\r\n// OpenZepellin standard contracts\r\n//import \"@openzeppelin/contracts/proxy/utils/Initializable.sol\";\r\nimport \"@openzeppelin/contracts/access/Ownable.sol\";\r\nimport \"@openzeppelin/contracts/token/ERC721/extensions/ERC721Burnable.sol\";\r\nimport \"@openzeppelin/contracts/token/ERC721/extensions/ERC721Enumerable.sol\";\r\nimport \"@openzeppelin/contracts/token/ERC20/IERC20.sol\";\r\n*/\r\n\r\n// OpenZepellin upgradable contracts\r\ncontract ProductActivate is Initializable, OwnableUpgradeable\r\n/*\r\n// OpenZepellin standard contracts\r\ncontract ProductActivate is Ownable\r\n*/\r\n{\r\n  mapping (uint256 => uint256) private TokenIdToOfferPrice;\r\n  mapping (uint256 => uint256) private TransferSurcharge;\r\n\r\n  ActivateToken private activateTokenInterface;\r\n  CreatorToken private creatorTokenInterface;\r\n  ImmutableEntity private entityInterface;\r\n  ImmutableProduct private productInterface;\r\n  StringCommon private commonInterface;\r\n\r\n  /// @notice Initialize the ProductActivate smart contract\r\n  ///   Called during first deployment only (not on upgrade) as\r\n  ///   this is an OpenZepellin upgradable contract\r\n  /// @param commonAddr The StringCommon contract address\r\n  /// @param entityContractAddr The ImmutableEntity token contract address\r\n  /// @param productContractAddr The ImmutableProduct token contract address\r\n  /// @param activateTokenAddr The ActivateToken token contract address\r\n  /// @param creatorTokenAddr The CreatorToken token contract address\r\n  function initialize(address commonAddr, address entityContractAddr,\r\n                      address productContractAddr, address activateTokenAddr,\r\n                      address creatorTokenAddr)\r\n    public initializer\r\n  {\r\n    __Ownable_init();\r\n\r\n/*\r\n  // OpenZepellin standard contracts\r\n  constructor(address commonAddr, address entityContractAddr,\r\n              address productContractAddr, address activateTokenAddr,\r\n              address creatorTokenAddr)\r\n                                           Ownable()\r\n  {\r\n*/\r\n    // Initialize the contract interfaces\r\n    commonInterface = StringCommon(commonAddr);\r\n    entityInterface = ImmutableEntity(entityContractAddr);\r\n    productInterface = ImmutableProduct(productContractAddr);\r\n    activateTokenInterface = ActivateToken(activateTokenAddr);\r\n    creatorTokenInterface = CreatorToken(creatorTokenAddr);\r\n  }\r\n\r\n  ///////////////////////////////////////////////////////////\r\n  /// PRODUCT ACTIVATE LICENSE\r\n  ///////////////////////////////////////////////////////////\r\n\r\n  /// @notice Create manual product activation license for end user.\r\n  /// mes.sender must own the entity and product.\r\n  /// Costs 1 IuT token if sender not registered as automatic\r\n  /// @param productIndex The specific ID of the product\r\n  /// @param licenseHash the activation license hash from end user\r\n  /// @param licenseValue the value of the license\r\n  /// @param transferSurcharge the additional cost/surcharge to transfer\r\n  /// @param ricardianParent The Ricardian contract parent (if any)\r\n  function activateCreate(uint256 productIndex, uint256 licenseHash,\r\n                          uint256 licenseValue, uint256 transferSurcharge,\r\n                          uint256 ricardianParent)\r\n    external\r\n  {\r\n    uint256 entityIndex = entityInterface.entityAddressToIndex(msg.sender);\r\n    // Only a validated commercial entity can create an offer\r\n    uint256 entityStatus = entityInterface.entityAddressStatus(msg.sender);\r\n    require(entityStatus > 0, commonInterface.EntityNotValidated());\r\n    require((entityStatus & commonInterface.CustomToken()) == commonInterface.CustomToken(),\r\n            \"Entity requires custom\");\r\n    require(productInterface.productNumberOf(entityIndex) > productIndex,\r\n            commonInterface.ProductNotFound());\r\n    require((((licenseValue & commonInterface.RicardianReqFlag()) == 0) ||\r\n             (ricardianParent > 0)), \"Ricardian flag but no parent\");\r\n\r\n    uint256 tokenId = activateTokenInterface.mint(msg.sender, entityIndex, productIndex,\r\n                          licenseHash, licenseValue, ricardianParent);\r\n    if (transferSurcharge > 0)\r\n      TransferSurcharge[tokenId] = transferSurcharge;\r\n  }\r\n\r\n  struct ActivationOffer\r\n  {\r\n    uint256 priceInTokens;\r\n    uint256 value;\r\n    address erc20token;\r\n    string infoUrl;\r\n    uint256 transferSurcharge;\r\n    uint256 ricardianParent;\r\n  }\r\n\r\n\r\n  /// @notice Purchase a digital product activation license.\r\n  /// mes.sender is the purchaser.\r\n  /// @param entityIndex The entity offering the product license\r\n  /// @param productIndex The specific ID of the product\r\n  /// @param offerIndex the product activation offer to purchase\r\n  /// @param numPurchases the number of offers to purchase\r\n  /// @param licenseHashes Array of end user identifiers to activate\r\n  /// @param ricardianClients Array of end client agreement contracts\r\n  function activatePurchase(uint256 entityIndex, uint256 productIndex,\r\n                            uint256 offerIndex, uint16 numPurchases,\r\n                            uint256[] memory licenseHashes,\r\n                            uint256[] memory ricardianClients)\r\n    external payable\r\n  {\r\n    // Ensure vendor is registered and product exists\r\n    require(entityInterface.entityIndexStatus(entityIndex) > 0,\r\n            commonInterface.EntityNotValidated());\r\n    require(productInterface.productNumberOf(entityIndex) > productIndex,\r\n            commonInterface.ProductNotFound());\r\n    ActivationOffer memory theOffer;\r\n\r\n    (theOffer.erc20token, theOffer.priceInTokens, theOffer.value,\r\n     theOffer.infoUrl, theOffer.transferSurcharge, theOffer.ricardianParent) =\r\n      productInterface.productOfferDetails(entityIndex, productIndex, offerIndex);\r\n    require(theOffer.priceInTokens > 0, commonInterface.OfferNotFound());\r\n    require(numPurchases > 0, \"Invalid num purchases\");\r\n\r\n    uint256 theDuration = ((theOffer.value & commonInterface.ExpirationMask()) >> commonInterface.ExpirationOffset());\r\n    uint256 tokenId;\r\n\r\n    // If a bulk offer purchased, create multiples of tokens\r\n    if ((theOffer.value & commonInterface.BulkOffersFlag()) > 0)\r\n      numPurchases *= (uint16)((theOffer.value & commonInterface.UniqueIdMask()) >> commonInterface.UniqueIdOffset());\r\n\r\n    // Purchase all the activation licenses\r\n    for (uint i = 0; i < numPurchases; ++i)\r\n    {\r\n      // If expiration then update tokenId to include new expiration\r\n      //  First clear then set expiration based on duration and now\r\n      if ((theDuration > 0) && ((theOffer.value & commonInterface.ExpirationFlag()) > 0))\r\n      {\r\n        theOffer.value &= ~commonInterface.ExpirationMask();\r\n        theOffer.value |= ((theDuration + block.timestamp) << commonInterface.ExpirationOffset()) & commonInterface.ExpirationMask();\r\n      }\r\n\r\n      // Check that ricardian client matches the offer's parent\r\n      if (theOffer.ricardianParent > 0)\r\n      {\r\n        require(ricardianClients[i] > 0, \"Client required\");\r\n        uint parentDepth = creatorTokenInterface.creatorParentOf(\r\n                        ricardianClients[i], theOffer.ricardianParent);\r\n        require(parentDepth > 0, \"Parent not found\");\r\n      }\r\n      else\r\n        require(ricardianClients[i] == 0, \"Client not allowed\");\r\n\r\n      // Check if this is a renewal (hash exists)\r\n      if (activateTokenInterface.activateIdToTokenId(licenseHashes[i]) > 0)\r\n      {\r\n        // Look up tokenId from the old activation hash\r\n        tokenId = activateTokenInterface.activateIdToTokenId(licenseHashes[i]);\r\n\r\n        // Require that caller (msg.sender) is the owner\r\n        require(activateTokenInterface.ownerOf(tokenId) == msg.sender, \"Not token owner\");\r\n\r\n        // Require entity/product id's, flags and limitations match the token\r\n        require((tokenId & (commonInterface.EntityIdMask() | commonInterface.ProductIdMask() | commonInterface.FlagsMask() | commonInterface.ValueMask())) ==\r\n                ((entityIndex << commonInterface.EntityIdOffset()) | (productIndex << commonInterface.ProductIdOffset()) |\r\n                (theOffer.value & (commonInterface.FlagsMask() | commonInterface.ValueMask()))),\r\n                \"Token does not match offer\");\r\n\r\n        // Extend time duration by whatever was remaining, if any\r\n        if (((theDuration > 0) && ((theOffer.value & commonInterface.ExpirationFlag()) > 0)) &&\r\n            (((tokenId & commonInterface.ExpirationMask()) >> commonInterface.ExpirationOffset()) > block.timestamp))\r\n        {\r\n          theDuration += ((tokenId & commonInterface.ExpirationMask()) >> commonInterface.ExpirationOffset()) - block.timestamp;\r\n          theOffer.value &= ~commonInterface.ExpirationMask();\r\n          theOffer.value |= ((theDuration + block.timestamp) << commonInterface.ExpirationOffset()) & commonInterface.ExpirationMask();\r\n        }\r\n\r\n        // burn the old token\r\n        activateTokenInterface.burn(tokenId);\r\n      }\r\n\r\n      // If a limited amount of offers, inform product offer of purchase\r\n      if ((theOffer.value & commonInterface.LimitedOffersFlag()) > 0)\r\n        productInterface.productOfferPurchased(entityIndex,\r\n                                               productIndex, offerIndex);\r\n\r\n      // Create a new ERC721 activate token for the sender\r\n      tokenId = activateTokenInterface.mint(msg.sender, entityIndex, productIndex,\r\n                                  licenseHashes[i], theOffer.value,\r\n          ((theOffer.value & commonInterface.RicardianReqFlag()) > 0) ?\r\n                                  theOffer.ricardianParent : 0);\r\n      if (theOffer.transferSurcharge > 0)\r\n        TransferSurcharge[tokenId] = theOffer.transferSurcharge;\r\n    }\r\n\r\n    // If a bulk offer purchased, divide back to original # of tokens\r\n    if ((theOffer.value & commonInterface.BulkOffersFlag()) > 0)\r\n      numPurchases /= (uint16)((theOffer.value & commonInterface.UniqueIdMask()) >> commonInterface.UniqueIdOffset());\r\n\r\n    // If purchase offer is not a token, transfer ETH\r\n    if (theOffer.erc20token == address(0))\r\n    {\r\n      uint256 feeAmount = 0;\r\n      require(msg.value >= theOffer.priceInTokens * numPurchases, \"Not enough ETH\");\r\n\r\n      // If entity is manual (pay as you go) add fee of 5%\r\n      if ((entityInterface.entityIndexStatus(entityIndex) &\r\n          (commonInterface.Automatic() | commonInterface.CustomToken()))\r\n           == 0)\r\n        feeAmount = (msg.value * 5) / 100;\r\n\r\n      // Transfer the ETH to the entity bank address\r\n      entityInterface.entityPay{value: msg.value - feeAmount}\r\n                                    (entityIndex);\r\n\r\n      // Move fee, if any, into ImmutableSoft bank account\r\n      if (feeAmount > 0)\r\n        entityInterface.entityPay{value: feeAmount }(0);\r\n    }\r\n\r\n    // Otherwise the purchase is an exchange of ERC20 tokens\r\n    else\r\n    {\r\n      IERC20Upgradeable erc20TokenInterface = IERC20Upgradeable(theOffer.erc20token);\r\n\r\n      // Transfer tokens to the sender and revert if failure\r\n      erc20TokenInterface.transferFrom(msg.sender, entityInterface.\r\n          entityIndexToAddress(entityIndex), theOffer.priceInTokens * numPurchases);\r\n    }\r\n  }\r\n\r\n  /// @notice Move a digital product activation license.\r\n  /// mes.sender must be the activation license owner.\r\n  /// @param entityIndex The entity who owns the product\r\n  /// @param productIndex The specific ID of the product\r\n  /// @param oldLicenseHash the existing activation identifier\r\n  /// @param newLicenseHash the new activation identifier\r\n  function activateMove(uint256 entityIndex,\r\n                        uint256 productIndex,\r\n                        uint256 oldLicenseHash,\r\n                        uint256 newLicenseHash)\r\n    external\r\n  {\r\n    // Ensure vendor is registered and product exists\r\n    require(entityInterface.entityIndexStatus(entityIndex) > 0, commonInterface.EntityNotValidated());\r\n    uint256 tokenId;\r\n\r\n    // Look up tokenId from the old activation hash\r\n    tokenId = activateTokenInterface.activateIdToTokenId(oldLicenseHash);\r\n    require(tokenId > 0, \"TokenId invalid\");\r\n\r\n    // Ensure sender is the token owner\r\n    require(msg.sender == activateTokenInterface.ownerOf(tokenId), \"Sender is not owner\");\r\n\r\n    // Require the entity and product id's match the token\r\n    require((tokenId & commonInterface.EntityIdMask()) >> commonInterface.EntityIdOffset() == entityIndex, commonInterface.TokenEntityNoMatch());\r\n    require((tokenId & commonInterface.ProductIdMask()) >> commonInterface.ProductIdOffset() == productIndex, commonInterface.TokenProductNoMatch());\r\n\r\n    // Require the hash matches the token and new one is different\r\n    require(activateTokenInterface.tokenIdToActivateId(tokenId) == oldLicenseHash, \"Activate hash mismatch\");\r\n    require(activateTokenInterface.tokenIdToActivateId(tokenId) != newLicenseHash, \"New hash must differ\");\r\n\r\n    // Move/Change the activation hash stored in the token\r\n    activateTokenInterface.activateTokenMoveHash(tokenId,\r\n                                       newLicenseHash, oldLicenseHash);\r\n  }\r\n\r\n  /// @notice Offer a digital product license for resale.\r\n  /// mes.sender must own the activation license.\r\n  /// @param entityIndex The entity who owns the product\r\n  /// @param productIndex The specific ID of the product\r\n  /// @param licenseHash the existing activation identifier\r\n  /// @param priceInEth The ETH cost to purchase license\r\n  /// @return the tokenId of the activation offered for resale\r\n  function activateOfferResale(uint256 entityIndex, uint256 productIndex,\r\n                               uint256 licenseHash, uint256 priceInEth)\r\n    external returns (uint256)\r\n  {\r\n    // Ensure vendor is registered and product exists\r\n    uint256 entityStatus = entityInterface.entityIndexStatus(entityIndex);\r\n    require(entityStatus > 0, commonInterface.EntityNotValidated());\r\n    uint256 tokenId;\r\n\r\n    // Look up tokenId from the activation hash\r\n    tokenId = activateTokenInterface.activateIdToTokenId(licenseHash);\r\n    require(tokenId > 0, \"TokenId invalid\");\r\n    require(msg.sender == activateTokenInterface.ownerOf(tokenId), \"Sender is not owner\");\r\n\r\n    // Require the entity and product id's match the token\r\n    require((tokenId & commonInterface.EntityIdMask()) >> commonInterface.EntityIdOffset() == entityIndex, commonInterface.TokenEntityNoMatch());\r\n    require((tokenId & commonInterface.ProductIdMask()) >> commonInterface.ProductIdOffset() == productIndex, commonInterface.TokenProductNoMatch());\r\n    require((tokenId & commonInterface.NoResaleFlag()) == 0, \"No resale rights\");\r\n\r\n    // Set activation to \"for sale\"\r\n    TokenIdToOfferPrice[tokenId] = priceInEth;\r\n    return tokenId;\r\n  }\r\n\r\n  /// @notice Transfer/Resell a digital product activation license.\r\n  /// License must be 'for sale' and msg.sender is new owner.\r\n  /// @param entityIndex The entity who owns the product\r\n  /// @param productIndex The specific ID of the product\r\n  /// @param licenseHash the existing activation identifier to purchase\r\n  /// @param newLicenseHash the new activation identifier after purchase\r\n  function activateTransfer(uint256 entityIndex,\r\n                            uint256 productIndex,\r\n                            uint256 licenseHash,\r\n                            uint256 newLicenseHash)\r\n    external payable\r\n  {\r\n    // Ensure vendor is registered and product exists\r\n    uint256 entityStatus = entityInterface.entityIndexStatus(entityIndex);\r\n    require(entityStatus > 0, commonInterface.EntityNotValidated());\r\n\r\n    uint256 tokenId;\r\n\r\n    // Look up tokenId from the old activation hash\r\n    tokenId = activateTokenInterface.activateIdToTokenId(licenseHash);\r\n    require(tokenId > 0, \"TokenId invalid\");\r\n\r\n    // Require the license is offered for sale and price valid\r\n    require(TokenIdToOfferPrice[tokenId] > 0, \"License not for sale\");\r\n    if ((tokenId & commonInterface.ExpirationFlag()) == commonInterface.ExpirationFlag())\r\n      require((((tokenId & commonInterface.ExpirationMask()) >> commonInterface.ExpirationOffset()) == 0) ||\r\n              (((tokenId & commonInterface.ExpirationMask()) >> commonInterface.ExpirationOffset()) > block.timestamp), \"Resale of expired license invalid\");\r\n\r\n    // Ensure new identifier is different from current\r\n    require(licenseHash != newLicenseHash, \"Identifier identical\");\r\n\r\n    // Get the old activation license falgs and ensure it is valid\r\n    require(((tokenId & commonInterface.FlagsMask()) >> commonInterface.FlagsOffset()) > 0, \"Old license not valid\");\r\n    require((tokenId & commonInterface.NoResaleFlag()) == 0, \"No resale rights\");\r\n\r\n    // Require the entity and product id's match the token\r\n    require((tokenId & commonInterface.EntityIdMask()) >> commonInterface.EntityIdOffset() == entityIndex, commonInterface.TokenEntityNoMatch());\r\n    require((tokenId & commonInterface.ProductIdMask()) >> commonInterface.ProductIdOffset() == productIndex, commonInterface.TokenProductNoMatch());\r\n\r\n    // Look up the license owner and their entity status\r\n    uint256 fee = 0;\r\n    uint256 surcharge = 0;\r\n    address licenseOwner = activateTokenInterface.ownerOf(tokenId);\r\n    address payable payableOwner = payable(licenseOwner);\r\n    uint256 ownerStatus = entityInterface.entityAddressStatus(licenseOwner);\r\n\r\n    require(msg.value >= TokenIdToOfferPrice[tokenId], \"Not enough ETH\");\r\n\r\n    // Transfer the activate token and update to the new owner\r\n    activateTokenInterface.safeTransferFrom(licenseOwner,\r\n                                            msg.sender, tokenId);\r\n\r\n    // Update to the new activation identifier (if any)\r\n    if (newLicenseHash > 0)\r\n      activateTokenInterface.activateTokenMoveHash(tokenId, newLicenseHash, 0);\r\n\r\n    // Clear offer price so the token is no longer listed for sale\r\n    TokenIdToOfferPrice[tokenId] = 0;\r\n\r\n    // Transfer any surcharge to original creator if required\r\n    if (TransferSurcharge[tokenId] > 0)\r\n    {\r\n      // If less than 100 it is a percentage\r\n      if (TransferSurcharge[tokenId] < 100)\r\n        surcharge = ((msg.value * TransferSurcharge[tokenId]) / 100);\r\n      else\r\n        surcharge = TransferSurcharge[tokenId];\r\n      \r\n      entityInterface.entityPay{value: surcharge}(entityIndex);\r\n    }\r\n\r\n    // If activation owner is registered, use lower fee if any\r\n    //   Any additional ETH is a \"tip\" to creator\r\n    if (ownerStatus > 0)\r\n    {\r\n      if ((ownerStatus & (commonInterface.Automatic() |\r\n                          commonInterface.CustomToken())) == 0)\r\n        fee = (msg.value * 5) / 100;\r\n\r\n      // Move fee, if any, into ImmutableSoft bank account\r\n      if (fee > 0)\r\n        entityInterface.entityPay{value: fee }(0);\r\n\r\n      // Transfer the ETH payment to the registered bank\r\n      entityInterface.entityPay{value: msg.value - surcharge - fee}\r\n               (entityInterface.entityAddressToIndex(licenseOwner));\r\n    }\r\n\r\n    // Otherwise an unregistered resale has a 15% fee\r\n    else\r\n    {\r\n      fee = (msg.value * 15) / 100;\r\n\r\n      // Transfer fee to ImmutableSoft\r\n      entityInterface.entityPay{value: fee }(0);\r\n\r\n      // Transfer ETH funds minus the fee if any\r\n      payableOwner.transfer(msg.value - surcharge - fee);\r\n    }\r\n  }\r\n\r\n  /// @notice Query activate token offer price\r\n  /// @param tokenId The activate token identifier\r\n  /// @return The price of the token if for sale\r\n  function activateTokenIdToOfferPrice(uint256 tokenId)\r\n    external view returns (uint256)\r\n  {\r\n    return TokenIdToOfferPrice[tokenId];\r\n  }\r\n\r\n}\r\n",
  "sourcePath": "C:\\Users\\slawl\\Source\\github\\ImmutableEcosystem\\contracts\\ProductActivate.sol",
  "compiler": {
    "name": "solc",
    "version": "0.8.14+commit.80d49f37.Emscripten.clang"
  },
  "schemaVersion": "3.4.16",
  "updatedAt": "2024-01-20T00:17:24.791Z",
  "devdoc": {
    "kind": "dev",
    "methods": {
      "activateCreate(uint256,uint256,uint256,uint256,uint256)": {
        "params": {
          "licenseHash": "the activation license hash from end user",
          "licenseValue": "the value of the license",
          "productIndex": "The specific ID of the product",
          "ricardianParent": "The Ricardian contract parent (if any)",
          "transferSurcharge": "the additional cost/surcharge to transfer"
        }
      },
      "activateMove(uint256,uint256,uint256,uint256)": {
        "params": {
          "entityIndex": "The entity who owns the product",
          "newLicenseHash": "the new activation identifier",
          "oldLicenseHash": "the existing activation identifier",
          "productIndex": "The specific ID of the product"
        }
      },
      "activateOfferResale(uint256,uint256,uint256,uint256)": {
        "params": {
          "entityIndex": "The entity who owns the product",
          "licenseHash": "the existing activation identifier",
          "priceInEth": "The ETH cost to purchase license",
          "productIndex": "The specific ID of the product"
        },
        "returns": {
          "_0": "the tokenId of the activation offered for resale"
        }
      },
      "activatePurchase(uint256,uint256,uint256,uint16,uint256[],uint256[])": {
        "params": {
          "entityIndex": "The entity offering the product license",
          "licenseHashes": "Array of end user identifiers to activate",
          "numPurchases": "the number of offers to purchase",
          "offerIndex": "the product activation offer to purchase",
          "productIndex": "The specific ID of the product",
          "ricardianClients": "Array of end client agreement contracts"
        }
      },
      "activateTokenIdToOfferPrice(uint256)": {
        "params": {
          "tokenId": "The activate token identifier"
        },
        "returns": {
          "_0": "The price of the token if for sale"
        }
      },
      "activateTransfer(uint256,uint256,uint256,uint256)": {
        "params": {
          "entityIndex": "The entity who owns the product",
          "licenseHash": "the existing activation identifier to purchase",
          "newLicenseHash": "the new activation identifier after purchase",
          "productIndex": "The specific ID of the product"
        }
      },
      "initialize(address,address,address,address,address)": {
        "params": {
          "activateTokenAddr": "The ActivateToken token contract address",
          "commonAddr": "The StringCommon contract address",
          "creatorTokenAddr": "The CreatorToken token contract address",
          "entityContractAddr": "The ImmutableEntity token contract address",
          "productContractAddr": "The ImmutableProduct token contract address"
        }
      },
      "owner()": {
        "details": "Returns the address of the current owner."
      },
      "renounceOwnership()": {
        "details": "Leaves the contract without owner. It will not be possible to call `onlyOwner` functions anymore. Can only be called by the current owner. NOTE: Renouncing ownership will leave the contract without an owner, thereby removing any functionality that is only available to the owner."
      },
      "transferOwnership(address)": {
        "details": "Transfers ownership of the contract to a new account (`newOwner`). Can only be called by the current owner."
      }
    },
    "version": 1
  },
  "userdoc": {
    "kind": "user",
    "methods": {
      "activateCreate(uint256,uint256,uint256,uint256,uint256)": {
        "notice": "Create manual product activation license for end user. mes.sender must own the entity and product. Costs 1 IuT token if sender not registered as automatic"
      },
      "activateMove(uint256,uint256,uint256,uint256)": {
        "notice": "Move a digital product activation license. mes.sender must be the activation license owner."
      },
      "activateOfferResale(uint256,uint256,uint256,uint256)": {
        "notice": "Offer a digital product license for resale. mes.sender must own the activation license."
      },
      "activatePurchase(uint256,uint256,uint256,uint16,uint256[],uint256[])": {
        "notice": "Purchase a digital product activation license. mes.sender is the purchaser."
      },
      "activateTokenIdToOfferPrice(uint256)": {
        "notice": "Query activate token offer price"
      },
      "activateTransfer(uint256,uint256,uint256,uint256)": {
        "notice": "Transfer/Resell a digital product activation license. License must be 'for sale' and msg.sender is new owner."
      },
      "initialize(address,address,address,address,address)": {
        "notice": "Initialize the ProductActivate smart contract   Called during first deployment only (not on upgrade) as   this is an OpenZepellin upgradable contract"
      }
    },
    "version": 1
  }
}