{
  "contractName": "ProductActivate",
  "abi": [
    {
      "anonymous": false,
      "inputs": [
        {
          "indexed": true,
          "internalType": "address",
          "name": "previousOwner",
          "type": "address"
        },
        {
          "indexed": true,
          "internalType": "address",
          "name": "newOwner",
          "type": "address"
        }
      ],
      "name": "OwnershipTransferred",
      "type": "event"
    },
    {
      "inputs": [],
      "name": "owner",
      "outputs": [
        {
          "internalType": "address",
          "name": "",
          "type": "address"
        }
      ],
      "stateMutability": "view",
      "type": "function"
    },
    {
      "inputs": [],
      "name": "renounceOwnership",
      "outputs": [],
      "stateMutability": "nonpayable",
      "type": "function"
    },
    {
      "inputs": [
        {
          "internalType": "address",
          "name": "newOwner",
          "type": "address"
        }
      ],
      "name": "transferOwnership",
      "outputs": [],
      "stateMutability": "nonpayable",
      "type": "function"
    },
    {
      "inputs": [
        {
          "internalType": "address",
          "name": "commonAddr",
          "type": "address"
        },
        {
          "internalType": "address",
          "name": "entityContractAddr",
          "type": "address"
        },
        {
          "internalType": "address",
          "name": "productContractAddr",
          "type": "address"
        },
        {
          "internalType": "address",
          "name": "activateTokenAddr",
          "type": "address"
        },
        {
          "internalType": "address",
          "name": "creatorTokenAddr",
          "type": "address"
        }
      ],
      "name": "initialize",
      "outputs": [],
      "stateMutability": "nonpayable",
      "type": "function"
    },
    {
      "inputs": [
        {
          "internalType": "uint256",
          "name": "productIndex",
          "type": "uint256"
        },
        {
          "internalType": "uint256",
          "name": "licenseHash",
          "type": "uint256"
        },
        {
          "internalType": "uint256",
          "name": "licenseValue",
          "type": "uint256"
        },
        {
          "internalType": "uint256",
          "name": "transferSurcharge",
          "type": "uint256"
        },
        {
          "internalType": "uint256",
          "name": "ricardianParent",
          "type": "uint256"
        }
      ],
      "name": "activateCreate",
      "outputs": [],
      "stateMutability": "nonpayable",
      "type": "function"
    },
    {
      "inputs": [
        {
          "internalType": "uint256",
          "name": "entityIndex",
          "type": "uint256"
        },
        {
          "internalType": "uint256",
          "name": "productIndex",
          "type": "uint256"
        },
        {
          "internalType": "uint256",
          "name": "offerIndex",
          "type": "uint256"
        },
        {
          "internalType": "uint16",
          "name": "numPurchases",
          "type": "uint16"
        },
        {
          "internalType": "uint256[]",
          "name": "licenseHashes",
          "type": "uint256[]"
        },
        {
          "internalType": "uint256[]",
          "name": "ricardianClients",
          "type": "uint256[]"
        }
      ],
      "name": "activatePurchase",
      "outputs": [],
      "stateMutability": "payable",
      "type": "function"
    },
    {
      "inputs": [
        {
          "internalType": "uint256",
          "name": "entityIndex",
          "type": "uint256"
        },
        {
          "internalType": "uint256",
          "name": "productIndex",
          "type": "uint256"
        },
        {
          "internalType": "uint256",
          "name": "oldLicenseHash",
          "type": "uint256"
        },
        {
          "internalType": "uint256",
          "name": "newLicenseHash",
          "type": "uint256"
        }
      ],
      "name": "activateMove",
      "outputs": [],
      "stateMutability": "nonpayable",
      "type": "function"
    },
    {
      "inputs": [
        {
          "internalType": "uint256",
          "name": "entityIndex",
          "type": "uint256"
        },
        {
          "internalType": "uint256",
          "name": "productIndex",
          "type": "uint256"
        },
        {
          "internalType": "uint256",
          "name": "licenseHash",
          "type": "uint256"
        },
        {
          "internalType": "uint256",
          "name": "priceInEth",
          "type": "uint256"
        }
      ],
      "name": "activateOfferResale",
      "outputs": [
        {
          "internalType": "uint256",
          "name": "",
          "type": "uint256"
        }
      ],
      "stateMutability": "nonpayable",
      "type": "function"
    },
    {
      "inputs": [
        {
          "internalType": "uint256",
          "name": "entityIndex",
          "type": "uint256"
        },
        {
          "internalType": "uint256",
          "name": "productIndex",
          "type": "uint256"
        },
        {
          "internalType": "uint256",
          "name": "licenseHash",
          "type": "uint256"
        },
        {
          "internalType": "uint256",
          "name": "newLicenseHash",
          "type": "uint256"
        }
      ],
      "name": "activateTransfer",
      "outputs": [],
      "stateMutability": "payable",
      "type": "function"
    },
    {
      "inputs": [
        {
          "internalType": "uint256",
          "name": "tokenId",
          "type": "uint256"
        }
      ],
      "name": "activateTokenIdToOfferPrice",
      "outputs": [
        {
          "internalType": "uint256",
          "name": "",
          "type": "uint256"
        }
      ],
      "stateMutability": "view",
      "type": "function"
    }
  ],
  "bytecode": "0x608060405234801561001057600080fd5b50614f1d806100206000396000f3fe6080604052600436106100b15760003560e01c80638da5cb5b11610069578063ccc24fcf1161004e578063ccc24fcf146101a8578063db6232c5146101c8578063f2fde38b146101db57600080fd5b80638da5cb5b1461016d578063a8d294f21461019557600080fd5b80631b4b20b41161009a5780631b4b20b4146100f8578063715018a6146101385780638534648d1461014d57600080fd5b806307f734ad146100b65780631459457a146100d8575b600080fd5b3480156100c257600080fd5b506100d66100d136600461497a565b6101fb565b005b3480156100e457600080fd5b506100d66100f33660046149c1565b6109d3565b34801561010457600080fd5b50610125610113366004614a32565b60009081526065602052604090205490565b6040519081526020015b60405180910390f35b34801561014457600080fd5b506100d6610b50565b34801561015957600080fd5b5061012561016836600461497a565b610bb6565b34801561017957600080fd5b506033546040516001600160a01b03909116815260200161012f565b6100d66101a3366004614b12565b61123d565b3480156101b457600080fd5b506100d66101c3366004614bab565b61300d565b6100d66101d636600461497a565b6135ba565b3480156101e757600080fd5b506100d66101f6366004614be6565b614723565b6069546040516382ce516b60e01b8152600481018690526000916001600160a01b0316906382ce516b90602401602060405180830381865afa158015610245573d6000803e3d6000fd5b505050506040513d601f19601f820116820180604052508101906102699190614c0a565b11606b60009054906101000a90046001600160a01b03166001600160a01b0316632023c5196040518163ffffffff1660e01b8152600401600060405180830381865afa1580156102bd573d6000803e3d6000fd5b505050506040513d6000823e601f3d908101601f191682016040526102e59190810190614cbf565b9061030c5760405162461bcd60e51b81526004016103039190614cf4565b60405180910390fd5b50606754604051637c798ab360e11b8152600481018490526000916001600160a01b03169063f8f3156690602401602060405180830381865afa158015610357573d6000803e3d6000fd5b505050506040513d601f19601f8201168201806040525081019061037b9190614c0a565b9050600081116103cd5760405162461bcd60e51b815260206004820152600f60248201527f546f6b656e496420696e76616c696400000000000000000000000000000000006044820152606401610303565b6067546040516331a9108f60e11b8152600481018390526001600160a01b0390911690636352211e90602401602060405180830381865afa158015610416573d6000803e3d6000fd5b505050506040513d601f19601f8201168201806040525081019061043a9190614d27565b6001600160a01b0316336001600160a01b03161461049a5760405162461bcd60e51b815260206004820152601360248201527f53656e646572206973206e6f74206f776e6572000000000000000000000000006044820152606401610303565b606b5460408051630421c6df60e21b8152905187926001600160a01b0316916310871b7c9160048083019260209291908290030181865afa1580156104e3573d6000803e3d6000fd5b505050506040513d601f19601f820116820180604052508101906105079190614c0a565b606b60009054906101000a90046001600160a01b03166001600160a01b031663d09ab7476040518163ffffffff1660e01b8152600401602060405180830381865afa15801561055a573d6000803e3d6000fd5b505050506040513d601f19601f8201168201806040525081019061057e9190614c0a565b8316901c14606b60009054906101000a90046001600160a01b03166001600160a01b0316630bd7b8f26040518163ffffffff1660e01b8152600401600060405180830381865afa1580156105d6573d6000803e3d6000fd5b505050506040513d6000823e601f3d908101601f191682016040526105fe9190810190614cbf565b9061061c5760405162461bcd60e51b81526004016103039190614cf4565b50606b546040805163034ef6a760e41b8152905186926001600160a01b0316916334ef6a709160048083019260209291908290030181865afa158015610666573d6000803e3d6000fd5b505050506040513d601f19601f8201168201806040525081019061068a9190614c0a565b606b60009054906101000a90046001600160a01b03166001600160a01b03166361b156556040518163ffffffff1660e01b8152600401602060405180830381865afa1580156106dd573d6000803e3d6000fd5b505050506040513d601f19601f820116820180604052508101906107019190614c0a565b8316901c14606b60009054906101000a90046001600160a01b03166001600160a01b031663db6474e66040518163ffffffff1660e01b8152600401600060405180830381865afa158015610759573d6000803e3d6000fd5b505050506040513d6000823e601f3d908101601f191682016040526107819190810190614cbf565b9061079f5760405162461bcd60e51b81526004016103039190614cf4565b506067546040517f7b79da120000000000000000000000000000000000000000000000000000000081526004810183905284916001600160a01b031690637b79da1290602401602060405180830381865afa158015610802573d6000803e3d6000fd5b505050506040513d601f19601f820116820180604052508101906108269190614c0a565b146108735760405162461bcd60e51b815260206004820152601660248201527f41637469766174652068617368206d69736d61746368000000000000000000006044820152606401610303565b6067546040517f7b79da120000000000000000000000000000000000000000000000000000000081526004810183905283916001600160a01b031690637b79da1290602401602060405180830381865afa1580156108d5573d6000803e3d6000fd5b505050506040513d601f19601f820116820180604052508101906108f99190614c0a565b14156109475760405162461bcd60e51b815260206004820152601460248201527f4e65772068617368206d757374206469666665720000000000000000000000006044820152606401610303565b6067546040517fdd0399040000000000000000000000000000000000000000000000000000000081526004810183905260248101849052604481018590526001600160a01b039091169063dd03990490606401600060405180830381600087803b1580156109b457600080fd5b505af11580156109c8573d6000803e3d6000fd5b505050505050505050565b600054610100900460ff166109ee5760005460ff16156109f2565b303b155b610a645760405162461bcd60e51b815260206004820152602e60248201527f496e697469616c697a61626c653a20636f6e747261637420697320616c72656160448201527f647920696e697469616c697a65640000000000000000000000000000000000006064820152608401610303565b600054610100900460ff16158015610aa357600080547fffffffffffffffffffffffffffffffffffffffffffffffffffffffffffff0000166101011790555b610aab614805565b606b80547fffffffffffffffffffffffff00000000000000000000000000000000000000009081166001600160a01b0389811691909117909255606980548216888416179055606a80548216878416179055606780548216868416179055606880549091169184169190911790558015610b4857600080547fffffffffffffffffffffffffffffffffffffffffffffffffffffffffffff00ff1690555b505050505050565b6033546001600160a01b03163314610baa5760405162461bcd60e51b815260206004820181905260248201527f4f776e61626c653a2063616c6c6572206973206e6f7420746865206f776e65726044820152606401610303565b610bb4600061488a565b565b6069546040516382ce516b60e01b81526004810186905260009182916001600160a01b03909116906382ce516b90602401602060405180830381865afa158015610c04573d6000803e3d6000fd5b505050506040513d601f19601f82011682018060405250810190610c289190614c0a565b905060008111606b60009054906101000a90046001600160a01b03166001600160a01b0316632023c5196040518163ffffffff1660e01b8152600401600060405180830381865afa158015610c81573d6000803e3d6000fd5b505050506040513d6000823e601f3d908101601f19168201604052610ca99190810190614cbf565b90610cc75760405162461bcd60e51b81526004016103039190614cf4565b50606754604051637c798ab360e11b8152600481018690526000916001600160a01b03169063f8f3156690602401602060405180830381865afa158015610d12573d6000803e3d6000fd5b505050506040513d601f19601f82011682018060405250810190610d369190614c0a565b905060008111610d885760405162461bcd60e51b815260206004820152600f60248201527f546f6b656e496420696e76616c696400000000000000000000000000000000006044820152606401610303565b6067546040516331a9108f60e11b8152600481018390526001600160a01b0390911690636352211e90602401602060405180830381865afa158015610dd1573d6000803e3d6000fd5b505050506040513d601f19601f82011682018060405250810190610df59190614d27565b6001600160a01b0316336001600160a01b031614610e555760405162461bcd60e51b815260206004820152601360248201527f53656e646572206973206e6f74206f776e6572000000000000000000000000006044820152606401610303565b606b5460408051630421c6df60e21b8152905189926001600160a01b0316916310871b7c9160048083019260209291908290030181865afa158015610e9e573d6000803e3d6000fd5b505050506040513d601f19601f82011682018060405250810190610ec29190614c0a565b606b60009054906101000a90046001600160a01b03166001600160a01b031663d09ab7476040518163ffffffff1660e01b8152600401602060405180830381865afa158015610f15573d6000803e3d6000fd5b505050506040513d601f19601f82011682018060405250810190610f399190614c0a565b8316901c14606b60009054906101000a90046001600160a01b03166001600160a01b0316630bd7b8f26040518163ffffffff1660e01b8152600401600060405180830381865afa158015610f91573d6000803e3d6000fd5b505050506040513d6000823e601f3d908101601f19168201604052610fb99190810190614cbf565b90610fd75760405162461bcd60e51b81526004016103039190614cf4565b50606b546040805163034ef6a760e41b8152905188926001600160a01b0316916334ef6a709160048083019260209291908290030181865afa158015611021573d6000803e3d6000fd5b505050506040513d601f19601f820116820180604052508101906110459190614c0a565b606b60009054906101000a90046001600160a01b03166001600160a01b03166361b156556040518163ffffffff1660e01b8152600401602060405180830381865afa158015611098573d6000803e3d6000fd5b505050506040513d601f19601f820116820180604052508101906110bc9190614c0a565b8316901c14606b60009054906101000a90046001600160a01b03166001600160a01b031663db6474e66040518163ffffffff1660e01b8152600401600060405180830381865afa158015611114573d6000803e3d6000fd5b505050506040513d6000823e601f3d908101601f1916820160405261113c9190810190614cbf565b9061115a5760405162461bcd60e51b81526004016103039190614cf4565b50606b60009054906101000a90046001600160a01b03166001600160a01b031663b7e2ba206040518163ffffffff1660e01b8152600401602060405180830381865afa1580156111ae573d6000803e3d6000fd5b505050506040513d601f19601f820116820180604052508101906111d29190614c0a565b8116156112215760405162461bcd60e51b815260206004820152601060248201527f4e6f20726573616c6520726967687473000000000000000000000000000000006044820152606401610303565b6000818152606560205260409020849055915050949350505050565b6069546040516382ce516b60e01b8152600481018890526000916001600160a01b0316906382ce516b90602401602060405180830381865afa158015611287573d6000803e3d6000fd5b505050506040513d601f19601f820116820180604052508101906112ab9190614c0a565b11606b60009054906101000a90046001600160a01b03166001600160a01b0316632023c5196040518163ffffffff1660e01b8152600401600060405180830381865afa1580156112ff573d6000803e3d6000fd5b505050506040513d6000823e601f3d908101601f191682016040526113279190810190614cbf565b906113455760405162461bcd60e51b81526004016103039190614cf4565b50606a546040517f6e416b6f0000000000000000000000000000000000000000000000000000000081526004810188905286916001600160a01b031690636e416b6f90602401602060405180830381865afa1580156113a8573d6000803e3d6000fd5b505050506040513d601f19601f820116820180604052508101906113cc9190614c0a565b11606b60009054906101000a90046001600160a01b03166001600160a01b03166379de4af56040518163ffffffff1660e01b8152600401600060405180830381865afa158015611420573d6000803e3d6000fd5b505050506040513d6000823e601f3d908101601f191682016040526114489190810190614cbf565b906114665760405162461bcd60e51b81526004016103039190614cf4565b506114a96040518060c00160405280600081526020016000815260200160006001600160a01b031681526020016060815260200160008152602001600081525090565b606a546040517f698c2e000000000000000000000000000000000000000000000000000000000081526004810189905260248101889052604481018790526001600160a01b039091169063698c2e0090606401600060405180830381865afa158015611519573d6000803e3d6000fd5b505050506040513d6000823e601f3d908101601f191682016040526115419190810190614d44565b60a08701526080860152606085015260208401528083526001600160a01b03918216604080850191909152606b5481517f6df5846d0000000000000000000000000000000000000000000000000000000081529151921515931691636df5846d916004808201926000929091908290030181865afa1580156115c7573d6000803e3d6000fd5b505050506040513d6000823e601f3d908101601f191682016040526115ef9190810190614cbf565b9061160d5760405162461bcd60e51b81526004016103039190614cf4565b5060008461ffff16116116625760405162461bcd60e51b815260206004820152601560248201527f496e76616c6964206e756d2070757263686173657300000000000000000000006044820152606401610303565b606b5460408051630e14582b60e21b815290516000926001600160a01b03169163385160ac9160048083019260209291908290030181865afa1580156116ac573d6000803e3d6000fd5b505050506040513d601f19601f820116820180604052508101906116d09190614c0a565b606b60009054906101000a90046001600160a01b03166001600160a01b0316635b25084b6040518163ffffffff1660e01b8152600401602060405180830381865afa158015611723573d6000803e3d6000fd5b505050506040513d601f19601f820116820180604052508101906117479190614c0a565b836020015116901c9050600080606b60009054906101000a90046001600160a01b03166001600160a01b0316637736e2e96040518163ffffffff1660e01b8152600401602060405180830381865afa1580156117a7573d6000803e3d6000fd5b505050506040513d601f19601f820116820180604052508101906117cb9190614c0a565b84602001511611156118db57606b60009054906101000a90046001600160a01b03166001600160a01b031663cb523d106040518163ffffffff1660e01b8152600401602060405180830381865afa15801561182a573d6000803e3d6000fd5b505050506040513d601f19601f8201168201806040525081019061184e9190614c0a565b606b60009054906101000a90046001600160a01b03166001600160a01b0316630b6febeb6040518163ffffffff1660e01b8152600401602060405180830381865afa1580156118a1573d6000803e3d6000fd5b505050506040513d601f19601f820116820180604052508101906118c59190614c0a565b846020015116901c866118d89190614dd1565b95505b60005b8661ffff16811015612a62576000831180156119845750606b54604080517f7789e6c700000000000000000000000000000000000000000000000000000000815290516000926001600160a01b031691637789e6c79160048083019260209291908290030181865afa158015611958573d6000803e3d6000fd5b505050506040513d601f19601f8201168201806040525081019061197c9190614c0a565b856020015116115b15611b2457606b60009054906101000a90046001600160a01b03166001600160a01b0316635b25084b6040518163ffffffff1660e01b8152600401602060405180830381865afa1580156119dc573d6000803e3d6000fd5b505050506040513d601f19601f82011682018060405250810190611a009190614c0a565b602085810180519219909216909152606b54604080517f5b25084b00000000000000000000000000000000000000000000000000000000815290516001600160a01b0390921692635b25084b926004808401938290030181865afa158015611a6c573d6000803e3d6000fd5b505050506040513d601f19601f82011682018060405250810190611a909190614c0a565b606b60009054906101000a90046001600160a01b03166001600160a01b031663385160ac6040518163ffffffff1660e01b8152600401602060405180830381865afa158015611ae3573d6000803e3d6000fd5b505050506040513d601f19601f82011682018060405250810190611b079190614c0a565b611b114286614dfb565b901b168460200181815117915081815250505b60a084015115611c8d576000858281518110611b4257611b42614e13565b602002602001015111611b975760405162461bcd60e51b815260206004820152600f60248201527f436c69656e7420726571756972656400000000000000000000000000000000006044820152606401610303565b60685485516000916001600160a01b0316906397680dd390889085908110611bc157611bc1614e13565b60200260200101518760a001516040518363ffffffff1660e01b8152600401611bf4929190918252602082015260400190565b602060405180830381865afa158015611c11573d6000803e3d6000fd5b505050506040513d601f19601f82011682018060405250810190611c359190614c0a565b905060008111611c875760405162461bcd60e51b815260206004820152601060248201527f506172656e74206e6f7420666f756e64000000000000000000000000000000006044820152606401610303565b50611cf6565b848181518110611c9f57611c9f614e13565b6020026020010151600014611cf65760405162461bcd60e51b815260206004820152601260248201527f436c69656e74206e6f7420616c6c6f77656400000000000000000000000000006044820152606401610303565b60675486516000916001600160a01b03169063f8f3156690899085908110611d2057611d20614e13565b60200260200101516040518263ffffffff1660e01b8152600401611d4691815260200190565b602060405180830381865afa158015611d63573d6000803e3d6000fd5b505050506040513d601f19601f82011682018060405250810190611d879190614c0a565b111561279f5760675486516001600160a01b039091169063f8f3156690889084908110611db657611db6614e13565b60200260200101516040518263ffffffff1660e01b8152600401611ddc91815260200190565b602060405180830381865afa158015611df9573d6000803e3d6000fd5b505050506040513d601f19601f82011682018060405250810190611e1d9190614c0a565b6067546040516331a9108f60e11b81526004810183905291935033916001600160a01b0390911690636352211e90602401602060405180830381865afa158015611e6b573d6000803e3d6000fd5b505050506040513d601f19601f82011682018060405250810190611e8f9190614d27565b6001600160a01b031614611ee55760405162461bcd60e51b815260206004820152600f60248201527f4e6f7420746f6b656e206f776e657200000000000000000000000000000000006044820152606401610303565b606b60009054906101000a90046001600160a01b03166001600160a01b0316630e20680a6040518163ffffffff1660e01b8152600401602060405180830381865afa158015611f38573d6000803e3d6000fd5b505050506040513d601f19601f82011682018060405250810190611f5c9190614c0a565b606b60009054906101000a90046001600160a01b03166001600160a01b0316632ffb7d286040518163ffffffff1660e01b8152600401602060405180830381865afa158015611faf573d6000803e3d6000fd5b505050506040513d601f19601f82011682018060405250810190611fd39190614c0a565b17846020015116606b60009054906101000a90046001600160a01b03166001600160a01b03166334ef6a706040518163ffffffff1660e01b8152600401602060405180830381865afa15801561202d573d6000803e3d6000fd5b505050506040513d601f19601f820116820180604052508101906120519190614c0a565b8a901b606b60009054906101000a90046001600160a01b03166001600160a01b03166310871b7c6040518163ffffffff1660e01b8152600401602060405180830381865afa1580156120a7573d6000803e3d6000fd5b505050506040513d601f19601f820116820180604052508101906120cb9190614c0a565b8c901b1717606b60009054906101000a90046001600160a01b03166001600160a01b0316630e20680a6040518163ffffffff1660e01b8152600401602060405180830381865afa158015612123573d6000803e3d6000fd5b505050506040513d601f19601f820116820180604052508101906121479190614c0a565b606b60009054906101000a90046001600160a01b03166001600160a01b0316632ffb7d286040518163ffffffff1660e01b8152600401602060405180830381865afa15801561219a573d6000803e3d6000fd5b505050506040513d601f19601f820116820180604052508101906121be9190614c0a565b606b60009054906101000a90046001600160a01b03166001600160a01b03166361b156556040518163ffffffff1660e01b8152600401602060405180830381865afa158015612211573d6000803e3d6000fd5b505050506040513d601f19601f820116820180604052508101906122359190614c0a565b606b60009054906101000a90046001600160a01b03166001600160a01b031663d09ab7476040518163ffffffff1660e01b8152600401602060405180830381865afa158015612288573d6000803e3d6000fd5b505050506040513d601f19601f820116820180604052508101906122ac9190614c0a565b1717178316146122fe5760405162461bcd60e51b815260206004820152601a60248201527f546f6b656e20646f6573206e6f74206d61746368206f666665720000000000006044820152606401610303565b6000831180156123985750606b54604080517f7789e6c700000000000000000000000000000000000000000000000000000000815290516000926001600160a01b031691637789e6c79160048083019260209291908290030181865afa15801561236c573d6000803e3d6000fd5b505050506040513d601f19601f820116820180604052508101906123909190614c0a565b856020015116115b80156124895750606b5460408051630e14582b60e21b8152905142926001600160a01b03169163385160ac9160048083019260209291908290030181865afa1580156123e8573d6000803e3d6000fd5b505050506040513d601f19601f8201168201806040525081019061240c9190614c0a565b606b60009054906101000a90046001600160a01b03166001600160a01b0316635b25084b6040518163ffffffff1660e01b8152600401602060405180830381865afa15801561245f573d6000803e3d6000fd5b505050506040513d601f19601f820116820180604052508101906124839190614c0a565b8416901c115b1561272757606b5460408051630e14582b60e21b8152905142926001600160a01b03169163385160ac9160048083019260209291908290030181865afa1580156124d7573d6000803e3d6000fd5b505050506040513d601f19601f820116820180604052508101906124fb9190614c0a565b606b60009054906101000a90046001600160a01b03166001600160a01b0316635b25084b6040518163ffffffff1660e01b8152600401602060405180830381865afa15801561254e573d6000803e3d6000fd5b505050506040513d601f19601f820116820180604052508101906125729190614c0a565b8416901c6125809190614e29565b61258a9084614dfb565b9250606b60009054906101000a90046001600160a01b03166001600160a01b0316635b25084b6040518163ffffffff1660e01b8152600401602060405180830381865afa1580156125df573d6000803e3d6000fd5b505050506040513d601f19601f820116820180604052508101906126039190614c0a565b602085810180519219909216909152606b54604080517f5b25084b00000000000000000000000000000000000000000000000000000000815290516001600160a01b0390921692635b25084b926004808401938290030181865afa15801561266f573d6000803e3d6000fd5b505050506040513d601f19601f820116820180604052508101906126939190614c0a565b606b60009054906101000a90046001600160a01b03166001600160a01b031663385160ac6040518163ffffffff1660e01b8152600401602060405180830381865afa1580156126e6573d6000803e3d6000fd5b505050506040513d601f19601f8201168201806040525081019061270a9190614c0a565b6127144286614dfb565b901b168460200181815117915081815250505b6067546040517f42966c68000000000000000000000000000000000000000000000000000000008152600481018490526001600160a01b03909116906342966c6890602401600060405180830381600087803b15801561278657600080fd5b505af115801561279a573d6000803e3d6000fd5b505050505b606b54604080517f6b379a0300000000000000000000000000000000000000000000000000000000815290516000926001600160a01b031691636b379a039160048083019260209291908290030181865afa158015612802573d6000803e3d6000fd5b505050506040513d601f19601f820116820180604052508101906128269190614c0a565b85602001511611156128b857606a546040517f34f270be000000000000000000000000000000000000000000000000000000008152600481018c9052602481018b9052604481018a90526001600160a01b03909116906334f270be90606401600060405180830381600087803b15801561289f57600080fd5b505af11580156128b3573d6000803e3d6000fd5b505050505b606760009054906101000a90046001600160a01b03166001600160a01b031663dfc8fff6338c8c8a86815181106128f1576128f1614e13565b602002602001015189602001516000606b60009054906101000a90046001600160a01b03166001600160a01b03166381ff1caf6040518163ffffffff1660e01b8152600401602060405180830381865afa158015612953573d6000803e3d6000fd5b505050506040513d601f19601f820116820180604052508101906129779190614c0a565b8c60200151161161298957600061298f565b8a60a001515b6040517fffffffff0000000000000000000000000000000000000000000000000000000060e089901b1681526001600160a01b039096166004870152602486019490945260448501929092526064840152608483015260a482015260c4016020604051808303816000875af1158015612a0c573d6000803e3d6000fd5b505050506040513d601f19601f82011682018060405250810190612a309190614c0a565b608085015190925015612a525760808401516000838152606660205260409020555b612a5b81614e40565b90506118de565b50606b54604080517f7736e2e900000000000000000000000000000000000000000000000000000000815290516000926001600160a01b031691637736e2e99160048083019260209291908290030181865afa158015612ac6573d6000803e3d6000fd5b505050506040513d601f19601f82011682018060405250810190612aea9190614c0a565b8460200151161115612bfa57606b60009054906101000a90046001600160a01b03166001600160a01b031663cb523d106040518163ffffffff1660e01b8152600401602060405180830381865afa158015612b49573d6000803e3d6000fd5b505050506040513d601f19601f82011682018060405250810190612b6d9190614c0a565b606b60009054906101000a90046001600160a01b03166001600160a01b0316630b6febeb6040518163ffffffff1660e01b8152600401602060405180830381865afa158015612bc0573d6000803e3d6000fd5b505050506040513d601f19601f82011682018060405250810190612be49190614c0a565b846020015116901c86612bf79190614e71565b95505b60408301516001600160a01b0316612ec8578251600090612c209061ffff891690614e92565b341015612c6f5760405162461bcd60e51b815260206004820152600e60248201527f4e6f7420656e6f756768204554480000000000000000000000000000000000006044820152606401610303565b606b60009054906101000a90046001600160a01b03166001600160a01b031663418cb0776040518163ffffffff1660e01b8152600401602060405180830381865afa158015612cc2573d6000803e3d6000fd5b505050506040513d601f19601f82011682018060405250810190612ce69190614c0a565b606b60009054906101000a90046001600160a01b03166001600160a01b031663eecaa1506040518163ffffffff1660e01b8152600401602060405180830381865afa158015612d39573d6000803e3d6000fd5b505050506040513d601f19601f82011682018060405250810190612d5d9190614c0a565b6069546040516382ce516b60e01b8152600481018e905291909217916001600160a01b0316906382ce516b90602401602060405180830381865afa158015612da9573d6000803e3d6000fd5b505050506040513d601f19601f82011682018060405250810190612dcd9190614c0a565b16612dec576064612ddf346005614e92565b612de99190614eb1565b90505b6069546001600160a01b0316634e44cb5d612e078334614e29565b8c6040518363ffffffff1660e01b8152600401612e2691815260200190565b6000604051808303818588803b158015612e3f57600080fd5b505af1158015612e53573d6000803e3d6000fd5b50505050506000811115612ec257606954604051634e44cb5d60e01b8152600060048201526001600160a01b0390911690634e44cb5d9083906024016000604051808303818588803b158015612ea857600080fd5b505af1158015612ebc573d6000803e3d6000fd5b50505050505b506109c8565b60408084015160695491517f61f55890000000000000000000000000000000000000000000000000000000008152600481018c905290916001600160a01b03808416926323b872dd92339216906361f5589090602401602060405180830381865afa158015612f3b573d6000803e3d6000fd5b505050506040513d601f19601f82011682018060405250810190612f5f9190614d27565b8751612f709061ffff8d1690614e92565b6040517fffffffff0000000000000000000000000000000000000000000000000000000060e086901b1681526001600160a01b03938416600482015292909116602483015260448201526064016020604051808303816000875af1158015612fdc573d6000803e3d6000fd5b505050506040513d601f19601f820116820180604052508101906130009190614ec5565b5050505050505050505050565b6069546040517e4cd7700000000000000000000000000000000000000000000000000000000081523360048201526000916001600160a01b031690624cd77090602401602060405180830381865afa15801561306d573d6000803e3d6000fd5b505050506040513d601f19601f820116820180604052508101906130919190614c0a565b6069546040517f042f33210000000000000000000000000000000000000000000000000000000081523360048201529192506000916001600160a01b039091169063042f332190602401602060405180830381865afa1580156130f8573d6000803e3d6000fd5b505050506040513d601f19601f8201168201806040525081019061311c9190614c0a565b905060008111606b60009054906101000a90046001600160a01b03166001600160a01b0316632023c5196040518163ffffffff1660e01b8152600401600060405180830381865afa158015613175573d6000803e3d6000fd5b505050506040513d6000823e601f3d908101601f1916820160405261319d9190810190614cbf565b906131bb5760405162461bcd60e51b81526004016103039190614cf4565b50606b60009054906101000a90046001600160a01b03166001600160a01b031663418cb0776040518163ffffffff1660e01b8152600401602060405180830381865afa15801561320f573d6000803e3d6000fd5b505050506040513d601f19601f820116820180604052508101906132339190614c0a565b606b60009054906101000a90046001600160a01b03166001600160a01b031663418cb0776040518163ffffffff1660e01b8152600401602060405180830381865afa158015613286573d6000803e3d6000fd5b505050506040513d601f19601f820116820180604052508101906132aa9190614c0a565b8216146132f95760405162461bcd60e51b815260206004820152601660248201527f456e7469747920726571756972657320637573746f6d000000000000000000006044820152606401610303565b606a546040517f6e416b6f0000000000000000000000000000000000000000000000000000000081526004810184905288916001600160a01b031690636e416b6f90602401602060405180830381865afa15801561335b573d6000803e3d6000fd5b505050506040513d601f19601f8201168201806040525081019061337f9190614c0a565b11606b60009054906101000a90046001600160a01b03166001600160a01b03166379de4af56040518163ffffffff1660e01b8152600401600060405180830381865afa1580156133d3573d6000803e3d6000fd5b505050506040513d6000823e601f3d908101601f191682016040526133fb9190810190614cbf565b906134195760405162461bcd60e51b81526004016103039190614cf4565b50606b60009054906101000a90046001600160a01b03166001600160a01b03166381ff1caf6040518163ffffffff1660e01b8152600401602060405180830381865afa15801561346d573d6000803e3d6000fd5b505050506040513d601f19601f820116820180604052508101906134919190614c0a565b8516158061349f5750600083115b6134eb5760405162461bcd60e51b815260206004820152601c60248201527f52696361726469616e20666c616720627574206e6f20706172656e74000000006044820152606401610303565b6067546040517fdfc8fff60000000000000000000000000000000000000000000000000000000081523360048201526024810184905260448101899052606481018890526084810187905260a481018590526000916001600160a01b03169063dfc8fff69060c4016020604051808303816000875af1158015613572573d6000803e3d6000fd5b505050506040513d601f19601f820116820180604052508101906135969190614c0a565b905084156135b05760008181526066602052604090208590555b5050505050505050565b6069546040516382ce516b60e01b8152600481018690526000916001600160a01b0316906382ce516b90602401602060405180830381865afa158015613604573d6000803e3d6000fd5b505050506040513d601f19601f820116820180604052508101906136289190614c0a565b905060008111606b60009054906101000a90046001600160a01b03166001600160a01b0316632023c5196040518163ffffffff1660e01b8152600401600060405180830381865afa158015613681573d6000803e3d6000fd5b505050506040513d6000823e601f3d908101601f191682016040526136a99190810190614cbf565b906136c75760405162461bcd60e51b81526004016103039190614cf4565b50606754604051637c798ab360e11b8152600481018590526000916001600160a01b03169063f8f3156690602401602060405180830381865afa158015613712573d6000803e3d6000fd5b505050506040513d601f19601f820116820180604052508101906137369190614c0a565b9050600081116137885760405162461bcd60e51b815260206004820152600f60248201527f546f6b656e496420696e76616c696400000000000000000000000000000000006044820152606401610303565b6000818152606560205260409020546137e35760405162461bcd60e51b815260206004820152601460248201527f4c6963656e7365206e6f7420666f722073616c650000000000000000000000006044820152606401610303565b606b60009054906101000a90046001600160a01b03166001600160a01b0316637789e6c76040518163ffffffff1660e01b8152600401602060405180830381865afa158015613836573d6000803e3d6000fd5b505050506040513d601f19601f8201168201806040525081019061385a9190614c0a565b606b60009054906101000a90046001600160a01b03166001600160a01b0316637789e6c76040518163ffffffff1660e01b8152600401602060405180830381865afa1580156138ad573d6000803e3d6000fd5b505050506040513d601f19601f820116820180604052508101906138d19190614c0a565b82161415613b2e57606b60009054906101000a90046001600160a01b03166001600160a01b031663385160ac6040518163ffffffff1660e01b8152600401602060405180830381865afa15801561392c573d6000803e3d6000fd5b505050506040513d601f19601f820116820180604052508101906139509190614c0a565b606b60009054906101000a90046001600160a01b03166001600160a01b0316635b25084b6040518163ffffffff1660e01b8152600401602060405180830381865afa1580156139a3573d6000803e3d6000fd5b505050506040513d601f19601f820116820180604052508101906139c79190614c0a565b8216901c1580613abc5750606b5460408051630e14582b60e21b8152905142926001600160a01b03169163385160ac9160048083019260209291908290030181865afa158015613a1b573d6000803e3d6000fd5b505050506040513d601f19601f82011682018060405250810190613a3f9190614c0a565b606b60009054906101000a90046001600160a01b03166001600160a01b0316635b25084b6040518163ffffffff1660e01b8152600401602060405180830381865afa158015613a92573d6000803e3d6000fd5b505050506040513d601f19601f82011682018060405250810190613ab69190614c0a565b8316901c115b613b2e5760405162461bcd60e51b815260206004820152602160248201527f526573616c65206f662065787069726564206c6963656e736520696e76616c6960448201527f64000000000000000000000000000000000000000000000000000000000000006064820152608401610303565b82841415613b7e5760405162461bcd60e51b815260206004820152601460248201527f4964656e746966696572206964656e746963616c0000000000000000000000006044820152606401610303565b606b54604080517f6d102daf00000000000000000000000000000000000000000000000000000000815290516000926001600160a01b031691636d102daf9160048083019260209291908290030181865afa158015613be1573d6000803e3d6000fd5b505050506040513d601f19601f82011682018060405250810190613c059190614c0a565b606b60009054906101000a90046001600160a01b03166001600160a01b0316632ffb7d286040518163ffffffff1660e01b8152600401602060405180830381865afa158015613c58573d6000803e3d6000fd5b505050506040513d601f19601f82011682018060405250810190613c7c9190614c0a565b8316901c11613ccd5760405162461bcd60e51b815260206004820152601560248201527f4f6c64206c6963656e7365206e6f742076616c696400000000000000000000006044820152606401610303565b606b60009054906101000a90046001600160a01b03166001600160a01b031663b7e2ba206040518163ffffffff1660e01b8152600401602060405180830381865afa158015613d20573d6000803e3d6000fd5b505050506040513d601f19601f82011682018060405250810190613d449190614c0a565b811615613d935760405162461bcd60e51b815260206004820152601060248201527f4e6f20726573616c6520726967687473000000000000000000000000000000006044820152606401610303565b606b5460408051630421c6df60e21b8152905188926001600160a01b0316916310871b7c9160048083019260209291908290030181865afa158015613ddc573d6000803e3d6000fd5b505050506040513d601f19601f82011682018060405250810190613e009190614c0a565b606b60009054906101000a90046001600160a01b03166001600160a01b031663d09ab7476040518163ffffffff1660e01b8152600401602060405180830381865afa158015613e53573d6000803e3d6000fd5b505050506040513d601f19601f82011682018060405250810190613e779190614c0a565b8316901c14606b60009054906101000a90046001600160a01b03166001600160a01b0316630bd7b8f26040518163ffffffff1660e01b8152600401600060405180830381865afa158015613ecf573d6000803e3d6000fd5b505050506040513d6000823e601f3d908101601f19168201604052613ef79190810190614cbf565b90613f155760405162461bcd60e51b81526004016103039190614cf4565b50606b546040805163034ef6a760e41b8152905187926001600160a01b0316916334ef6a709160048083019260209291908290030181865afa158015613f5f573d6000803e3d6000fd5b505050506040513d601f19601f82011682018060405250810190613f839190614c0a565b606b60009054906101000a90046001600160a01b03166001600160a01b03166361b156556040518163ffffffff1660e01b8152600401602060405180830381865afa158015613fd6573d6000803e3d6000fd5b505050506040513d601f19601f82011682018060405250810190613ffa9190614c0a565b8316901c14606b60009054906101000a90046001600160a01b03166001600160a01b031663db6474e66040518163ffffffff1660e01b8152600401600060405180830381865afa158015614052573d6000803e3d6000fd5b505050506040513d6000823e601f3d908101601f1916820160405261407a9190810190614cbf565b906140985760405162461bcd60e51b81526004016103039190614cf4565b506067546040516331a9108f60e11b81526004810183905260009182916001600160a01b0390911690636352211e90602401602060405180830381865afa1580156140e7573d6000803e3d6000fd5b505050506040513d601f19601f8201168201806040525081019061410b9190614d27565b6069546040517f042f33210000000000000000000000000000000000000000000000000000000081526001600160a01b0380841660048301529293508392600092169063042f332190602401602060405180830381865afa158015614174573d6000803e3d6000fd5b505050506040513d601f19601f820116820180604052508101906141989190614c0a565b6000868152606660209081526040808320546065909252909120549192506141bf91614dfb565b34101561420e5760405162461bcd60e51b815260206004820152600e60248201527f4e6f7420656e6f756768204554480000000000000000000000000000000000006044820152606401610303565b6067546040517f42842e0e0000000000000000000000000000000000000000000000000000000081526001600160a01b03858116600483015233602483015260448201889052909116906342842e0e90606401600060405180830381600087803b15801561427b57600080fd5b505af115801561428f573d6000803e3d6000fd5b505050506000871115614322576067546040517fdd0399040000000000000000000000000000000000000000000000000000000081526004810187905260248101899052600060448201526001600160a01b039091169063dd03990490606401600060405180830381600087803b15801561430957600080fd5b505af115801561431d573d6000803e3d6000fd5b505050505b60008581526065602090815260408083208390556066909152902054156143b35760695460008681526066602052604090819020549051634e44cb5d60e01b8152600481018d90526001600160a01b0390921691634e44cb5d91906024016000604051808303818588803b15801561439957600080fd5b505af11580156143ad573d6000803e3d6000fd5b50505050505b801561464357606b60009054906101000a90046001600160a01b03166001600160a01b031663418cb0776040518163ffffffff1660e01b8152600401602060405180830381865afa15801561440c573d6000803e3d6000fd5b505050506040513d601f19601f820116820180604052508101906144309190614c0a565b606b60009054906101000a90046001600160a01b03166001600160a01b031663eecaa1506040518163ffffffff1660e01b8152600401602060405180830381865afa158015614483573d6000803e3d6000fd5b505050506040513d601f19601f820116820180604052508101906144a79190614c0a565b1781166144c85760646144bb346005614e92565b6144c59190614eb1565b93505b831561452f57606954604051634e44cb5d60e01b8152600060048201526001600160a01b0390911690634e44cb5d9086906024016000604051808303818588803b15801561451557600080fd5b505af1158015614529573d6000803e3d6000fd5b50505050505b6069546000868152606660205260409020546001600160a01b0390911690634e44cb5d90869061455f9034614e29565b6145699190614e29565b6069546040517e4cd7700000000000000000000000000000000000000000000000000000000081526001600160a01b03888116600483015290911690624cd77090602401602060405180830381865afa1580156145ca573d6000803e3d6000fd5b505050506040513d601f19601f820116820180604052508101906145ee9190614c0a565b6040518363ffffffff1660e01b815260040161460c91815260200190565b6000604051808303818588803b15801561462557600080fd5b505af1158015614639573d6000803e3d6000fd5b5050505050614717565b6064614650346005614e92565b61465a9190614eb1565b606954604051634e44cb5d60e01b8152600060048201529195506001600160a01b031690634e44cb5d9086906024016000604051808303818588803b1580156146a257600080fd5b505af11580156146b6573d6000803e3d6000fd5b5050506000878152606660205260409020546001600160a01b03851692506108fc915086906146e59034614e29565b6146ef9190614e29565b6040518115909202916000818181858888f19350505050158015613000573d6000803e3d6000fd5b50505050505050505050565b6033546001600160a01b0316331461477d5760405162461bcd60e51b815260206004820181905260248201527f4f776e61626c653a2063616c6c6572206973206e6f7420746865206f776e65726044820152606401610303565b6001600160a01b0381166147f95760405162461bcd60e51b815260206004820152602660248201527f4f776e61626c653a206e6577206f776e657220697320746865207a65726f206160448201527f64647265737300000000000000000000000000000000000000000000000000006064820152608401610303565b6148028161488a565b50565b600054610100900460ff166148825760405162461bcd60e51b815260206004820152602b60248201527f496e697469616c697a61626c653a20636f6e7472616374206973206e6f74206960448201527f6e697469616c697a696e670000000000000000000000000000000000000000006064820152608401610303565b610bb46148f4565b603380546001600160a01b038381167fffffffffffffffffffffffff0000000000000000000000000000000000000000831681179093556040519116919082907f8be0079c531659141344cd1fd0a4f28419497f9722a3daafe3b4186f6b6457e090600090a35050565b600054610100900460ff166149715760405162461bcd60e51b815260206004820152602b60248201527f496e697469616c697a61626c653a20636f6e7472616374206973206e6f74206960448201527f6e697469616c697a696e670000000000000000000000000000000000000000006064820152608401610303565b610bb43361488a565b6000806000806080858703121561499057600080fd5b5050823594602084013594506040840135936060013592509050565b6001600160a01b038116811461480257600080fd5b600080600080600060a086880312156149d957600080fd5b85356149e4816149ac565b945060208601356149f4816149ac565b93506040860135614a04816149ac565b92506060860135614a14816149ac565b91506080860135614a24816149ac565b809150509295509295909350565b600060208284031215614a4457600080fd5b5035919050565b634e487b7160e01b600052604160045260246000fd5b604051601f8201601f1916810167ffffffffffffffff81118282101715614a8a57614a8a614a4b565b604052919050565b600082601f830112614aa357600080fd5b8135602067ffffffffffffffff821115614abf57614abf614a4b565b8160051b614ace828201614a61565b9283528481018201928281019087851115614ae857600080fd5b83870192505b84831015614b0757823582529183019190830190614aee565b979650505050505050565b60008060008060008060c08789031215614b2b57600080fd5b863595506020870135945060408701359350606087013561ffff81168114614b5257600080fd5b9250608087013567ffffffffffffffff80821115614b6f57600080fd5b614b7b8a838b01614a92565b935060a0890135915080821115614b9157600080fd5b50614b9e89828a01614a92565b9150509295509295509295565b600080600080600060a08688031215614bc357600080fd5b505083359560208501359550604085013594606081013594506080013592509050565b600060208284031215614bf857600080fd5b8135614c03816149ac565b9392505050565b600060208284031215614c1c57600080fd5b5051919050565b60005b83811015614c3e578181015183820152602001614c26565b83811115614c4d576000848401525b50505050565b600082601f830112614c6457600080fd5b815167ffffffffffffffff811115614c7e57614c7e614a4b565b614c916020601f19601f84011601614a61565b818152846020838601011115614ca657600080fd5b614cb7826020830160208701614c23565b949350505050565b600060208284031215614cd157600080fd5b815167ffffffffffffffff811115614ce857600080fd5b614cb784828501614c53565b6020815260008251806020840152614d13816040850160208701614c23565b601f01601f19169190910160400192915050565b600060208284031215614d3957600080fd5b8151614c03816149ac565b60008060008060008060c08789031215614d5d57600080fd5b8651614d68816149ac565b809650506020870151945060408701519350606087015167ffffffffffffffff811115614d9457600080fd5b614da089828a01614c53565b9350506080870151915060a087015190509295509295509295565b634e487b7160e01b600052601160045260246000fd5b600061ffff80831681851681830481118215151615614df257614df2614dbb565b02949350505050565b60008219821115614e0e57614e0e614dbb565b500190565b634e487b7160e01b600052603260045260246000fd5b600082821015614e3b57614e3b614dbb565b500390565b6000600019821415614e5457614e54614dbb565b5060010190565b634e487b7160e01b600052601260045260246000fd5b600061ffff80841680614e8657614e86614e5b565b92169190910492915050565b6000816000190483118215151615614eac57614eac614dbb565b500290565b600082614ec057614ec0614e5b565b500490565b600060208284031215614ed757600080fd5b81518015158114614c0357600080fdfea2646970667358221220e90c632b3bbc6f81f41a1c864504ca69e31282aaaa51520259d7e8e2640a32fc64736f6c634300080b0033",
  "immutableReferences": {},
  "source": "pragma solidity >=0.7.6;\r\n\r\n// SPDX-License-Identifier: GPL-3.0-or-later\r\n\r\nimport \"./StringCommon.sol\";\r\nimport \"./ImmutableEntity.sol\";\r\nimport \"./ProductActivate.sol\";\r\nimport \"./CreatorToken.sol\";\r\nimport \"./ActivateToken.sol\";\r\n\r\n// OpenZepellin upgradable contracts\r\nimport \"@openzeppelin/contracts-upgradeable/proxy/utils/Initializable.sol\";\r\nimport \"@openzeppelin/contracts-upgradeable/access/OwnableUpgradeable.sol\";\r\nimport \"@openzeppelin/contracts-upgradeable/token/ERC721/extensions/ERC721BurnableUpgradeable.sol\";\r\nimport \"@openzeppelin/contracts-upgradeable/token/ERC721/extensions/ERC721EnumerableUpgradeable.sol\";\r\nimport \"@openzeppelin/contracts-upgradeable/token/ERC20/IERC20Upgradeable.sol\";\r\n\r\n/*\r\n// OpenZepellin standard contracts\r\n//import \"@openzeppelin/contracts/proxy/utils/Initializable.sol\";\r\nimport \"@openzeppelin/contracts/access/Ownable.sol\";\r\nimport \"@openzeppelin/contracts/token/ERC721/extensions/ERC721Burnable.sol\";\r\nimport \"@openzeppelin/contracts/token/ERC721/extensions/ERC721Enumerable.sol\";\r\nimport \"@openzeppelin/contracts/token/ERC20/IERC20.sol\";\r\n*/\r\n\r\n// OpenZepellin upgradable contracts\r\ncontract ProductActivate is Initializable, OwnableUpgradeable\r\n/*\r\n// OpenZepellin standard contracts\r\ncontract ProductActivate is Ownable\r\n*/\r\n{\r\n  mapping (uint256 => uint256) private TokenIdToOfferPrice;\r\n  mapping (uint256 => uint256) private TransferSurcharge;\r\n\r\n  ActivateToken private activateTokenInterface;\r\n  CreatorToken private creatorTokenInterface;\r\n  ImmutableEntity private entityInterface;\r\n  ImmutableProduct private productInterface;\r\n  StringCommon private commonInterface;\r\n\r\n  /// @notice Initialize the ProductActivate smart contract\r\n  ///   Called during first deployment only (not on upgrade) as\r\n  ///   this is an OpenZepellin upgradable contract\r\n  /// @param commonAddr The StringCommon contract address\r\n  /// @param entityContractAddr The ImmutableEntity token contract address\r\n  /// @param productContractAddr The ImmutableProduct token contract address\r\n  /// @param activateTokenAddr The ActivateToken token contract address\r\n  /// @param creatorTokenAddr The CreatorToken token contract address\r\n  function initialize(address commonAddr, address entityContractAddr,\r\n                      address productContractAddr, address activateTokenAddr,\r\n                      address creatorTokenAddr)\r\n    public initializer\r\n  {\r\n    __Ownable_init();\r\n\r\n/*\r\n  // OpenZepellin standard contracts\r\n  constructor(address commonAddr, address entityContractAddr,\r\n              address productContractAddr, address activateTokenAddr,\r\n              address creatorTokenAddr)\r\n                                           Ownable()\r\n  {\r\n*/\r\n    // Initialize the contract interfaces\r\n    commonInterface = StringCommon(commonAddr);\r\n    entityInterface = ImmutableEntity(entityContractAddr);\r\n    productInterface = ImmutableProduct(productContractAddr);\r\n    activateTokenInterface = ActivateToken(activateTokenAddr);\r\n    creatorTokenInterface = CreatorToken(creatorTokenAddr);\r\n  }\r\n\r\n  ///////////////////////////////////////////////////////////\r\n  /// PRODUCT ACTIVATE LICENSE\r\n  ///////////////////////////////////////////////////////////\r\n\r\n  /// @notice Create manual product activation license for end user.\r\n  /// mes.sender must own the entity and product.\r\n  /// Costs 1 IuT token if sender not registered as automatic\r\n  /// @param productIndex The specific ID of the product\r\n  /// @param licenseHash the activation license hash from end user\r\n  /// @param licenseValue the value of the license\r\n  /// @param transferSurcharge the additional cost/surcharge to transfer\r\n  /// @param ricardianParent The Ricardian contract parent (if any)\r\n  function activateCreate(uint256 productIndex, uint256 licenseHash,\r\n                          uint256 licenseValue, uint256 transferSurcharge,\r\n                          uint256 ricardianParent)\r\n    external\r\n  {\r\n    uint256 entityIndex = entityInterface.entityAddressToIndex(msg.sender);\r\n    // Only a validated commercial entity can create an offer\r\n    uint256 entityStatus = entityInterface.entityAddressStatus(msg.sender);\r\n    require(entityStatus > 0, commonInterface.EntityNotValidated());\r\n    require((entityStatus & commonInterface.CustomToken()) == commonInterface.CustomToken(),\r\n            \"Entity requires custom\");\r\n    require(productInterface.productNumberOf(entityIndex) > productIndex,\r\n            commonInterface.ProductNotFound());\r\n    require((((licenseValue & commonInterface.RicardianReqFlag()) == 0) ||\r\n             (ricardianParent > 0)), \"Ricardian flag but no parent\");\r\n\r\n    uint256 tokenId = activateTokenInterface.mint(msg.sender, entityIndex, productIndex,\r\n                          licenseHash, licenseValue, ricardianParent);\r\n    if (transferSurcharge > 0)\r\n      TransferSurcharge[tokenId] = transferSurcharge;\r\n  }\r\n\r\n  struct ActivationOffer\r\n  {\r\n    uint256 priceInTokens;\r\n    uint256 value;\r\n    address erc20token;\r\n    string infoUrl;\r\n    uint256 transferSurcharge;\r\n    uint256 ricardianParent;\r\n  }\r\n\r\n\r\n  /// @notice Purchase a digital product activation license.\r\n  /// mes.sender is the purchaser.\r\n  /// @param entityIndex The entity offering the product license\r\n  /// @param productIndex The specific ID of the product\r\n  /// @param offerIndex the product activation offer to purchase\r\n  /// @param numPurchases the number of offers to purchase\r\n  /// @param licenseHashes Array of end user identifiers to activate\r\n  /// @param ricardianClients Array of end client agreement contracts\r\n  function activatePurchase(uint256 entityIndex, uint256 productIndex,\r\n                            uint256 offerIndex, uint16 numPurchases,\r\n                            uint256[] memory licenseHashes,\r\n                            uint256[] memory ricardianClients)\r\n    external payable\r\n  {\r\n    // Ensure vendor is registered and product exists\r\n    require(entityInterface.entityIndexStatus(entityIndex) > 0,\r\n            commonInterface.EntityNotValidated());\r\n    require(productInterface.productNumberOf(entityIndex) > productIndex,\r\n            commonInterface.ProductNotFound());\r\n    ActivationOffer memory theOffer;\r\n\r\n    (theOffer.erc20token, theOffer.priceInTokens, theOffer.value,\r\n     theOffer.infoUrl, theOffer.transferSurcharge, theOffer.ricardianParent) =\r\n      productInterface.productOfferDetails(entityIndex, productIndex, offerIndex);\r\n    require(theOffer.priceInTokens > 0, commonInterface.OfferNotFound());\r\n    require(numPurchases > 0, \"Invalid num purchases\");\r\n\r\n    uint256 theDuration = ((theOffer.value & commonInterface.ExpirationMask()) >> commonInterface.ExpirationOffset());\r\n    uint256 tokenId;\r\n\r\n    // If a bulk offer purchased, create multiples of tokens\r\n    if ((theOffer.value & commonInterface.BulkOffersFlag()) > 0)\r\n      numPurchases *= (uint16)((theOffer.value & commonInterface.UniqueIdMask()) >> commonInterface.UniqueIdOffset());\r\n\r\n    // Purchase all the activation licenses\r\n    for (uint i = 0; i < numPurchases; ++i)\r\n    {\r\n      // If expiration then update tokenId to include new expiration\r\n      //  First clear then set expiration based on duration and now\r\n      if ((theDuration > 0) && ((theOffer.value & commonInterface.ExpirationFlag()) > 0))\r\n      {\r\n        theOffer.value &= ~commonInterface.ExpirationMask();\r\n        theOffer.value |= ((theDuration + block.timestamp) << commonInterface.ExpirationOffset()) & commonInterface.ExpirationMask();\r\n      }\r\n\r\n      // Check that ricardian client matches the offer's parent\r\n      if (theOffer.ricardianParent > 0)\r\n      {\r\n        require(ricardianClients[i] > 0, \"Client required\");\r\n        uint parentDepth = creatorTokenInterface.creatorParentOf(\r\n                        ricardianClients[i], theOffer.ricardianParent);\r\n        require(parentDepth > 0, \"Parent not found\");\r\n      }\r\n      else\r\n        require(ricardianClients[i] == 0, \"Client not allowed\");\r\n\r\n      // Check if this is a renewal (hash exists)\r\n      if (activateTokenInterface.activateIdToTokenId(licenseHashes[i]) > 0)\r\n      {\r\n        // Look up tokenId from the old activation hash\r\n        tokenId = activateTokenInterface.activateIdToTokenId(licenseHashes[i]);\r\n\r\n        // Require that caller (msg.sender) is the owner\r\n        require(activateTokenInterface.ownerOf(tokenId) == msg.sender, \"Not token owner\");\r\n\r\n        // Require entity/product id's, flags and limitations match the token\r\n        require((tokenId & (commonInterface.EntityIdMask() | commonInterface.ProductIdMask() | commonInterface.FlagsMask() | commonInterface.ValueMask())) ==\r\n                ((entityIndex << commonInterface.EntityIdOffset()) | (productIndex << commonInterface.ProductIdOffset()) |\r\n                (theOffer.value & (commonInterface.FlagsMask() | commonInterface.ValueMask()))),\r\n                \"Token does not match offer\");\r\n\r\n        // Extend time duration by whatever was remaining, if any\r\n        if (((theDuration > 0) && ((theOffer.value & commonInterface.ExpirationFlag()) > 0)) &&\r\n            (((tokenId & commonInterface.ExpirationMask()) >> commonInterface.ExpirationOffset()) > block.timestamp))\r\n        {\r\n          theDuration += ((tokenId & commonInterface.ExpirationMask()) >> commonInterface.ExpirationOffset()) - block.timestamp;\r\n          theOffer.value &= ~commonInterface.ExpirationMask();\r\n          theOffer.value |= ((theDuration + block.timestamp) << commonInterface.ExpirationOffset()) & commonInterface.ExpirationMask();\r\n        }\r\n\r\n        // burn the old token\r\n        activateTokenInterface.burn(tokenId);\r\n      }\r\n\r\n      // If a limited amount of offers, inform product offer of purchase\r\n      if ((theOffer.value & commonInterface.LimitedOffersFlag()) > 0)\r\n        productInterface.productOfferPurchased(entityIndex,\r\n                                               productIndex, offerIndex);\r\n\r\n      // Create a new ERC721 activate token for the sender\r\n      tokenId = activateTokenInterface.mint(msg.sender, entityIndex, productIndex,\r\n                                  licenseHashes[i], theOffer.value,\r\n          ((theOffer.value & commonInterface.RicardianReqFlag()) > 0) ?\r\n                                  theOffer.ricardianParent : 0);\r\n      if (theOffer.transferSurcharge > 0)\r\n        TransferSurcharge[tokenId] = theOffer.transferSurcharge;\r\n    }\r\n\r\n    // If a bulk offer purchased, divide back to original # of tokens\r\n    if ((theOffer.value & commonInterface.BulkOffersFlag()) > 0)\r\n      numPurchases /= (uint16)((theOffer.value & commonInterface.UniqueIdMask()) >> commonInterface.UniqueIdOffset());\r\n\r\n    // If purchase offer is not a token, transfer ETH\r\n    if (theOffer.erc20token == address(0))\r\n    {\r\n      uint256 feeAmount = 0;\r\n      require(msg.value >= theOffer.priceInTokens * numPurchases, \"Not enough ETH\");\r\n\r\n      // If entity is manual (pay as you go) add fee of 5%\r\n      if ((entityInterface.entityIndexStatus(entityIndex) &\r\n          (commonInterface.Automatic() | commonInterface.CustomToken()))\r\n           == 0)\r\n        feeAmount = (msg.value * 5) / 100;\r\n\r\n      // Transfer the ETH to the entity bank address\r\n      entityInterface.entityPay{value: msg.value - feeAmount}\r\n                                    (entityIndex);\r\n\r\n      // Move fee, if any, into ImmutableSoft bank account\r\n      if (feeAmount > 0)\r\n        entityInterface.entityPay{value: feeAmount }(0);\r\n    }\r\n\r\n    // Otherwise the purchase is an exchange of ERC20 tokens\r\n    else\r\n    {\r\n      IERC20Upgradeable erc20TokenInterface = IERC20Upgradeable(theOffer.erc20token);\r\n\r\n      // Transfer tokens to the sender and revert if failure\r\n      erc20TokenInterface.transferFrom(msg.sender, entityInterface.\r\n          entityIndexToAddress(entityIndex), theOffer.priceInTokens * numPurchases);\r\n    }\r\n  }\r\n\r\n  /// @notice Move a digital product activation license.\r\n  /// mes.sender must be the activation license owner.\r\n  /// @param entityIndex The entity who owns the product\r\n  /// @param productIndex The specific ID of the product\r\n  /// @param oldLicenseHash the existing activation identifier\r\n  /// @param newLicenseHash the new activation identifier\r\n  function activateMove(uint256 entityIndex,\r\n                        uint256 productIndex,\r\n                        uint256 oldLicenseHash,\r\n                        uint256 newLicenseHash)\r\n    external\r\n  {\r\n    // Ensure vendor is registered and product exists\r\n    require(entityInterface.entityIndexStatus(entityIndex) > 0, commonInterface.EntityNotValidated());\r\n    uint256 tokenId;\r\n\r\n    // Look up tokenId from the old activation hash\r\n    tokenId = activateTokenInterface.activateIdToTokenId(oldLicenseHash);\r\n    require(tokenId > 0, \"TokenId invalid\");\r\n\r\n    // Ensure sender is the token owner\r\n    require(msg.sender == activateTokenInterface.ownerOf(tokenId), \"Sender is not owner\");\r\n\r\n    // Require the entity and product id's match the token\r\n    require((tokenId & commonInterface.EntityIdMask()) >> commonInterface.EntityIdOffset() == entityIndex, commonInterface.TokenEntityNoMatch());\r\n    require((tokenId & commonInterface.ProductIdMask()) >> commonInterface.ProductIdOffset() == productIndex, commonInterface.TokenProductNoMatch());\r\n\r\n    // Require the hash matches the token and new one is different\r\n    require(activateTokenInterface.tokenIdToActivateId(tokenId) == oldLicenseHash, \"Activate hash mismatch\");\r\n    require(activateTokenInterface.tokenIdToActivateId(tokenId) != newLicenseHash, \"New hash must differ\");\r\n\r\n    // Move/Change the activation hash stored in the token\r\n    activateTokenInterface.activateTokenMoveHash(tokenId,\r\n                                       newLicenseHash, oldLicenseHash);\r\n  }\r\n\r\n  /// @notice Offer a digital product license for resale.\r\n  /// mes.sender must own the activation license.\r\n  /// @param entityIndex The entity who owns the product\r\n  /// @param productIndex The specific ID of the product\r\n  /// @param licenseHash the existing activation identifier\r\n  /// @param priceInEth The ETH cost to purchase license\r\n  /// @return the tokenId of the activation offered for resale\r\n  function activateOfferResale(uint256 entityIndex, uint256 productIndex,\r\n                               uint256 licenseHash, uint256 priceInEth)\r\n    external returns (uint256)\r\n  {\r\n    // Ensure vendor is registered and product exists\r\n    uint256 entityStatus = entityInterface.entityIndexStatus(entityIndex);\r\n    require(entityStatus > 0, commonInterface.EntityNotValidated());\r\n    uint256 tokenId;\r\n\r\n    // Look up tokenId from the activation hash\r\n    tokenId = activateTokenInterface.activateIdToTokenId(licenseHash);\r\n    require(tokenId > 0, \"TokenId invalid\");\r\n    require(msg.sender == activateTokenInterface.ownerOf(tokenId), \"Sender is not owner\");\r\n\r\n    // Require the entity and product id's match the token\r\n    require((tokenId & commonInterface.EntityIdMask()) >> commonInterface.EntityIdOffset() == entityIndex, commonInterface.TokenEntityNoMatch());\r\n    require((tokenId & commonInterface.ProductIdMask()) >> commonInterface.ProductIdOffset() == productIndex, commonInterface.TokenProductNoMatch());\r\n    require((tokenId & commonInterface.NoResaleFlag()) == 0, \"No resale rights\");\r\n\r\n    // Set activation to \"for sale\"\r\n    TokenIdToOfferPrice[tokenId] = priceInEth;\r\n    return tokenId;\r\n  }\r\n\r\n  /// @notice Transfer/Resell a digital product activation license.\r\n  /// License must be 'for sale' and msg.sender is new owner.\r\n  /// @param entityIndex The entity who owns the product\r\n  /// @param productIndex The specific ID of the product\r\n  /// @param licenseHash the existing activation identifier to purchase\r\n  /// @param newLicenseHash the new activation identifier after purchase\r\n  function activateTransfer(uint256 entityIndex,\r\n                            uint256 productIndex,\r\n                            uint256 licenseHash,\r\n                            uint256 newLicenseHash)\r\n    external payable\r\n  {\r\n    // Ensure vendor is registered and product exists\r\n    uint256 entityStatus = entityInterface.entityIndexStatus(entityIndex);\r\n    require(entityStatus > 0, commonInterface.EntityNotValidated());\r\n\r\n    uint256 tokenId;\r\n\r\n    // Look up tokenId from the old activation hash\r\n    tokenId = activateTokenInterface.activateIdToTokenId(licenseHash);\r\n    require(tokenId > 0, \"TokenId invalid\");\r\n\r\n    // Require the license is offered for sale and price valid\r\n    require(TokenIdToOfferPrice[tokenId] > 0, \"License not for sale\");\r\n    if ((tokenId & commonInterface.ExpirationFlag()) == commonInterface.ExpirationFlag())\r\n      require((((tokenId & commonInterface.ExpirationMask()) >> commonInterface.ExpirationOffset()) == 0) ||\r\n              (((tokenId & commonInterface.ExpirationMask()) >> commonInterface.ExpirationOffset()) > block.timestamp), \"Resale of expired license invalid\");\r\n\r\n    // Ensure new identifier is different from current\r\n    require(licenseHash != newLicenseHash, \"Identifier identical\");\r\n\r\n    // Get the old activation license falgs and ensure it is valid\r\n    require(((tokenId & commonInterface.FlagsMask()) >> commonInterface.FlagsOffset()) > 0, \"Old license not valid\");\r\n    require((tokenId & commonInterface.NoResaleFlag()) == 0, \"No resale rights\");\r\n\r\n    // Require the entity and product id's match the token\r\n    require((tokenId & commonInterface.EntityIdMask()) >> commonInterface.EntityIdOffset() == entityIndex, commonInterface.TokenEntityNoMatch());\r\n    require((tokenId & commonInterface.ProductIdMask()) >> commonInterface.ProductIdOffset() == productIndex, commonInterface.TokenProductNoMatch());\r\n\r\n    // Look up the license owner and their entity status\r\n    uint256 fee = 0;\r\n    address licenseOwner = activateTokenInterface.ownerOf(tokenId);\r\n    address payable payableOwner = payable(licenseOwner);\r\n    uint256 ownerStatus = entityInterface.entityAddressStatus(licenseOwner);\r\n\r\n    require(msg.value >= TokenIdToOfferPrice[tokenId] + TransferSurcharge[tokenId], \"Not enough ETH\");\r\n\r\n    // Transfer the activate token and update to the new owner\r\n    activateTokenInterface.safeTransferFrom(licenseOwner,\r\n                                            msg.sender, tokenId);\r\n\r\n    // Update to the new activation identifier (if any)\r\n    if (newLicenseHash > 0)\r\n      activateTokenInterface.activateTokenMoveHash(tokenId, newLicenseHash, 0);\r\n\r\n    // Clear offer price so the token is no longer listed for sale\r\n    TokenIdToOfferPrice[tokenId] = 0;\r\n\r\n    // Transfer any surcharge to original creator if required\r\n    if (TransferSurcharge[tokenId] > 0)\r\n      entityInterface.entityPay{value: TransferSurcharge[tokenId]}\r\n               (entityIndex);\r\n\r\n    // If activation owner is registered, use lower fee if any\r\n    //   Any additional ETH is a \"tip\" to creator\r\n    if (ownerStatus > 0)\r\n    {\r\n      if ((ownerStatus & (commonInterface.Automatic() |\r\n                          commonInterface.CustomToken())) == 0)\r\n        fee = (msg.value * 5) / 100;\r\n\r\n      // Move fee, if any, into ImmutableSoft bank account\r\n      if (fee > 0)\r\n        entityInterface.entityPay{value: fee }(0);\r\n\r\n      // Transfer the ETH payment to the registered bank\r\n      entityInterface.entityPay{value: msg.value - TransferSurcharge[tokenId] - fee}\r\n               (entityInterface.entityAddressToIndex(licenseOwner));\r\n    }\r\n\r\n    // Otherwise an unregistered resale has a 5% fee\r\n    else\r\n    {\r\n      fee = (msg.value * 5) / 100;\r\n\r\n      // Transfer fee to ImmutableSoft\r\n      entityInterface.entityPay{value: fee }(0);\r\n\r\n      // Transfer ETH funds minus the fee if any\r\n      payableOwner.transfer(msg.value - TransferSurcharge[tokenId] - fee);\r\n    }\r\n  }\r\n\r\n  /// @notice Query activate token offer price\r\n  /// @param tokenId The activate token identifier\r\n  /// @return The price of the token if for sale\r\n  function activateTokenIdToOfferPrice(uint256 tokenId)\r\n    external view returns (uint256)\r\n  {\r\n    return TokenIdToOfferPrice[tokenId];\r\n  }\r\n\r\n}\r\n",
  "sourcePath": "/home/pi/Source/github/ImmutableEcosystem/contracts/ProductActivate.sol",
  "compiler": {
    "name": "solc",
    "version": "0.8.11+commit.d7f03943.Emscripten.clang"
  },
  "schemaVersion": "3.4.4",
  "updatedAt": "2022-03-31T21:20:07.011Z",
  "devdoc": {
    "kind": "dev",
    "methods": {
      "activateCreate(uint256,uint256,uint256,uint256,uint256)": {
        "params": {
          "licenseHash": "the activation license hash from end user",
          "licenseValue": "the value of the license",
          "productIndex": "The specific ID of the product",
          "ricardianParent": "The Ricardian contract parent (if any)",
          "transferSurcharge": "the additional cost/surcharge to transfer"
        }
      },
      "activateMove(uint256,uint256,uint256,uint256)": {
        "params": {
          "entityIndex": "The entity who owns the product",
          "newLicenseHash": "the new activation identifier",
          "oldLicenseHash": "the existing activation identifier",
          "productIndex": "The specific ID of the product"
        }
      },
      "activateOfferResale(uint256,uint256,uint256,uint256)": {
        "params": {
          "entityIndex": "The entity who owns the product",
          "licenseHash": "the existing activation identifier",
          "priceInEth": "The ETH cost to purchase license",
          "productIndex": "The specific ID of the product"
        },
        "returns": {
          "_0": "the tokenId of the activation offered for resale"
        }
      },
      "activatePurchase(uint256,uint256,uint256,uint16,uint256[],uint256[])": {
        "params": {
          "entityIndex": "The entity offering the product license",
          "licenseHashes": "Array of end user identifiers to activate",
          "numPurchases": "the number of offers to purchase",
          "offerIndex": "the product activation offer to purchase",
          "productIndex": "The specific ID of the product",
          "ricardianClients": "Array of end client agreement contracts"
        }
      },
      "activateTokenIdToOfferPrice(uint256)": {
        "params": {
          "tokenId": "The activate token identifier"
        },
        "returns": {
          "_0": "The price of the token if for sale"
        }
      },
      "activateTransfer(uint256,uint256,uint256,uint256)": {
        "params": {
          "entityIndex": "The entity who owns the product",
          "licenseHash": "the existing activation identifier to purchase",
          "newLicenseHash": "the new activation identifier after purchase",
          "productIndex": "The specific ID of the product"
        }
      },
      "initialize(address,address,address,address,address)": {
        "params": {
          "activateTokenAddr": "The ActivateToken token contract address",
          "commonAddr": "The StringCommon contract address",
          "creatorTokenAddr": "The CreatorToken token contract address",
          "entityContractAddr": "The ImmutableEntity token contract address",
          "productContractAddr": "The ImmutableProduct token contract address"
        }
      },
      "owner()": {
        "details": "Returns the address of the current owner."
      },
      "renounceOwnership()": {
        "details": "Leaves the contract without owner. It will not be possible to call `onlyOwner` functions anymore. Can only be called by the current owner. NOTE: Renouncing ownership will leave the contract without an owner, thereby removing any functionality that is only available to the owner."
      },
      "transferOwnership(address)": {
        "details": "Transfers ownership of the contract to a new account (`newOwner`). Can only be called by the current owner."
      }
    },
    "version": 1
  },
  "userdoc": {
    "kind": "user",
    "methods": {
      "activateCreate(uint256,uint256,uint256,uint256,uint256)": {
        "notice": "Create manual product activation license for end user. mes.sender must own the entity and product. Costs 1 IuT token if sender not registered as automatic"
      },
      "activateMove(uint256,uint256,uint256,uint256)": {
        "notice": "Move a digital product activation license. mes.sender must be the activation license owner."
      },
      "activateOfferResale(uint256,uint256,uint256,uint256)": {
        "notice": "Offer a digital product license for resale. mes.sender must own the activation license."
      },
      "activatePurchase(uint256,uint256,uint256,uint16,uint256[],uint256[])": {
        "notice": "Purchase a digital product activation license. mes.sender is the purchaser."
      },
      "activateTokenIdToOfferPrice(uint256)": {
        "notice": "Query activate token offer price"
      },
      "activateTransfer(uint256,uint256,uint256,uint256)": {
        "notice": "Transfer/Resell a digital product activation license. License must be 'for sale' and msg.sender is new owner."
      },
      "initialize(address,address,address,address,address)": {
        "notice": "Initialize the ProductActivate smart contract   Called during first deployment only (not on upgrade) as   this is an OpenZepellin upgradable contract"
      }
    },
    "version": 1
  }
}