{
  "contractName": "StringCommon",
  "abi": [
    {
      "anonymous": false,
      "inputs": [
        {
          "indexed": false,
          "internalType": "uint8",
          "name": "version",
          "type": "uint8"
        }
      ],
      "name": "Initialized",
      "type": "event"
    },
    {
      "anonymous": false,
      "inputs": [
        {
          "indexed": true,
          "internalType": "address",
          "name": "previousOwner",
          "type": "address"
        },
        {
          "indexed": true,
          "internalType": "address",
          "name": "newOwner",
          "type": "address"
        }
      ],
      "name": "OwnershipTransferred",
      "type": "event"
    },
    {
      "inputs": [],
      "name": "Adult",
      "outputs": [
        {
          "internalType": "uint256",
          "name": "",
          "type": "uint256"
        }
      ],
      "stateMutability": "view",
      "type": "function"
    },
    {
      "inputs": [],
      "name": "Agnostic",
      "outputs": [
        {
          "internalType": "uint256",
          "name": "",
          "type": "uint256"
        }
      ],
      "stateMutability": "view",
      "type": "function"
    },
    {
      "inputs": [],
      "name": "Android_aarch64",
      "outputs": [
        {
          "internalType": "uint256",
          "name": "",
          "type": "uint256"
        }
      ],
      "stateMutability": "view",
      "type": "function"
    },
    {
      "inputs": [],
      "name": "Automatic",
      "outputs": [
        {
          "internalType": "uint256",
          "name": "",
          "type": "uint256"
        }
      ],
      "stateMutability": "view",
      "type": "function"
    },
    {
      "inputs": [],
      "name": "BIOS_aarch32",
      "outputs": [
        {
          "internalType": "uint256",
          "name": "",
          "type": "uint256"
        }
      ],
      "stateMutability": "view",
      "type": "function"
    },
    {
      "inputs": [],
      "name": "BIOS_aarch64",
      "outputs": [
        {
          "internalType": "uint256",
          "name": "",
          "type": "uint256"
        }
      ],
      "stateMutability": "view",
      "type": "function"
    },
    {
      "inputs": [],
      "name": "BIOS_amd64",
      "outputs": [
        {
          "internalType": "uint256",
          "name": "",
          "type": "uint256"
        }
      ],
      "stateMutability": "view",
      "type": "function"
    },
    {
      "inputs": [],
      "name": "BIOS_arm64",
      "outputs": [
        {
          "internalType": "uint256",
          "name": "",
          "type": "uint256"
        }
      ],
      "stateMutability": "view",
      "type": "function"
    },
    {
      "inputs": [],
      "name": "BIOS_x86",
      "outputs": [
        {
          "internalType": "uint256",
          "name": "",
          "type": "uint256"
        }
      ],
      "stateMutability": "view",
      "type": "function"
    },
    {
      "inputs": [],
      "name": "Bengali",
      "outputs": [
        {
          "internalType": "uint256",
          "name": "",
          "type": "uint256"
        }
      ],
      "stateMutability": "view",
      "type": "function"
    },
    {
      "inputs": [],
      "name": "BulkOffersFlag",
      "outputs": [
        {
          "internalType": "uint256",
          "name": "",
          "type": "uint256"
        }
      ],
      "stateMutability": "view",
      "type": "function"
    },
    {
      "inputs": [],
      "name": "Business",
      "outputs": [
        {
          "internalType": "uint256",
          "name": "",
          "type": "uint256"
        }
      ],
      "stateMutability": "view",
      "type": "function"
    },
    {
      "inputs": [],
      "name": "Communications",
      "outputs": [
        {
          "internalType": "uint256",
          "name": "",
          "type": "uint256"
        }
      ],
      "stateMutability": "view",
      "type": "function"
    },
    {
      "inputs": [],
      "name": "CoutryCodeMask",
      "outputs": [
        {
          "internalType": "uint256",
          "name": "",
          "type": "uint256"
        }
      ],
      "stateMutability": "view",
      "type": "function"
    },
    {
      "inputs": [],
      "name": "CoutryCodeOffset",
      "outputs": [
        {
          "internalType": "uint256",
          "name": "",
          "type": "uint256"
        }
      ],
      "stateMutability": "view",
      "type": "function"
    },
    {
      "inputs": [],
      "name": "Creator",
      "outputs": [
        {
          "internalType": "uint256",
          "name": "",
          "type": "uint256"
        }
      ],
      "stateMutability": "view",
      "type": "function"
    },
    {
      "inputs": [],
      "name": "CustomToken",
      "outputs": [
        {
          "internalType": "uint256",
          "name": "",
          "type": "uint256"
        }
      ],
      "stateMutability": "view",
      "type": "function"
    },
    {
      "inputs": [],
      "name": "Distributor",
      "outputs": [
        {
          "internalType": "uint256",
          "name": "",
          "type": "uint256"
        }
      ],
      "stateMutability": "view",
      "type": "function"
    },
    {
      "inputs": [],
      "name": "EUCryptoExport",
      "outputs": [
        {
          "internalType": "uint256",
          "name": "",
          "type": "uint256"
        }
      ],
      "stateMutability": "view",
      "type": "function"
    },
    {
      "inputs": [],
      "name": "Education",
      "outputs": [
        {
          "internalType": "uint256",
          "name": "",
          "type": "uint256"
        }
      ],
      "stateMutability": "view",
      "type": "function"
    },
    {
      "inputs": [],
      "name": "EndUser",
      "outputs": [
        {
          "internalType": "uint256",
          "name": "",
          "type": "uint256"
        }
      ],
      "stateMutability": "view",
      "type": "function"
    },
    {
      "inputs": [],
      "name": "English",
      "outputs": [
        {
          "internalType": "uint256",
          "name": "",
          "type": "uint256"
        }
      ],
      "stateMutability": "view",
      "type": "function"
    },
    {
      "inputs": [],
      "name": "Entertainment",
      "outputs": [
        {
          "internalType": "uint256",
          "name": "",
          "type": "uint256"
        }
      ],
      "stateMutability": "view",
      "type": "function"
    },
    {
      "inputs": [],
      "name": "EntityIdMask",
      "outputs": [
        {
          "internalType": "uint256",
          "name": "",
          "type": "uint256"
        }
      ],
      "stateMutability": "view",
      "type": "function"
    },
    {
      "inputs": [],
      "name": "EntityIdOffset",
      "outputs": [
        {
          "internalType": "uint256",
          "name": "",
          "type": "uint256"
        }
      ],
      "stateMutability": "view",
      "type": "function"
    },
    {
      "inputs": [],
      "name": "EntityIsZero",
      "outputs": [
        {
          "internalType": "string",
          "name": "",
          "type": "string"
        }
      ],
      "stateMutability": "view",
      "type": "function"
    },
    {
      "inputs": [],
      "name": "EntityNotValidated",
      "outputs": [
        {
          "internalType": "string",
          "name": "",
          "type": "string"
        }
      ],
      "stateMutability": "view",
      "type": "function"
    },
    {
      "inputs": [],
      "name": "ExpirationFlag",
      "outputs": [
        {
          "internalType": "uint256",
          "name": "",
          "type": "uint256"
        }
      ],
      "stateMutability": "view",
      "type": "function"
    },
    {
      "inputs": [],
      "name": "ExpirationMask",
      "outputs": [
        {
          "internalType": "uint256",
          "name": "",
          "type": "uint256"
        }
      ],
      "stateMutability": "view",
      "type": "function"
    },
    {
      "inputs": [],
      "name": "ExpirationOffset",
      "outputs": [
        {
          "internalType": "uint256",
          "name": "",
          "type": "uint256"
        }
      ],
      "stateMutability": "view",
      "type": "function"
    },
    {
      "inputs": [],
      "name": "FeatureFlag",
      "outputs": [
        {
          "internalType": "uint256",
          "name": "",
          "type": "uint256"
        }
      ],
      "stateMutability": "view",
      "type": "function"
    },
    {
      "inputs": [],
      "name": "FlagsMask",
      "outputs": [
        {
          "internalType": "uint256",
          "name": "",
          "type": "uint256"
        }
      ],
      "stateMutability": "view",
      "type": "function"
    },
    {
      "inputs": [],
      "name": "FlagsOffset",
      "outputs": [
        {
          "internalType": "uint256",
          "name": "",
          "type": "uint256"
        }
      ],
      "stateMutability": "view",
      "type": "function"
    },
    {
      "inputs": [],
      "name": "French",
      "outputs": [
        {
          "internalType": "uint256",
          "name": "",
          "type": "uint256"
        }
      ],
      "stateMutability": "view",
      "type": "function"
    },
    {
      "inputs": [],
      "name": "German",
      "outputs": [
        {
          "internalType": "uint256",
          "name": "",
          "type": "uint256"
        }
      ],
      "stateMutability": "view",
      "type": "function"
    },
    {
      "inputs": [],
      "name": "Hazard",
      "outputs": [
        {
          "internalType": "uint256",
          "name": "",
          "type": "uint256"
        }
      ],
      "stateMutability": "view",
      "type": "function"
    },
    {
      "inputs": [],
      "name": "Hindi",
      "outputs": [
        {
          "internalType": "uint256",
          "name": "",
          "type": "uint256"
        }
      ],
      "stateMutability": "view",
      "type": "function"
    },
    {
      "inputs": [],
      "name": "Japanese",
      "outputs": [
        {
          "internalType": "uint256",
          "name": "",
          "type": "uint256"
        }
      ],
      "stateMutability": "view",
      "type": "function"
    },
    {
      "inputs": [],
      "name": "Korean",
      "outputs": [
        {
          "internalType": "uint256",
          "name": "",
          "type": "uint256"
        }
      ],
      "stateMutability": "view",
      "type": "function"
    },
    {
      "inputs": [],
      "name": "LimitationFlag",
      "outputs": [
        {
          "internalType": "uint256",
          "name": "",
          "type": "uint256"
        }
      ],
      "stateMutability": "view",
      "type": "function"
    },
    {
      "inputs": [],
      "name": "LimitedOffersFlag",
      "outputs": [
        {
          "internalType": "uint256",
          "name": "",
          "type": "uint256"
        }
      ],
      "stateMutability": "view",
      "type": "function"
    },
    {
      "inputs": [],
      "name": "Linux_aarch64",
      "outputs": [
        {
          "internalType": "uint256",
          "name": "",
          "type": "uint256"
        }
      ],
      "stateMutability": "view",
      "type": "function"
    },
    {
      "inputs": [],
      "name": "Linux_amd64",
      "outputs": [
        {
          "internalType": "uint256",
          "name": "",
          "type": "uint256"
        }
      ],
      "stateMutability": "view",
      "type": "function"
    },
    {
      "inputs": [],
      "name": "Linux_x86",
      "outputs": [
        {
          "internalType": "uint256",
          "name": "",
          "type": "uint256"
        }
      ],
      "stateMutability": "view",
      "type": "function"
    },
    {
      "inputs": [],
      "name": "Mac_amd64",
      "outputs": [
        {
          "internalType": "uint256",
          "name": "",
          "type": "uint256"
        }
      ],
      "stateMutability": "view",
      "type": "function"
    },
    {
      "inputs": [],
      "name": "Mac_arm64",
      "outputs": [
        {
          "internalType": "uint256",
          "name": "",
          "type": "uint256"
        }
      ],
      "stateMutability": "view",
      "type": "function"
    },
    {
      "inputs": [],
      "name": "Mandarin",
      "outputs": [
        {
          "internalType": "uint256",
          "name": "",
          "type": "uint256"
        }
      ],
      "stateMutability": "view",
      "type": "function"
    },
    {
      "inputs": [],
      "name": "Manufacturing",
      "outputs": [
        {
          "internalType": "uint256",
          "name": "",
          "type": "uint256"
        }
      ],
      "stateMutability": "view",
      "type": "function"
    },
    {
      "inputs": [],
      "name": "Marathi",
      "outputs": [
        {
          "internalType": "uint256",
          "name": "",
          "type": "uint256"
        }
      ],
      "stateMutability": "view",
      "type": "function"
    },
    {
      "inputs": [],
      "name": "NoResaleFlag",
      "outputs": [
        {
          "internalType": "uint256",
          "name": "",
          "type": "uint256"
        }
      ],
      "stateMutability": "view",
      "type": "function"
    },
    {
      "inputs": [],
      "name": "Nonprofit",
      "outputs": [
        {
          "internalType": "uint256",
          "name": "",
          "type": "uint256"
        }
      ],
      "stateMutability": "view",
      "type": "function"
    },
    {
      "inputs": [],
      "name": "NotApplicable",
      "outputs": [
        {
          "internalType": "uint256",
          "name": "",
          "type": "uint256"
        }
      ],
      "stateMutability": "view",
      "type": "function"
    },
    {
      "inputs": [],
      "name": "OfferNotFound",
      "outputs": [
        {
          "internalType": "string",
          "name": "",
          "type": "string"
        }
      ],
      "stateMutability": "view",
      "type": "function"
    },
    {
      "inputs": [],
      "name": "Other",
      "outputs": [
        {
          "internalType": "uint256",
          "name": "",
          "type": "uint256"
        }
      ],
      "stateMutability": "view",
      "type": "function"
    },
    {
      "inputs": [],
      "name": "Platform",
      "outputs": [
        {
          "internalType": "uint256",
          "name": "",
          "type": "uint256"
        }
      ],
      "stateMutability": "view",
      "type": "function"
    },
    {
      "inputs": [],
      "name": "Portuguese",
      "outputs": [
        {
          "internalType": "uint256",
          "name": "",
          "type": "uint256"
        }
      ],
      "stateMutability": "view",
      "type": "function"
    },
    {
      "inputs": [],
      "name": "ProductIdMask",
      "outputs": [
        {
          "internalType": "uint256",
          "name": "",
          "type": "uint256"
        }
      ],
      "stateMutability": "view",
      "type": "function"
    },
    {
      "inputs": [],
      "name": "ProductIdOffset",
      "outputs": [
        {
          "internalType": "uint256",
          "name": "",
          "type": "uint256"
        }
      ],
      "stateMutability": "view",
      "type": "function"
    },
    {
      "inputs": [],
      "name": "ProductNotFound",
      "outputs": [
        {
          "internalType": "string",
          "name": "",
          "type": "string"
        }
      ],
      "stateMutability": "view",
      "type": "function"
    },
    {
      "inputs": [],
      "name": "Professional",
      "outputs": [
        {
          "internalType": "uint256",
          "name": "",
          "type": "uint256"
        }
      ],
      "stateMutability": "view",
      "type": "function"
    },
    {
      "inputs": [],
      "name": "Punjabi",
      "outputs": [
        {
          "internalType": "uint256",
          "name": "",
          "type": "uint256"
        }
      ],
      "stateMutability": "view",
      "type": "function"
    },
    {
      "inputs": [],
      "name": "ReleaseIdMask",
      "outputs": [
        {
          "internalType": "uint256",
          "name": "",
          "type": "uint256"
        }
      ],
      "stateMutability": "view",
      "type": "function"
    },
    {
      "inputs": [],
      "name": "ReleaseIdOffset",
      "outputs": [
        {
          "internalType": "uint256",
          "name": "",
          "type": "uint256"
        }
      ],
      "stateMutability": "view",
      "type": "function"
    },
    {
      "inputs": [],
      "name": "Restricted",
      "outputs": [
        {
          "internalType": "uint256",
          "name": "",
          "type": "uint256"
        }
      ],
      "stateMutability": "view",
      "type": "function"
    },
    {
      "inputs": [],
      "name": "RicardianReqFlag",
      "outputs": [
        {
          "internalType": "uint256",
          "name": "",
          "type": "uint256"
        }
      ],
      "stateMutability": "view",
      "type": "function"
    },
    {
      "inputs": [],
      "name": "Russian",
      "outputs": [
        {
          "internalType": "uint256",
          "name": "",
          "type": "uint256"
        }
      ],
      "stateMutability": "view",
      "type": "function"
    },
    {
      "inputs": [],
      "name": "SourceCode",
      "outputs": [
        {
          "internalType": "uint256",
          "name": "",
          "type": "uint256"
        }
      ],
      "stateMutability": "view",
      "type": "function"
    },
    {
      "inputs": [],
      "name": "Spanish",
      "outputs": [
        {
          "internalType": "uint256",
          "name": "",
          "type": "uint256"
        }
      ],
      "stateMutability": "view",
      "type": "function"
    },
    {
      "inputs": [],
      "name": "System",
      "outputs": [
        {
          "internalType": "uint256",
          "name": "",
          "type": "uint256"
        }
      ],
      "stateMutability": "view",
      "type": "function"
    },
    {
      "inputs": [],
      "name": "Teluga",
      "outputs": [
        {
          "internalType": "uint256",
          "name": "",
          "type": "uint256"
        }
      ],
      "stateMutability": "view",
      "type": "function"
    },
    {
      "inputs": [],
      "name": "TokenEntityNoMatch",
      "outputs": [
        {
          "internalType": "string",
          "name": "",
          "type": "string"
        }
      ],
      "stateMutability": "view",
      "type": "function"
    },
    {
      "inputs": [],
      "name": "TokenNotUnique",
      "outputs": [
        {
          "internalType": "string",
          "name": "",
          "type": "string"
        }
      ],
      "stateMutability": "view",
      "type": "function"
    },
    {
      "inputs": [],
      "name": "TokenProductNoMatch",
      "outputs": [
        {
          "internalType": "string",
          "name": "",
          "type": "string"
        }
      ],
      "stateMutability": "view",
      "type": "function"
    },
    {
      "inputs": [],
      "name": "Tools",
      "outputs": [
        {
          "internalType": "uint256",
          "name": "",
          "type": "uint256"
        }
      ],
      "stateMutability": "view",
      "type": "function"
    },
    {
      "inputs": [],
      "name": "Turkish",
      "outputs": [
        {
          "internalType": "uint256",
          "name": "",
          "type": "uint256"
        }
      ],
      "stateMutability": "view",
      "type": "function"
    },
    {
      "inputs": [],
      "name": "USCryptoExport",
      "outputs": [
        {
          "internalType": "uint256",
          "name": "",
          "type": "uint256"
        }
      ],
      "stateMutability": "view",
      "type": "function"
    },
    {
      "inputs": [],
      "name": "UniqueIdMask",
      "outputs": [
        {
          "internalType": "uint256",
          "name": "",
          "type": "uint256"
        }
      ],
      "stateMutability": "view",
      "type": "function"
    },
    {
      "inputs": [],
      "name": "UniqueIdOffset",
      "outputs": [
        {
          "internalType": "uint256",
          "name": "",
          "type": "uint256"
        }
      ],
      "stateMutability": "view",
      "type": "function"
    },
    {
      "inputs": [],
      "name": "Unknown",
      "outputs": [
        {
          "internalType": "uint256",
          "name": "",
          "type": "uint256"
        }
      ],
      "stateMutability": "view",
      "type": "function"
    },
    {
      "inputs": [],
      "name": "ValueMask",
      "outputs": [
        {
          "internalType": "uint256",
          "name": "",
          "type": "uint256"
        }
      ],
      "stateMutability": "view",
      "type": "function"
    },
    {
      "inputs": [],
      "name": "ValueOffset",
      "outputs": [
        {
          "internalType": "uint256",
          "name": "",
          "type": "uint256"
        }
      ],
      "stateMutability": "view",
      "type": "function"
    },
    {
      "inputs": [],
      "name": "Vietnamese",
      "outputs": [
        {
          "internalType": "uint256",
          "name": "",
          "type": "uint256"
        }
      ],
      "stateMutability": "view",
      "type": "function"
    },
    {
      "inputs": [],
      "name": "Windows_aarch64",
      "outputs": [
        {
          "internalType": "uint256",
          "name": "",
          "type": "uint256"
        }
      ],
      "stateMutability": "view",
      "type": "function"
    },
    {
      "inputs": [],
      "name": "Windows_amd64",
      "outputs": [
        {
          "internalType": "uint256",
          "name": "",
          "type": "uint256"
        }
      ],
      "stateMutability": "view",
      "type": "function"
    },
    {
      "inputs": [],
      "name": "Windows_x86",
      "outputs": [
        {
          "internalType": "uint256",
          "name": "",
          "type": "uint256"
        }
      ],
      "stateMutability": "view",
      "type": "function"
    },
    {
      "inputs": [],
      "name": "Wu",
      "outputs": [
        {
          "internalType": "uint256",
          "name": "",
          "type": "uint256"
        }
      ],
      "stateMutability": "view",
      "type": "function"
    },
    {
      "inputs": [],
      "name": "iPhone_arm64",
      "outputs": [
        {
          "internalType": "uint256",
          "name": "",
          "type": "uint256"
        }
      ],
      "stateMutability": "view",
      "type": "function"
    },
    {
      "inputs": [],
      "name": "owner",
      "outputs": [
        {
          "internalType": "address",
          "name": "",
          "type": "address"
        }
      ],
      "stateMutability": "view",
      "type": "function"
    },
    {
      "inputs": [],
      "name": "renounceOwnership",
      "outputs": [],
      "stateMutability": "nonpayable",
      "type": "function"
    },
    {
      "inputs": [
        {
          "internalType": "address",
          "name": "newOwner",
          "type": "address"
        }
      ],
      "name": "transferOwnership",
      "outputs": [],
      "stateMutability": "nonpayable",
      "type": "function"
    },
    {
      "inputs": [],
      "name": "initialize",
      "outputs": [],
      "stateMutability": "nonpayable",
      "type": "function"
    },
    {
      "inputs": [
        {
          "internalType": "string",
          "name": "_a",
          "type": "string"
        },
        {
          "internalType": "string",
          "name": "_b",
          "type": "string"
        }
      ],
      "name": "stringsEqual",
      "outputs": [
        {
          "internalType": "bool",
          "name": "",
          "type": "bool"
        }
      ],
      "stateMutability": "pure",
      "type": "function"
    }
  ],
  "bytecode": "0x608060405234801561001057600080fd5b5061147d806100206000396000f3fe608060405234801561001057600080fd5b50600436106106045760003560e01c80637d3eb7f411610319578063b3be125f116101a7578063d9d1878f116100f9578063eecaa150116100a2578063fa16ab6c1161007c578063fa16ab6c14610767578063fa1ebe4f14610d63578063fd8e99251461095257600080fd5b8063eecaa150146107c4578063f2fde38b14610d48578063f8dc7bd114610d5b57600080fd5b8063db6474e6116100d3578063db6474e614610cfb578063e107846c14610b27578063ed53da0614610d3757600080fd5b8063d9d1878f14610cb6578063da04229814610ccf578063db4cacec14610ce057600080fd5b8063d09ab7471161015b578063d41661cf11610135578063d41661cf14610c82578063d582c16114610c93578063d813caaa14610cae57600080fd5b8063d09ab74714610c2b578063d2bd664214610c52578063d2f229e614610c7157600080fd5b8063bef8a74a1161018c578063bef8a74a14610c08578063cb523d1014610c23578063ccc08913146107d057600080fd5b8063b3be125f14610bdb578063b7e2ba2014610bec57600080fd5b80638f095db01161026b578063accf3c2911610214578063aec30958116101ee578063aec3095814610b98578063aedeab5914610bb3578063b193e09814610bcb57600080fd5b8063accf3c2914610b70578063ad6ba6e314610aba578063ad728f7814610b8c57600080fd5b806398823717116102455780639882371714610b2f5780639936a49614610b47578063a023c76e14610b6057600080fd5b80638f095db014610b0e578063905e8c1a14610b1f5780639075b7e914610b2757600080fd5b806389430c2a116102cd5780638da5cb5b116102a75780638da5cb5b14610aca5780638e914aaa14610ae55780638eace8f714610afe57600080fd5b806389430c2a14610a8a5780638c0a8ca914610aa25780638c3d835914610aba57600080fd5b806381ff1caf116102fe57806381ff1caf14610a455780638664265114610a61578063868b0bdf14610a7a57600080fd5b80637d3eb7f4146106dc5780638129fc1c14610a3d57600080fd5b8063450cd5261161049657806361b15655116103e85780636f5e1588116103915780637789e6c71161036b5780637789e6c7146109d4578063788ef387146109f057806379de4af514610a0157600080fd5b80636f5e1588146109a6578063715018a6146109ae5780637736e2e9146109b857600080fd5b80636d102daf116103c25780636d102daf146109525780636df5846d1461095a5780636e9658b51461099657600080fd5b806361b1565514610902578063648f854a146109255780636b379a031461093657600080fd5b806355b0f76e1161044a5780635fd9e683116104245780635fd9e683146108e1578063618ba8d5146108fa57806361b0af941461070b57600080fd5b806355b0f76e1461068c5780635b25084b1461088a5780635e3ee39e146108a557600080fd5b80634a715f1b1161047b5780634a715f1b14610841578063538c3b971461085a5780635501e25f1461087257600080fd5b8063450cd526146107f5578063498ed7701461080557600080fd5b806318bee97e1161055a5780632ffb7d281161050357806339dd6605116104dd57806339dd6605146107c4578063418cb077146107d057806344656968146107dc57600080fd5b80632ffb7d281461079757806334ef6a70146107b4578063385160ac146107bc57600080fd5b80632039d890116105345780632039d890146107675780632a332bad1461076f5780632b2a2a2c1461078b57600080fd5b806318bee97e1461070b5780631d325e63146107135780632023c5191461072b57600080fd5b80630e0d8cd9116105bc57806310b2f1ac1161059657806310b2f1ac146106c457806310b3ea4b146106dc57806313d19950146106e857600080fd5b80630e0d8cd91461068c5780630e20680a146106a557806310871b7c146106bc57600080fd5b80630bd7b8f2116105ed5780630bd7b8f2146106435780630cf645981461068c5780630dcda48a1461069457600080fd5b806304bc6dca146106095780630b6febeb14610624575b600080fd5b610611600581565b6040519081526020015b60405180910390f35b61061177ffff0000000000000000000000000000000000000000000081565b61067f6040518060400160405280601b81526020017f546f6b656e20656e7469747920646f6573206e6f74206d61746368000000000081525081565b60405161061b919061127e565b610611600081565b610611691000000000000000000081565b6106116fffffffffffffffffffffffffffffffff81565b61061160e081565b61061170100000000000000000000000000000000081565b61061164010000000081565b6106fb6106f6366004611376565b610d73565b604051901515815260200161061b565b610611600181565b61061170080000000000000000000000000000000081565b61067f6040518060400160405280601481526020017f456e74697479206e6f742076616c69646174656400000000000000000000000081525081565b610611600281565b6106117402000000000000000000000000000000000000000081565b61061164080000000081565b61061175ffff000000000000000000000000000000000000000081565b61061160c081565b610611608081565b61061164020000000081565b61061164040000000081565b6106117120000000000000000000000000000000000081565b6106116802000000000000000081565b61067f6040518060400160405280600d81526020017f456e746974794944207a65726f0000000000000000000000000000000000000081525081565b6106117104000000000000000000000000000000000081565b61061170400000000000000000000000000000000081565b61061170800000000000000000000000000000000081565b61061173ffffffff0000000000000000000000000000000081565b61067f6040518060400160405280601581526020017f546f6b656e4964206973204e4f5420756e69717565000000000000000000000081525081565b6106117140000000000000000000000000000000000081565b610611604081565b6106117bffffffff00000000000000000000000000000000000000000000000081565b610611690800000000000000000081565b6106117410000000000000000000000000000000000000000081565b61061160a081565b61067f6040518060400160405280600f81526020017f4f66666572206e6f7420666f756e64000000000000000000000000000000000081525081565b6106116820000000000000000081565b610611600781565b6109b6610e43565b005b6106117420000000000000000000000000000000000000000081565b6106117401000000000000000000000000000000000000000081565b610611690100000000000000000081565b61067f6040518060400160405280601181526020017f50726f64756374206e6f7420666f756e6400000000000000000000000000000081525081565b6109b6610eae565b6106117440000000000000000000000000000000000000000081565b6106117101000000000000000000000000000000000081565b6106116810000000000000000081565b61061170010000000000000000000000000000000081565b61061170020000000000000000000000000000000081565b6106116880000000000000000081565b6033546040516001600160a01b03909116815260200161061b565b6106117110000000000000000000000000000000000081565b6106116804000000000000000081565b610611692000000000000000000081565b610611600681565b610611600381565b61061170040000000000000000000000000000000081565b6106117108000000000000000000000000000000000081565b6106116801000000000000000081565b6106117408000000000000000000000000000000000000000081565b61061164100000000081565b61061173100000000000000000000000000000000000000081565b61061170200000000000000000000000000000000081565b6106116808000000000000000081565b610611698000000000000000000081565b6106117404000000000000000000000000000000000000000081565b61061173400000000000000000000000000000000000000081565b61061160b081565b6106117fffffffff0000000000000000000000000000000000000000000000000000000081565b61061177ffffffff000000000000000000000000000000000000000081565b610611690400000000000000000081565b61061169ffff000000000000000081565b61061173200000000000000000000000000000000000000081565b610611600481565b6106117102000000000000000000000000000000000081565b610611694000000000000000000081565b61061173800000000000000000000000000000000000000081565b61067f6040518060400160405280601f81526020017f546f6b656e2070726f6475637420696420646f6573206e6f74206d617463680081525081565b610611690200000000000000000081565b6109b6610d563660046113da565b610f23565b610611600881565b6106116840000000000000000081565b805182516000918491849114610d8e57600092505050610e3d565b60005b8251811015610e3557818181518110610dac57610dac61140a565b602001015160f81c60f81b7effffffffffffffffffffffffffffffffffffffffffffffffffffffffffffff1916838281518110610deb57610deb61140a565b01602001517fff000000000000000000000000000000000000000000000000000000000000001614610e235760009350505050610e3d565b80610e2d81611420565b915050610d91565b506001925050505b92915050565b6033546001600160a01b03163314610ea25760405162461bcd60e51b815260206004820181905260248201527f4f776e61626c653a2063616c6c6572206973206e6f7420746865206f776e657260448201526064015b60405180910390fd5b610eac6000610ffe565b565b6000610eba6001611068565b90508015610ed2576000805461ff0019166101001790555b610eda61119c565b8015610f20576000805461ff0019169055604051600181527f7f26b83ff96e1f2b6a682f133852f6798a09c465da95921460cefb38474024989060200160405180910390a15b50565b6033546001600160a01b03163314610f7d5760405162461bcd60e51b815260206004820181905260248201527f4f776e61626c653a2063616c6c6572206973206e6f7420746865206f776e65726044820152606401610e99565b6001600160a01b038116610ff95760405162461bcd60e51b815260206004820152602660248201527f4f776e61626c653a206e6577206f776e657220697320746865207a65726f206160448201527f64647265737300000000000000000000000000000000000000000000000000006064820152608401610e99565b610f20815b603380546001600160a01b038381167fffffffffffffffffffffffff0000000000000000000000000000000000000000831681179093556040519116919082907f8be0079c531659141344cd1fd0a4f28419497f9722a3daafe3b4186f6b6457e090600090a35050565b60008054610100900460ff1615611105578160ff16600114801561108b5750303b155b6110fd5760405162461bcd60e51b815260206004820152602e60248201527f496e697469616c697a61626c653a20636f6e747261637420697320616c72656160448201527f647920696e697469616c697a65640000000000000000000000000000000000006064820152608401610e99565b506000919050565b60005460ff8084169116106111825760405162461bcd60e51b815260206004820152602e60248201527f496e697469616c697a61626c653a20636f6e747261637420697320616c72656160448201527f647920696e697469616c697a65640000000000000000000000000000000000006064820152608401610e99565b506000805460ff191660ff92909216919091179055600190565b600054610100900460ff166112075760405162461bcd60e51b815260206004820152602b60248201527f496e697469616c697a61626c653a20636f6e7472616374206973206e6f74206960448201526a6e697469616c697a696e6760a81b6064820152608401610e99565b610eac600054610100900460ff166112755760405162461bcd60e51b815260206004820152602b60248201527f496e697469616c697a61626c653a20636f6e7472616374206973206e6f74206960448201526a6e697469616c697a696e6760a81b6064820152608401610e99565b610eac33610ffe565b600060208083528351808285015260005b818110156112ab5785810183015185820160400152820161128f565b818111156112bd576000604083870101525b50601f01601f1916929092016040019392505050565b634e487b7160e01b600052604160045260246000fd5b600082601f8301126112fa57600080fd5b813567ffffffffffffffff80821115611315576113156112d3565b604051601f8301601f19908116603f0116810190828211818310171561133d5761133d6112d3565b8160405283815286602085880101111561135657600080fd5b836020870160208301376000602085830101528094505050505092915050565b6000806040838503121561138957600080fd5b823567ffffffffffffffff808211156113a157600080fd5b6113ad868387016112e9565b935060208501359150808211156113c357600080fd5b506113d0858286016112e9565b9150509250929050565b6000602082840312156113ec57600080fd5b81356001600160a01b038116811461140357600080fd5b9392505050565b634e487b7160e01b600052603260045260246000fd5b60006001820161144057634e487b7160e01b600052601160045260246000fd5b506001019056fea264697066735822122026c6821d61dd269cad80d5e34b8f2239f8d8521b924bc4c6abd54eff0439eea964736f6c634300080e0033",
  "immutableReferences": {},
  "source": "pragma solidity >=0.7.6;\n\n// SPDX-License-Identifier: GPL-3.0-or-later\n\n// OpenZepellin upgradable contracts\nimport \"@openzeppelin/contracts-upgradeable/proxy/utils/Initializable.sol\";\nimport \"@openzeppelin/contracts-upgradeable/access/OwnableUpgradeable.sol\";\n\n/// @title Immutable String - common constants and string routines\n/// @author Sean Lawless for ImmutableSoft Inc.\n/// @dev StringCommon is string related general/pure functions\ncontract StringCommon is Initializable, OwnableUpgradeable\n{\n  // Entity Status\n  // Type is first 32 bits (bits 0 through 31)\n  uint256 public constant Unknown =         0;\n  uint256 public constant Creator =         1;\n  uint256 public constant Distributor =     2;\n  uint256 public constant EndUser =         3;\n\n  // Flags begin at bit 32 and go until bit 63\n  uint256 public constant Nonprofit =       (1 << 32);\n  uint256 public constant Automatic =       (1 << 33);\n  uint256 public constant CustomToken =     (1 << 34);\n\n  // Country of origin\n  uint256 public constant CoutryCodeOffset =64;\n  uint256 public constant CoutryCodeMask =  (0xFFFF << CoutryCodeOffset);\n\n  // Product Details\n  // Category is first 32 bits (bits 0 through 31)\n  uint256 public constant Tools =          0;\n  uint256 public constant System =         1;\n  uint256 public constant Platform =       2;\n  uint256 public constant Education =      3;\n  uint256 public constant Entertainment =  4;\n  uint256 public constant Communications = 5;\n  uint256 public constant Professional =   6;\n  uint256 public constant Manufacturing =  7;\n  uint256 public constant Business =       8;\n  // Room here for expansion\n\n  // Flags begin at bit 32 and go until bit 63\n  uint256 public constant Hazard =         (1 << 32);\n  uint256 public constant Adult =          (1 << 33);\n  uint256 public constant Restricted =     (1 << 34);\n  // Distribution restricted by export laws of orgin country?\n  uint256 public constant USCryptoExport = (1 << 35);\n  uint256 public constant EUCryptoExport = (1 << 36);\n\n  // Languages begin at bit 64 and go until bit 127\n  //   Ordered by percentage of native speakers\n  //   https://en.wikipedia.org/wiki/List_of_languages_by_number_of_native_speakers\n  uint256 public constant Mandarin =       (1 << 64);\n  uint256 public constant Spanish =        (1 << 65);\n  uint256 public constant English =        (1 << 66);\n  uint256 public constant Hindi =          (1 << 67);\n  uint256 public constant Bengali =        (1 << 68);\n  uint256 public constant Portuguese =     (1 << 69);\n  uint256 public constant Russian =        (1 << 70);\n  uint256 public constant Japanese =       (1 << 71);\n  uint256 public constant Punjabi =        (1 << 71);\n  uint256 public constant Marathi =        (1 << 72);\n  uint256 public constant Teluga =         (1 << 73);\n  uint256 public constant Wu =             (1 << 74);\n  uint256 public constant Turkish =        (1 << 75);\n  uint256 public constant Korean =         (1 << 76);\n  uint256 public constant French =         (1 << 77);\n  uint256 public constant German =         (1 << 78);\n  uint256 public constant Vietnamese =     (1 << 79);\n  // Room here for 47 additional languages (bit 127)\n  // Bits 128 - 255 Room here for expansion\n  //   Up to 128 additional languages for example\n\n  // Product Release Version\n  // Version is first four 16 bit values (first 64 bits)\n  // Version 0.0.0.0\n\n  // Language bits from above form bits 64 to 127\n\n  // The Platform Type begins at bit 128 and goes until bit 159\n  uint256 public constant Windows_x86 =    (1 << 128);\n  uint256 public constant Windows_amd64 =  (1 << 129);\n  uint256 public constant Windows_aarch64 =(1 << 130);\n  uint256 public constant Linux_x86 =      (1 << 131);\n  uint256 public constant Linux_amd64 =    (1 << 132);\n  uint256 public constant Linux_aarch64 =  (1 << 133);\n  uint256 public constant Android_aarch64 =(1 << 134);\n  uint256 public constant iPhone_arm64 =   (1 << 135);\n  uint256 public constant BIOS_x86 =       (1 << 136);\n  uint256 public constant BIOS_amd64 =     (1 << 137);\n  uint256 public constant BIOS_aarch32 =   (1 << 138);\n  uint256 public constant BIOS_aarch64 =   (1 << 139);\n  uint256 public constant BIOS_arm64 =     (1 << 140);\n  uint256 public constant Mac_amd64 =      (1 << 141);\n  uint256 public constant Mac_arm64 =      (1 << 142);\n  // Room here for expansion\n\n  // End with general types\n  uint256 public constant SourceCode =     (1 << 156);\n  uint256 public constant Agnostic =       (1 << 157);\n  uint256 public constant NotApplicable =  (1 << 158);\n  uint256 public constant Other =          (1 << 159);\n  // Room for expansion up to value (255 << 152) (last byte of type)\n\n  // Bits 160 through 256 are available for expansion\n\n  // Product License Activation Flags\n  \n  // Flags begin at bit 160 and go until bit 191\n  uint256 public constant ExpirationFlag =     (1 << 160); // Activation expiration\n  uint256 public constant LimitationFlag =     (1 << 161); // Version/language limitations\n                                                    // Cannot be used with feature\n  uint256 public constant NoResaleFlag =       (1 << 162); // Disallow resale after purchase\n                                                    // Per EU \"first sale\" law, cannot\n                                                    // be set if expiration NOT set\n  uint256 public constant FeatureFlag =        (1 << 163); // Specific application feature\n                                                    // ie. Value is feature specific\n                                                    // CANNOT be used with Limitation\n                                                    // flag\n\n  uint256 public constant LimitedOffersFlag =  (1 << 164); // Limited number of offers\n                                                    // UniqueId is used for number\n                                                    // Offer flag only, not used in\n                                                    // activate token id\n  uint256 public constant BulkOffersFlag =     (1 << 165); // Limited number of offers\n                                                    // UniqueId is used for number\n                                                    // Offer flag only, not used in\n                                                    // activate token id. Cannot be\n                                                    // used with LimitedOffersFlag\n  uint256 public constant RicardianReqFlag =   (1 << 166); // Ricardian client token\n                                                    // ownership required before\n                                                    // transfer or activation is allowed\n\n  // Offset and mask of entity and product identifiers\n  uint256 public constant EntityIdOffset = 224;\n  uint256 public constant EntityIdMask =  (0xFFFFFFFF << EntityIdOffset);\n  uint256 public constant ProductIdOffset = 192;\n  uint256 public constant ProductIdMask =  (0xFFFFFFFF << ProductIdOffset);\n\n  // CreatorToken only: Release id 32 bits\n  uint256 public constant ReleaseIdOffset = 160;\n  uint256 public constant ReleaseIdMask =  (0xFFFFFFFF << ReleaseIdOffset);\n\n  // ActivateToken only: 16 bits to enforce unique token\n  uint256 public constant UniqueIdOffset = 176;\n  uint256 public constant UniqueIdMask =  (0xFFFF << UniqueIdOffset);\n\n  // Flags allow different activation types and Value layout\n  uint256 public constant FlagsOffset = 160;\n  uint256 public constant FlagsMask =  (0xFFFF << FlagsOffset);\n\n  // Expiration is common, last before common 128 bit Value\n  uint256 public constant ExpirationOffset = 128;\n  uint256 public constant ExpirationMask = (0xFFFFFFFF <<\n                                     ExpirationOffset);\n\n  // If limitation flag set, the Value is entirely utilized\n/* NOT USED BY SMART CONTRACTS - Dapp only - here for reference\n  // Bits 64 - 127 are for language (as defined above)\n  uint256 public constant LanguageOffset = 64;\n  uint256 public constant LanguageMask =  (0xFFFFFFFFFFFFFFFF <<\n                                    LanguageOffset);\n\n  // Final 64 bits of value is version (4 different 16 bit values)\n  uint256 public constant LimitVersionOffset = 0;\n  uint256 public constant LimitVersionMask =  (0xFFFFFFFFFFFFFFFF <<\n                                        LimitVersionOffset);\n*/\n\n  // The value is the 128 LSBs\n  //   32 bits if limitations flag set (96 bits version/language)\n  //   All 128 bits if limitations flag not set\n  //   \n  uint256 public constant ValueOffset = 0;\n  uint256 public constant ValueMask =  0xFFFFFFFFFFFFFFFFFFFFFFFFFFFFFFFF;\n\n  // Error strings\n  string public constant EntityIsZero = \"EntityID zero\";\n  string public constant OfferNotFound = \"Offer not found\";\n  string public constant EntityNotValidated = \"Entity not validated\";\n\n  string public constant ProductNotFound = \"Product not found\";\n\n  string public constant TokenEntityNoMatch = \"Token entity does not match\";\n  string public constant TokenProductNoMatch = \"Token product id does not match\";\n  string public constant TokenNotUnique = \"TokenId is NOT unique\";\n\n  /// @notice Initialize the StringCommon smart contract\n  ///   Called during first deployment only (not on upgrade) as\n  ///   this is an OpenZepellin upgradable contract\n  function initialize() public initializer\n  {\n    __Ownable_init();\n/*\n  constructor() Ownable()\n  {\n*/\n  }\n\n/*\n  /// @notice Convert a base ENS node and label to a node (namehash).\n  /// ENS nodes are represented as bytes32.\n  /// @param node The ENS subnode the label is a part of\n  /// @param label The bytes32 of end label\n  /// @return The namehash in bytes32 format\n  function namehash(bytes32 node, bytes32 label)\n    public pure returns (bytes32)\n  {\n    return keccak256(abi.encodePacked(node, label));\n  }\n\n  /// @notice Convert an ASCII string to a normalized string.\n  /// Oversimplified, removes many legitimate characters.\n  /// @param str The string to normalize\n  /// @return The normalized string\n  function normalizeString(string memory str)\n    public pure returns (string memory)\n  {\n    bytes memory bStr = bytes(str);\n    uint j = 0;\n    uint i = 0;\n\n    // Loop to count number of characters result will have\n    for (i = 0; i < bStr.length; i++) {\n      // Skip if character is not a letter\n      if ((bStr[i] < 'A') || (bStr[i] > 'z') ||\n          ((bStr[i] > 'Z') && (bStr[i] < 'a')))\n        continue;\n      ++j;\n    }\n\n    // Allocate the resulting string\n    bytes memory bLower = new bytes(j);\n\n    // Loop again converting characters to normalized equivalent\n    j = 0;\n    for (i = 0; i < bStr.length; i++)\n    {\n      // Skip if character is not a letter\n      if ((bStr[i] < 'A') || (bStr[i] > 'z') ||\n          ((bStr[i] > 'Z') && (bStr[i] < 'a')))\n        continue;\n\n      // Convert uppercase to lower\n      if ((bStr[i] >= 'A') && (bStr[i] <= 'Z')) {\n        // So we add 32 to make it lowercase\n        bLower[j] = bytes1(uint8(bStr[i]) + 32);\n      } else {\n        bLower[j] = bStr[i];\n      }\n      ++j;\n    }\n    return string(bLower);\n  }\n*/\n\n  /// @notice Compare strings and return true if equal.\n  /// Case sensitive.\n  /// @param _a The string to be compared\n  /// @param _b The string to compare\n  /// @return true if strings are equal, otherwise false\n  function stringsEqual(string memory _a, string memory _b)\n    public pure virtual returns (bool)\n  {\n    bytes memory a = bytes(_a);\n    bytes memory b = bytes(_b);\n\n    // Return false if length mismatch\n    if (a.length != b.length)\n      return false;\n\n    // Loop and return false if any character does not match\n    for (uint i = 0; i < a.length; i ++)\n      if (a[i] != b[i])\n        return false;\n\n    // Otherwise strings match so return true\n    return true;\n  }\n\n/*\n  /// @notice Convert a string to a bytes32 equivalent.\n  /// Case sensitive.\n  /// @param source The source string\n  /// @return the bytes32 equivalent of 'source'\n  function stringToBytes32(string memory source)\n    public pure returns (bytes32 result)\n  {\n    bytes memory tempEmptyStringTest = bytes(source);\n    if (tempEmptyStringTest.length == 0)\n      return 0x0;\n\n    assembly\n    {\n      result := mload(add(source, 32))\n    }\n  }\n*/\n}\n",
  "sourcePath": "C:\\Users\\slawl\\Source\\github\\ImmutableEcosystem\\contracts\\StringCommon.sol",
  "compiler": {
    "name": "solc",
    "version": "0.8.14+commit.80d49f37.Emscripten.clang"
  },
  "schemaVersion": "3.4.16",
  "updatedAt": "2024-01-20T00:17:24.819Z",
  "devdoc": {
    "author": "Sean Lawless for ImmutableSoft Inc.",
    "details": "StringCommon is string related general/pure functions",
    "kind": "dev",
    "methods": {
      "owner()": {
        "details": "Returns the address of the current owner."
      },
      "renounceOwnership()": {
        "details": "Leaves the contract without owner. It will not be possible to call `onlyOwner` functions anymore. Can only be called by the current owner. NOTE: Renouncing ownership will leave the contract without an owner, thereby removing any functionality that is only available to the owner."
      },
      "stringsEqual(string,string)": {
        "params": {
          "_a": "The string to be compared",
          "_b": "The string to compare"
        },
        "returns": {
          "_0": "true if strings are equal, otherwise false"
        }
      },
      "transferOwnership(address)": {
        "details": "Transfers ownership of the contract to a new account (`newOwner`). Can only be called by the current owner."
      }
    },
    "title": "Immutable String - common constants and string routines",
    "version": 1
  },
  "userdoc": {
    "kind": "user",
    "methods": {
      "initialize()": {
        "notice": "Initialize the StringCommon smart contract   Called during first deployment only (not on upgrade) as   this is an OpenZepellin upgradable contract"
      },
      "stringsEqual(string,string)": {
        "notice": "Compare strings and return true if equal. Case sensitive."
      }
    },
    "version": 1
  }
}